:020000040000FA
:0600000002011A0214B116
:03002B000219BAFD
:030053000215276C
:03006B0002136C11
:100083000213B3E5C754F84401F5C7790122000010
:100093000080FB120086B90003020104E4791D7895
:1000A30002B800028004F709D8FCE479217802B889
:1000B30000028004F709D8FCE490028178F67906FF
:1000C3008002F0A3D8FCD9FA781C90014A7A01BACD
:1000D30000028007E493A3F608DAF97A767B0890A6
:1000E300014B78CB79018015E493A3AD82AE838A6B
:1000F300828B83F0A3AA82AB838D828E83D8E9D9C6
:10010300E775824A758375740012012C75829175A7
:100113008300740012012C75D000758133751A8128
:10012300751B02759F00020096C09FF59FE473D074
:100133009F22D083D082C09FE493C0E0740193C018
:10014300E0740293F59F2201FFFFFFFFFFFFFFFF14
:10015300FFFF1900013075030201040000000000D5
:10016300000000000000000000000000000000008C
:1001730000000000000000FF0000B4000028002879
:1001830000283075A000A000A000A000000800080F
:10019300E001F0001000100010001000100010002B
:1001A30050005000500010001000D0070000000065
:1001B30000000F000100050030750700100001006A
:1001C30081FF00000000FFF9021703FF0225042549
:1001D30004250425042504250425042504250425D4
:1001E30004250425042504FFFF000A09436C696DF7
:1001F3006153656E73020A0002010412FF0D0000D1
:1002030000000000000000000000000000001F07C5
:100213000000120135ED31001201352932001201BF
:1002230035473200120135BE32001201352D33003D
:100233001201354333001201355933001201357C65
:100243003300120135B63300120135933600120123
:1002530035A23600120135E83600120135013700A8
:10026300120135333700120135A33700120135F27D
:1002730037001201350538001201351C3800120110
:10028300351E38001201352C3800120135E81900EB
:10029300120135201C001201355F1C00120135E6E6
:1002A3001D00120135AC1E00120135A420001201FD
:1002B30035315600120135EF5700120135C8580089
:1002C300120135AC7000120135D4700012013501F2
:1002D3007100120135397100120135EE72001201FD
:1002E300350573001201359D3E00120135483F006C
:1002F300120135993F00120135494000120135BA08
:1003030040001201359F4100120135D34100120113
:1003130035CC4200120135094300120135E5430093
:100323001201352444001201354044001201357294
:1003330076001201358376001201353D6800120103
:1003430035656800120135B96800120135CE6800C1
:10035300120135E368001201354469001201358743
:100363006900120135B16900120135D66900120125
:1003730035175900120135FA5900120135BB6E00C9
:10038300120135FE6E00120135912A001201352744
:100393002C00120135FD2C001201359F2D00120196
:1003A30035122E00120135B02F00120135EC2F004B
:1003B300120135773100120135095E00120135D182
:1003C3005E00120135296000120135553800120113
:1003D30035D638001201350339001201354839008A
:1003E3001201353F3A001201358D3A0012013509E9
:1003F3003C00120135863C00120135EB3C00120132
:10040300355C3D001201354A3E00120135773E004E
:100413001201359A6C00120135A66C001201357A6F
:100423006D00120135DD190012013535230012016B
:1004330035642300120135502400120135B2250022
:10044300120135C62800120135B02900120135FE0C
:100453002900120135182A001201354E2A00120113
:1004630035882A001201359952001201352F5300A5
:100473001201354553001201359E5300120135E236
:1004830053001201351C5400120135B454001201FB
:10049300352355001201352C55001201353855000E
:1004A3001201356555001201357A5500120135DC0C
:1004B3005500120135035600120135536000120135
:1004C300356060001201357A6000120135AD6000BD
:1004D3001201351261001201352761001201353214
:1004E30061001201353F61001201355661001201AE
:1004F300356461001201356F61001201357E6100C0
:100503001201359B6100120135AB6100120135C147
:100513006100120135DD6100120135E8610012014D
:1005230035FD6100120135116200120135C37400FB
:10053300120135EF7400120135537600120135793B
:1005430071001201358A71001201352D72001201FA
:10055300359D7500120135DC75001201358C76006E
:1005630012013538720012013548720012013557F5
:100573007200120135E87200120135B96D001201E3
:10058300353C6E00120135A26E001201359F7600D4
:10059300120135A27600120135F87F001201356988
:1005A3006600120135D967001201353A680012015D
:1005B30035FE69001201353B6A001201355F6A009E
:1005C3001201358E6A00120135FF6A00120135A649
:1005D3004900120135ED4900120135434A00120169
:1005E30035604A00120135A54A00120135CE4A0092
:1005F300120135E34A00120135534B00120135E075
:100603004B00120135344C00120135574C001201D6
:1006130035D64C00120135114D00120135464D00FF
:10062300120135584D00120135774D001201358006
:100633004D00120135347400120135756B0012013F
:10064300359D6B00120135B66F001201357E6200D5
:10065300120135B46200120135E762001201354020
:100663006400120135957300120135AB730012015A
:1006730035B57300120135097400120135E67500B2
:10068300120135A144001201355B45001201359D6D
:100693004500120135FD45001201354746001201A0
:1006A300359C46001201352747001201359D48004D
:1006B3001201352D490012013593490012013537D6
:1006C3004E001201354D4E00120135EE4E0012015F
:1006D300352D4F001201354A4F001201357B4F0073
:1006E300120135C84F00120135FB4F001201353698
:1006F30050001201353152001201357A64001201A3
:1007030035B764001201350665001201353A6500FC
:10071300120135B35B00120135495C00120135C784
:100723005C00120135E85C00120135375D001201EF
:1007330035585D00120135A25D00120135AC5D0034
:10074300120135B65D00120135D25D00120135DCB0
:100753005D00120135EF5D00120135277600E0667A
:10076300701008A3E066700A08A3E066700408A38B
:10077300E06622C3E7960809E7960809E7960809A1
:10078300E79622C3E09608A3E09608A3E09608A3A1
:10079300E09622C008C3E096F50808A3E096420855
:1007A30008A3E096420808A3E09645087001D3D059
:1007B3000822080808E630E711120E5D1207CD087B
:1007C3000808C64480C618181822181818E9799E14
:1007D300C608CAC608CBC608CCC6C370207996CA59
:1007E300CBCC7019798ECBCC70137986CC700EF983
:1007F300802ACA33CACB33CBCC33CC331930E7F29C
:10080300CCCBCA3350147004EA30E00DE4CA3ACAC0
:10081300CB3BCBCC3CCC500209C3E913C6CC182349
:1008230013C6CB18C6CA18C6F92212086D20F014D5
:1008330030E72B74FFFCFBFA747F8022E4FCFBFAA5
:100843007480801AB48008BC00F2BB00EF800F50A4
:10085300EBF9E4C39AFAE49BFBE49CFCE499C6CC71
:1008630018C6CB18C6CA18C6F922E4C9C608CAC630
:1008730008CBC6D3330308CCC63392F0C3947F406E
:100883002E94184019C9B90704CACBCC225025C3EA
:1008930009CA33CACB33CBCC33CC33D9F422F4607B
:1008A3000DC9CCC313CB13CBCA13CAD9F6CC22E4DC
:1008B300FCFBFA2214FCFBFA22E62618461846181B
:1008C3004622E72719471947194722181818E60837
:1008D30046087009E626087005E633F42208221953
:1008E3001919E70947097009E727097005E733F480
:1008F300220922E6084608C3134608336002E6339A
:10090300F422E7094709C3134709336002E733F4C5
:10091300221208F6601C12090560171208BC700742
:100923001208C57001D322C0D01208C57006D0D0FA
:10093300B322C32233D0D0501430E0F6C3E7960875
:1009430009E7960809E7960809E796B32220E0D558
:10095300E6970809E6970809E6970809E697B32298
:100963001208F6601B12090560161208BC70071204
:1009730008C5600CB322C0D01208C57005D0D022C0
:10098300C32233D0D0501330E0EBC3E7960809E716
:10099300960809E7960809E7962220E0E4E6970817
:1009A30009E6970809E6970809E69722001208F670
:1009B300604F1209056012E7548066F61208CE7084
:1009C300111208C5703B090909F4F618F618F61850
:1009D300F6221208E270151208BC08080860EAE65D
:1009E300447FF618768018E4F618F6221208BC60E5
:1009F300161208C57012E4F608F608F608E65480E5
:100A0300F609090918181822EAC0E0EBC0E0ECC0A7
:100A1300E0EDC0E0E687F0A4FBACF008E687F0A4C5
:100A23002CFCE435F0FA1809E687F0A42C4B60029D
:100A33007401CA35F0FCE433FB09E687F0D2F7A46E
:100A43002CCB35F0FC1908E687F0A42BCC35F0FB52
:100A5300E433FD0819E687F0D2E7A42C4ACB35F03E
:100A6300CD3400FC09E687F0D2E7A42DCC35F0FDA8
:100A7300E433FA0918E687F0D2F7A42CCD35F0CA8F
:100A83003400FC08E687F0D2E7D2F7A42ACC35F08D
:100A93007A7E20E70B0ACB33CBCD33CDCC33CC33AB
:100AA300CB3350147004ED30E00ED2F1E4CD3DCDE4
:100AB300CC3CCC3B5005DA05C2F1EB547FC633087E
:100AC300E63392F0FBE73309E733C39A502D2B70DB
:100AD300190C0D4C4D70151806E608C333700D2024
:100AE300F10AA2F013F6E418800B4024E4F630F088
:100AF30002768018F618F618F68024D33B145010AB
:100B030074FFA2F013F6187680E418F618F6800F37
:100B1300A2F013F618E63303F618ECF618EDF6D048
:100B2300E0FDD0E0FCD0E0FBD0E0FA221209056042
:100B3300461208F6603DE9687008F618F618F618CC
:100B4300F622748067F7120B63090909748067F74B
:100B5300221208F6601D1209057005191919801A69
:100B63001208CE701F1208E2C37003E66733191927
:100B73001940071818182208080874FFF618F61801
:100B8300F618F6221208E260171208C5702192F0D7
:100B93001208BC7019501720F01408080809090935
:100BA300E7F61819E7F61819E7F61819E7F6221207
:100BB30008BC60E6E869701F0808E62480F608E4CC
:100BC30036F618547FB47F0CE654806007F6E418B9
:100BD300F618F622181822E9C6CC08C6CD08C6CEE8
:100BE30008C6CFC0E0E8C0E0EAC0E0EBC0E009E936
:100BF300F809E7FA09E7FBE6F918E6F8C3EC98ED1C
:100C030099EE9AEBC2E7F5F0EFC2E795F0500E606C
:100C13000CEBCFFBEACEFAE9CDF9E8CCF8EAA2E790
:100C2300D2E7FAEB33FB13F5F0EEA2E7D2E7FEEFE0
:100C330033FFC5F013A2E730E601B313C5F0C3C019
:100C4300E0C0F07F00C39BFB605E9418600F401D03
:100C530014601AD0E023F9D0E0F8020D358AF0E9E8
:100C6300486003D2F0E4AFF0FAF9F8803BEB30E4EC
:100C73000D89F0EA6003D2F0E4AFF0F9CAF8EB3083
:100C8300E30D88F0EF6002D2F0AFF0E4CAC9F8EBED
:100C930054076014FBC3EA13FAE913F9E813F8EFF6
:100CA300135002D2E0FFDBEDD0E0C0E030E739C300
:100CB300E49FFFF5F0EC98FC42F0ED99FD42F0EE75
:100CC3009AFE42F0D0E0F9D0E0F8E5F0607AE9234B
:100CD300F9EE20E742D8028067C3EF33FFEC33FC21
:100CE300ED33FDEE33FE80EAEC28FCED39FDEE3A00
:100CF300FED0E023F9D0E0F84002801BC3EE13FEE0
:100D0300ED13FDEC13FCEF135002D2E0FF08B80023
:100D1300067F7F74FF802EEF3350178CF020F00294
:100D230060100CBC000C0DBD00080EBE000408E8EA
:100D330060DFE933E813FFEE2313FE4F4D4C8008C9
:100D4300E95480FFE4FEFDFCEE33EF33F47004FC62
:100D5300FD7E80D0E0FBD0E0FAD0E0F8D0E0CFC653
:100D630018CEC618CDC618CCC6F922080808EAC0A2
:100D7300E0EBC0E086F0E7A4FA180986F0E7A42ABE
:100D8300FA180986F0E7A42AFA180986F0E7A42AD4
:100D9300FA1986F0E7A4FBE5F02AFA190886F0E7CA
:100DA300A42BFBE5F03AFA190886F0E7A42BFBE540
:100DB300F03AFA18180986F0E7A4C5F02BFBE43AD9
:100DC300FA1908E7C5F0C6A426F6E5F03BFBE43ABA
:100DD300FA1886F0E7A4F6E5F00826F6E43B08F6F1
:100DE300E43A08F6D0E0FBD0E0FA22E4CFC0E0E436
:100DF300CEC0E0E4CDC0E0E4CCC0E075F020E62650
:100E0300F608E633F608E633F608E633F61818185C
:100E1300EC33FCED33FDEE33FEEF33FFC3EC970908
:100E2300ED9709EE9709EF97191919400FFFEC9702
:100E3300FC09ED97FD09EE97FE191906D5F0BFECF5
:100E4300F709EDF709EEF709EFF7191919D0E0FCE7
:100E5300D0E0FDD0E0FED0E0FF22181818E4C396DE
:100E6300F608E496F608E496F608E496F622601788
:100E7300080808C6A2E713C618C613C618C613C6C1
:100E830018C613C6D5E0E9226016080808C6C313BE
:100E9300C618C613C618C613C618C613C6D5E0EAC5
:100EA300227009080808226016181818C6C333C62A
:100EB30008C633C608C633C608C633C6D5E0EA2219
:100EC300E627F60809E637F60809E637F60809E6DD
:100ED30037F622E026F608A3E036F608A3E036F656
:100EE30008A3E036F622E026F008A3E036F008A3D4
:100EF300E036F008A3E036F022C3E697F60809E6E9
:100F030097F60809E697F60809E697F622C3E0C6BE
:100F130096F608A3E0C696F608A3E0C696F608A3DD
:100F2300E0C696F622C3E096F008A3E096F008A385
:100F3300E096F008A3E096F022E056F608A3E05608
:100F4300F608A3E056F608A3E056F622E647F608AD
:100F530009E647F60809E647F60809E647F622E0F8
:100F6300F608A3E0F608A3E0F608A3E0F622E6F00D
:100F730008A3E6F008A3E6F008A3E6F022E0FAA34C
:100F8300E0FBA3E0FCA3E0FD22E0F8A3E0F9A3E08B
:100F9300FAA3E0FB22E8F0A3E9F0A3EAF0A3EBF065
:100FA30022CAC0E0E6F0A308DAFAD0E0FA22CAC007
:100FB300E0E0A3C582CCC582C583CDC583F0A3C5BC
:100FC30082CCC582C583CDC583DAE6D0E0CA22B917
:100FD3000010BB0008E88AF084F8AAF022E4FBC8FA
:100FE300FA22EB70227B10C833C8C933C9335007C8
:100FF300C39AC3DBF280069A50012ADBEAC833F4B2
:10100300C8C933F4C9FA2275F008E4C833C8C93330
:10101300C933C99AC99B5004C92AC93BD5F0ECFB13
:10102300C833F4C8E4C9FA22600D08C6A2E713C6A0
:1010330018C613C6D5E0F322600C08C6C313C6183E
:10104300C613C6D5E0F422700422600D18C6C3335C
:10105300C608C633C6D5E0F41822251A10AF08F522
:101063001A400C151B8008F51A4002151BD2AF223B
:1010730000C0D0251A10AF08F51A500C051B8008C4
:10108300F51A5002051BD2AFD0D022251AF58210D3
:10109300AF08F51A400C151B8008F51A4002151B02
:1010A300D2AF851B8322251AF582E4351BF58322F3
:1010B300251AF8E4351BF922251AFAE4351BFB221D
:1010C300251AFCE4351BFD22E473251AC582C0E012
:1010D300E51B34FFC583C0E0E51AC3958224F810ED
:1010E300AF0885831B85821A800885831B85821A36
:1010F300D2AFCEF0A3E520F0A37808E608F0A3DE94
:10110300FAEFF0A3E58124FAF8E608F0A3E608F085
:10111300A3E608F0A30808E608F0A3E608F0A31581
:10112300811581D0E0FED0E0F8158115811581E8A5
:10113300C0E0EEC0E022251AC582C0E0E51B34FF03
:10114300C583C0E0E51AC3958224F910AF088583EF
:101153001B85821A800885831B85821AD2AFCEF045
:10116300A3E520F0A37808E608F0A3DEFAEFF0A3E6
:10117300E58124FBF8E608F0A3E608F0A30808E6F7
:1011830008F0A3E608F0A315811581D0E0FED0E0B6
:10119300F815811581E8C0E0EEC0E022851B838548
:1011A3001A82E0A3FEE0A3F5207808E0A3F608DFA7
:1011B300FAE0A3FFE0A3C0E0E0A3C0E0E0A3C0E047
:1011C300E0A3C0E0E0A3C0E010AF0885821A8583E6
:1011D3001B800885821A85831BD2AFD083D08202FD
:1011E3000132851B83851A82E0A3FEE0A3F52078F4
:1011F30008E0A3F608DFFAE0A3FFE0A3C0E0E0A362
:10120300C0E0E0A3C0E0E0A3C0E010AF0885821A0D
:1012130085831B800885821A85831BD2AFD083D038
:101223008222C0D0251AC582C0E0E51B34FFC583E6
:10123300C0E0E51AC3958224F310AF0885831B85AC
:10124300821A800885831B85821AD2AFC8F0A3E96E
:10125300F0A3EAF0A3EBF0A37908E709F0A3D8FA27
:10126300ECF0A3EDF0A3EEF0A3EFF0A3D0E0F0A336
:10127300D0E0F0A3D0E0F0A3E520F0A3E5F0F0A3E5
:1012830022851B83851A82E0C0E0A3E0F9A3E0FA7C
:10129300A3E0FBA37808E0F608A3DFFAE0FCA3E0F1
:1012A300FDA3E0FEA3E0FFA3E0C0E0A3E0C0E0A352
:1012B300E0F5D0A3E0F520A3E0A3F5F010AF088597
:1012C300831B85821A800885831B85821AD2AFD03F
:1012D30082D083D0E0F8D0E03274048006740280B8
:1012E300027401C0E0F40412108ED0E0120FA422A5
:1012F3007404800474028000CCC0E0EDC0E0E51A01
:10130300C39CCCAD1B50011D10AF068C1A8D1B80E6
:10131300068C1A8D1BD2AF120FB1D0E0FDD0E0FCCA
:1013230022D083D082E9C0E0E493A3C386F0C5F062
:1013330095F0F908E493A386F0C5F095F0700BE4FB
:1013430093A3C3994005E9048002A3E475F002A4C2
:101353002582F582E5F03583F583D0E0F9E493A3A4
:07136300C0E0E493C0E022AA
:10136C00C0E074F2121225A2AFE433FED2AFA28514
:10137C0050217A01790212075579051207317A004A
:10138C00790212075579017AE87B031202695389B5
:10139C00DFC2C5751C00EEA2E092AF7F0102128481
:1013AC00851D87851EC622C0E074EF121225A2AFE0
:1013BC00E433FEC2AF759B00906182E0A2E050095D
:1013CC00E591A2E050037591FEE0A2E55009E5918C
:1013DC00A2E550037591DFE0A2E64003021487E515
:1013EC0091A2E640030214877591BF900329E06433
:1013FC0005700812049112049D8003120497751D48
:10140C00001204F1E990032AF079001204E51203AA
:10141C00DD7A017B00900328E0F912061190780325
:10142C00E0644270569003A4E014F0704EC2AF1208
:10143C00143E007822D0E0F618D0E0F6E59F540771
:10144C00F870057509FF800375097FC4C0E0782129
:10145C00E6F50808E65509F509740B780812103BF7
:10146C00D0E02508F8906270E0A2E740F8E8C333BA
:10147C00906272F0906270E0D2E0F0906181E0A234
:10148C00E35009E5E9A2E3500375E9F7A3E0A2E70D
:10149C005009E591A2E7500375917FEEA2E092AF5F
:1014AC007F04021284C0E0C0D0C082C083906183EC
:1014BC00E0A2E05009E5BFA2E0500375BFFEE0A238
:1014CC00E15009E5BFA2E1500375BFFDE0A2E25077
:1014DC0009E5BFA2E2500375BFFBE0A2E35009E5AA
:1014EC00BFA2E3500375BFF7E0A2E45009E5BFA229
:1014FC00E4500375BFEFE0A2E55009E5BFA2E5504B
:10150C000375BFDFE0A2E65009E5BFA2E650037504
:10151C00BFBFD083D082D0D0D0E032C0E074F21202
:10152C001225E5A7A2E6500FE5A1A2E6500953A7A4
:10153C00BF75A1BF12157BE5A7A2E5500CE5A1A2D2
:10154C00E5500653A7DF75A1DFE5A7A2E15009E539
:10155C00A1A2E1500375A1FDE5A7A2E2500CE5A103
:10156C00A2E2500653A7FB75A1FB7F010212847403
:10157C00F7121139751D01900329E06406701512DC
:10158C00044F8A828B83A3A3A3A3A3A3E0FAA3E0B3
:10159C00FB12047FA2AFE433FED2AF90032FE064C2
:1015AC000170187A207B00900328E0F91206E37A88
:1015BC00207B00900328E0F9120617906182E0D29C
:1015CC00E6F09003A1E0602185C61E801690032EE4
:1015DC00E064017008E5C654F84405F5C653BEFC3A
:1015EC001213AC7401651D60E4EEA2E092AF7F02B1
:1015FC000211E574E912113974FA12105DEAFEEB6E
:10160C00FF8C0A8D0B1204AFEAF8EBF9ECFAEDFB48
:10161C008E828F83120F98900329E024F7C39405D0
:10162C00500675140102176612044F8A088B09EADA
:10163C0045097003021763EEFCEFFDAA1AAB1B12EF
:10164C0004A9850882850983A3A3780C120F6290E4
:10165C008070780C120F3C851A82851B83781012CF
:10166C000F629080707810120F3C780C7910120772
:10167C0076501F780C7910120EFC908088780C1222
:10168C0007964047850C14850D15850E16850F178A
:10169C008045908088851014851115851216851348
:1016AC00177814790C120EFC7814120796501C75CE
:1016BC001400751500751600751701781479101241
:1016CC000EFC7814790C120EC3800C751401751570
:1016DC000075160075170074097814120EA490800A
:1016EC008C780C120F627814790C120DEE8508822E
:1016FC00850983A3A3A3A3A3A3121784120FD288D3
:10170C000C890DE4F50EF50F7814790C120EC374D8
:10171C00041210A9121784120FD2E8FA8A0CE4F5FD
:10172C000D7814790C12077650077814790C120E78
:10173C00FC900329E06408600AE064066005E0643C
:10174C000570209080907814120796501690809413
:10175C007814120ED6800C751400751500751600D1
:10176C00751700850A82850B837814120F71740625
:10177C001210737F100211E5E0F8A3E0F97AD07B28
:10178C00032274F71211391204C190039FE0640113
:10179C007010906245E4F0A3F053F4F343FE0C5345
:1017AC0090F312046DE5C654B84441F5C6E59E5459
:1017BC0047644170F8906185740FF090039DE0F4DC
:1017CC007002A3E0604E90039EE0600814601B144E
:1017DC00602E804075080175090090039DE0780823
:1017EC0012104AE508F45280802A75080175090028
:1017FC0090039DE0780812104AE508F4529080148A
:10180C0075080175090090039DE0780812104AE5EF
:10181C0008F452A079007F020211E574F712113915
:10182C00E9FEEAFF1204C174016E700C7A807B0031
:10183C00900328E0F91206119019E0E493F4600883
:10184C00E493F91203D1800953C6B8E59E5447704E
:10185C00FA12047390039FE0640170031203EF907B
:10186C00039DE0F47002A3E0604B90039EE06008DF
:10187C0014601A14602C803D7508017509009003E2
:10188C009DE0780812104AE508428080287508010E
:10189C0075090090039DE0780812104AE508429003
:1018AC00801375080175090090039DE078081210EB
:1018BC004AE50842A012044F8A088B09A808A90916
:1018CC00E8496014E5E170FCE82414F582E439F58C
:1018DC0083E0F46003E0F5E174016F700A7A019023
:1018EC000328E0F912067102182274F11211398AD8
:1018FC00088B098C0A8D0B9080707808120F3C7441
:10190C000F1210A9780C120F62908070780C120FC5
:10191C003C7808790C1207769080885010780879FA
:10192C000C120EFC78081207964014800E780C7975
:10193C0008120EFC780C120796500479018002797B
:10194C00007F080211E574ED1211398A088B098C9D
:10195C000A8D0B9080707808120F3C74131210A92A
:10196C00780C120F62908070780C120F3C780C7906
:10197C000812077640117808790C120EFCAA08ABF5
:10198C0009AC0AAD0B8022751000751100751200A0
:10199C007513017810790C120EFC78107908120E60
:1019AC00C3AA10AB11AC12AD137F0C0211E5C0E051
:1019BC00C0D0E8C0E0A8A8D2AFC2C7751C00E8A28E
:1019CC00E792AFD0E0F8D0D0D0E032C2AF02000046
:1019DC0022020132FFFFFFFFFFFFFFFF74F6121020
:1019EC00CD74E512105D798112021B851A82851B5C
:1019FC008374F2F074011210A97401121C5170035B
:101A0C00021B86851A82851B8374F4F074011210F4
:101A1C00A97424121C517003021B86851A82851B23
:101A2C008374F5F074011210A9E4121C51700302B6
:101A3C001B86851A82851B837488121DCE70030247
:101A4C001B8674021210C37A187976120221740262
:101A5C001210A9E0FA74031210A9E0F9EA90028AB4
:101A6C00121C1B74041210A9E0FA74051210A9E0E0
:101A7C00F9EA90028C121C1B74061210A9E0FA747D
:101A8C00071210A9E0F9EA90028E121C1B740812BE
:101A9C0010A9E0FA74091210A9E0F9EA9002901268
:101AAC001C1B740A1210A9E0FA740B1210A9E0F9AD
:101ABC00EA900292121C1B740C1210A9E0FA740D1D
:101ACC001210A9E0F9EA900294121C1B740E121069
:101ADC00A9E0FA740F1210A9E0F9EA900296121C10
:101AEC001B74101210A9E0FA74111210A9E0F9EA93
:101AFC00900298121C1B74121210A9E0FA741312A3
:101B0C0010A9E0F9EA90029A121C1B74141210A985
:101B1C00E0FA74151210A9E0F9EA90029C121C1B51
:101B2C0074161210A9E0FA74171210A9E0F9EA90D1
:101B3C00029E121C1B74181210A9E0FA74191210D0
:101B4C00A9E0F9EA9002A0121C1B851A82851B835E
:101B5C0074A1121DCE602374021210C37A0179761F
:101B6C0012022174021210A9E09002A2F0851A82CE
:101B7C00851B8374E1121DCE70057900021C117453
:101B8C00021210C37A07797612022174021210A97C
:101B9C00E0FA74031210A9E0F8E4C8F9EA9002A381
:101BAC00121C1B74041210A9E09002A5F07406120A
:101BBC0010A9E0FA74051210A9E0F508880974045C
:101BCC00780812104AEA54F0F8E508489002A6F09A
:101BDC00A3E509F0EAC4540FFA74071210A9E0F552
:101BEC00087509007404780812104AEA4508900236
:101BFC00A8F0A3E509F074081210A9E09002AAF06D
:101C0C0012022D7901741B1210737F0202119FF0C6
:101C1C00A3E9F02274F71210CD74FE12105D121DA0
:101C2C00B274F4F074011210A97425121C51FE1236
:101C3C00022DEE7004790080027901740212107387
:101C4C007F0102119FF0AC1AAD1B7A027976120259
:101C5C0027E92274E81210CD74F312105D740B1284
:101C6C0010A9EAF0A3EBF0ECFEEDFF121DB274F735
:101C7C00121DCE70057900021DAE74011210C37ACC
:101C8C0009797612022174041210A9121DBCF50BED
:101C9C00740C7808120EA474051210A9E0F50CE46B
:101CAC00F50DF50EF50F7404780C120EA478087966
:101CBC000C120F4F74061210A9E0C4540FF50CE46B
:101CCC00F50D7808790C120F4FAA08AB09AC0A7DF8
:101CDC000012029F8A0C8B0D74071210A9121DBCE6
:101CEC0074087808120EA474081210A912208D74AE
:101CFC00047810120EA478087910120F4FAA08ABB2
:101D0C00097C007D001202A58A108B118C128D1398
:101D1C0074011210A9E0F508E4F509740C780812A6
:101D2C000EA474021210A912208274047814120EDC
:101D3C00A478087914120F4F74031210A9E0C4543C
:101D4C000FF514E4F51578087914120F4FAA08ABA7
:101D5C0009AC0A7D001202AB8A088B098C0A8D0B28
:101D6C00740B1210A9121DC5E50CF0A3E50DF0784B
:101D7C001012082D8E828F83E510F0A3E511F090E0
:101D8C008024780C120F627808790C120DEE7425F1
:101D9C001210A9121DC5E508F0A3E509F012022DD9
:101DAC007901740D802C120233851A82851B8322D3
:101DBC00E0F508E4F509F50A22E0F8A3E0F58388DC
:101DCC008222F0AC1AAD1B7A017976120227E92235
:101DDC0074041210737F1002119F74EC1210CD8AD0
:101DEC000C8B0D8C0E8D0F90028AE0F508A3E0F59C
:101DFC0009E4F50AF50B8A108B118C128D137404FF
:101E0C007810120E7178107908120EFC7403780C8D
:101E1C00120E71047808120EA4780C7908120EFCBC
:101E2C0090028C1222EC120D6E740B780C120E7147
:101E3C0085100885110985120A85130B780879100D
:101E4C00120D6E740C7808120E7190028E1222FA1A
:101E5C0078087910120D6E740E7808120E71780CC9
:101E6C007908120EC39002AB780C120F719002AB72
:101E7C007808120F6290802C780C120F6278087917
:101E8C000C120D6E9080307808120ED674087808FB
:101E9C00120E71AA08AB09AC0AAD0B7F0C02119F94
:101EAC0074E81210CD8A0C8B0D8C0E8D0F9002AB3A
:101EBC007808120F6278081207B5908034781012E7
:101ECC000F6278087910120B54780C1207B5C00CFD
:101EDC00C00DC00EC00F9002A612209E1207B59026
:101EEC0080387810120F62780C79101209AF9002BA
:101EFC00A81220981207B59080287810120F6278DB
:101F0C001479101209AF781479081209AF780C798A
:101F1C0014120B54D013D012D011D0107810790C9D
:101F2C00120B2FC010C011C012C0139002A31220AC
:101F3C009E1207B590803C7810120F62780C7910C5
:101F4C001209AFC00CC00DC00EC00F9002AAE0F574
:101F5C000C3395E0F50DF50EF50F780C1207B590D6
:101F6C0080407810120F62780C79101209AF780C3F
:101F7C0079081209AF9002A512208278141207D0AA
:101F8C009080407810120F62781479101209AF7893
:101F9C001479081209AF9080787808120F627814BF
:101FAC007908120B54780C79141209AF9080787858
:101FBC0008120F62780C7908120B54D013D012D07F
:101FCC0011D0107810790C1209AFD00BD00AD009AF
:101FDC00D008780879101209AF750C00750D0075D2
:101FEC000E80750F3F9002A212208D78101207D030
:101FFC00781079081209AF9080487814120F627823
:10200C001079141209AF780C7910120B2F780C7907
:10201C00081209AF850C08850D09850E0A850F0B72
:10202C0090804C780C120F627808790C12091450BD
:10203C000E750800750900750AC8750B42801D9055
:10204C008050780C120F627808790C120963500CCE
:10205C00750800750900750A00750B00908054789E
:10206C000C120F627808790C1209AFAA08AB09ACF4
:10207C000AAD0B021DE1E0F514E4F515F516F517A4
:10208C0022E0F510E4F511F512F513221223117864
:10209C0014221222BD780C2274E81210CD74FC129A
:1020AC00105D122320780C120F627401780C120E42
:1020BC0071908058780C120ED6850C10850D1185F8
:1020CC000E12850F1374027810120E71850C088590
:1020DC000D09850E0A850F0B74027808120E7178A3
:1020EC00107908120D6E85100885110985120A8564
:1020FC00130B740B7808120E7190029A12230912AA
:10210C000D6EC008C009C00AC00B850C08850D09EE
:10211C00850E0A850F0B900298122309120D6E740E
:10212C00017808120EA4D017D016D015D01478143C
:10213C007908120EC374027814120E719002961262
:10214C0022D974107808120EA478147908120EC3D0
:10215C009002941222D9740D7810120E71780879AD
:10216C0010120D6E74037808120E719002921222E6
:10217C00F4790C120D6E74017810120E71780879C6
:10218C0010120EC374127808120E7190805C7808CD
:10219C00120ED69002901222CC7808790C120D6E89
:1021AC00740F7808120E7185080C85090D850A0EBE
:1021BC00850B0FE50C450D450E450F700B7A007B1A
:1021CC00007C007D000222BA75100075110075129A
:1021DC0010751300851A82851B837810120F1074EA
:1021EC000C7814120E7178107914120EFC90806019
:1021FC007808120F6278107908120D6E908064784E
:10220C0010120796401074017810120EA4781079F1
:10221C000C120DEE800E7810790C120DEE74017804
:10222C0010120EA48510148511158512168513171E
:10223C0074037814120E8B9002A01222BD85140820
:10224C0085150985160A85170B78087914120D6EF9
:10225C00740D7808120E8B780C7908120D6E740CB4
:10226C00780C120E7185100885110985120A8513D8
:10227C000B74027808120E8B90029E122309120D19
:10228C006E740D7808120E71780C7908120EC390CA
:10229C00029C1222EC120EC37404780C120E71788C
:1022AC0010790C120EC3AA10AB11AC12AD13021D97
:1022BC00DCE0F50CA3E0F50D3395E0F50EF50F22FF
:1022CC00E0F50CA3E0F50DE4F50EF50F221222DD7E
:1022DC0022E0F508A3E0F5093395E0F50AF50B22A9
:1022EC001222DD780C7908221222FA781022E0F5FD
:1022FC0010A3E0F5113395E0F512F513221223111A
:10230C007808791422E0F514A3E0F5153395E0F57F
:10231C0016F51722851A82851B83EAF0A3EBF0A32E
:10232C00ECF0A3EDF09002AB22C082C0839003AB23
:10233C00E4F09003AA74FFF09003C7E4F09003C696
:10234C0074FFF09003A7F09003A6E4F09003A5F0BF
:10235C009003A8F0A30229F674F41210CD9003A8F0
:10236C00E0F508A3E0F509E508450970061203DD60
:10237C0002244B850882850983E014600A146007E7
:10238C0024FE600302244BE0F912043D8A0A8B0BF5
:10239C00AE0AAF0BEE65087003EF650970030224FB
:1023AC00488E828F83E06401600302244B1203F594
:1023BC001204A38A088B098C0A8D0B908024780850
:1023CC00120ED678081212DC8E828F83A3A3120F02
:1023DC00801218F67404121073E970561204A38A52
:1023EC00088B098C0A8D0B90806C7808120ED69095
:1023FC0080707808120F3C8E828F83A3A37808120A
:10240C000F71900329E0640270258E828F83A3A341
:10241C007808120F629080807808120ED690807027
:10242C007808120F3C1225987808120F718003124D
:10243C0029989003A77401F0EEFAEFFB1204377F92
:10244C000402119F74F01210CDEAFEEBFFEE240291
:10245C00F8E43FF988088909EE2406F8E43FF98886
:10246C000A890B8882F5831212F785088285098305
:10247C00120F801204857402121073850A82850B68
:10248C00831212F7850882850983120F8012047952
:10249C007402121073122598120F8012048B8E8204
:1024AC008F83E06440701BEE2412F8E43FF98882BD
:1024BC008983E0906064F088828983A3E0906065F2
:1024CC008006906064E4F0A3F09003A8EEF0A3EF14
:1024DC001229A5E0F8A3E0F58388821210CB906056
:1024EC0054E41225A6A31225A6906182E0C2E6F060
:1024FC007591BF12298EE0640170031204C1E5E1ED
:10250C0070FC12297EE0F46003E0F5E1122988F0FA
:10251C0090032FE06401706F1204A38A088B098C5E
:10252C000A8D0B78081212DC8E828F83A3A3120FF4
:10253C008012195274041210738A088B098C0A8D3C
:10254C000B90802C780C120F627808790C120D6E9F
:10255C0074037808120E8BE50824F4F508E50934A9
:10256C0001F5099003A1E06003120647E4F50AF5B2
:10257C000B78081212DC7A207B00900328E0F91209
:10258C0006D774041210737F0802119F12259C2227
:10259C00EE240EF582E43FF58322F0A3F0A3F0A322
:1025AC00F0A3F0A3F02274F01210CD890874FF652B
:1025BC0008706E9003A6E0540770030228AC7904EF
:1025CC00120455E9640170047904800C7901120439
:1025DC0055E964017008790112045B0228B0790294
:1025EC00120455E96401703978009003AAE0640282
:1025FC007006A3E06401601678019003C6E06402E3
:10260C007006A3E0640160067A007B008010E87518
:10261C00F01CA4F8A9F074AA28FA740339FB022858
:10262C00B078009003AAE065087006A3E06401602E
:10263C001678019003C6E065087006A3E06401609B
:10264C00067E007F008010E875F01CA4F8A9F074D9
:10265C00AA28FE740339FFA908120455E964017015
:10266C00057509018003750900E5081460101470E4
:10267C000302274824FE70030227BE0228AC79020D
:10268C00120455E96401706978009003AAE06402B1
:10269C007006A3E06401601878019003C6E0640240
:1026AC007006A3E064016008750A00750B008003D6
:1026BC001228B3E509A2E05031850A82850B83A369
:1026CC00A3780C120F62908084780C120ED6780CC2
:1026DC001212DC8E828F83A3A3120F801218F67451
:1026EC0004121073E970030228A6AA0AAB0B022885
:1026FC00B07904120455E96401702E78009003AA95
:10270C00E064047006A3E06401601878019003C6CD
:10271C00E064047006A3E064016008750A00750BA0
:10272C000080031228B30227F3E509A2E05006EE5D
:10273C00FAEFFB80047A007B000228B079041204C3
:10274C0055E96401702D78009003AAE064047006CA
:10275C00A3E06401601878019003C6E0640470067D
:10276C00A3E064016008750A00750B0080791228DB
:10277C00B380747901120455E964017022780090D9
:10278C0003AAE064017006A3E0640160577801902D
:10279C0003C6E064017045A3E064016047803DE539
:1027AC0009A2E05006EEFAEFFB80047A007B0002EF
:1027BC0028B07901120455E9640170677800900320
:1027CC00AAE064017006A3E064016018780190032C
:1027DC00C6E064017006A3E064016008750A007528
:1027EC000B0080031228B3E509A2E040030226F691
:1027FC00850A82850B83A3A3780C120F62908084C8
:10280C00780C120ED6780C1212DC8E828F83A3A356
:10281C00120F801218F67404121073E9600302266A
:10282C00F680777902120455E9640170677800909C
:10283C0003AAE064027006A3E064016018780190BA
:10284C0003C6E064027006A3E064016008750A0028
:10285C00750B0080031228B3E509A2E040030226A1
:10286C00F6850A82850B83A3A3780C120F629080E5
:10287C0084780C120ED6780C1212DC8E828F83A305
:10288C00A3120F801218F67404121073E96003027D
:10289C0026F68006E509A2E05006EEFAEFFB80046E
:1028AC007A007B00022593E875F01CA4F8A9F0745B
:1028BC00AA28F50A740339F50B2274F71210CD8986
:1028CC00087A007EAA7F038E828F83A3E0600302C6
:1028DC0029648E828F83E0F460109003A8E0F8A343
:1028EC00E0F9EE687002EF69606E8E828F83E50806
:1028FC00F01204A3EAF8EBF9ECFAEDFB8E828F836D
:10290C00A3A3120F988E828F83A3A3A3A3A3A3E4E4
:10291C00F0A3F012299812297E7401F01229881262
:10292C0029A5E4F0A3F08E828F83A304F09003A674
:10293C00E04508F09003A5E004F06401600C74809D
:10294C00650860067440650870089003A8EEF0A353
:10295C00EFF0EEFAEFFB80150AEE241CFE50010F8F
:10296C00EAC3940250030228D37A007B007F010251
:10297C00119FEE2414F582E43FF5832212298E7404
:10298C000122EE2415F582E43FF5832212259C7476
:10299C00FFF0A3F0A3F0A3F022F0EE241AF582E4EA
:1029AC003FF58322C082C0838A828B83E0F8A3E048
:1029BC00F98A828B83E4F0A3F088828983A3F08860
:1029CC00828983E0F4F89003A6E058F09003A5E028
:1029DC0014F070149003A8E4F0A3F0900329F0FA1B
:1029EC00900328E0F91206718001F0D083D08202A6
:1029FC000132C082C0839003A5E0600A9003A8E076
:102A0C00FAA3E0FB80047A007B0080DFC082C083E5
:102A1C00E9FB78009003AAE06B7016E875F01CA433
:102A2C00F8A9F074AB28F582740339F583E0F980CA
:102A3C000B78019003C6E06B60E1790080ADE0F9A2
:102A4C0080A9C082C0837A009003AAE0697018A3A1
:102A5C00E064017012EA75F01CA4FAABF074AA2AB7
:102A6C00FA74033BFB80127A019003C6E06970068E
:102A7C00A3E0640160DF1A7B000229F7C082C083E7
:102A8C009003A580B974F41210CDE9900328F012CC
:102A9C0004BB907800E0C4540F54076403700479AD
:102AAC003F8002797F75080675090078081212E0DC
:102ABC007C167D037AEA7B0712057B740212107375
:102ACC00900316E0F47049A3E0F47044A3E0F470B2
:102ADC003FA3E0F4703AA3E0F47035A3E0F4703057
:102AEC0090780EE0900316F090780FE0900317F0BA
:102AFC00907810E0900318F0907811E0900319F0A2
:102B0C00907812E090031AF0907813E090031BF089
:102B1C0090031C122C1E1231BC90033A7406F0A3C5
:102B2C00740D122DFE7442F0A37401F09003441244
:102B3C002C1E900343E4F0900351F0A374A0122DCB
:102B4C00FE7403F0A37407122DFE7428122DFE04DC
:102B5C00F0A3E4F090037AF090039D74FFF0A3E4EB
:102B6C00F090039FF09003A104F09003A27490F0F6
:102B7C00A37401F01203E912039512046779017A28
:102B8C00A47B031204199003A4E075F01484E5F0FF
:102B9C0004F012041F7A00900328E0F912067190D9
:102BAC007803E0644270569003A4E014F0704EC2B7
:102BBC00AF122BC0007822D0E0F618D0E0F6E59FDB
:102BCC005407F870057509FF800375097FC4C0E0D0
:102BDC007821E6F50808E65509F509740B78081212
:102BEC00103BD0E02508F8906270E0A2E740F8E8CE
:102BFC00C333906272F0906270E0D2E0F090033FC9
:102C0C00E4F0A3F07A80FB900328E0F9120611029D
:102C1C002DEC74FF122E04F0A3F02274F41210CDDC
:102C2C00EAFEEBFFEEA2E0503F90032AE0C3948053
:102C3C00E0500F25E0F8E433F974FB28F5827408B2
:102C4C00800EF425E0F8E433F9740928F582740950
:102C5C0039F58312316E1210CB7A00900328E0F90B
:102C6C00120671EE6401803B5480603B9003A2120B
:102C7C002DF1E849602A790012066B9003A2E0F569
:102C8C0008A3E0F509E4F50AF50B78081212DC7AD2
:102C9C00007B01900328E0F91206D774041210731C
:102CAC00EE6480FAEF802DEF5401600C790112066E
:102CBC006BEEFAEF6401801CEF5402600AC2AF7530
:102CCC00C9AB75C95B80FEEF5404600B1219D7EECB
:102CDC00FAEF6404FB801790032FE06401700BEE95
:102CEC0054206006EE6420FA80047A007B00022DEA
:102CFC00ECC082C083C2AF120497E5E170FC75E1B1
:102D0C00011203D775E1F11204C71203CB79071234
:102D1C000515790112051B79021204EB1204FD1240
:102D2C000509790012050F790112050F90806812C0
:102D3C000F801204D3900351E4F0A3F0A3F090039E
:102D4C00557407F09003547403F090035AE4F09018
:102D5C000359F090037AF012042B12040D7900122F
:102D6C000521906012E4F0A3F0906063F0751D00F3
:102D7C00900329F090032BF0A3F090032EF0900316
:102D8C002F04F090033904F09003A0E4F0D2AFF9D3
:102D9C00022DE5C082C083900316122DF790031705
:102DAC00122DD1F0900318122DD1A3F0900319120B
:102DBC002DD1A3A3F090031A122DD8F090031B125F
:102DCC002DD8A38011E08A828B83A322E08A828B88
:102DDC0083A3A3A3A322F07900D083D08202013273
:102DEC007F0402119FE0F8A3E0F922E08A828B8332
:102DFC00F022F0A3E4F0A322F0A3F0A3F0A3F0A33D
:102E0C00227F0202119F74F71210CDEAFEEBFF89AC
:102E1C0008E9605D74016508601574036508603B22
:102E2C00740265086035740465086003022EE7744B
:102E3C000B1210A9122DF1E8497003022EE7740A47
:102E4C001210A9E0F860087401686003022EE774A0
:102E5C00036508600674026508702AEE2460F8EFBA
:102E6C00122FA05076EC2460F8ED122FA0401680A3
:102E7C006AEE24E0F8EF122F955060EC24E0F8EDA8
:102E8C00122F955056C3EC9EED9F404F74091210B3
:102E9C00A9E0FA600574016A7041740E1210A9E081
:102EAC00F8600F740168600A740268600574036846
:102EBC007029740D1210A9E0F9740759601D900364
:102ECC0051E064017005790C022F93E508600C74D5
:102EDC0001650860067404650870057912022F9369
:102EEC00740759900355F0E508900354F0E89003EB
:102EFC0056F0EA900343702FE4F0900316E0900331
:102F0C0044F0900317E0900345F0900318E0900311
:102F1C0046F0900319E0900347F090031AE09003F9
:102F2C0048F090031B802E7401F090031CE090037A
:102F3C0044F090031DE0900345F090031EE09003D5
:102F4C0046F090031FE0900347F0900320E09003BD
:102F5C0048F0900321E0900349F0E8700479008078
:102F6C001974016870047901801074026870047916
:102F7C0002800774036870057903120503900352ED
:102F8C00EEF0A3EFF07900801634FFF9C3E894E17A
:102F9C00E9943F2234FFF9C3E89461E9943F227F1E
:102FAC000102119F74F61210CDE9FEC39420500B50
:102FBC00EE90035AF0601EEA4B70047912801E12D8
:102FCC0031B31212E0EAFCEBFD7A5B7B031205CF06
:102FDC0074021210739003597401F07900022E0DD3
:102FEC0074F41210CDE9FF900329E0640970030218
:102FFC0030F7E0640A70030230F7E0640B700302F0
:10300C0030F7E0640C70030230F7E0640D700302DB
:10301C0030F7900354E0601664016012E0640360C2
:10302C000DE064026008E06404600302316A9003FE
:10303C0043E060076401600302316A900354E0646A
:10304C00036005E064027010900352C3E094A0A3E7
:10305C00E09400500302316A900354E07003023193
:10306C006A6401700302316AE06404700302316A1D
:10307C00EF700302310314600302316A900351E0D4
:10308C00640160677901120443900341EAF0A3EBF9
:10309C00F09003517401F0900329E070551204A3D1
:1030AC008A088B098C0A8D0B90806C7808120ED6CE
:1030BC009080707808120F3C90034112316EA3A3DC
:1030CC007808120F71900341E0F8A3E0C82406F5CC
:1030DC0082E438F583E4F0A3F01203F5E960107A8A
:1030EC00417B03120449900351E4F07921800512CD
:1030FC0004317900022DEC900351E060EEA2AFE4B4
:10310C0033FEC2AF7A417B03120449900351E4F0C1
:10311C00120461E97041120497906182E0C2E6F0FA
:10312C00E5E170FC75E1017591BF75E1F190032F3C
:10313C00E0640170187A207B00900328E0F91206F5
:10314C00E37A207B00900328E0F91206177A0090AE
:10315C000328E0F9120671EEA2E092AF8094791286
:10316C008092E0F8A3E0F58388822274F61210CDE9
:10317C00E9FEC39420500BEE90037AF0601EEA4BEC
:10318C0070047912801E1231B31212E0EAFCEBFDCE
:10319C007A7B7B031205CF7402121073900359745F
:1031AC0001F07900022E0DE0F5087509007808226F
:1031BC00900316E0900322F0900317E0900323F0A5
:1031CC00900318E0900324F0900319E0900325F08D
:1031DC0090031AE0900326F090031BE0900327F075
:1031EC0022C082C083123325E0D2E5F0E0A2E35086
:1031FC00FBE0C2E5F0A3E064086005E06410700E2B
:10320C00E9C3334AA3F0123325E0A2E350FB9062EA
:10321C0031E0F98001F0D083D082020132C082C04B
:10322C0083906234740CF0906233E4F0906230E07E
:10323C00547CF0E049F0E0444480DA74F51210CD8F
:10324C008A0AECFEEDFF7508007A01120215E9649A
:10325C00407049E50AC394024008906230E0D2E223
:10326C008010E50A60367401650A7007906230E0E0
:10327C00C2E2F0123325E0A2E350FB906232E08E02
:10328C00828F83F0A3AE82AF830508150A9062315A
:10329C00E0645060CDE0645860021508906230E044
:1032AC00D2E4F0123328E0A2E440FBA9087F030229
:1032BC00119F74F61210CD8A08ECFEEDFF7A001205
:1032CC000215E9641860037508007800800108E8AD
:1032DC00C39508502E8E828F83E0906232F08E82DE
:1032EC008F83A3AE82AF83123325E0A2E350FBA3FE
:1032FC00E0642860D9E064307007740128F5088018
:10330C00028808906230E0D2E4F0123328E0A2E4A4
:10331C0040FBA9087F0202119F906230E0C2E3F0EB
:10332C0022C082C083906230E0900282F0906233BF
:10333C00E0900281023221C082C083900282E09030
:10334C006230F0900281E090623302322174F71205
:10335C0010CDE9900283F012026F12024B9080C0E4
:10336C001212F37A011237261210737F0102119F89
:10337C00C082C0831202571206FBE9900284F0123D
:10338C00028DE9900285F0900284E070081205B17C
:10339C00E9900286F0120725120275120287790352
:1033AC007AF47B0112026902322274F61210CD7487
:1033BC00FA12105DEAFEEBFF54806017900283E076
:1033CC00F91205F9EA4B60031205E7EEFAEF648097
:1033DC00023654EAA2E0502C12023F9080441212A2
:1033EC00F37A027B00900283E0F91206DD7404127A
:1033FC0010737A027B00900283E0F9120611EE64DE
:10340C0001023632540270030235129008761236DD
:10341C0081400B12025D900876E4F0A380069008C0
:10342C007612368AF0900284E06401702D90087850
:10343C00123681401E120707E96401700E90801449
:10344C001212F37A08123726121073900878E4F0EF
:10345C00A3800690087812368AF0900285E0640109
:10346C00702D90087A123681401E120293E9640185
:10347C00700E9080141212F37A10123726121073F9
:10348C0090087AE4F0A3800690087A12368AF090BD
:10349C000286E06401703690087C12368140271257
:1034AC0005B7E9640170109080141212F37A20129F
:1034BC00372612107380077AFF7BFF1207439008A0
:1034CC007CE4F0A3800690087C12368AF012027B12
:1034DC009080181212F37A007B02123728121073A4
:1034EC0090087E123681400E120251120737900856
:1034FC007EE4F0A3800690087E12368AF012072B29
:10350C00EE6402023632EA54046009120263EE647D
:10351C0004023632EA54086035851A82851B83E42E
:10352C00F0A3F074021210A9E4F0A3F074021210CC
:10353C00C3AA1AAB1B12070DE96401700B12367289
:10354C0074021210A9123669EE6408023632EA547B
:10355C0010605D74021210A9E4F0A3F0851A828544
:10356C001B83F0A3F074041210A9E4F0A3F074040C
:10357C001210B38808890978081212E0740212102C
:10358C00C374041210BB1202997402121073E96412
:10359C0001701874021210A9123678123663740472
:1035AC001210A9E0FAA3E0FB12074FEE641080762C
:1035BC00EA5420603D851A82851B83E4F0A3F0AAAF
:1035CC001AAB1B1205C3E964017022123672120584
:1035DC00BDE9640170109080141212F37A40123716
:1035EC002612107380077AFF7BFF120749EE6420C6
:1035FC008034EA5440601E851A82851B83E4F0A354
:10360C00F0AA1AAB1B1205C9E964017003123663E8
:10361C00EE64408011EA5480601079007A007B00DF
:10362C00120269EE6480FAEF801EEB54016005EB28
:10363C0064018014EB54026012120281E9FA7901E0
:10364C00120755EEFAEF6402FB80047A007B0074DB
:10365C0006121073023320851A82851B83E0FAA3AD
:10366C00E0FB12074922851A82851B83E0FAA3E04E
:10367C00FB12074322C3E09403A3E0940022E0244E
:10368C0001F0A3E0340022C082C08312053F790010
:10369C0012054B02322274F01210CD7A03790F12FC
:1036AC0005458A088B09E4F50AF50B78081207D052
:1036BC0090801C780C120F627808790C1209AF906C
:1036CC008020780C120F627808790C1209AF7808F8
:1036DC0012082DAA08AB097F0802119F53F3FEC2F2
:1036EC008043FD01438F0153F3FDC28143FD02432F
:1036FC008F0202013274F41210CDA280401753FDD8
:10370C00FE43F2019008801237E31212DC7A0412A5
:10371C0037261210737F0402119F7B00900283E006
:10372C00F91206D774042274F61210CD7A037900BC
:10373C00120545C3EA94F1EB94074018900880E019
:10374C0064E87004A3E06403700A9008807419F0B4
:10375C00A3E4801EC3EA940FEB94005018900880E9
:10376C00E064197002A3E0700C90088074E8F0A378
:10377C007403F08017900880E064197002A3E07065
:10378C0008EA24FF1AEB3407FB12073D53F3FE4300
:10379C00FD01C28002332074F41210CDEA4B600D8F
:1037AC00E9900287F0900288EAF0A3EBF090028790
:1037BC00E0601FA2805004C2808004D28014F0907C
:1037CC0002881237E31212DC7A8012372612107339
:1037DC008002C280023721E0F508A3E0F509E4F588
:1037EC000AF50B78082253F4FED29043FE0153F4F1
:1037FC00EFC29443FE1002013253F4FDD29143FE0A
:10380C000253F4FB53FEFB43F74053F6FB02013229
:10381C0080F8A89043F604E8A2E2E433F9020132FE
:10382C0053F3F7D28343FD0853F3EFC28443FD10E7
:10383C0053F3DFC28553FDDF438F2043AB20538C02
:10384C00FE5389DFD2BD020132C082C083906190E9
:10385C007404F0A37448F0A37402F0906180744077
:10386C00F09061BC7403F09061877419F0906265FC
:10387C00741BF0906249E0C3941390619C401074E7
:10388C0009F09060667401F090619F7428800D744B
:10389C000BF0906066E4F090619F742CF0123A2863
:1038AC007009C29190032D7467800590032D74618B
:1038BC00F0123A839019E0E493F46006E493F91261
:1038CC0003D17905120527023A38C082C083E95426
:1038DC000FF9906185E0696012E5C654B84441F572
:1038EC00C6E59E5447644170F8E9F053C6B8E59EAE
:1038FC00544770FA023A38C082C083A8A853A87EF5
:10390C00906181E4F0A3F0A3F0C2BA539AFEC2898D
:10391C00759B00C2C275E90075910075BF0075A951
:10392C001175B905906181F0A374C0F0A3E4F0D2D5
:10393C00BA439A0174805842A8023A38C082C083B4
:10394C0074F812105D90032B123E62E8497003026A
:10395C003A2190032BE0544060177908AA1AAB1B4C
:10396C00120419AA1AAB1B12035990032BE054BF73
:10397C00F0E0A2E0501E123A287009C29190032D7B
:10398C007467800590032D7461F012035F90032B14
:10399C00E054FEF0E05402601E123A767009D291A7
:1039AC0090032D7471800590032D746AF012035FDF
:1039BC0090032BE054FDF0E0540460109019E412D5
:1039CC003A8612036590032BE054FBF0E054086038
:1039DC00109019E5123A8612036590032BE054F708
:1039EC00F0E05410600D123A8312036590032BE043
:1039FC0054EFF0E05420600A12036590032BE0545E
:103A0C00DFF0A3E05401600D1203EF12036B90037F
:103A1C002CE054FEF07408121073801090619A120E
:103A2C003C7890039FE0640122F0A3F0D083D08215
:103A3C00020132C082C083E960051460178029122C
:103A4C003A287009C29190032D7467801A90032D47
:103A5C0074618013123A767009D29190032D7471AF
:103A6C00800590032D746AF080C290619A123C6AB2
:103A7C0090039FE06401229019E6E493906186F034
:103A8C002274EA1210CD74F412105D908074AC1A8A
:103A9C00AD1B7404120FB19019E493F46003023B54
:103AAC00FF907808E0C394025003023BE390800C33
:103ABC0074041210C37408120FB1A81AA91B88142D
:103ACC00891574041210B388088909AE08AF0975FA
:103ADC0010FF7511FF750EFF7C00750C48750D7885
:103AEC00801274086C7003023B7974096C607E74EC
:103AFC000A6C6079850C82850D837808120F628EB2
:103B0C00828F83A909E50AC9F888127418780812FB
:103B1C000E8BE5124508F8C3E098A3E099850C825A
:103B2C00850D837808120F6240188E828F8374186B
:103B3C007808120E8BE5124508F8E0C398F8A3E05C
:103B4C00801A74187808120E8BE5124508FAE9FBF6
:103B5C008E828F83123E62EAC398F8EB99F9C3E820
:103B6C009510E995115006881089118C0E0CE50CF6
:103B7C002404F50C5002050DECC394135003023AC7
:103B8C00EE74FF6510700474FF65116024850E08D7
:103B9C007402780812104A74482508F58274783536
:103BAC0009F5837808120F62851482851583E50860
:103BBC00F0EE2402FE50010F851482851583A38537
:103BCC008214858315740C1210A9E5826E7003E5BE
:103BDC00836F6003023ADB750801750900780812DF
:103BEC0012E074021210C37A797B061205817402FA
:103BFC00121073740C1210737F0E02119FC082C0CE
:103C0C00839061AE7468F0A3746AF090624574FBA3
:103C1C00F0A304F053F4FD43FE0290039F7401F0F3
:103C2C009061A0E0643A90619A7019123C7874012A
:103C3C0064017009C29190032D7467801E90032D4E
:103C4C0074618017123C6A740164017009D29190FE
:103C5C00032D7471800590032D746A023A37743FFA
:103C6C00F0A3745AF09061A0747FF0227433F0A327
:103C7C007455F09061A0743AF022C082C08375E153
:103C8C00F1900354E024FE604D14704F1203FB902E
:103C9C000343E0F97A447B031204CD90807C120F2D
:103CAC00801204F7908068120F801204D390035591
:103CBC00E0F91204DF790112051B900341E0F8A32F
:103CCC00E0C8241AF582E438F5837407F0A3740471
:103CDC00F07900023A3812040180B4791280F4743D
:103CEC00F71210CD123D344402F5D9758244758318
:103CFC0003123DDD7004E583640370F590035AE014
:103D0C00600A785B7903FA123DD1DAFB75E1959084
:103D1C0008FB123D46F0A3123D46123DE57414F02B
:103D2C009003297404023E7190035AE02407F5D9DC
:103D3C00900343E0C4333354C02274BF123D53127A
:103D4C003D53F0A3740322F0A37403F0A374BF22B9
:103D5C0074F71210CD123D344406F5D975824475B2
:103D6C008303123DDD7004E583640370F590035A00
:103D7C00E0600A785B7903FA123DD1DAFB90037AA2
:103D8C00123D374404F5D9758244758303123DDD29
:103D9C007004E583640370F590037AE0600A787B25
:103DAC007903FA123DD1DAFB75E1959008FB74B9F1
:103DBC00F0A37403123E27123DE57415F09003290D
:103DCC007403023E7188828983123E66A882A9839D
:103DDC0022123E66E582644A22F0A374C5F0A374F5
:103DEC0003123E1C123E2B123E12240EF582E438B6
:103DFC00F58374FFF0A3F0A3F0A3123E122414F584
:103E0C0082E438F58322F0900341E0F8A3E0C82265
:103E1C00F09009097425F0A3740422123E2B22F0B1
:103E2C00A37425123E3A123E3AF0A3740422123EB9
:103E3C0041123E4122F0A37404F0A3742522C082E7
:103E4C00C083900341E0F8A3E0C82406F582E4386F
:103E5C00F583E4023A35123E6B22E0F5D9A322E059
:103E6C00F8A3E0F922F07F0102119FC082C083E425
:103E7C009003317808F0A3D8FC90033104023A3750
:103E8C00F09002F9123E94221243E0F5838882A34B
:103E9C002274EE1210CD890C8A0A8B0B8C0E8D0FAE
:103EAC009002E4E054057003023F417401650A700E
:103EBC000D9002FB12449A607C9002FB800B9002E6
:103ECC00FD12449A606F9002FDE0FEA3E0FFEBC38D
:103EDC0094205008EB6009EC450F70047902805770
:103EEC00E50C9008F4F08E828F83A385820885837D
:103EFC00097C1F7D007900AA08AB091205DB850B34
:103F0C001075110078101212E0AC0EAD0FAA08ABB0
:103F1C00091205CF74021210738E828F83E50BF099
:103F2C00F9E50AAA08AB09600512034780031203DE
:103F3C004DE9F9800279127F0A02119F74F7121071
:103F4C00CD1244957004791280391240B56E60041C
:103F5C007903802F7A027B00900301E0F91206E3CB
:103F6C009002FFE4F0A3F07A04FB900301E0F91255
:103F7C0006E39002E6E4F0A3123E8C7403F07900A1
:103F8C0012035302403BD083D08202013274F712E9
:103F9C0010CD9002FB12449A600D1243D412065FAE
:103FAC009002FBE4F0A3F09002FD12449A60109092
:103FBC0002FD1243D712065F9002FDE4F0A3F090CD
:103FCC0002E4E05405605F7AF57B081203357E004D
:103FDC009002E4E05405604A7A207B0012065912E4
:103FEC0040409002FB12449A60367C207D007900A0
:103FFC001205DB7A207B001206599002FD12404319
:10400C009002FD12449A600B7C207D007900120511
:10401C00DB800F1243D412065F9002FBE4F0A3F096
:10402C007E13EEF980097A007B0012033579007F4C
:10403C000102119F9002FBEAF0A3EBF02274F6123E
:10404C0010CD7E018A828B83A3A3A3E0FCA3E0FDA9
:10405C008C088D097808121324062004A84074409B
:10406C00A840864086407C4012441212030580060C
:10407C0012441212030BE9FE802474086C70037452
:10408C00206D70047901800279008A828B83A3A34E
:10409C00A3A3A31240B2FA12031180027E00EEF920
:1040AC000243CF9002FBE0F8A31241CDE02274F260
:1040BC001210CD124497700302418C1241C8A3E038
:1040CC00F50B12032FE960137A0A7B001202C98ADE
:1040DC00088B09AE08AF097A0B802A120329E96014
:1040EC00137A067B001202C98A088B09AE08AF0945
:1040FC007A0780117A087B001202C98A088B09AEF4
:10410C0008AF097A097B001202C98A088B09900250
:10411C00E5E07005750A008003750A019002F9E06C
:10412C002404FAA3E03400FB123E8DA3A3E0F912A1
:10413C0002D5E9F91243DDC8240B1241931212E4A3
:10414C001243DDC8240A1241931212E49002F9E0E2
:10415C002404F50CA3E03400F50D780C1212E0E900
:10416C00F50C780C1212E4780A1212E4A90BAC08C4
:10417C00AD09EEFAEFFB12034174061210738002C4
:10418C0079017F0602119FF582E438F583E0F50C86
:10419C00780C2274F71210CD124495601AEE700C44
:1041AC001241C87401F0F9120353E9FEEE6004F9F0
:1041BC0012031D79018002790002403B1241CDA30C
:1041CC0022E0F58388822274F01210CD124495708F
:1041DC00030242B41241C8E06401600302428D1232
:1041EC000329E960557A017B001202C98A088B0900
:1041FC00E4F50AF50BC3EA9442EB9400402B908053
:10420C00C41212F37A027B00900301E0F91206DD6E
:10421C007404121073E50824C4F8E50934FFF9900E
:10422C0002FFE8F0A3E9F080419080C0780C120FF7
:10423C00627808790C120D6E80107A007B001202E5
:10424C00C98A088B09E4F50AF50BE5084509450A06
:10425C00450B601678081212DC7A027B0090030181
:10426C00E0F91206D77404121073123E8D7402F02A
:10427C009002E8E07007EEF912031D8027E4F0804D
:10428C00239002E8E0701D7A037B001205E1EA4BF3
:10429C00600F1242BB7404F09002F912441B120519
:1042AC00ED1203237901800279007F0802119F8AA5
:1042BC00828B8374D0F0EEA3F08A828B83A3A3222B
:1042CC0074F61210CDE9FEEAFF9008F4E0F4602ACF
:1042DC007A047B001205E1EA4B601F8A828B83749F
:1042EC00D0F0EF1242C37402F0EE8A828B83A3A348
:1042FC00A3F09008F4E0F91205ED0243CF74F41228
:10430C0010CDE9FE74016E60030243A59002FF120A
:10431C00449A60069002E8E060121244977003021F
:10432C0043C81240B5F91202ED0243C89002FFC314
:10433C00E0943CA3E09400400D9002FFE024C4F014
:10434C00A3E034FF80507A027B00900301E0F91265
:10435C0006E39002FFE0F508A3E0F509E50875F027
:10436C00E8A4C508A8F075F003A428F875F0E8E5F2
:10437C0009A428F509E4F50AF50B78081212DC7A81
:10438C00027B00900301E0F91206D774041210733B
:10439C009002FFE4F0A3F08023124497601E900279
:1043AC00E4E0A2E250167A027B00900301E0F912DD
:1043BC0006E39002FFE4F0A3F012032380007F04D5
:1043CC0002119F7F0202119F9002FBE0FAA3E0FB17
:1043DC00229002F9E0F8A3E02274F61210CD1244F8
:1043EC009560207A037B001205E1EA4B600F1242C4
:1043FC00BB7403F09002F912441B1205EDEE60033E
:10440C001203230243CF8A828B83A3A3A3A3A3E02B
:10441C00F8A31241CDE0F922C082C0831244976008
:10442C00109002F91243D712065F9002F9E4F0A340
:10443C00F0023F9274F61210CD74FF12105D9002D0
:10444C00FB12449A60399002FBE02401F508A3E0CA
:10445C003400F50978081212E01240AFFC74021215
:10446C0010BB79011202E174021210738A828B83E1
:10447C00E58245836009E0A2E0500479018002796D
:10448C000074011210730243CFE9FE9002F912433B
:10449C00E0F9E8492274F41210CD74FC12105D7E20
:1044AC000090086EE4F090086BF07F7D7508047541
:1044BC00090078081212E074021210C37A007B0013
:1044CC00EF1249261210739080C87808120F62857B
:1044DC001A82851B837808120761701990086BE0AB
:1044EC00600FF9120695EFF912069590086BE480AF
:1044FC0001EFF08018851A82851B83120F8CE84916
:10450C004A4B7004EFFE8005EFF91206950FEFC3CE
:10451C00947F409890086BE07026EE7018797D12AD
:10452C00068990086C7404F0A3E4F090086EE060C7
:10453C001979008017F012069BEEF91206A7800A73
:10454C00EE6004F912068F12069B79010245F37492
:10455C00F71210CD74FC12105DE9FE851A82851BD2
:10456C0083E4F0A3F0A37410F0A3E4F0AC1AAD1B39
:10457C00FAFB1206B390086EE07005EE90086BF033
:10458C0074041210737F0102119FD083D082020138
:10459C003274F41210CD74FF12105D890890086EFD
:1045AC00E070301205877E007F00750A01750B00E4
:1045BC00780A1212E074021210C3EEFAEFFBA9088B
:1045CC00124927121073851A82851B83E0F4600848
:1045DC0090086E7401F0800B0EEE70010FC3EF9417
:1045EC000840C77401800274041210737F04021116
:1045FC009F74F41210CD74FF12105D89087E007F39
:10460C0000750A01750B00780A1212E07402121080
:10461C00C3EEFAEFFBA908124927121073851A8210
:10462C00851B83E0F46007A90812068F800B0EEE41
:10463C0070010FC3EF940840C880A874F41210CD19
:10464C0074FC12105D7EFC7F0775080475090078F8
:10465C00081212E074021210C312491E1210739049
:10466C0080CC7808120F62851A82851B8378081219
:10467C000761700AEE24FCFEEF12471C50CBEE24AF
:10468C0004F8E43FF990086CE8F0A3E9F00245F374
:10469C0074F41210CD74FC12105D89098C08EA2494
:1046AC00FCFEEB8005EE24FCFEEF12471C405A7515
:1046BC000A04750B00780A1212E074021210C3EE91
:1046CC00FAEFFBA90912492712107374021210A9F0
:1046DC00124897851A82851B83AA08E06A7002A388
:1046EC00E0700AEEC398FAEF9400FB8020E9548046
:1046FC0070B3E82404FAE439FBC3EE9AEF9B40094B
:10470C00C3EE98FEEF99FF809C7A007B000245F384
:10471C0034FFFFC3EE9404EF94002274EA1210CD20
:10472C0074F812105D8910750DFF747D6970057534
:10473C000C7E8003750C7D750A04750B0090086C5B
:10474C00E024FCFEA3E002481E851A82851B83A38D
:10475C00E05480600302480A851A82851B83A80DE9
:10476C00E0687002A3E0700302480A851A82851B78
:10477C0083E0F50DFCAA0AAB0BA90C1206A1EA4BBF
:10478C00707C74021210A9124897EEC398F508EFCA
:10479C0099F50988148915750E00750F00751204AA
:1047AC0075130078121212E074061210C3E5082576
:1047BC000EFAE509350F1249211210737404121008
:1047CC00C3E50A250EFAE50B350FFBA90C1206B34F
:1047DC00E50E2404F50EE4350FF50FC3E514950E24
:1047EC00E515950F50B774021210A9E02404F8A334
:1047FC00E03400F9E50A28F50AE50B39F50B7402EB
:10480C001210A9124897C3EE98FEEF99FFEE24FC04
:10481C00FEEF12471C405090086EE070647508045F
:10482C0075090078081212E074021210C3EEFAEF48
:10483C00FBA910124927121073851A82851B83E07D
:10484C00F47003A3E0F4600302475574021210A93C
:10485C00124897548070B6E82404F8500109C3EE4E
:10486C0098EF995099801AA90C12068990086EE05D
:10487C00700A90086CE50AF0A3E50BF0A91012067B
:10488C008F74081210737F0E02119FE0F8A3E0F9E9
:10489C002274F01210CD74FC12105D890B8A088BF7
:1048AC0009ECFEEDFF74141210A9E0F50A8012E574
:1048BC00082404F508E43509F509EE2404FE50013A
:1048CC000F850A0C74FF250CF50A04603B750E0469
:1048DC00750F00780E1212E074021210C3AA08AB06
:1048EC0009A90B124927121073780E1212E0EEFC74
:1048FC00EFFD74021210BB1205D57402121073E98D
:10490C0070AD90086E7401F074041210737F08027D
:10491C00119FEEFAEFFB90086BE0F912057B740225
:10492C002274F01210CD890C8A088B09ECFEEDFF75
:10493C0090086EE0704F750A01750B00780A121220
:10494C00E08A0A8B0B7402780A12103BE9F50E759B
:10495C000F007409780E12104AE50A2400FAE50BD0
:10496C00350FFB1205817402121073750A01780A57
:10497C001212E4EEFCEFFDAA08AB09A90C1206AD6D
:10498C0074011210738086C082C083120683E97092
:10499C000479018002790002459674F71210CD74E7
:1049AC00091210A9E0F8A3E0F9801C8C828D83E039
:1049BC008A828B83F08C828D83A3AC82AD838A82B6
:1049CC008B83A3AA82AB83E8FEE9FFEE24FF18EFEA
:1049DC0034FFF9EE4F70D4024ADEEFFB7F06021172
:1049EC009F74F51210CDECF8EDF9740B1210A9129E
:1049FC004C2CAC08AD09EC24FFF508ED34FFF5099F
:104A0C00EC4D602CEAFCEBFD8C82F583A3AA82AB07
:104A1C0083E8FEE9FF8E82F583A3A882A9838C82AA
:104A2C008D83E0FC8E828F83E06C60C679008002FF
:104A3C0079017F0302119F74F61210CD8C088D0939
:104A4C0078081212E0E9FC7D0012075B7402121068
:104A5C0073024C1F74F61210CDEAFEEBFFEA4F60A6
:104A6C0031EA2405FAE43FFB1206598B09A909EA3D
:104A7C0049601F8A828B83E4F0A3124C19A3A31202
:104A8C004C15A3A3A3A374FFF0EA2405FAE439FBA5
:104A9C0080047A007B00024C1FC082C083EA4B70FA
:104AAC000479058016124B4660047904800DEA24C3
:104ABC00FBFAEB34FFFB12065F7900D083D0820245
:104ACC00013274F71210CD7C001205F38004A2E0C1
:104ADC0092AF7F0102119F74F71210CDE9FEECFF2B
:104AEC00EA4B60269080D4E0F8E9C39840071205A1
:104AFC00E779038043EA24FBF582EB34FF124CCCBC
:104B0C007005124B4660071205E77905802AEEF016
:104B1C0074016F700DEAFCEBFD7A157B041206052F
:104B2C00800BEAFCEBFD7A157B041205FF7A007B07
:104B3C0080EEF912061179008098EA24FFF582EBD9
:104B4C0034FFF583E0F42274F21210CD750C00756D
:104B5C000D007E007F00A2AFE433F50AC2AF9004D3
:104B6C00158015EE4F700685080C85090DE5082497
:104B7C00FBF582E509124CC7124C2CE5084509607F
:104B8C0022E50824FFF582E509124CC7E06970D3D1
:104B9C00EE4F7006AE08AF0980D37A007B80120608
:104BAC0011800B7A007B80120617EE4F6015780C83
:104BBC001212E0EEFCEFFD7A157B0412060B740268
:104BCC00121073E50AA2E092AFEEFA0249E6E0FA9F
:104BDC00A3E0FB2274F71210CDA2AFE433FEC2AFF8
:104BEC00124CC1E4F0A3124C19800C124C24F9E8BD
:104BFC00FAE9FB8882F583124CCE70EF8A828B83A4
:104C0C00ECF0A3EDF0EE024ADAEEF0A3EFF08A82BC
:104C1C008B83227F0202119FE824FBF8E934FF22E8
:104C2C00E0F508A3E0F5092274F71210CDA8A8C28C
:104C3C00AF8A828B83E0FEA3E0FF124CC1124C15AD
:104C4C00ECF0A3EDF0E8A2E7024ADC74F51210CD0B
:104C5C00A2AFE433F50AC2AFEC24FBF8ED34FFF954
:104C6C00E8FEE9FF8882F583E0F8A3E0F98A828BFD
:104C7C0083124C2CEC65087003ED650970068A8272
:104C8C008B838012740B1210A9E0FAA3E0CA24FBE8
:104C9C00F582EA124CC7E8F0A3E9F08E828F83E428
:104CAC00F0A3F0EC24FF124CC474FFF0E50AA2E070
:104CBC0092AF024A3EEC24FBF582ED34FFF58322E1
:104CCC00F583E0F8A3E0F9E8492274F71210CD90CF
:104CDC0080D4E0F8E9C3985027ACA8C2AFE929F812
:104CEC00E433F9900869E028FDA3E0398D82F5835F
:104CFC00E04AF0A3E04BF0ECA2E792AF790080021F
:104D0C007903024ADE74F71210CD9080D4E0F8E9F2
:104D1C00C3985021AEA8C2AFEAF4FCEBF4FDE9292C
:104D2C00124E1EF583E05CF0A3E05DF0EEA2E7927C
:104D3C00AF790080027903024ADEE9F874FF6870EB
:104D4C0006C2AF790080027907020132C082C083AB
:104D5C0012064D900415E4F0A3F01206BF1206657E
:104D6C0012067D1206537900024AC7C082C0831214
:104D7C00062F80FB74F61210CD7508001206471230
:104D8C000575A808E828124E1E124CCC700D0508AB
:104D9C009080D4E0F8E508C39840E79080D4E0F820
:104DAC00E508C3985066ACA8C2AFAE08EE2EFEE480
:104DBC0033FF900869E02EF8A3E03FF98882F58371
:104DCC00124BDA88828983E4F0A3F0ECA2E792AF6D
:104DDC00E508900915F0F974002EF58274803FF502
:104DEC0083124E2E1210CB90091574FFF0A8A8C296
:104DFC00AF900869E02EF9A3E03F8982F583E04A81
:104E0C00F0A3E04BF0E8A2E792AF80031206770222
:104E1C004C1FF8E433F9900869E028FAA3E0398ACA
:104E2C008222E0F8A3E0F583888222C082C08390BE
:104E3C000871124E45F0024F43E4F0A3F0A3F0A327
:104E4C002274F01210CD8908EAFEEBFF1206CB7427
:104E5C00101210A9780C120F62EA4B600D8A828B2B
:104E6C0083A3A3780C120F7180677A0D7B00120656
:104E7C0059EA4B60588A828B83A3A3A3A3A3A3A351
:104E8C00A3E508124EE2EEF0A3EFF08A828B83A327
:104E9C00A3780C120F718A828B83E4F0A3124EE27A
:104EAC00A3A3A3124E46F012522690086F6017E08F
:104EBC00FCA3E08003E8FCE9FD8C828D831252296F
:104ECC0070F38C828D83EAF0A3EBF080047A007B84
:104EDC00007F0802119FF08A828B83A3A3A3A3A354
:104EEC00A322C082C08390086F80048C828D83E0E3
:104EFC00FCA3E0FDEC4D60238C828D83A3A3A3A3C4
:104F0C00A3A3E06A7003A3E06B70E08C828D83A393
:104F1C00A3A3A3A3A3A3A3E06970D0ECFAEDFB8039
:104F2C0016C082C083EA4B600E8A828B83A3A3A334
:104F3C00A3A3A3E4F0A3F0D083D08202013274F6D1
:104F4C001210CDAEA8C2AF740A1210A91212F3122D
:104F5C0006C574041210738B09A909EEA2E792AF6F
:104F6C00EA4960047900800279087F0202119F747B
:104F7C00F21210CDA2AFE433FEC2AF740E1210A920
:104F8C007808120F6278081212DC1206C57404122B
:104F9C001073EA4B60128A828B83A3A3A3A3A3A3EF
:104FAC00A3A3A37808120F71EEA2E092AFEA4B60B4
:104FBC00047900800279087F0602119F74F41210A4
:104FCC00CDA2AFE433F508C2AF1206CB8A0A8B0B25
:104FDC00AF0BEA4F60031206D1E508A2E092AFE5F1
:104FEC000A4F60047900800279067F0402119F74D5
:104FFC00F21210CD750800750900750A00750B00CA
:10500C00A2AFE433FEC2AF1206CB8A828B83E58259
:10501C0045836007A3A37808120F62EEA2E092AF5B
:10502C00AA08AB09AC0AAD0B808D74EB1210CD74D1
:10503C00FC12105D851A82851B83EAF0A3EBF0A3AA
:10504C00ECF0A3EDF0A9A8C2AF851A82851B83787A
:10505C0008120F629008717808120EE9E9A2E79223
:10506C00AF125226700302521C90086FE0FEA3E0B0
:10507C00FF751000751100750A00750B00A2AFE4E6
:10508C0033F514C2AFEE2402F508E43FF5097402BF
:10509C001210A9125229702074011210A9E0701874
:1050AC00851A82851B83E0F8850882850983E0C315
:1050BC00984005E0C3988039850882850983780C6F
:1050CC00120F62851A82851B83780C120786501882
:1050DC00851A82851B83780C120F628508828509DC
:1050EC0083780C120F28800A850882850983124E5A
:1050FC0045F0EE2406F512E43FF513EE2404F50E0C
:10510C00E43FF50F85088285098312522970548576
:10511C000E82850F831252297054EE2409F50CE48B
:10512C003FF50D850C82F583120F8CE8494A4B60D4
:10513C0053851282851383E0FAA3E0FBEA4B6044AB
:10514C008E828F83A3A3A3A3A3A3A3A3E0F9120628
:10515C0011850C82850D83120F8C8508828509833D
:10516C00120F98850882850983125229700B850EBF
:10517C0082850F83125229600B851282851383124C
:10518C00522970258E828F83E0F8A3E0F9E5104553
:10519C0011700590086F8006851082851183E8F0E8
:1051AC00A3E9F08E0A8F0B80048E108F118E828FE4
:1051BC0083E0FEA3E0FFE514A2E092AFE50A450B05
:1051CC006047850A82850B83A3A31252297033850D
:1051DC000A82850B83A3A3A3A31252297024850AE8
:1051EC0082850B83A3A3A3A3A3A3E0FAA3E0FB856F
:1051FC000A82850B83A3A3A3A3A3A3A3A3E0F91201
:10520C000611AA0AAB0B12065FEE4F600302508325
:10521C0074041210737F0D02119F90086FE0F8A3B5
:10522C00E0F9E8492274F01210CD12522660479032
:10523C00086FE0FAA3E0FB75088E7509C2750AF5D4
:10524C00750B288A828B83A3A3780C120F627808C3
:10525C00790C120776500C850C08850D09850E0A01
:10526C00850F0B8A828B83E0F8A3E0F9E8FAE9FB5F
:10527C00E84B600E80CD750800750900750A007545
:10528C000B00AA08AB09AC0AAD0B024EDDA2AFE4D1
:10529C0033F8C2AF5394FEE594A2E240FAE8A2E0E0
:1052AC0092AF75A70075A100759CFF75C30075A220
:1052BC000075A30075A40075A50075A60075C31133
:1052CC0075A20075A30075A40075A50075A60075E0
:1052DC00C33375A20075A30075A40075A50075A64F
:1052EC000075C34475A20075A30075A40075A500D4
:1052FC0075A60075C32275A22075A34E75A4007502
:10530C00A50075A600759408A2AFE433F8C2AF43AC
:10531C009401E594A2E250FAE8A2E092AF43940221
:10532C00020132A2AFE433F8C2AF5394FEE594A26B
:10533C00E240FAE8A2E002554DA2AFE433F8C2AF66
:10534C00439401E594A2E250FA80E8E9A2E7E43341
:10535C00F8E9A2E792AF802575C303851A82851BF5
:10536C0083E0F5A2740122E9A2E7E433F8E9A2E7AD
:10537C0092AF851A82851B83E0FAA3E0FB740202CC
:10538C0054AAF59CE9A2E7E433F8E9A2E792AF024C
:10539C0054A8C082C08374FC12105D12546575C38E
:1053AC00331254591210A91253D41210A9E0F5A6B5
:1053BC0074041210A9E0F5A274051210A9E0F5A36B
:1053CC0075A1BF43A74080BCE0F5A574022212551D
:1053DC0011A9A8C2AF22C082C08374FE12105D1244
:1053EC00540575A1FD1253641210A9E0F5A3E59CB8
:1053FC0054F04401F59C02535712540C53A7FD2250
:10540C00851A82851B83EAF0A3EBF0A9A8C2AF2210
:10541C00C082C08374FC12105D12546575A1BF4329
:10542C009C0F75C3331254591210A91253D4121075
:10543C00A9E0F5A674041210A9E0F5A274051210E7
:10544C00A9E0F5A3E59C54F0440802538E851A821A
:10545C00851B83E0F5A47401221253DA53A7BF22F3
:10546C00E5A4851A82851B83F0E5A5C0E0740112C2
:10547C0010A9D0E0F0E5A6C0E074021210A9D0E0AB
:10548C00F074031210A9E4F0E9A2E7E433F8E9A2FE
:10549C00E792AF851A82851B83120F807404121059
:1054AC0073D083D08202013274F41210CD74FC12CA
:1054BC00105D125511A2AFE433F9C2AF53A7DF75DB
:1054CC00A1DF9080CC7808120F62851A82851B832D
:1054DC0078081207617005439CF0801A75C340125E
:1054EC0054591210A91253D41210A9E0F5A6E59C38
:1054FC00540F4450F59CE9A2E092AF74041210735F
:10550C007F0402119F851A82851B83EAF0A3EBF0BE
:10551C00A3ECF0A3EDF022A9A8C2AF53A709801504
:10552C00A9A8C2AF53A709759CFF8009A9A8C2AF4F
:10553C00439C0F800375A109E9A2E7E433F8E9A2C3
:10554C00E792AF020132A3A3A3E4F0E8A2E7E433AD
:10555C00F9E8A2E792AF0254ADC082C08374FC128A
:10556C00105DA9A8C2AF75C300E5A202546CC0823D
:10557C00C083A8A8C2AF75C300E5A28A828B83A39F
:10558C00A3A3A3F0E5958C828D83F0E5A38A828B8F
:10559C0083A3A3A3A31255C1A3A3A3E4F0E5968C04
:1055AC00828D83A3F0E5978C828D83A3A3F08C82EC
:1055BC008D83025552A3F0E5A48A828B83F0E5A576
:1055CC00A3F0E5A68A828B83A3A3F08A828B832225
:1055DC00C082C08374FC12105DA9A8C2AFE595858A
:1055EC001A82851B83F0E596C0E074011210A9D0D5
:1055FC00E0F0E597025483C082C08374FE12105D04
:10560C00A9A8C2AFA8C375C300E5A2E5A4851A82F8
:10561C00851B83F0E5A5C0E074011210A9D0E0F061
:10562C0088C302537374F21210CD8909ECFEEDFF9E
:10563C00750800E9F50A750B008A0C8B0D780C12B5
:10564C001324020308BA576556BF56DA561357434C
:10565C005759576F5788579E577401696003025703
:10566C00B5900882E0F88C828D83E0900882F0E897
:10567C00601CE060030257DC9002B0E0640260033F
:10568C000257DC9002AFE0F91202ED0257DCE07039
:10569C00030257DC9002B0E064016008E064036030
:1056AC00030257DC7A017B009002AFE0F91206117D
:1056BC000257DC74026960030257B58C828D83E05B
:1056CC00F8A3E0F9900883E8F0A3E90257B2E9C324
:1056DC00942040030257B57C1F7D0079007A867BAD
:1056EC00081205DB780A1212E0EEFCEFFD7A867BDD
:1056FC0008125911121073E509900885F07C867D0B
:10570C00081257E30257D4E9C3942040030257B55B
:10571C007C1F7D0079007AB97B021205DB780A12B6
:10572C0012E0EEFCEFFD7AB97B02125911121073E4
:10573C00E5099002B8806F740169706D8C828D835D
:10574C00E0F8C394055062E89002D880597401695E
:10575C0070578C828D83E0F8C39404504CE890020F
:10576C00D980437406697041750A06780A1212E0F2
:10577C007ADA7B0212591112107380547401697019
:10578C00288C828D83E0F8C39408501DE89002E0C9
:10579C00801474016970128C828D83E0F8C39404B8
:1057AC005007E89002E1F080277508188022C3EAC0
:1057BC009427EB9400501674026970118C828D83BF
:1057CC00E0FCA3E0FD1202C3E9F5088003750802B2
:1057DC00A9087F0602119FFB7A019002AFE0F91233
:1057EC0002E72274F41210CDECFEEDFF7508008A6E
:1057FC000A8B0B780A12132400030A9E581F582494
:10580C005835583A584C585B586A586F5874588FDA
:10581C005894589002B18073750A06750B00780A7B
:10582C001212E07CB27D02804E900882805D90085E
:10583C0083E0F8A3E0F98C828D83E8F0A3E980661D
:10584C009008851258BF1212E07C867D0880289043
:10585C0002B81258BF1212E07CB97D028019900276
:10586C00D880289002D98023750A06750B00780A17
:10587C001212E07CDA7D02EEFAEFFB1259111210D3
:10588C007380299002E080039002E1E08C828D838A
:10589C008014C3EA9427EB9400500E1202C98E8236
:1058AC008F83EAF0A3EBF08003750802A9087F044C
:1058BC0002119FE0F50A750B00780A2274F612109B
:1058CC00CD9002B0E07037EA4B60089002E2EAF04B
:1058DC00A3EBF0E4F508F50978081212E078081249
:1058EC0012E07C007D007B009002B1E0FA9002AFE8
:1058FC00E0F91205397404121073790080027911E1
:10590C007F0202119F1205CF74022274EE1210CD89
:10591C008A088B09890B8C0E8D0F9003E5E07009BA
:10592C009003E7E070030259E4900304E060030283
:10593C0059E4890C750D00E92407FAE43400FB12D4
:10594C0005E18A108B11AE10AF11EE4F70030259A6
:10595C00F574186508700474206509600C7417657B
:10596C000870047420650970109003E7E0600AF574
:10597C000A8E828F837492800C9003E5E0F50A8E78
:10598C00828F837491F0A3740E125BA67401125B68
:10599C00AEE508F0A3E509F0EE2405F8E43FF9E8DC
:1059AC00FAE9FBEE2407F8E43FF98A828B83E8F0EE
:1059BC00A3E9F0780C1212E0AC0EAD0F8A828B8347
:1059CC00E0FAA3E0FB1205CF7402121073EEFAEFAB
:1059DC00FBA90A1205ED8011780E1212E0AC0B79BE
:1059EC000E12037774021210737F0A02119F74F265
:1059FC001210CD89098A0A8B0B8C0874072CFA7447
:105A0C00FF65096004780380027802E82AFA7B00BB
:105A1C001205E18A0C8B0DAE0CAF0DEE4F7003022C
:105A2C005B158E828F837401F0A374FFF0EE240259
:105A3C00FAE43FFBEE2404F8E43F125B1AE509128A
:105A4C005B80E02402F8A3E03400F9890DE50BF942
:105A5C00740E1210A9125B4574FF6509602E740355
:105A6C0025088882850D83125B80125B4B125B903C
:105A7C00E50AF0125B9DE9F085080A750B00780ABF
:105A8C001212E08A828B83E024068063740225085C
:105A9C008882850D83F08C828D83E0C0E08A828BB6
:105AAC0083125B36D0E0F08C828D83A3E0C0E012D1
:105ABC005B90D0E0F08C828D83A3A3E0C0E0125BFE
:105ACC009DD0E0125B80125B72125B7E125B66E90A
:105ADC00F0E50824FDF50AE434FFF50B780A121200
:105AEC00E0EC2403FC50010D8A828B83E02408FA3D
:105AFC00A3E03400FB1205CF7402121073EEFAEF20
:105B0C00FB9003E3E0F91205ED7F0602119FF98A81
:105B1C00828B83E8F0A3E9125B84125B528A828B3E
:105B2C0083125B3122125B59A322125B3A22125B65
