:020000040000FA
:0600000002011A0214D5F2
:03002B000219DED9
:0300530002154B48
:03006B0002139AE3
:03007B0002136409
:100083000213D7E5C754F84401F5C77901220000EC
:100093000080FB120086B90003020104E4791D7895
:1000A30002B800028004F709D8FCE479217802B889
:1000B30000028004F709D8FCE490028178F67906FF
:1000C3008002F0A3D8FCD9FA781C90014A7A01BACD
:1000D30000028007E493A3F608DAF97A767B0890A6
:1000E300014B78C979018015E493A3AD82AE838A6D
:1000F300828B83F0A3AA82AB838D828E83D8E9D9C6
:10010300E77582DB758375740012012C7582917516
:100113008300740012012C75D000758133751A8128
:10012300751B02759F00020096C09FF59FE473D074
:100133009F22D083D082C09FE493C0E0740193C018
:10014300E0740293F59F2201FFFFFFFFFFFFFFFF14
:10015300FFFF1900013075030201040000000000D5
:10016300000000000000000000000000000000008C
:1001730000000000000000FF0000B4000028002879
:1001830000283075A000A000A000A000000800080F
:10019300E001F0001000100010001000100010002B
:1001A30050005000500010001000D0070000000065
:1001B30000000F000100050030750700100001006A
:1001C30081FF00000000FFF1020F03F7021D041D71
:1001D300041D041D041D041D041D041D041D041D14
:1001E300041D041D041D04FFFF000A09436C696D0F
:1001F3006153656E73020A0002010410FF0D0000D3
:1002030000000000000000000000000017070000CD
:100213001201352B32001201356932001201358784
:100223003200120135FE32001201356D3300120126
:1002330035833300120135993300120135C533007C
:10024300120135F63300120135BD3600120135CCEB
:1002530036001201351237001201352B3700120117
:1002630035593700120135C93700120135233800DB
:100273001201353638001201355E3800120135722D
:1002830038001201350C1A001201355C1C001201F2
:1002930035A11C00120135241E00120135EA1E008F
:1002A300120135E22000120135935600120135592F
:1002B30058001201353259001201353B7100120109
:1002C30035637100120135907100120135C8710058
:1002D3001201357D7300120135947300120135E369
:1002E3003E001201358E3F00120135DF3F0012013F
:1002F300358F4000120135004100120135E5410000
:100303001201351942001201351243001201354F13
:1003130043001201352B44001201356A44001201D7
:100323003586440012013506770012013517770030
:10033300120135B16800120135D968001201352D5B
:100343006900120135426900120135576900120133
:1003530035B86900120135FB6900120135256A00C1
:100363001201354A6A0012013581590012013564C0
:100373005A00120135496F001201358C6F001201CA
:1003830035CF2A00120135652C001201353B2D00B3
:10039300120135DD2D00120135502E00120135EE0C
:1003A3002F001201352A3000120135B53100120138
:1003B300357A5E00120135425F001201359A600002
:1003C3001201359B38001201351C390012013549E1
:1003D30039001201358E3900120135853A001201B8
:1003E30035D33A001201354F3C00120135CC3C00A5
:1003F300120135313D00120135A23D001201359045
:100403003E00120135BD3E00120135256D0012017B
:1004130035316D00120135056E00120135011A00E8
:10042300120135732300120135A223001201358E08
:100433002400120135F025001201350429001201B0
:1004430035EE29001201353C2A00120135562A00E7
:100453001201358C2A00120135C62A00120135FB20
:100463005200120135915300120135A753001201B6
:10047300350054001201354454001201357E5400F6
:100483001201351655001201358555001201358EBE
:1004930055001201359A5500120135C75500120156
:1004A30035DC55001201353E560012013565560004
:1004B300120135C46000120135D16000120135EB21
:1004C30060001201351E61001201358361001201C3
:1004D30035986100120135A36100120135B0610046
:1004E300120135C76100120135D56100120135E0F3
:1004F3006100120135EF61001201350C6200120137
:10050300351C62001201353262001201354E620061
:100513001201355962001201356E620012013582F3
:100523006200120135547500120135807500120105
:1005330035E4760012013508720012013519720094
:10054300120135BC72001201352E76001201356D91
:100553007600120135207700120135C772001201AF
:1005630035D77200120135E6720012013577730038
:10057300120135446E00120135C86E001201353088
:100583006F001201353377001201353677001201FF
:1005930035F87F00120135DD66001201354D680024
:1005A300120135AE6800120135726A00120135AFCF
:1005B3006A00120135E26A00120135176B0012015D
:1005C30035996B00120135FC4900120135454A008B
:1005D3001201359B4A00120135BA4A001201350B4C
:1005E3004B00120135344B00120135494B00120107
:1005F30035B94B00120135474C001201358B4C00C5
:10060300120135B44C00120135334D00120135701F
:100613004D00120135A74D00120135B94D001201ED
:1006230035D84D00120135E14D00120135C5740076
:10063300120135FE6B00120135286C00120135449E
:100643007000120135EF62001201352563001201BB
:1006530035586300120135B164001201352474006A
:100663001201353A74001201354474001201359AAF
:100673007400120135777600120135E74400120148
:1006830035A44500120135E6450012013548460000
:10069300120135944600120135FF460012013579E7
:1006A3004700120135004900120135834900120148
:1006B30035E94900120135984E00120135AE4E005E
:1006C3001201354F4F001201358E4F00120135AB29
:1006D3004F00120135DC4F00120135295000120181
:1006E300355D5000120135985000120135955200C6
:1006F300120135EB64001201352B65001201357AC6
:100703006500120135AE65001201351D5C00120152
:1007130035B35C00120135315D00120135525D00C5
:10072300120135A15D00120135CD5D0012013513B3
:100733005E001201351D5E00120135275E001201B5
:1007430035435E00120135565E00120135605E00CE
:10075300120135B87600E066701008A3E066700AEF
:1007630008A3E066700408A3E06622C3E7960809BD
:10077300E7960809E7960809E79622C3E09608A3D7
:10078300E09608A3E09608A3E09622C008C3E0968B
:10079300F50808A3E096420808A3E096420808A3D8
:1007A300E09645087001D3D00822080808E630E730
:1007B30011120E551207C5080808C64480C618183A
:1007C3001822181818E9799EC608CAC608CBC608A5
:1007D300CCC6C370207996CACBCC7019798ECBCC9A
:1007E30070137986CC700EF9802ACA33CACB33CB07
:1007F300CC33CC331930E7F2CCCBCA33501470046A
:10080300EA30E00DE4CA3ACACB3BCBCC3CCC500235
:1008130009C3E913C6CC182313C6CB18C6CA18C616
:10082300F92212086520F01430E72B74FFFCFBFA61
:10083300747F8022E4FCFBFA7480801AB48008BCC5
:1008430000F2BB00EF800F50EBF9E4C39AFAE49B8C
:10085300FBE49CFCE499C6CC18C6CB18C6CA18C6E0
:10086300F922E4C9C608CAC608CBC6D3330308CCE9
:10087300C63392F0C3947F402E94184019C9B90728
:1008830004CACBCC225025C309CA33CACB33CBCC41
:1008930033CC33D9F422F4600DC9CCC313CB13CBBF
:1008A300CA13CAD9F6CC22E4FCFBFA2214FCFBFAE5
:1008B30022E62618461846184622E72719471947FD
:1008C300194722181818E60846087009E626087022
:1008D30005E633F4220822191919E70947097009B3
:1008E300E727097005E733F4220922E6084608C31F
:1008F300134608336002E633F422E7094709C313BA
:100903004709336002E733F4221208EE601C120831
:10091300FD60171208B470071208BD7001D322C01E
:10092300D01208BD7006D0D0B322C32233D0D0502A
:100933001430E0F6C3E7960809E7960809E7960836
:1009430009E796B32220E0D5E6970809E697080958
:10095300E6970809E697B3221208EE601B1208FD1A
:1009630060161208B470071208BD600CB322C0D021
:100973001208BD7005D0D022C32233D0D05013301B
:10098300E0EBC3E7960809E7960809E7960809E745
:10099300962220E0E4E6970809E6970809E6970817
:1009A30009E69722001208EE604F1208FD6012E775
:1009B300548066F61208C670111208BD703B09090F
:1009C30009F4F618F618F618F6221208DA7015125A
:1009D30008B408080860EAE6447FF618768018E44D
:1009E300F618F6221208B460161208BD7012E4F667
:1009F30008F608F608E65480F609090918181822BB
:100A0300EAC0E0EBC0E0ECC0E0EDC0E0E687F0A4B4
:100A1300FBACF008E687F0A42CFCE435F0FA1809E7
:100A2300E687F0A42C4B60027401CA35F0FCE43372
:100A3300FB09E687F0D2F7A42CCB35F0FC1908E6C6
:100A430087F0A42BCC35F0FBE433FD0819E687F0DF
:100A5300D2E7A42C4ACB35F0CD3400FC09E687F06D
:100A6300D2E7A42DCC35F0FDE433FA0918E687F07C
:100A7300D2F7A42CCD35F0CA3400FC08E687F0D2B7
:100A8300E7D2F7A42ACC35F07A7E20E70B0ACB33E2
:100A9300CBCD33CDCC33CC33CB3350147004ED30CA
:100AA300E00ED2F1E4CD3DCDCC3CCC3B5005DA0594
:100AB300C2F1EB547FC63308E63392F0FBE7330908
:100AC300E733C39A502D2B70190C0D4C4D7015182C
:100AD30006E608C333700D20F10AA2F013F6E418FA
:100AE300800B4024E4F630F002768018F618F618EE
:100AF300F68024D33B14501074FFA2F013F618763B
:100B030080E418F618F6800FA2F013F618E6330304
:100B1300F618ECF618EDF6D0E0FDD0E0FCD0E0FBE3
:100B2300D0E0FA221208FD60461208EE603DE96843
:100B33007008F618F618F618F622748067F7120B89
:100B43005B090909748067F7221208EE601D120819
:100B5300FD7005191919801A1208C6701F1208DAD8
:100B6300C37003E6673319191940071818182208C8
:100B7300080874FFF618F618F618F6221208DA6059
:100B8300171208BD702192F01208B4701950172083
:100B9300F014080808090909E7F61819E7F61819FF
:100BA300E7F61819E7F6221208B460E6E869701F41
:100BB3000808E62480F608E436F618547FB47F0C60
:100BC300E654806007F6E418F618F622181822E9AE
:100BD300C6CC08C6CD08C6CE08C6CFC0E0E8C0E084
:100BE300EAC0E0EBC0E009E9F809E7FA09E7FBE648
:100BF300F918E6F8C3EC98ED99EE9AEBC2E7F5F035
:100C0300EFC2E795F0500E600CEBCFFBEACEFAE9AA
:100C1300CDF9E8CCF8EAA2E7D2E7FAEB33FB13F518
:100C2300F0EEA2E7D2E7FEEF33FFC5F013A2E73001
:100C3300E601B313C5F0C3C0E0C0F07F00C39BFB64
:100C4300605E9418600F401D14601AD0E023F9D041
:100C5300E0F8020D2D8AF0E9486003D2F0E4AFF02A
:100C6300FAF9F8803BEB30E40D89F0EA6003D2F047
:100C7300E4AFF0F9CAF8EB30E30D88F0EF6002D28D
:100C8300F0AFF0E4CAC9F8EB54076014FBC3EA13EE
:100C9300FAE913F9E813F8EF135002D2E0FFDBEDA2
:100CA300D0E0C0E030E739C3E49FFFF5F0EC98FCF7
:100CB30042F0ED99FD42F0EE9AFE42F0D0E0F9D019
:100CC300E0F8E5F0607AE923F9EE20E742D8028004
:100CD30067C3EF33FFEC33FCED33FDEE33FE80EA05
:100CE300EC28FCED39FDEE3AFED0E023F9D0E0F834
:100CF3004002801BC3EE13FEED13FDEC13FCEF1358
:100D03005002D2E0FF08B800067F7F74FF802EEF09
:100D13003350178CF020F00260100CBC000C0DBD9A
:100D230000080EBE000408E860DFE933E813FFEEB5
:100D33002313FE4F4D4C8008E95480FFE4FEFDFC75
:100D4300EE33EF33F47004FCFD7E80D0E0FBD0E0A3
:100D5300FAD0E0F8D0E0CFC618CEC618CDC618CC6E
:100D6300C6F922080808EAC0E0EBC0E086F0E7A471
:100D7300FA180986F0E7A42AFA180986F0E7A42AE4
:100D8300FA180986F0E7A42AFA1986F0E7A4FBE526
:100D9300F02AFA190886F0E7A42BFBE5F03AFA19D2
:100DA3000886F0E7A42BFBE5F03AFA18180986F059
:100DB300E7A4C5F02BFBE43AFA1908E7C5F0C6A48B
:100DC30026F6E5F03BFBE43AFA1886F0E7A4F6E5ED
:100DD300F00826F6E43B08F6E43A08F6D0E0FBD048
:100DE300E0FA22E4CFC0E0E4CEC0E0E4CDC0E0E42A
:100DF300CCC0E075F020E626F608E633F608E633C5
:100E0300F608E633F6181818EC33FCED33FDEE3331
:100E1300FEEF33FFC3EC9709ED9709EE9709EF97C0
:100E2300191919400FFFEC97FC09ED97FD09EE978F
:100E3300FE191906D5F0BFECF709EDF709EEF7092E
:100E4300EFF7191919D0E0FCD0E0FDD0E0FED0E0B7
:100E5300FF22181818E4C396F608E496F608E496F9
:100E6300F608E496F6226017080808C6A2E713C638
:100E730018C613C618C613C618C613C6D5E0E9228A
:100E83006016080808C6C313C618C613C618C613C7
:100E9300C618C613C6D5E0EA2270090808082260FE
:100EA30016181818C6C333C608C633C608C633C6D1
:100EB30008C633C6D5E0EA22E627F60809E637F680
:100EC3000809E637F60809E637F622E026F608A30E
:100ED300E036F608A3E036F608A3E036F622E0266D
:100EE300F008A3E036F008A3E036F008A3E036F0FC
:100EF30022C3E697F60809E697F60809E697F60887
:100F030009E697F622C3E0C696F608A3E0C696F66E
:100F130008A3E0C696F608A3E0C696F622C3E096B9
:100F2300F008A3E096F008A3E096F008A3E096F09B
:100F330022E056F608A3E056F608A3E056F608A307
:100F4300E056F622E647F60809E647F60809E647BB
:100F5300F60809E647F622E0F608A3E0F608A3E060
:100F6300F608A3E0F622E6F008A3E6F008A3E6F00D
:100F730008A3E6F022E0FAA3E0FBA3E0FCA3E0FD74
:100F830022E0F8A3E0F9A3E0FAA3E0FB22E8F0A350
:100F9300E9F0A3EAF0A3EBF022CAC0E0E6F0A3086D
:100FA300DAFAD0E0FA22CAC0E0E0A3C582CCC58257
:100FB300C583CDC583F0A3C582CCC582C583CDC50A
:100FC30083DAE6D0E0CA22B90010BB0008E88AF051
:100FD30084F8AAF022E4FBC8FA22EB70227B10C843
:100FE30033C8C933C9335007C39AC3DBF280069AA7
:100FF30050012ADBEAC833F4C8C933F4C9FA2275AD
:10100300F008E4C833C8C933C933C99AC99B50042B
:10101300C92AC93BD5F0ECFBC833F4C8E4C9FA22AA
:10102300600D08C6A2E713C618C613C6D5E0F3229F
:10103300600C08C6C313C618C613C6D5E0F42270E5
:101043000422600D18C6C333C608C633C6D5E0F400
:101053001822251A10AF08F51A400C151B8008F545
:101063001A4002151BD2AF2200C0D0251A10AF08B8
:10107300F51A500C051B8008F51A5002051BD2AF58
:10108300D0D022251AF58210AF08F51A400C151B93
:101093008008F51A4002151BD2AF851B8322251A3F
:1010A300F582E4351BF58322251AF8E4351BF92272
:1010B300251AFAE4351BFB22251AFCE4351BFD2215
:1010C300E473251AC582C0E0E51B34FFC583C0E085
:1010D300E51AC3958224F810AF0885831B85821A0D
:1010E300800885831B85821AD2AFCEF0A3E520F05A
:1010F300A37808E608F0A3DEFAEFF0A3E58124FA6B
:10110300F8E608F0A3E608F0A3E608F0A30808E66B
:1011130008F0A3E608F0A315811581D0E0FED0E026
:10112300F8158115811581E8C0E0EEC0E022251A8B
:10113300C582C0E0E51B34FFC583C0E0E51AC39553
:101143008224F910AF0885831B85821A8008858362
:101153001B85821AD2AFCEF0A3E520F0A37808E670
:1011630008F0A3DEFAEFF0A3E58124FBF8E608F02C
:10117300A3E608F0A30808E608F0A3E608F0A31521
:10118300811581D0E0FED0E0F815811581E8C0E03B
:10119300EEC0E022851B83851A82E0A3FEE0A3F55F
:1011A300207808E0A3F608DFFAE0A3FFE0A3C0E09D
:1011B300E0A3C0E0E0A3C0E0E0A3C0E0E0A3C0E0A0
:1011C30010AF0885821A85831B800885821A858360
:1011D3001BD2AFD083D082020132851B83851A8252
:1011E300E0A3FEE0A3F5207808E0A3F608DFFAE029
:1011F300A3FFE0A3C0E0E0A3C0E0E0A3C0E0E0A35E
:10120300C0E010AF0885821A85831B800885821A87
:1012130085831BD2AFD083D08222C0D0251AC5824A
:10122300C0E0E51B34FFC583C0E0E51AC395822403
:10123300F310AF0885831B85821A800885831B857D
:10124300821AD2AFC8F0A3E9F0A3EAF0A3EBF0A3AC
:101253007908E709F0A3D8FAECF0A3EDF0A3EEF0D8
:10126300A3EFF0A3D0E0F0A3D0E0F0A3D0E0F0A38D
:10127300E520F0A3E5F0F0A322851B83851A82E025
:10128300C0E0A3E0F9A3E0FAA3E0FBA37808E0F64B
:1012930008A3DFFAE0FCA3E0FDA3E0FEA3E0FFA3C5
:1012A300E0C0E0A3E0C0E0A3E0F5D0A3E0F520A315
:1012B300E0A3F5F010AF0885831B85821A800885AB
:1012C300831B85821AD2AFD082D083D0E0F8D0E0DE
:1012D3003274048006740280027401C0E0F40412C4
:1012E3001086D0E0120F9C227404800474028000E4
:1012F300CCC0E0EDC0E0E51AC39CCCAD1B50011D92
:1013030010AF068C1A8D1B80068C1A8D1BD2AF1260
:101313000FA9D0E0FDD0E0FC22D083D082E9C0E069
:10132300E493A3C386F0C5F095F0F908E493A3868C
:10133300F0C5F095F0700BE493A3C3994005E9045D
:101343008002A3E475F002A42582F582E5F03583DB
:0F135300F583D0E0F9E493A3C0E0E493C0E02277
:10136400C0E074F212121DA2AFE433FED2AF120237
:1013740079E9640170047A0180027A007901120724
:101384004D120723538AFBC2EB751C00EEA2E092B8
:10139400AF7F0102127CC0E074F212121DAEA8D21B
:1013A400AF7A01790212074D79051207297A00797B
:1013B4000212074D79017AE87B031202675389DF31
:1013C400C2C5751C00EEA2E780C50000851D878597
:1013D4001EC622C0E074EF12121DA2AFE433FEC297
:1013E400AF759B00906182E0A2E05009E591A2E014
:1013F40050037591FEE0A2E55009E591A2E5500382
:101404007591DFE0A2E640030214ABE591A2E64049
:10141400030214AB7591BF900329E06405700812B0
:101424000489120495800312048F751D001204E9C7
:10143400E990032AF079001204DD1203D57A017BC6
:1014440000900328E0F9120609907803E0644270E2
:10145400569003A4E014F0704EC2AF1214620078E8
:1014640022D0E0F618D0E0F6E59F5407F870057531
:1014740009FF800375097FC4C0E07821E6F50808F8
:10148400E65509F509740B7808121033D0E02508E5
:10149400F8906270E0A2E740F8E8C333906272F01B
:1014A400906270E0D2E0F0906181E0A2E35009E53F
:1014B400E9A2E3500375E9F7A3E0A2E75009E59137
:1014C400A2E7500375917FEEA2E092AF7F0402126F
:1014D4007CC0E0C0D0C082C083906183E0A2E050B1
:1014E40009E5BFA2E0500375BFFEE0A2E15009E5A3
:1014F400BFA2E1500375BFFDE0A2E25009E5BFA21F
:10150400E2500375BFFBE0A2E35009E5BFA2E3503C
:101514000375BFF7E0A2E45009E5BFA2E4500375E8
:10152400BFEFE0A2E55009E5BFA2E5500375BFDFB8
:10153400E0A2E65009E5BFA2E6500375BFBFD08321
:10154400D082D0D0D0E032C0E074F212121DE5A7F0
:10155400A2E6500FE5A1A2E6500953A7BF75A1BFAB
:1015640012159FE5A7A2E5500CE5A1A2E55006538C
:10157400A7DF75A1DFE5A7A2E15009E5A1A2E1502B
:101584000375A1FDE5A7A2E2500CE5A1A2E2500675
:1015940053A7FB75A1FB7F0102127C74F712113172
:1015A400751D01900329E0640670151204478A82B0
:1015B4008B83A3A3A3A3A3A3E0FAA3E0FB12047762
:1015C400A2AFE433FED2AF90032FE0640170187A27
:1015D400207B00900328E0F91206DB7A207B009040
:1015E4000328E0F912060F906182E0D2E6F090033E
:1015F400A1E0602185C61E801690032EE064017070
:1016040008E5C654F84405F5C653BEFC1213D0745D
:1016140001651D60E4EEA2E092AF7F020211DD7469
:10162400E912113174FA121055EAFEEBFF8C0A8D9F
:101634000B1204A7EAF8EBF9ECFAEDFB8E828F8328
:10164400120F90900329E024F7C3940550067514F3
:101654000102178A1204478A088B09EA45097003B4
:10166400021787EEFCEFFDAA1AAB1B1204A1850832
:1016740082850983A3A3780C120F5A90806C780C8E
:10168400120F34851A82851B837810120F5A9080AA
:101694006C7810120F34780C791012076E501F7882
:1016A4000C7910120EF4908084780C12078E404747
:1016B400850C14850D15850E16850F1780459080B1
:1016C40084851014851115851216851317781479DD
:1016D4000C120EF4781412078E501C751400751534
:1016E4000075160075170178147910120EF4781429
:1016F400790C120EBB800C7514017515007516005B
:1017040075170074097814120E9C908088780C1256
:101714000F5A7814790C120DE6850882850983A383
:10172400A3A3A3A3A31217A8120FCA880C890DE4BC
:10173400F50EF50F7814790C120EBB74041210A177
:101744001217A8120FCAE8FA8A0CE4F50D78147976
:101754000C12076E50077814790C120EF4900329BA
:10176400E06408600AE064066005E06405702090A7
:10177400808C781412078E50169080907814120E74
:10178400CE800C751400751500751600751700854C
:101794000A82850B837814120F69740612106B7F0A
:1017A400100211DDE0F8A3E0F97AD07B032274F78C
:1017B4001211311204B990039FE064017010906219
:1017C40045E4F0A3F053F4F343FE0C5390F31204F6
:1017D40065E5C654B84441F5C6E59E544764417076
:1017E400F8906185740FF090039DE0F47002A3E01B
:1017F400604E90039EE0600814601B14602E8040CD
:1018040075080175090090039DE07808121042E5FF
:1018140008F45280802A75080175090090039DE040
:101824007808121042E508F4529080147508017586
:10183400090090039DE07808121042E508F452A0D4
:1018440079007F020211DD74F7121131E9FEEAFF1B
:101854001204B974016E700C7A807B00900328E046
:10186400F9120609901A04E493F46008E493F91257
:1018740003C9800953C6B8E59E544770FA12046B35
:1018840090039FE0640170031203E790039DE0F46A
:101894007002A3E0604B90039EE0600814601A1489
:1018A400602C803D75080175090090039DE078085F
:1018B400121042E5084280802875080175090090DD
:1018C400039DE07808121042E508429080137508E1
:1018D4000175090090039DE07808121042E5084262
:1018E400A01204478A088B09A808A909E8496014CA
:1018F400E5E170FCE82414F582E439F583E0F46052
:1019040003E0F5E174016F700A7A01900328E0F9AD
:1019140012066902184674F11211318A088B098C77
:101924000A8D0B90806C7808120F34740F1210A17A
:10193400780C120F5A90806C780C120F3478087956
:101944000C12076E90808450107808790C120EF4F3
:10195400780812078E4014800E780C7908120EF461
:10196400780C12078E50047901800279007F0802F6
:1019740011DD74ED1211318A088B098C0A8D0B90DC
:10198400806C7808120F3474131210A1780C120FA3
:101994005A90806C780C120F34780C790812076E08
:1019A40040117808790C120EF4AA08AB09AC0AAD00
:1019B4000B802275100075110075120075130178E3
:1019C40010790C120EF478107908120EBBAA10AB21
:1019D40011AC12AD137F0C0211DDC0E0C0D0E8C021
:1019E400E0A8A8D2AFC2C7751C00E8A2E792AFD0A6
:1019F400E0F8D0D0D0E032C2AF02000022020132BF
:101A0400FFFFFFFFFFFFFFFF74F61210C574E5121E
:101A140010557981120219851A82851B8374F2F09C
:101A240074011210A17401121C97120225E97003AB
:101A3400021BC2851A82851B8374F4F07401121090
:101A4400A17424121C97120225E97003021BC2859B
:101A54001A82851B8374F5F074011210A1E4121C20
:101A640097120225E97003021BC2851A82851B8323
:101A74007488121E10120225E97003021BC274023C
:101A84001210BB7A18797612021F74021210A1E0A8
:101A9400FA74031210A1E0F9EA90028A121C577436
:101AA400041210A1E0FA74051210A1E0F9EA900200
:101AB4008C121C5774061210A1E0FA74071210A1BC
:101AC400E0F9EA90028E121C5774081210A1E0FA91
:101AD40074091210A1E0F9EA900290121C57740ADA
:101AE4001210A1E0FA740B1210A1E0F9EA9002922C
:101AF400121C57740C1210A1E0FA740D1210A1E01C
:101B0400F9EA900294121C57740E1210A1E0FA74B0
:101B14000F1210A1E0F9EA900296121C57741012E9
:101B240010A1E0FA74111210A1E0F9EA90029812DF
:101B34001C5774121210A1E0FA74131210A1E0F9E8
:101B4400EA90029A121C5774141210A1E0FA741548
:101B54001210A1E0F9EA90029C121C57741612109C
:101B6400A1E0FA74171210A1E0F9EA90029E121C87
:101B74005774181210A1E0FA74191210A1E0F9EACE
:101B84009002A0121C57851A82851B8374A1121E11
:101B940010120225E9602774021210BB7A017976CB
:101BA40012021F74021210A1E09002A2F0851A82A0
:101BB400851B8374E1121E10120225E97005790059
:101BC400021C4D74021210BB7A07797612021F743C
:101BD400021210A1E0FA74031210A1E0F8E4C8F9AB
:101BE400EA9002A3121C5774041210A1E09002A5FB
:101BF400F074061210A1E0FA74051210A1E0F508C1
:101C0400880974047808121042EA54F0F8E5084888
:101C14009002A6F0A3E509F0EAC4540FFA7407127F
:101C240010A1E0F50875090074047808121042EA5E
:101C340045089002A8F0A3E509F074081210A1E089
:101C44009002AAF012022B7901741B12106B7F020E
:101C5400021197F0A3E9F02274F71210C574FE1272
:101C64001055120231851A82851B8374F4F07401B5
:101C74001210A17425121C97120225E9FE12022BE0
:101C8400EE7004790080027901740212106B7F01F6
:101C9400021197F0AC1AAD1B7A0279762274E8121D
:101CA40010C574F3121055740B1210A1EAF0A3EBD3
:101CB400F0ECFEEDFF120231851A82851B8374F766
:101CC400121E10120225E970057900021DFA740132
:101CD4001210BB7A09797612021F74041210A11231
:101CE4001DFEF50B740C7808120E9C74051210A1DD
:101CF400E0F50CE4F50DF50EF50F7404780C120EF6
:101D04009C7808790C120F4774061210A1E0C45491
:101D14000FF50CE4F50D7808790C120F47AA08ABFF
:101D240009AC0A7D001202978A0C8B0D74071210FD
:101D3400A1121DFE74087808120E9C74081210A1DA
:101D44001220CB74047810120E9C78087910120FAC
:101D540047AA08AB097C007D0012029D8A108B11F2
:101D64008C128D1374011210A1E0F508E4F50974C6
:101D74000C7808120E9C74021210A11220C0740474
:101D84007814120E9C78087914120F4774031210F9
:101D9400A1E0C4540FF514E4F51578087914120F72
:101DA40047AA08AB09AC0A7D001202A38A088B0972
:101DB4008C0A8D0B740B1210A1121E07E50CF0A3F4
:101DC400E50DF078101208258E828F83E510F0A3BC
:101DD400E511F0908020780C120F5A7808790C12D3
:101DE4000DE674251210A1121E07E508F0A3E509FB
:101DF400F012022B7901740D801EE0F508E4F50958
:101E0400F50A22E0F8A3E0F583888222F0AC1AAD4B
:101E14001B7A01797622740412106B7F10021197D9
:101E240074EC1210C58A0C8B0D8C0E8D0F90028AE7
:101E3400E0F508A3E0F509E4F50AF50B8A108B1127
:101E44008C128D1374047810120E697810790812AC
:101E54000EF47403780C120E69047808120E9C7840
:101E64000C7908120EF490028C12232A120D667457
:101E74000B780C120E6985100885110985120A85E4
:101E8400130B78087910120D66740C7808120E6919
:101E940090028E12233878087910120D66740E7829
:101EA40008120E69780C7908120EBB9002AB780CFC
:101EB400120F699002AB7808120F5A908028780CA0
:101EC400120F5A7808790C120D6690802C7808123B
:101ED4000ECE74087808120E69AA08AB09AC0AADD4
:101EE4000B7F0C02119774E81210C58A0C8B0D8CB1
:101EF4000E8D0F9002AB7808120F5A78081207ADB6
:101F04009080307810120F5A78087910120B4C78A0
:101F14000C1207ADC00CC00DC00EC00F9002A6126B
:101F240020DC1207AD9080347810120F5A780C79A7
:101F3400101209A79002A81220D61207AD9080248F
:101F44007810120F5A781479101209A778147908A6
:101F54001209A7780C7914120B4CD013D012D0119B
:101F6400D0107810790C120B27C010C011C012C009
:101F7400139002A31220DC1207AD9080387810125F
:101F84000F5A780C79101209A7C00CC00DC00EC0EE
:101F94000F9002AAE0F50C3395E0F50DF50EF50F60
:101FA400780C1207AD90803C7810120F5A780C7997
:101FB400101209A7780C79081209A79002A512201B
:101FC400C078141207C890803C7810120F5A781405
:101FD40079101209A7781479081209A790807478E7
:101FE40008120F5A78147908120B4C780C791412D1
:101FF40009A79080747808120F5A780C7908120B8C
:102004004CD013D012D011D0107810790C1209A72B
:10201400D00BD00AD009D008780879101209A77516
:102024000C00750D00750E80750F3F9002A21220F2
:10203400CB78101207C8781079081209A790804449
:102044007814120F5A781079141209A7780C7910A1
:10205400120B27780C79081209A7850C08850D093D
:10206400850E0A850F0B908048780C120F5A780859
:10207400790C12090C500E750800750900750AC810
:10208400750B42801D90804C780C120F5A78087999
:102094000C12095B500C750800750900750A00756F
:1020A4000B00908050780C120F5A7808790C1209A2
:1020B400A7AA08AB09AC0AAD0B021E1FE0F514E495
:1020C400F515F516F51722E0F510E4F511F512F5FE
:1020D400132212234F7814221222FB780C2274E864
:1020E4001210C574FC12105512235E780C120F5A8C
:1020F4007401780C120E69908054780C120ECE85FF
:102104000C10850D11850E12850F137402781012B0
:102114000E69850C08850D09850E0A850F0B74025E
:102124007808120E6978107908120D6685100885F2
:10213400110985120A85130B740B7808120E699025
:10214400029A122347120D66C008C009C00AC00BC8
:10215400850C08850D09850E0A850F0B90029812CF
:102164002347120D6674017808120E9CD017D016FE
:10217400D015D01478147908120EBB740278141296
:102184000E6990029612231774107808120E9C7828
:10219400147908120EBB900294122317740D781050
:1021A400120E6978087910120D6674037808120EFD
:1021B40069900292122332790C120D667401781020
:1021C400120E6978087910120EBB74127808120E78
:1021D400699080587808120ECE90029012230A78E3
:1021E40008790C120D66740F7808120E6985080CB4
:1021F40085090D850A0E850B0FE50C450D450E4529
:102204000F700B7A007B007C007D000222F87510B1
:1022140000751100751210751300851A82851B83D1
:102224007810120F08740C7814120E69781079144F
:10223400120EF490805C7808120F5A781079081204
:102244000D66908060781012078E4010740178102B
:10225400120E9C7810790C120DE6800E7810790C11
:10226400120DE674017810120E9C85101485111558
:1022740085121685131774037814120E839002A026
:102284001222FB85140885150985160A85170B7813
:10229400087914120D66740D7808120E83780C797F
:1022A40008120D66740C780C120E698510088511DD
:1022B4000985120A85130B74027808120E839002A2
:1022C4009E122347120D66740D7808120E69780C5D
:1022D4007908120EBB90029C12232A120EBB7404BE
:1022E400780C120E697810790C120EBBAA10AB117F
:1022F400AC12AD13021E1AE0F50CA3E0F50D3395F4
:10230400E0F50EF50F22E0F50CA3E0F50DE4F50E73
:10231400F50F2212231B22E0F508A3E0F5093395FB
:10232400E0F50AF50B2212231B780C7908221223FC
:1023340038781022E0F510A3E0F5113395E0F5129A
:10234400F5132212234F7808791422E0F514A3E040
:10235400F5153395E0F516F51722851A82851B834A
:10236400EAF0A3EBF0A3ECF0A3EDF09002AB22C0F3
:1023740082C0839003ABE4F09003AA74FFF090034F
:10238400C7E4F09003C674FFF09003A7F09003A68F
:10239400E4F09003A5F09003A8F0A3022A3474F4A7
:1023A4001210C59003A8E0F508A3E0F509E5084577
:1023B4000970061203D5022489850882850983E001
:1023C40014600A14600724FE6003022489E0F912F1
:1023D40004358A0A8B0BAE0AAF0BEE65087003EF67
:1023E400650970030224868E828F83E06401600392
:1023F4000224891203ED12049B8A088B098C0A8D2E
:102404000B9080207808120ECE78081212D48E8297
:102414008F83A3A3120F7812191A740412106BE994
:10242400705612049B8A088B098C0A8D0B90806865
:102434007808120ECE90806C7808120F348E828F3A
:1024440083A3A37808120F69900329E0640270251E
:102454008E828F83A3A37808120F5A90807C780809
:10246400120ECE90806C7808120F341225D678089C
:10247400120F6980031229D69003A77401F0EEFAB3
:10248400EFFB12042F7F0402119774F01210C5EAB7
:10249400FEEBFFEE2402F8E43FF988088909EE24F4
:1024A40006F8E43FF9880A890B8882F5831212EF53
:1024B400850882850983120F7812047D7402121034
:1024C4006B850A82850B831212EF85088285098346
:1024D400120F78120471740212106B1225D6120FA7
:1024E400781204838E828F83E06440701BEE241282
:1024F400F8E43FF988828983E0906064F0888289F7
:1025040083A3E09060658006906064E4F0A3F0909B
:1025140003A8EEF0A3EF1229E3E0F8A3E0F5838823
:10252400821210C3906054E41225E4A31225E490AF
:102534006182E0C2E6F07591BF1229CCE0640170BB
:10254400031204B9E5E170FC1229BCE0F46003E075
:10255400F5E11229C6F090032FE06401706F1204B4
:102564009B8A088B098C0A8D0B78081212D48E82F0
:102574008F83A3A3120F78121976740412106B8A36
:10258400088B098C0A8D0B908028780C120F5A78CE
:1025940008790C120D6674037808120E83E508247A
:1025A400F4F508E5093401F5099003A1E06003128C
:1025B400063FE4F50AF50B78081212D47A207B0062
:1025C400900328E0F91206CF740412106B7F0802FE
:1025D40011971225DA22EE240EF582E43FF58322C8
:1025E400F0A3F0A3F0A3F0A3F0A3F02274F0121070
:1025F400C5890874FF6508706E9003A6E0540770DF
:10260400030228EA790412044DE964017004790490
:10261400800C790112044DE96401700879011204F7
:10262400530228EE790212044DE9640170397800EE
:102634009003AAE064027006A3E0640160167801C6
:102644009003C6E064027006A3E0640160067A00A9
:102654007B008010E875F01CA4F8A9F074AA28FA8D
:10266400740339FB0228EE78009003AAE065087031
:1026740006A3E06401601678019003C6E065087063
:1026840006A3E0640160067E007F008010E875F018
:102694001CA4F8A9F074AA28FE740339FFA908122F
:1026A400044DE9640170057509018003750900E5AD
:1026B4000814601014700302278624FE7003022796
:1026C400FC0228EA790212044DE964017069780079
:1026D4009003AAE064027006A3E064016018780124
:1026E4009003C6E064027006A3E064016008750A02
:1026F40000750B0080031228F1E509A2E050318532
:102704000A82850B83A3A3780C120F5A90808078D9
:102714000C120ECE780C1212D48E828F83A3A312C5
:102724000F7812191A740412106BE970030228E46A
:10273400AA0AAB0B0228EE790412044DE964017075
:102744002E78009003AAE064047006A3E06401609C
:102754001878019003C6E064047006A3E064016085
:1027640008750A00750B0080031228F1022831E570
:1027740009A2E05006EEFAEFFB80047A007B000227
:1027840028EE790412044DE96401702D7800900359
:10279400AAE064047006A3E0640160187801900361
:1027A400C6E064047006A3E064016008750A00755D
:1027B4000B0080791228F18074790112044DE964C8
:1027C40001702278009003AAE064017006A3E0641B
:1027D40001605778019003C6E064017045A3E0648A
:1027E400016047803DE509A2E05006EEFAEFFB8068
:1027F400047A007B000228EE790112044DE9640199
:10280400706778009003AAE064017006A3E0640195
:10281400601878019003C6E064017006A3E06401C7
:102824006008750A00750B0080031228F1E509A2FF
:10283400E04003022734850A82850B83A3A3780C26
:10284400120F5A908080780C120ECE780C1212D48B
:102854008E828F83A3A3120F7812191A7404121094
:102864006BE960030227348077790212044DE9642E
:1028740001706778009003AAE064027006A3E06424
:1028840001601878019003C6E064027006A3E06456
:10289400016008750A00750B0080031228F1E50930
:1028A400A2E04003022734850A82850B83A3A37820
:1028B4000C120F5A908080780C120ECE780C1212E3
:1028C400D48E828F83A3A3120F7812191A74041260
:1028D400106BE960030227348006E509A2E0500684
:1028E400EEFAEFFB80047A007B000225D1E875F054
:1028F4001CA4F8A9F074AA28F50A740339F50B226C
:1029040074F71210C589087A007EAA7F038E828F1D
:1029140083A3E060030229A28E828F83E0F4601017
:102924009003A8E0F8A3E0F9EE687002EF69606E26
:102934008E828F83E508F012049BEAF8EBF9ECFA37
:10294400EDFB8E828F83A3A3120F908E828F83A3BD
:10295400A3A3A3A3A3E4F0A3F01229D61229BC7461
:1029640001F01229C61229E3E4F0A3F08E828F83CA
:10297400A304F09003A6E04508F09003A5E004F05A
:102984006401600C74806508600674406508700812
:102994009003A8EEF0A3EFF0EEFAEFFB80150AEE39
:1029A400241CFE50010FEAC3940250030229117A39
:1029B400007B007F01021197EE2414F582E43FF5B9
:1029C40083221229CC740122EE2415F582E43FF50A
:1029D40083221225DA74FFF0A3F0A3F0A3F022F00F
:1029E400EE241AF582E43FF58322C082C0838A82F2
:1029F4008B83E0F8A3E0F98A828B83E4F0A3F08868
:102A0400828983A3F088828983E0F4F89003A6E0A6
:102A140058F09003A5E014F070149003A8E4F0A318
:102A2400F0900329F0FA900328E0F9120669800176
:102A3400F0D083D082020132C082C0839003A5E02B
:102A4400600A9003A8E0FAA3E0FB80047A007B000C
:102A540080DFC082C083E9FB78009003AAE06B703A
:102A640016E875F01CA4F8A9F074AB28F582740379
:102A740039F583E0F9800B78019003C6E06B60E1DF
:102A8400790080ADE0F980A9C082C0837A00900308
:102A9400AAE0697018A3E064017012EA75F01CA43E
:102AA400FAABF074AA2AFA74033BFB80127A019001
:102AB40003C6E0697006A3E0640160DF1A7B0002CC
:102AC4002A35C082C0839003A580B974F41210C55E
:102AD400E9900328F01204B3907800E0C4540F5432
:102AE4000764037004793F8002797F7508067509CD
:102AF4000078081212D87C167D037AEA7B07120547
:102B040073740212106B900316E0F47049A3E0F49E
:102B14007044A3E0F4703FA3E0F4703AA3E0F470CF
:102B240035A3E0F4703090780EE0900316F09078BE
:102B34000FE0900317F0907810E0900318F090786D
:102B440011E0900319F0907812E090031AF0907855
:102B540013E090031BF090031C122C5C1231FA90CA
:102B6400033A7406F0A3740D122E3C7442F0A3745D
:102B740001F0900344122C5C900343E4F090035161
:102B8400F0A374A0122E3C7403F0A37407122E3C1D
:102B94007428122E3C04F0A3E4F090037AF090031E
:102BA4009D74FFF0A3E4F090039FF09003A104F060
:102BB4009003A27490F0A37401F01203E112038D48
:102BC40012045F79017AA47B031204119003A4E038
:102BD40075F01484E5F004F01204177A00900328C9
:102BE400E0F9120669907803E0644270569003A4F9
:102BF400E014F0704EC2AF122BFE007822D0E0F643
:102C040018D0E0F6E59F5407F870057509FF8003B6
:102C140075097FC4C0E07821E6F50808E65509F592
:102C240009740B7808121033D0E02508F89062700C
:102C3400E0A2E740F8E8C333906272F0906270E07B
:102C4400D2E0F090033FE4F0A3F07A80FB900328F5
:102C5400E0F9120609022E2A74FF122E42F0A3F0A4
:102C64002274F41210C5EAFEEBFFEEA2E0503F908E
:102C7400032AE0C39480E0500F25E0F8E433F974AC
:102C8400FB28F5827408800EF425E0F8E433F97427
:102C94000928F582740939F5831231AC1210C37A0C
:102CA40000900328E0F9120669EE6401803B548029
:102CB400603B9003A2122E2FE849602A7900120685
:102CC400639003A2E0F508A3E0F509E4F50AF50B27
:102CD40078081212D47A007B01900328E0F91206D6
:102CE400CF740412106BEE6480FAEF802DEF540160
:102CF400600C7901120663EEFAEF6401801CEF5454
:102D040002600AC2AF75C9AB75C95B80FEEF54049B
:102D1400600B1219FBEEFAEF6404FB801790032F8B
:102D2400E06401700BEE54206006EE6420FA800427
:102D34007A007B00022E2AC082C083C2AF12048FA5
:102D4400E5E170FC75E1011203CF75E1F11204BFF6
:102D54001203C3790712050D7901120513790212C2
:102D640004E31204F5120501790012050779011232
:102D74000507908064120F781204CB900351E4F09D
:102D8400A3F0A3F09003557407F09003547403F078
:102D940090035AE4F0900359F090037AF01204235C
:102DA4001204057900120519906012E4F0A3F09062
:102DB4006063F0751D00900329F090032BF0A3F0DD
:102DC40090032EF090032F04F090033904F0900345
:102DD400A0E4F0D2AFF9022E23C082C08390031680
:102DE400122E35900317122E0FF0900318122E0F87
:102DF400A3F0900319122E0FA3A3F090031A122E1E
:102E040016F090031B122E16A38011E08A828B8386
:102E1400A322E08A828B83A3A3A3A322F07900D008
:102E240083D0820201327F04021197E0F8A3E0F913
:102E340022E08A828B83F022F0A3E4F0A322F0A3A1
:102E4400F0A3F0A3F0A3227F0202119774F71210EB
:102E5400C5EAFEEBFF8908E9605D74016508601549
:102E640074036508603B7402650860357404650882
:102E74006003022F25740B1210A1122E2FE8497043
:102E840003022F25740A1210A1E0F8600874016887
:102E94006003022F257403650860067402650870D8
:102EA4002AEE2460F8EF122FDE5076EC2460F8ED61
:102EB400122FDE4016806AEE24E0F8EF122FD35072
:102EC40060EC24E0F8ED122FD35056C3EC9EED9F36
:102ED400404F74091210A1E0FA600574016A704150
:102EE400740E1210A1E0F8600F740168600A740295
:102EF4006860057403687029740D1210A1E0F974F8
:102F04000759601D900351E064017005790C022F8C
:102F1400D1E508600C7401650860067404650870E6
:102F2400057912022FD1740759900355F0E50890E2
:102F34000354F0E8900356F0EA900343702FE4F052
:102F4400900316E0900344F0900317E0900345F0DB
:102F5400900318E0900346F0900319E0900347F0C3
:102F640090031AE0900348F090031B802E7401F044
:102F740090031CE0900344F090031DE0900345F09F
:102F840090031EE0900346F090031FE0900347F087
:102F9400900320E0900348F0900321E0900349F06F
:102FA400E870047900801974016870047901801054
:102FB40074026870047902800774036870057903E9
:102FC4001204FB900352EEF0A3EFF0790080163464
:102FD400FFF9C3E894E1E9943F2234FFF9C3E8948C
:102FE40061E9943F227F0102119774F61210C5E93A
:102FF400FEC39420500BEE90035AF0601EEA4B700F
:10300400047912801E1231F11212D8EAFCEBFD7A17
:103014005B7B031205C7740212106B900359740191
:10302400F07900022E4B74F41210C5E9FF900329C5
:10303400E064097003023135E0640A70030231353B
:10304400E0640B7003023135E0640C700302313527
:10305400E0640D7003023135900354E0601664019E
:103064006012E06403600DE064026008E0640460E0
:10307400030231A8900343E0600764016003023156
:10308400A8900354E064036005E0640270109003A8
:1030940052C3E094A0A3E0940050030231A890032B
:1030A40054E070030231A8640170030231A8E064A3
:1030B4000470030231A8EF7003023141146003026B
:1030C40031A8900351E064016067790112043B90D8
:1030D4000341EAF0A3EBF09003517401F09003294B
:1030E400E0705512049B8A088B098C0A8D0B908022
:1030F400687808120ECE90806C7808120F34900312
:10310400411231ACA3A37808120F69900341E0F88F
:10311400A3E0C82406F582E438F583E4F0A3F012B2
:1031240003EDE960107A417B03120441900351E4FA
:10313400F0792180051204297900022E2A90035186
:10314400E060EEA2AFE433FEC2AF7A417B03120427
:1031540041900351E4F0120459E9704112048F9034
:103164006182E0C2E6F0E5E170FC75E1017591BFB2
:1031740075E1F190032FE0640170187A207B0090D0
:103184000328E0F91206DB7A207B00900328E0F99B
:1031940012060F7A00900328E0F9120669EEA2E005
:1031A40092AF809479128092E0F8A3E0F58388824C
:1031B4002274F61210C5E9FEC39420500BEE90035E
:1031C4007AF0601EEA4B70047912801E1231F112FB
:1031D40012D8EAFCEBFD7A7B7B031205C77402125A
:1031E400106B9003597401F07900022E4BE0F5083E
:1031F400750900780822900316E0900322F09003EA
:1032040017E0900323F0900318E0900324F0900358
:1032140019E0900325F090031AE0900326F0900340
:103224001BE0900327F022C082C083E9F8123365C3
:10323400E0D2E5F0E0A2E350FBE0C2E5F0A3E064F5
:10324400086005E06410700EE8C3334AA3F012333B
:1032540065E0A2E350FB906231E0F98001F0D08395
:10326400D082020132C082C083906234740CF09028
:103274006233E4F0906230E0547CF0E049F0E044E2
:103284004480DA74F51210C58A0AECFEEDFF750865
:10329400007A01120213E964407049E50AC39402FA
:1032A4004008906230E0D2E28010E50A6036740192
:1032B400650A7007906230E0C2E2F0123365E0A262
:1032C400E350FB906232E08E828F83F0A3AE82AF34
:1032D400830508150A906231E0645060CDE06458BB
:1032E40060021508906230E0D2E4F0123368E0A284
:1032F400E440FBA9087F0302119774F61210C58AF3
:1033040008ECFEEDFF7A00120213E96418600375FD
:1033140008007800800108E8C39508502E8E828F3B
:1033240083E0906232F08E828F83A3AE82AF8312E9
:103334003365E0A2E350FBA3E0642860D9E0643085
:103344007007740128F50880028808906230E0D282
:10335400E4F0123368E0A2E440FBA9087F02021102
:1033640097906230E0C2E3F022C082C08390623062
:10337400E0900282F0906233E0900281023261C0F8
:1033840082C083900282E0906230F0900281E090EB
:10339400623302326174F71210C5E9900283F012AD
:1033A400026D1202499080BC1212EB7A017B0090EC
:1033B4000283E0F91206CF740412106B7F0102112C
:1033C40097C082C0831202551206F3E9900284F07A
:1033D400120285E9900285F0900284E070081205DB
:1033E400A9E9900286F012071D12027312027F02ED
:1033F400326274F61210C574FA121055EAFEEBFF2D
:1034040054806017900283E0F91205F1EA4B6003DF
:103414001205DFEEFAEF6480023690EEA2E0502C43
:1034240012023D9080401212EB7A027B00900283DC
:10343400E0F91206D5740412106B7A027B00900234
:1034440083E0F9120609EE640102368E5402700319
:1034540002355412025B900876E4F0A3F0900284E3
:10346400E0640170369008781236AB40271206FFEC
:10347400E9640170179080141212EB7A087B0090B3
:103484000283E0F91206CF740412106B900878E4FA
:10349400F0A380069008781236B4F0900285E064B8
:1034A40001703690087A1236AB402712028BE96419
:1034B4000170179080141212EB7A107B0090028333
:1034C400E0F91206CF740412106B90087AE4F0A3AA
:1034D400800690087A1236B4F0900286E064017097
:1034E4003F90087C1236AB40301205AFE96401709E
:1034F400199080141212EB7A207B00900283E0F979
:103504001206CF740412106B80077AFF7BFF120738
:103514003B90087CE4F0A3800690087C1236B4F05B
:10352400120279E9FA790112074D90087E1236AB3E
:10353400400E12024F12072F90087EE4F0A380067B
:1035440090087E1236B4F0120723EE640202368E1F
:10355400EE54046009120261EE640402368EEE54E5
:1035640008603B851A82851B83E4F0A3F074021281
:1035740010A1E4F0A3F074021210BBAA1AAB1B1240
:103584000705E96401701112369F12073B74021299
:1035940010A11236A5120741EE640802368EEE54CD
:1035A40010606274021210A1E4F0A3F0851A8285FF
:1035B4001B83F0A3F074041210A1E4F0A3F07404CC
:1035C4001210AB8808890978081212D874021210F4
:1035D400BB74041210B3120291740212106BE964EA
:1035E40001701C74021210A11236A512073B123688
:1035F4009F12074174041210A11236A5120747EE58
:10360400641002368EEE54206049851A82851B832D
:10361400E4F0A3F0AA1AAB1B1205BBE96401702EF7
:1036240012369F12073B1205B5E9640170199080A8
:10363400141212EB7A407B00900283E0F91206CF59
:10364400740412106B80077AFF7BFF120741EE644B
:10365400208037EE54406021851A82851B83E4F074
:10366400A3F0AA1AAB1B1205C1E964017006123655
:103674009F120741EE64408011EE5480601179007E
:103684007A007B00120267EE6480FAEFFB80047A12
:10369400007B00740612106B023360851A82851B4E
:1036A40083E0FAA3E0FB22C3E09403A3E0940022A6
:1036B400E02401F0A3E0340022C082C08312053765
:1036C400790012054302326274F01210C57A03794C
:1036D4000F12053D8A088B09E4F50AF50B780812E8
:1036E40007C8908018780C120F5A7808790C1209C0
:1036F400A790801C780C120F5A7808790C1209A72D
:103704007808120825AA08AB097F0802119753F319
:10371400FEC28043FD01438F0153F3FDC28143FD8B
:1037240002438F0202013274F41210C5A2804020B9
:1037340053FDFE43F2019008801238141212D47A19
:10374400047B00900283E0F91206CF740412106B1C
:103754007F0402119774F61210C57A0379001205DA
:103764003DC3EA94F1EB94074018900880E064E8C4
:103774007004A3E06403700A9008807419F0A3E451
:10378400801EC3EA940FEB94005018900880E06404
:10379400197002A3E0700C90088074E8F0A374031D
:1037A400F08017900880E064197002A3E07008EAC2
:1037B40024FF1AEB3407FB12073553F3FE43FD01D4
:1037C400C28002336074F41210C5E9FEEA4B600D46
:1037D400EE900287F0900288EAF0A3EBF090028763
:1037E400E06028A2805004C2808004D28014F0904B
:1037F40002881238141212D47A807B00900283E07B
:10380400F91206CF740412106B8002C2800237547E
:10381400E0F508A3E0F509E4F50AF50B780822536E
:10382400F4FED29043FE0153F4EFC29443FE10021F
:10383400013253F4FDD29143FE0253F4FBC292537E
:10384400FEFB43F60443F74053F6FB438D04538CCD
:10385400FD538AFB439A10020132A292E433F9A287
:10386400E0500543F604800353F6FB02013253F3A0
:10387400F7D28343FD0853F3EFC28443FD1053F39F
:10388400DFC28553FDDF438F2043AB20538CFD53B0
:1038940089DFD2BD020132C082C08390619074047A
:1038A400F0A37448F0A37402F09061807440F09027
:1038B40061BC7403F09061877419F0906265741BA5
:1038C400F0906249E0C3941390619C40107409F035
:1038D4009060667401F090619F7428800D740BF001
:1038E400906066E4F090619F742CF0123A6E700957
:1038F400C29190032D7467800590032D7461F012BA
:103904003AC9901A04E493F46006E493F91203C9E3
:10391400790512051F023A7EC082C083E9540FF96B
:10392400906185E0696012E5C654B84441F5C6E586
:103934009E5447644170F8E9F053C6B8E59E544775
:1039440070FA023A7EC082C083A8A853A87E906110
:1039540081E4F0A3F0A3F0C2BA539AFEC289759B26
:1039640000C2C275E90075910075BF0075A9117593
:10397400B905906181F0A374C0F0A3E4F0D2BA4316
:103984009A0174805842A8023A7EC082C08374F8B7
:1039940012105590032B123EA8E8497003023A67AF
:1039A40090032BE0544060177908AA1AAB1B120449
:1039B40011AA1AAB1B12035190032BE054BFF0E081
:1039C400A2E0501E123A6E7009C29190032D7467E2
:1039D400800590032D7461F012035790032BE0547B
:1039E400FEF0E05402601E123ABC7009D2919003BA
:1039F4002D7471800590032D746AF012035790039F
:103A04002BE054FDF0E054046010901A08123ACCF4
:103A140012035D90032BE054FBF0E0540860109017
:103A24001A09123ACC12035D90032BE054F7F0E02C
:103A34005410600D123AC912035D90032BE054EF49
:103A4400F0E05420600A12035D90032BE054DFF091
:103A5400A3E05401600D1203E712036390032CE00A
:103A640054FEF0740812106B801090619A123CBEE0
:103A740090039FE0640122F0A3F0D083D08202017E
:103A840032C082C083E960051460178029123A6E3F
:103A94007009C29190032D7467801A90032D74618C
:103AA4008013123ABC7009D29190032D7471800571
:103AB40090032D746AF080C290619A123CB0900316
:103AC4009FE0640122901A0AE493906186F02274C4
:103AD400EA1210C574F4121055908070AC1AAD1B24
:103AE4007404120FA9901A0893F46003023C4590E1
:103AF4007808E0C394025003023C2990800C7404BB
:103B04001210BB7408120FA9A81AA91B88148915CE
:103B140074041210AB88088909AE08AF097510FF48
:103B24007511FF750EFF7C00750C48750D788012B9
:103B340074086C7003023BBF74096C607E740A6C79
:103B44006079850C82850D837808120F5A8E828FD6
:103B540083A909E50AC9F8881274187808120E8333
:103B6400E5124508F8C3E098A3E099850C82850D19
:103B7400837808120F5A40188E828F83741878083D
:103B8400120E83E5124508F8E0C398F8A3E0801A02
:103B940074187808120E83E5124508FAE9FB8E8240
:103BA4008F83123EA8EAC398F8EB99F9C3E89510FD
:103BB400E995115006881089118C0E0CE50C24042B
:103BC400F50C5002050DECC394135003023B3474FE
:103BD400FF6510700474FF65116024850E0874027B
:103BE400780812104274482508F58274783509F56E
:103BF400837808120F5A851482851583E508F0EE40
:103C04002402FE50010F851482851583A385821436
:103C1400858315740C1210A1E5826E7003E5836F21
:103C24006003023B2175080175090078081212D857
:103C340074021210BB7A827B061205797402121088
:103C44006B740C12106B7F0E021197C082C08390AC
:103C540061AE7468F0A3746AF090624574FBF0A3DB
:103C640004F053F4FD43FE0290039F7401F090614D
:103C7400A0E0643A90619A7019123CBE7401640128
:103C84007009C29190032D7467801E90032D746196
:103C94008017123CB0740164017009D29190032D15
:103CA4007471800590032D746A023A7D743FF0A309
:103CB400745AF09061A0747FF0227433F0A37455A9
:103CC400F09061A0743AF022C082C08375E1F19053
:103CD4000354E024FE604D14704F1203F390034329
:103CE400E0F97A447B031204C5908078120F7812AD
:103CF40004EF908064120F781204CB900355E0F91E
:103D04001204D77901120513900341E0F8A3E0C827
:103D1400241AF582E438F58374FFF0A37403F07970
:103D240000023A7E1203F980B4791280F474F71217
:103D340010C5123D7A4402F5D97582447583031285
:103D44003E237004E583640370F590035AE0600A2F
:103D5400785B7903FA123E17DAFB75E1959008FB5C
:103D6400123D8CF0A3123D8C123E2B7414F0900380
:103D7400297404023EB790035AE02407F5D990034E
:103D840043E0C4333354C02274B7123D99123D99B1
:103D9400F0A3740322F0A37403F0A374B72274F79E
:103DA4001210C5123D7A4406F5D975824475830311
:103DB400123E237004E583640370F590035AE060B7
:103DC4000A785B7903FA123E17DAFB90037A123D04
:103DD4007D4404F5D9758244758303123E2370042F
:103DE400E583640370F590037AE0600A787B7903D5
:103DF400FA123E17DAFB75E1959008FB74B1F0A353
:103E04007403123E6D123E2B7415F0900329740353
:103E1400023EB788828983123EACA882A98322120B
:103E24003EACE582644A22F0A374BDF0A37403128D
:103E34003E62123E71123E58240EF582E438F58338
:103E440074FFF0A3F0A3F0A3123E582414F582E407
:103E540038F58322F0900341E0F8A3E0C822F09003
:103E64000909741DF0A3740422123E7122F0A37494
:103E74001D123E80123E80F0A3740422123E87126B
:103E84003E8722F0A37404F0A3741D22C082C08371
:103E9400900341E0F8A3E0C82406F582E438F583F2
:103EA400E4023A7B123EB122E0F5D9A322E0F8A362
:103EB400E0F922F07F01021197C082C083E49003ED
:103EC400317808F0A3D8FC90033104023A7DF090D5
:103ED40002F9123EDA22124426F5838882A3227460
:103EE400EE1210C5890C8A0A8B0B8C0E8D0F900272
:103EF400E4E054057003023F877401650A700D9075
:103F040002FB1244E0607C9002FB800B9002FD12E5
:103F140044E0606F9002FDE0FEA3E0FFEBC3942059
:103F24005008EB6009EC450F700479028057E50CEA
:103F34009008F4F08E828F83A38582088583097CA0
:103F44001F7D007900AA08AB091205D3850B1075F3
:103F5400110078101212D8AC0EAD0FAA08AB0912DA
:103F640005C7740212106B8E828F83E50BF0F9E59E
:103F74000AAA08AB09600512033F8003120345E94E
:103F8400F9800279127F0A02119774F71210C51290
:103F940044DB7004791280391240FB6E60047903AB
:103FA400802F7A027B00900301E0F91206DB900275
:103FB400FFE4F0A3F07A04FB900301E0F91206DBBE
:103FC4009002E6E4F0A3123ED27403F079001203E7
:103FD4004B024081D083D08202013274F71210C5A3
:103FE4009002FB1244E0600D12441A12065790022C
:103FF400FBE4F0A3F09002FD1244E060109002FD97
:1040040012441D1206579002FDE4F0A3F09002E45E
:10401400E05405605F7AF57B0812032D7E00900260
:10402400E4E05405604A7A207B001206511240866F
:104034009002FB1244E060367C207D00790012057A
:10404400D37A207B001206519002FD12408990021F
:10405400FD1244E0600B7C207D0079001205D380C2
:104064000F12441A1206579002FBE4F0A3F07E13D9
:10407400EEF980097A007B0012032D79007F01029A
:1040840011979002FBEAF0A3EBF02274F61210C52C
:104094007E018A828B83A3A3A3E0FCA3E0FD8C08AA
:1040A4008D09780812131C062004EE40BA40EE4035
:1040B400CC40CC40C2401244581202FD8006124447
:1040C40058120303E9FE802474086C700374206D95
:1040D40070047901800279008A828B83A3A3A3A34D
:1040E400A31240F8FA12030980027E00EEF902449A
:1040F400159002FBE0F8A3124213E02274F21210AE
:10410400C51244DD70030241D212420EA3E0F50B46
:10411400120327E960137A0A7B001202C18A088B12
:1041240009AE08AF097A0B802A120321E960137AD9
:10413400067B001202C18A088B09AE08AF097A0710
:1041440080117A087B001202C18A088B09AE08AF7D
:10415400097A097B001202C18A088B099002E5E002
:104164007005750A008003750A019002F9E02404C1
:10417400FAA3E03400FB123ED3A3A3E0F91202CD6C
:10418400E9F9124423C8240B1241D91212DC124457
:1041940023C8240A1241D91212DC9002F9E0240443
:1041A400F50CA3E03400F50D780C1212D8E9F50CE7
:1041B400780C1212DC780A1212DCA90BAC08AD09D7
:1041C400EEFAEFFB120339740612106B80027901C8
:1041D4007F06021197F582E438F583E0F50C780C3C
:1041E4002274F71210C51244DB601AEE700C1242EE
:1041F4000E7401F0F912034BE9FEEE6004F91203A8
:1042040015790180027900024081124213A322E051
:10421400F58388822274F01210C51244DB70030205
:1042240042FA12420EE0640160030242D3120321F7
:10423400E960557A017B001202C18A088B09E4F512
:104244000AF50BC3EA9442EB9400402B9080C01211
:1042540012EB7A027B00900301E0F91206D5740494
:1042640012106BE50824C4F8E50934FFF99002FF45
:10427400E8F0A3E9F080419080BC780C120F5A78E2
:1042840008790C120D6680107A007B001202C18A34
:10429400088B09E4F50AF50BE5084509450A450BC1
:1042A400601678081212D47A027B00900301E0F9B8
:1042B4001206CF740412106B123ED37402F09002F3
:1042C400E8E07007EEF91203158027E4F0802390EC
:1042D40002E8E0701D7A037B001205D9EA4B600FF7
:1042E4001243017404F09002F91244611205E512BC
:1042F400031B7901800279007F080211978A828B5F
:104304008374D0F0EEA3F08A828B83A3A32274F685
:104314001210C5E9FEEAFF9008F4E0F4602A7A047A
:104324007B001205D9EA4B601F8A828B8374D0F01C
:10433400EF1243097402F0EE8A828B83A3A3A3F0E5
:104344009008F4E0F91205E502441574F41210C55E
:10435400E9FE74016E60030243EB9002FF1244E035
:1043640060069002E8E060121244DD700302440E1D
:104374001240FBF91202E502440E9002FFC3E094DE
:104384003CA3E09400400D9002FFE024C4F0A3E0BD
:1043940034FF80507A027B00900301E0F91206DBBF
:1043A4009002FFE0F508A3E0F509E50875F0E8A43C
:1043B400C508A8F075F003A428F875F0E8E509A489
:1043C40028F509E4F50AF50B78081212D47A027B71
:1043D40000900301E0F91206CF740412106B9002EE
:1043E400FFE4F0A3F080231244DD601E9002E4E0B9
:1043F400A2E250167A027B00900301E0F91206DB78
:104404009002FFE4F0A3F012031B80007F0402116A
:10441400977F020211979002FBE0FAA3E0FB22903F
:1044240002F9E0F8A3E02274F61210C51244DB602E
:10443400207A037B001205D9EA4B600F1243017402
:1044440003F09002F91244611205E5EE60031203D1
:104454001B0244158A828B83A3A3A3A3A3E0F8A31E
:10446400124213E0F922C082C0831244DD6010902E
:1044740002F912441D1206579002F9E4F0A3F00267
:104484003FD874F61210C574FF1210559002FB1237
:1044940044E060399002FBE02401F508A3E0340015
:1044A400F50978081212D81240F5FC74021210B300
:1044B40079011202D9740212106B8A828B83E5820D
:1044C40045836009E0A2E050047901800279007418
:1044D4000112106B024415E9FE9002F9124426F908
:1044E400E8492274F41210C574FC1210557E009031
:1044F400086EE4F090086BF07F7D75080475090080
:1045040078081212D874021210BB7A007B00EFF9FB
:10451400120573740212106B9080C47808120F5A3B
:10452400851A82851B837808120759701990086BC5
:10453400E0600FF912068DEFF912068D90086BE416
:104544008001EFF08018851A82851B83120F84E89E
:10455400494A4B7004EFFE8005EFF912068D0FEF08
:10456400C3947F409590086BE07026EE7018797DB7
:1045740012068190086C7404F0A3E4F090086EE0D5
:10458400601979008017F0120693EEF912069F80E5
:104594000AEE6004F9120687120693790102463E78
:1045A40074F71210C574FC121055E9FE851A828541
:1045B4001B83E4F0A3F0A37410F0A3E4F0AC1AADF1
:1045C4001BFAFB1206AB90086EE07005EE90086BC8
:1045D400F0740412106B7F01021197D083D0820211
:1045E400013274F41210C574FF1210558908900832
:1045F4006EE0703212057F7E007F00750A01750B34
:1046040000780A1212D874021210BBEEFAEFFBA95A
:1046140008120573740212106B851A82851B83E0DD
:10462400F4600890086E7401F0800B0EEE70010FB8
:10463400C3EF940840C574018002740412106B7FA8
:104644000402119774F41210C574FF1210558908EE
:104654007E007F00750A01750B00780A1212D87467
:10466400021210BBEEFAEFFBA908120573740212D2
:10467400106B851A82851B83E0F46007A908120673
:1046840087800B0EEE70010FC3EF940840C680A61E
:1046940074F41210C574FC1210557EFC7F07750863
:1046A4000475090078081212D874021210BBEEFACD
:1046B400EFFB90086BE0F9120573740212106B9013
:1046C40080C87808120F5A851A82851B83780812CD
:1046D400075970051246EF50C5EE2404F8E43FF97B
:1046E40090086CE8F0A3E9F002463EEE24FCFEEFED
:1046F40034FFFFC3EE9404EF94002274F41210C547
:1047040074FC1210558909EAFEEBFF8C081246EF7F
:10471400405C750A04750B00780A1212D8740212F0
:1047240010BBEEFAEFFBA909120573740212106BA9
:1047340074021210A11248FA851A82851B83AA08F2
:10474400E06A7002A3E0700AEEC398FAEF9400FBEB
:104754008020E9548070B6E82404FAE439FBC3EEFF
:104764009AEF9B4009C3EE98FEEF99FF809F7A0071
:104774007B0002463E74EA1210C574F81210558983
:1047840010750DFF747D65107005750C7E800375C2
:104794000C7D750A04750B0090086CE024FCFEA3E4
:1047A400E002487F851A82851B83A3E0548060035E
:1047B40002486B851A82851B83A80DE0687002A3EA
:1047C400E0700302486B851A82851B83E0F50DFCBB
:1047D400AA0AAB0BA90C1206998B09EA45096003D6
:1047E40002486B74021210A11248FAEEC398F5083D
:1047F400EF99F50988148915750E00750F00751267
:104804000475130078121212D874061210BBE5084E
:10481400250EFAE509350FFB90086BE0F9120573D4
:10482400740212106B74041210BBE50A250EFAE52B
:104834000B350FFBA90C1206ABE50E2404F50EE4B0
:10484400350FF50FC3E514950EE515950F50AF74AC
:10485400021210A1E02404F8A3E03400F9E50A28C8
:10486400F50AE50B39F50B74021210A11248FAC3CC
:10487400EE98FEEF99FFEE24FCFEEF1246F4405250
:1048840090086EE0706675080475090078081212C5
:10489400D874021210BBEEFAEFFBA9101205737460
:1048A4000212106B851A82851B83E0F47003A3E067
:1048B400F460030247A874021210A11248FA54804B
:1048C40070B4E82404F8500109C3EE98EF995097A6
:1048D400801AA90C12068190086EE0700A90086C88
:1048E400E50AF0A3E50BF0A910120687740812106C
:1048F4006B7F0E021197E0F8A3E0F92274F0121016
:10490400C574FC121055890B8A088B09ECFEEDFF67
:1049140074141210A1E0F50A8012E5082404F508C5
:10492400E43509F509EE2404FE50010F850A0C74E0
:10493400FF250CF50A04603D750E04750F00780E12
:104944001212D874021210BBAA08AB09A90B1205E3
:1049540073740212106B780E1212D8EEFCEFFD7411
:10496400021210B31205CD740212106BE970AB90F1
:10497400086E7401F0740412106B7F0802119774AE
:10498400F01210C5890C8A088B09ECFEEDFF900823
:104994006EE0704F750A01750B00780A1212D88AFE
:1049A4000A8B0B7402780A121033E9F50E750F00A6
:1049B4007409780E121042E50A2400FAE50B350F4B
:1049C400FB120579740212106B750A01780A12122F
:1049D400DCEEFCEFFDAA08AB09A90C1206A57401D4
:1049E40012106B8095C082C08312067BE970047933
:1049F40001800279000245DF74F71210C5740912B0
:104A040010A1E0F8A3E0F9801C8C828D83E08A82F7
:104A14008B83F08C828D83A3AC82AD838A828B835B
:104A2400A3AA82AB83E8FEE9FFEE24FF18EF34FF6C
:104A3400F9EE4F70D4024B44EEFAEFFB7F060211FD
:104A44009774F51210C5ECF8EDF9740B1210A1125D
:104A54004C83AC08AD09EC24FFF508ED34FFF509EF
:104A6400EC4D602CEAFCEBFD8C828D83A3AA82AB17
:104A740083E8FEE9FF8E828F83A3A882A9838C82B8
:104A84008D83E0FC8E828F83E06C60C679008002A7
:104A940079017F0302119774F61210C5E9FE8C08A0
:104AA4008D0978081212D8EEFC7D001207537402A7
:104AB40012106B024C7E74F61210C5EAFEEBFFEE88
:104AC4004F603DEE2405FAE43FFB1206518A088B41
:104AD40009A808A909E849602788828983E4F0A322
:104AE400F088828983A3A3EEF0A3EFF08882898300
:104AF400A3A3A3A374FFF0E82405FAE439FB80041C
:104B04007A007B00024C7EC082C083EA4B70047939
:104B1400058016124BAC60047904800DEA24FBFA7C
:104B2400EB34FFFB1206577900D083D082020132A6
:104B340074F71210C57C001205EB8004A2E092AF5A
:104B44007F0102119774F71210C5E9FEECFFEA4BDE
:104B540060269080D0E0F8EEC39840071205DF7914
:104B6400038043EA24FBF582EB34FF124D297005E0
:104B7400124BAC60071205DF7905802AEEF0740150
:104B84006F700DEAFCEBFD7A157B041205FD800BBA
:104B9400EAFCEBFD7A157B041205F77A007B80EEC4
:104BA400F912060979008098EA24FFF582EB34FFB4
:104BB400F583E0F42274F21210C5890B750C0075AC
:104BC4000D007E007F00A2AFE433F50AC2AF90046B
:104BD400158015EE4F700685080C85090DE508242F
:104BE400FBF582E509124D24124C83E50845096062
:104BF40023E50824FFF582E509124D24E0650B70D6
:104C0400D2EE4F7006AE08AF0980D27A007B8012D4
:104C14000609800B7A007B8012060FEE4F60157830
:104C24000C1212D8EEFCEFFD7A157B041206037405
:104C34000212106BE50AA2E092AF024A3CE0FAA32A
:104C4400E0FB2274F71210C5A2AFE433FEC2AF1228
:104C54004D1EE4F0A3F0800CE824FBF8E934FFF9DE
:104C6400E8FAE9FB8A828B83124D2B70EB8A828BE4
:104C740083ECF0A3EDF0EE024B407F02021197E0CB
:104C8400F508A3E0F5092274F71210C5A8A8C2AF6D
:104C94008A828B83E0FEA3E0FF124D1EEEF0A3EFA9
:104CA400F08A828B83ECF0A3EDF0E8A2E7024B429A
:104CB40074F51210C5A2AFE433F50AC2AFEC24FBBD
:104CC400F8ED34FFF9E8FEE9FF8E828F83E0F8A364
:104CD400E0F98A828B83124C83EC65087003ED65DE
:104CE4000970068A828B838012740B1210A1E0FA79
:104CF400A3E0CA24FBF582EA124D24E8F0A3E9F00C
:104D04008E828F83E4F0A3F0EC24FF124D2174FF14
:104D1400F0E50AA2E092AF024A96EC24FBF582ED9C
:104D240034FFF58322F583E0F8A3E0F9E84922741F
:104D3400F71210C5E9FE9080D0E0F8EEC398502732
:104D4400ACA8C2AFEE29F8E433F9900869E028FD75
:104D5400A3E0398D82F583E04AF0A3E04BF0ECA2A6
:104D6400E792AF790080027903024B4474F7121082
:104D7400C5E9FF9080D0E0F8EFC3985021AEA8C2F7
:104D8400AFEAF4FCEBF4FDEF29124E7FF583E05C0F
:104D9400F0A3E05DF0EEA2E792AF79008002790320
:104DA400024B44E9F874FF687006C2AF79008002D0
:104DB4007907020132C082C083120645900415E4CB
:104DC400F0A3F01206B712065D12067512064B79AF
:104DD40000024B2DC082C08312062780FB74F6129A
:104DE40010C575080012063F12056DA808E82812C0
:104DF4004E7F124D29700D05089080D0E0F8E5082B
:104E0400C39840E79080D0E0F8E508C3985066ACBA
:104E1400A8C2AFAE08EE2EFEE433FF900869E02E80
:104E2400F8A3E03FF988828983124C418882898300
:104E3400E4F0A3F0ECA2E792AFE508900915F0F9CD
:104E440074002EF58274803FF583124E8F1210C3C6
:104E540090091574FFF0A8A8C2AF900869E02EF974
:104E6400A3E03F8982F583E04AF0A3E04BF0E8A297
:104E7400E792AF800312066F024C7EF8E433F99098
:104E84000869E028FAA3E0398A8222E0F8A3E0F571
:104E940083888222C082C083900871124EA6F002D9
:104EA4004FA4E4F0A3F0A3F0A32274F01210C58978
:104EB40008EAFEEBFF1206C374101210A1780C125C
:104EC4000F5AEA4B600D8A828B83A3A3780C120FCE
:104ED4006980677A0D7B00120651EA4B60588A821A
:104EE4008B83A3A3A3A3A3A3A3A3E508124F43EE19
:104EF400F0A3EFF08A828B83A3A3780C120F698A44
:104F0400828B83E4F0A3124F43A3A3A3124EA7F012
:104F140012528A90086F6017E0FCA3E08003E8FC5B
:104F2400E9FD8C828D8312528D70F38C828D83EA1D
:104F3400F0A3EBF080047A007B007F08021197F065
:104F44008A828B83A3A3A3A3A3A322C082C083903A
:104F5400086F80048C828D83E0FCA3E0FDEC4D603F
:104F6400238C828D83A3A3A3A3A3A3E06A7003A3CA
:104F7400E06B70E08C828D83A3A3A3A3A3A3A3A35C
:104F8400E06970D0ECFAEDFB8016C082C083EA4B76
:104F9400600E8A828B83A3A3A3A3A3A3E4F0A3F04C
:104FA400D083D08202013274F61210C5AEA8C2AF0B
:104FB400740A1210A11212EB1206BD740412106BC3
:104FC4008B09A909EEA2E792AFEA4960047900804F
:104FD4000279087F0202119774F21210C5A2AFE49D
:104FE40033FEC2AF740E1210A17808120F5A78085B
:104FF4001212D41206BD740412106BEA4B60128AAA
:10500400828B83A3A3A3A3A3A3A3A3A37808120FB0
:1050140069EEA2E092AFEA4B60047900800279085D
:105024007F0602119774F41210C5A2AFE433F50899
:10503400C2AF1206C38A0A8B0BAE0AAF0BEE4F60E7
:10504400031206C9E508A2E092AFEE4F60047900AE
:10505400800279067F0402119774F21210C5750854
:1050640000750900750A00750B00A2AFE433FEC297
:10507400AF1206C38A828B83E58245836007A3A3AC
:105084007808120F5AEEA2E092AFAA08AB09AC0A54
:10509400AD0B808C74EB1210C574FC121055851A7C
:1050A40082851B83EAF0A3EBF0A3ECF0A3EDF0A957
:1050B400A8C2AF851A82851B837808120F5A9008FC
:1050C400717808120EE1E9A2E792AF12528A7003D6
:1050D40002527A90086FE0FEA3E0FF75100075118C
:1050E40000750A00750B00A2AFE433F514C2AFEEED
:1050F4002402F508E43FF50974021210A112528D3E
:10510400702074011210A1E07018851A82851B8327
:10511400E0F8850882850983E0C3984005E0C398D8
:105124008039850882850983780C120F5A851A8282
:10513400851B83780C12077E5018851A82851B8381
:10514400780C120F5A850882850983780C120F2077
:10515400800A850882850983124EA6F0EE2406F59E
:1051640012E43FF513EE2404F50EE43FF50F850831
:105174008285098312528D7052850E82850F8312A7
:10518400528D7052EE2409F50CE43FF50D850C8226
:10519400F583120F84E8494A4B60518512828513C6
:1051A40083125284EA4B60448E828F83A3A3A3A309
:1051B400A3A3A3A3E0F9120609850C82850D83122B
:1051C4000F84850882850983120F908508828509DA
:1051D4008312528D700B850E82850F8312528D605F
:1051E4000B85128285138312528D70258E828F83D4
:1051F400E0F8A3E0F9E5104511700590086F80060A
:10520400851082851183E8F0A3E9F08E0A8F0B8064
:10521400048E108F118E828F83E0FEA3E0FFE514CD
:10522400A2E092AFE50A450B6045850A82850B83AF
:10523400A3A312528D7031850A82850B83A3A3A385
:10524400A312528D7022850A82850B83A3A3A3A384
:10525400A3A3125284850A82850B83A3A3A3A3A3C9
:10526400A3A3A3E0F9120609AA0AAB0B120657EE90
:105274004F60030250E5740412106B7F0D02119706
:10528400E0FAA3E0FB2290086FE0F8A3E0F9E84914
:105294002274F01210C512528A604590086F12529F
:1052A4008475088E7509C2750AF5750B288A828B78
:1052B40083A3A3780C120F5A7808790C12076E5046
:1052C4000C850C08850D09850E0A850F0B8A828BC7
:1052D40083E0F8A3E0F9E8FAE9FBEA4B600E80CD3D
:1052E400750800750900750A00750B00AA08AB095A
:1052F400AC0AAD0B024F3EA2AFE433F8C2AF5394F5
:10530400FEE594A2E240FAE8A2E092AF75A7007528
:10531400A100759CFF75C30075A20075A30075A458
:105324000075A50075A60075C31175A20075A300CC
:1053340075A40075A50075A60075C33375A2007524
:10534400A30075A40075A50075A60075C34475A2D5
:105354000075A30075A40075A50075A60075C32289
:1053640075A22075A34E75A40075A50075A60075D9
:105374009408A2AFE433F8C2AF439401E594A2E2E7
:1053840050FAE8A2E092AF439402020132A2AFE4E1
:1053940033F8C2AF5394FEE594A2E240FAE8A2E0E7
:1053A4000255AFA2AFE433F8C2AF439401E594A22F
:1053B400E250FA80E8E9A2E7E433F8E9A2E792AF21
:1053C400802575C303851A82851B83E0F5A27401C9
:1053D40022E9A2E7E433F8E9A2E792AF851A8285CD
:1053E4001B83E0FAA3E0FB740202550CF59CE9A2CE
:1053F400E7E433F8E9A2E792AF02550AC082C0831A
:1054040074FC1210551254C775C3331254BB1210D6
:10541400A11254361210A1E0F5A674041210A1E0F2
:10542400F5A274051210A1E0F5A375A1BF43A7402E
:1054340080BCE0F5A5740222125573A9A8C2AF225C
:10544400C082C08374FE12105512546775A1FD12F8
:1054540053C61210A1E0F5A3E59C54F04401F59C59
:105464000253B912546E53A7FD22851A82851B83F9
:10547400EAF0A3EBF0A9A8C2AF22C082C08374FCF7
:105484001210551254C775A1BF439C0F75C3331234
:1054940054BB1210A11254361210A1E0F5A67404E4
:1054A4001210A1E0F5A274051210A1E0F5A3E59C89
:1054B40054F044080253F0851A82851B83E0F5A456
:1054C40074012212543C53A7BF22E5A4851A828595
:1054D4001B83F0E5A5C0E074011210A1D0E0F0E553
:1054E400A6C0E074021210A1D0E0F074031210A15F
:1054F400E4F0E9A2E7E433F8E9A2E792AF851A827F
:10550400851B83120F78740412106BD083D082022F
:10551400013274F41210C574FC121055125573A2A2
:10552400AFE433F9C2AF53A7DF75A1DF9080C87829
:1055340008120F5A851A82851B837808120759703E
:1055440005439CF0801A75C3401254BB1210A1127B
:1055540054361210A1E0F5A6E59C540F4450F59C76
:10556400E9A2E092AF740412106B7F0402119785D4
:105574001A82851B83EAF0A3EBF0A3ECF0A3EDF011
:1055840022A9A8C2AF53A7098015A9A8C2AF53A7DF
:1055940009759CFF8009A9A8C2AF439C0F800375BD
:1055A400A109E9A2E7E433F8E9A2E792AF020132E4
:1055B400A3A3A3E4F0E8A2E7E433F9E8A2E792AFF7
:1055C40002550FC082C08374FC121055A9A8C2AF43
:1055D40075C300E5A20254CEC082C083A8A8C2AF9E
:1055E40075C300E5A28A828B83A3A3A3A3F0E595E8
:1055F4008C828D83F0E5A38A828B83A3A3A3A31259
:105604005623A3A3A3E4F0E5968C828D83A3F0E54F
:10561400978C828D83A3A3F08C828D830255B4A3CF
:10562400F0E5A48A828B83F0E5A5A3F0E5A68A823F
:105634008B83A3A3F08A828B8322C082C08374FCF1
:10564400121055A9A8C2AFE595851A82851B83F06F
:10565400E596C0E074011210A1D0E0F0E597025481
:10566400E5C082C08374FE121055A9A8C2AFA8C3B6
:1056740075C300E5A2E5A4851A82851B83F0E5A520
:10568400C0E074011210A1D0E0F088C30253D574B5
:10569400F21210C58909ECFEEDFF750800E9F50A60
:1056A400750B008A0C8B0D780C12131C0203082F47
:1056B40058C75622573C577F57B157C857DF57FB37
:1056C40057125874016509600302582A900882E051
:1056D400F88E828F83E0900882F0E8601CE060031B
:1056E4000258529002B0E0640260030258529002E1
:1056F400AFE0F91202E5025852E0700302585290EA
:1057040002B0E064016008E0640360030258527A66
:10571400017B009002AFE0F91206090258527402AC
:105724006509600302582A8E828F8312597B900880
:1057340083E8F0A3E9025827E9C394204003025800
:105744002A7C1F7D0079007A867B081205D3780AAB
:105754001212D8EEFCEFFD7A867B081205C774029C
:1057640012106BE509900885F07C867D08FB7A01B0
:105774009002AFE0F91202DF02584AE9C3942040D4
:105784000302582A7C1F7D0079007AB97B02120536
:10579400D3780A1212D8EEFCEFFD7AB97B02120517
:1057A400C7740212106BE5099002B8807674016523
:1057B4000970738E828F83E0F8C394055068E89073
:1057C40002D8805F74016509705C8E828F83E0F873
:1057D400C394045051E89002D98048740665097056
:1057E40045750A06780A1212D87ADA7B021205C7BE
:1057F400740212106B80577401650970298E828FB0
:1058040083E0F8C39408501EE89002E08015740108
:10581400650970128E828F83E0F8C394045007E800
:105824009002E1F080287508188023C3EA9427EBDE
:10583400940050177402650970118E828F83E0FC06
:10584400A3E0FD1202BBE9F5088003750802A9086C
:105854007F0602119774F41210C5ECFEEDFF750873
:10586400008A0A8B0B780A12131C00030A08598950
:10587400588E589F58A458B458C358D258D758DC97
:1058840058F958FE589002B18073750A06750B00DA
:10589400780A1212D87CB27D02804C900882805D16
:1058A40090088312597B8E828F83E8F0A3E9806885
:1058B4009008851259291212D87C867D0880289078
:1058C40002B81259291212D87CB97D0280199002AB
:1058D400D8802A9002D98025750A06750B00780AAB
:1058E4001212D87CDA7D02EEFAEFFB1205C77402BD
:1058F40012106B80299002E080039002E1E08E8216
:105904008F838014C3EA9427EB9400500E1202C1D3
:105914008E828F83EAF0A3EBF08003750802A90856
:105924007F04021197E0F50A750B00780A2274F6D9
:105934001210C59002B0E07037EA4B60089002E2A2
:10594400EAF0A3EBF0E4F508F50978081212D87828
:10595400081212D87C007D007B009002B1E0FA901E
:1059640002AFE0F9120531740412106B7900800261
:1059740079117F02021197E0F8A3E0F92274EE1284
:1059840010C58A088B09890B8C0E8D0F9003E5E0F6
:1059940070099003E7E07003025A4E900304E0603C
:1059A40003025A4E890C750D00E92407FAE4340009
:1059B400FB1205D98A108B11AE10AF11EE4F700394
:1059C400025A5F74186508700474206509600C74C9
:1059D40017650870047420650970109003E7E0608F
:1059E4000AF50A8E828F837492800C9003E5E0F5A9
:1059F4000A8E828F837491F0A3740E125C1074016A
:105A0400125C18E508F0A3E509F0EE2405F8E43F7C
:105A1400F9E8FAE9FBEE2407F8E43FF98A828B837C
:105A2400E8F0A3E9F0780C1212D8AC0EAD0F8A821C
:105A34008B83E0FAA3E0FB1205C7740212106BEE2D
:105A4400FAEFFBA90A1205E58011780E1212D8AC00
:105A54000B790E12036F740212106B7F0A021197F6
:105A640074F21210C589098A0A8B0B8C0874072CEE
:105A7400FA74FF65096004780380027802E82AFA60
:105A84007B001205D98A0C8B0DAE0CAF0DEE4F7056
:105A940003025B7F8E828F837401F0A374FFF0EEA8
:105AA4002402FAE43FFBEE2404F8E43F125B84E5AD
:105AB40009125BEAE02402F8A3E03400F9890DE559
:105AC4000BF9740E1210A1125BAF74FF6509602EFE
:105AD400740325088882850D83125BEA125BB51274
:105AE4005BFAE50AF0125C07E9F085080A750B0019
:105AF400780A1212D88A828B83E0240680637402A7
:105B040025088882850D83F08C828D83E0C0E08A2D
:105B1400828B83125BA0D0E0F08C828D83A3E0C0E3
:105B2400E0125BFAD0E0F08C828D83A3A3E0C0E0A6
:105B3400125C07D0E0125BEA125BDC125BE8125BDA
