:020000040000FA
:0600000002011A0214B116
:03002B000219BAFD
:030053000215276C
:03006B0002136C11
:100083000213B3E5C754F84401F5C7790122000010
:100093000080FB120086B90003020104E4791D7895
:1000A30002B800028004F709D8FCE479217802B889
:1000B30000028004F709D8FCE490028178F67906FF
:1000C3008002F0A3D8FCD9FA781C90014A7A01BACD
:1000D30000028007E493A3F608DAF97A767B0890A6
:1000E300014B78CB79018015E493A3AD82AE838A6B
:1000F300828B83F0A3AA82AB838D828E83D8E9D9C6
:10010300E77582EB758375740012012C7582917506
:100113008300740012012C75D000758133751A8128
:10012300751B02759F00020096C09FF59FE473D074
:100133009F22D083D082C09FE493C0E0740193C018
:10014300E0740293F59F2201FFFFFFFFFFFFFFFF14
:10015300FFFF1900013075030201040000000000D5
:10016300000000000000000000000000000000008C
:1001730000000000000000FF0000B4000028002879
:1001830000283075A000A000A000A000000800080F
:10019300E001F0001000100010001000100010002B
:1001A30050005000500010001000D0070000000065
:1001B30000000F000100050030750700100001006A
:1001C30081FF00000000FFF9021703FF0225042549
:1001D30004250425042504250425042504250425D4
:1001E30004250425042504FFFF000A09436C696DF7
:1001F3006153656E73020A0002010412FF0D0000D1
:1002030000000000000000000000000000001F07C5
:100213000000120135073200120135453200120188
:1002230035633200120135DA3200120135493300E9
:100233001201355F3300120135753300120135A108
:100243003300120135DB3300120135E236001201AF
:1002530035F13600120135373700120135503700BA
:100263001201357E3700120135EE37001201354891
:1002730038001201355B3800120135723800120163
:1002830035743800120135823800120135E819003F
:10029300120135381C001201357D1C001201350096
:1002A3001E00120135C61E00120135BE20001201C8
:1002B30035A3560012013569580012013542590021
:1002C3001201354B7100120135737100120135A013
:1002D3007100120135D871001201358D73001201BE
:1002E30035A47300120135F33E001201359E3F0021
:1002F300120135EF3F001201359F40001201351006
:100303004100120135F54100120135294200120165
:10031300352243001201355F43001201353B44008F
:100323001201357A44001201359644001201351644
:100333007700120135277700120135C168001201D9
:1003430035E968001201353D690012013552690033
:10035300120135676900120135C869001201350BB6
:100363006A00120135356A001201355A6A0012011A
:1003730035915900120135745A00120135596F0035
:100383001201359C6F00120135AB2A001201354171
:100393002C00120135172D00120135B92D00120161
:1003A300352C2E00120135CA2F00120135063000FC
:1003B3001201359131001201358A5E001201355266
:1003C3005F00120135AA6000120135AB380012013B
:1003D300352C39001201355939001201359E390087
:1003E300120135953A00120135E33A001201355FE7
:1003F3003C00120135DC3C00120135413D00120185
:1004030035B23D00120135A03E00120135CD3E004C
:10041300120135356D00120135416D00120135159C
:100423006E00120135DD19001201354F2300120150
:10043300357E23001201356A2400120135CC2500D4
:10044300120135E02800120135CA290012013518BE
:100453002A00120135322A00120135682A001201DE
:1004630035A22A001201350B5300120135A15300A6
:10047300120135B7530012013510540012013554DF
:1004830054001201358E5400120135265500120115
:10049300359555001201359E5500120135AA5500B8
:1004A300120135D75500120135EC55001201354EB6
:1004B3005600120135755600120135D46000120141
:1004C30035E16000120135FB60001201352E610039
:1004D300120135936100120135A86100120135B391
:1004E3006100120135C06100120135D761001201AC
:1004F30035E56100120135F06100120135FF61003D
:100503001201351C62001201352C620012013542C2
:1005130062001201355E6200120135696200120148
:10052300357E620012013592620012013564750056
:10053300120135907500120135F476001201351859
:100543007200120135297200120135CC72001201BA
:10055300353E76001201357D760012013530770085
:10056300120135D77200120135E77200120135F618
:100573007200120135877300120135546E001201A7
:1005830035D86E00120135406F00120135437700F4
:10059300120135467700120135F87F00120135ED5F
:1005A30066001201355D6800120135BE6800120154
:1005B30035826A00120135BF6A00120135F26A0002
:1005C300120135276B00120135A96B001201350C9E
:1005D3004A00120135554A00120135AB4A00120197
:1005E30035CA4A001201351B4B00120135444B003A
:1005F300120135594B00120135C94B001201355711
:100603004C001201359B4C00120135C44C00120101
:1006130035434D00120135804D00120135B74D00B1
:10062300120135C94D00120135E84D00120135F1B3
:100633004D00120135D574001201350E6C00120104
:1006430035386C00120135547000120135FF620019
:10065300120135356300120135686300120135C19B
:1006630064001201353474001201354A740012011A
:1006730035547400120135AA7400120135877600CF
:10068300120135F74400120135B44500120135F665
:100693004500120135584600120135A446001201E7
:1006A300350F470012013589470012013510490003
:1006B300120135934900120135F94900120135A899
:1006C3004E00120135BE4E001201355F4F0012017C
:1006D300359E4F00120135BB4F00120135EC4F0020
:1006E3001201353950001201356D5000120135A841
:1006F3005000120135A55200120135FB64001201AE
:10070300353B65001201358A6500120135BE65006F
:100713001201352D5C00120135C35C001201354115
:100723005D00120135625D00120135B15D001201F9
:1007330035DD5D00120135235E001201352D5E00AB
:10074300120135375E00120135535E001201355D2B
:100753005E00120135705E00120135C87600E06656
:10076300701008A3E066700A08A3E066700408A38B
:10077300E06622C3E7960809E7960809E7960809A1
:10078300E79622C3E09608A3E09608A3E09608A3A1
:10079300E09622C008C3E096F50808A3E096420855
:1007A30008A3E096420808A3E09645087001D3D059
:1007B3000822080808E630E711120E5D1207CD087B
:1007C3000808C64480C618181822181818E9799E14
:1007D300C608CAC608CBC608CCC6C370207996CA59
:1007E300CBCC7019798ECBCC70137986CC700EF983
:1007F300802ACA33CACB33CBCC33CC331930E7F29C
:10080300CCCBCA3350147004EA30E00DE4CA3ACAC0
:10081300CB3BCBCC3CCC500209C3E913C6CC182349
:1008230013C6CB18C6CA18C6F92212086D20F014D5
:1008330030E72B74FFFCFBFA747F8022E4FCFBFAA5
:100843007480801AB48008BC00F2BB00EF800F50A4
:10085300EBF9E4C39AFAE49BFBE49CFCE499C6CC71
:1008630018C6CB18C6CA18C6F922E4C9C608CAC630
:1008730008CBC6D3330308CCC63392F0C3947F406E
:100883002E94184019C9B90704CACBCC225025C3EA
:1008930009CA33CACB33CBCC33CC33D9F422F4607B
:1008A3000DC9CCC313CB13CBCA13CAD9F6CC22E4DC
:1008B300FCFBFA2214FCFBFA22E62618461846181B
:1008C3004622E72719471947194722181818E60837
:1008D30046087009E626087005E633F42208221953
:1008E3001919E70947097009E727097005E733F480
:1008F300220922E6084608C3134608336002E6339A
:10090300F422E7094709C3134709336002E733F4C5
:10091300221208F6601C12090560171208BC700742
:100923001208C57001D322C0D01208C57006D0D0FA
:10093300B322C32233D0D0501430E0F6C3E7960875
:1009430009E7960809E7960809E796B32220E0D558
:10095300E6970809E6970809E6970809E697B32298
:100963001208F6601B12090560161208BC70071204
:1009730008C5600CB322C0D01208C57005D0D022C0
:10098300C32233D0D0501330E0EBC3E7960809E716
:10099300960809E7960809E7962220E0E4E6970817
:1009A30009E6970809E6970809E69722001208F670
:1009B300604F1209056012E7548066F61208CE7084
:1009C300111208C5703B090909F4F618F618F61850
:1009D300F6221208E270151208BC08080860EAE65D
:1009E300447FF618768018E4F618F6221208BC60E5
:1009F300161208C57012E4F608F608F608E65480E5
:100A0300F609090918181822EAC0E0EBC0E0ECC0A7
:100A1300E0EDC0E0E687F0A4FBACF008E687F0A4C5
:100A23002CFCE435F0FA1809E687F0A42C4B60029D
:100A33007401CA35F0FCE433FB09E687F0D2F7A46E
:100A43002CCB35F0FC1908E687F0A42BCC35F0FB52
:100A5300E433FD0819E687F0D2E7A42C4ACB35F03E
:100A6300CD3400FC09E687F0D2E7A42DCC35F0FDA8
:100A7300E433FA0918E687F0D2F7A42CCD35F0CA8F
:100A83003400FC08E687F0D2E7D2F7A42ACC35F08D
:100A93007A7E20E70B0ACB33CBCD33CDCC33CC33AB
:100AA300CB3350147004ED30E00ED2F1E4CD3DCDE4
:100AB300CC3CCC3B5005DA05C2F1EB547FC633087E
:100AC300E63392F0FBE73309E733C39A502D2B70DB
:100AD300190C0D4C4D70151806E608C333700D2024
:100AE300F10AA2F013F6E418800B4024E4F630F088
:100AF30002768018F618F618F68024D33B145010AB
:100B030074FFA2F013F6187680E418F618F6800F37
:100B1300A2F013F618E63303F618ECF618EDF6D048
:100B2300E0FDD0E0FCD0E0FBD0E0FA221209056042
:100B3300461208F6603DE9687008F618F618F618CC
:100B4300F622748067F7120B63090909748067F74B
:100B5300221208F6601D1209057005191919801A69
:100B63001208CE701F1208E2C37003E66733191927
:100B73001940071818182208080874FFF618F61801
:100B8300F618F6221208E260171208C5702192F0D7
:100B93001208BC7019501720F01408080809090935
:100BA300E7F61819E7F61819E7F61819E7F6221207
:100BB30008BC60E6E869701F0808E62480F608E4CC
:100BC30036F618547FB47F0CE654806007F6E418B9
:100BD300F618F622181822E9C6CC08C6CD08C6CEE8
:100BE30008C6CFC0E0E8C0E0EAC0E0EBC0E009E936
:100BF300F809E7FA09E7FBE6F918E6F8C3EC98ED1C
:100C030099EE9AEBC2E7F5F0EFC2E795F0500E606C
:100C13000CEBCFFBEACEFAE9CDF9E8CCF8EAA2E790
:100C2300D2E7FAEB33FB13F5F0EEA2E7D2E7FEEFE0
:100C330033FFC5F013A2E730E601B313C5F0C3C019
:100C4300E0C0F07F00C39BFB605E9418600F401D03
:100C530014601AD0E023F9D0E0F8020D358AF0E9E8
:100C6300486003D2F0E4AFF0FAF9F8803BEB30E4EC
:100C73000D89F0EA6003D2F0E4AFF0F9CAF8EB3083
:100C8300E30D88F0EF6002D2F0AFF0E4CAC9F8EBED
:100C930054076014FBC3EA13FAE913F9E813F8EFF6
:100CA300135002D2E0FFDBEDD0E0C0E030E739C300
:100CB300E49FFFF5F0EC98FC42F0ED99FD42F0EE75
:100CC3009AFE42F0D0E0F9D0E0F8E5F0607AE9234B
:100CD300F9EE20E742D8028067C3EF33FFEC33FC21
:100CE300ED33FDEE33FE80EAEC28FCED39FDEE3A00
:100CF300FED0E023F9D0E0F84002801BC3EE13FEE0
:100D0300ED13FDEC13FCEF135002D2E0FF08B80023
:100D1300067F7F74FF802EEF3350178CF020F00294
:100D230060100CBC000C0DBD00080EBE000408E8EA
:100D330060DFE933E813FFEE2313FE4F4D4C8008C9
:100D4300E95480FFE4FEFDFCEE33EF33F47004FC62
:100D5300FD7E80D0E0FBD0E0FAD0E0F8D0E0CFC653
:100D630018CEC618CDC618CCC6F922080808EAC0A2
:100D7300E0EBC0E086F0E7A4FA180986F0E7A42ABE
:100D8300FA180986F0E7A42AFA180986F0E7A42AD4
:100D9300FA1986F0E7A4FBE5F02AFA190886F0E7CA
:100DA300A42BFBE5F03AFA190886F0E7A42BFBE540
:100DB300F03AFA18180986F0E7A4C5F02BFBE43AD9
:100DC300FA1908E7C5F0C6A426F6E5F03BFBE43ABA
:100DD300FA1886F0E7A4F6E5F00826F6E43B08F6F1
:100DE300E43A08F6D0E0FBD0E0FA22E4CFC0E0E436
:100DF300CEC0E0E4CDC0E0E4CCC0E075F020E62650
:100E0300F608E633F608E633F608E633F61818185C
:100E1300EC33FCED33FDEE33FEEF33FFC3EC970908
:100E2300ED9709EE9709EF97191919400FFFEC9702
:100E3300FC09ED97FD09EE97FE191906D5F0BFECF5
:100E4300F709EDF709EEF709EFF7191919D0E0FCE7
:100E5300D0E0FDD0E0FED0E0FF22181818E4C396DE
:100E6300F608E496F608E496F608E496F622601788
:100E7300080808C6A2E713C618C613C618C613C6C1
:100E830018C613C6D5E0E9226016080808C6C313BE
:100E9300C618C613C618C613C618C613C6D5E0EAC5
:100EA300227009080808226016181818C6C333C62A
:100EB30008C633C608C633C608C633C6D5E0EA2219
:100EC300E627F60809E637F60809E637F60809E6DD
:100ED30037F622E026F608A3E036F608A3E036F656
:100EE30008A3E036F622E026F008A3E036F008A3D4
:100EF300E036F008A3E036F022C3E697F60809E6E9
:100F030097F60809E697F60809E697F622C3E0C6BE
:100F130096F608A3E0C696F608A3E0C696F608A3DD
:100F2300E0C696F622C3E096F008A3E096F008A385
:100F3300E096F008A3E096F022E056F608A3E05608
:100F4300F608A3E056F608A3E056F622E647F608AD
:100F530009E647F60809E647F60809E647F622E0F8
:100F6300F608A3E0F608A3E0F608A3E0F622E6F00D
:100F730008A3E6F008A3E6F008A3E6F022E0FAA34C
:100F8300E0FBA3E0FCA3E0FD22E0F8A3E0F9A3E08B
:100F9300FAA3E0FB22E8F0A3E9F0A3EAF0A3EBF065
:100FA30022CAC0E0E6F0A308DAFAD0E0FA22CAC007
:100FB300E0E0A3C582CCC582C583CDC583F0A3C5BC
:100FC30082CCC582C583CDC583DAE6D0E0CA22B917
:100FD3000010BB0008E88AF084F8AAF022E4FBC8FA
:100FE300FA22EB70227B10C833C8C933C9335007C8
:100FF300C39AC3DBF280069A50012ADBEAC833F4B2
:10100300C8C933F4C9FA2275F008E4C833C8C93330
:10101300C933C99AC99B5004C92AC93BD5F0ECFB13
:10102300C833F4C8E4C9FA22600D08C6A2E713C6A0
:1010330018C613C6D5E0F322600C08C6C313C6183E
:10104300C613C6D5E0F422700422600D18C6C3335C
:10105300C608C633C6D5E0F41822251A10AF08F522
:101063001A400C151B8008F51A4002151BD2AF223B
:1010730000C0D0251A10AF08F51A500C051B8008C4
:10108300F51A5002051BD2AFD0D022251AF58210D3
:10109300AF08F51A400C151B8008F51A4002151B02
:1010A300D2AF851B8322251AF582E4351BF58322F3
:1010B300251AF8E4351BF922251AFAE4351BFB221D
:1010C300251AFCE4351BFD22E473251AC582C0E012
:1010D300E51B34FFC583C0E0E51AC3958224F810ED
:1010E300AF0885831B85821A800885831B85821A36
:1010F300D2AFCEF0A3E520F0A37808E608F0A3DE94
:10110300FAEFF0A3E58124FAF8E608F0A3E608F085
:10111300A3E608F0A30808E608F0A3E608F0A31581
:10112300811581D0E0FED0E0F8158115811581E8A5
:10113300C0E0EEC0E022251AC582C0E0E51B34FF03
:10114300C583C0E0E51AC3958224F910AF088583EF
:101153001B85821A800885831B85821AD2AFCEF045
:10116300A3E520F0A37808E608F0A3DEFAEFF0A3E6
:10117300E58124FBF8E608F0A3E608F0A30808E6F7
:1011830008F0A3E608F0A315811581D0E0FED0E0B6
:10119300F815811581E8C0E0EEC0E022851B838548
:1011A3001A82E0A3FEE0A3F5207808E0A3F608DFA7
:1011B300FAE0A3FFE0A3C0E0E0A3C0E0E0A3C0E047
:1011C300E0A3C0E0E0A3C0E010AF0885821A8583E6
:1011D3001B800885821A85831BD2AFD083D08202FD
:1011E3000132851B83851A82E0A3FEE0A3F52078F4
:1011F30008E0A3F608DFFAE0A3FFE0A3C0E0E0A362
:10120300C0E0E0A3C0E0E0A3C0E010AF0885821A0D
:1012130085831B800885821A85831BD2AFD083D038
:101223008222C0D0251AC582C0E0E51B34FFC583E6
:10123300C0E0E51AC3958224F310AF0885831B85AC
:10124300821A800885831B85821AD2AFC8F0A3E96E
:10125300F0A3EAF0A3EBF0A37908E709F0A3D8FA27
:10126300ECF0A3EDF0A3EEF0A3EFF0A3D0E0F0A336
:10127300D0E0F0A3D0E0F0A3E520F0A3E5F0F0A3E5
:1012830022851B83851A82E0C0E0A3E0F9A3E0FA7C
:10129300A3E0FBA37808E0F608A3DFFAE0FCA3E0F1
:1012A300FDA3E0FEA3E0FFA3E0C0E0A3E0C0E0A352
:1012B300E0F5D0A3E0F520A3E0A3F5F010AF088597
:1012C300831B85821A800885831B85821AD2AFD03F
:1012D30082D083D0E0F8D0E03274048006740280B8
:1012E300027401C0E0F40412108ED0E0120FA422A5
:1012F3007404800474028000CCC0E0EDC0E0E51A01
:10130300C39CCCAD1B50011D10AF068C1A8D1B80E6
:10131300068C1A8D1BD2AF120FB1D0E0FDD0E0FCCA
:1013230022D083D082E9C0E0E493A3C386F0C5F062
:1013330095F0F908E493A386F0C5F095F0700BE4FB
:1013430093A3C3994005E9048002A3E475F002A4C2
:101353002582F582E5F03583F583D0E0F9E493A3A4
:07136300C0E0E493C0E022AA
:10136C00C0E074F2121225A2AFE433FED2AFA28514
:10137C0050217A01790212075579051207317A004A
:10138C00790212075579017AE87B031202695389B5
:10139C00DFC2C5751C00EEA2E092AF7F0102128481
:1013AC00851D87851EC622C0E074EF121225A2AFE0
:1013BC00E433FEC2AF759B00906182E0A2E050095D
:1013CC00E591A2E050037591FEE0A2E55009E5918C
:1013DC00A2E550037591DFE0A2E64003021487E515
:1013EC0091A2E640030214877591BF900329E06433
:1013FC0005700812049112049D8003120497751D48
:10140C00001204F1E990032AF079001204E51203AA
:10141C00DD7A017B00900328E0F912061190780325
:10142C00E0644270569003A4E014F0704EC2AF1208
:10143C00143E007822D0E0F618D0E0F6E59F540771
:10144C00F870057509FF800375097FC4C0E0782129
:10145C00E6F50808E65509F509740B780812103BF7
:10146C00D0E02508F8906270E0A2E740F8E8C333BA
:10147C00906272F0906270E0D2E0F0906181E0A234
:10148C00E35009E5E9A2E3500375E9F7A3E0A2E70D
:10149C005009E591A2E7500375917FEEA2E092AF5F
:1014AC007F04021284C0E0C0D0C082C083906183EC
:1014BC00E0A2E05009E5BFA2E0500375BFFEE0A238
:1014CC00E15009E5BFA2E1500375BFFDE0A2E25077
:1014DC0009E5BFA2E2500375BFFBE0A2E35009E5AA
:1014EC00BFA2E3500375BFF7E0A2E45009E5BFA229
:1014FC00E4500375BFEFE0A2E55009E5BFA2E5504B
:10150C000375BFDFE0A2E65009E5BFA2E650037504
:10151C00BFBFD083D082D0D0D0E032C0E074F21202
:10152C001225E5A7A2E6500FE5A1A2E6500953A7A4
:10153C00BF75A1BF12157BE5A7A2E5500CE5A1A2D2
:10154C00E5500653A7DF75A1DFE5A7A2E15009E539
:10155C00A1A2E1500375A1FDE5A7A2E2500CE5A103
:10156C00A2E2500653A7FB75A1FB7F010212847403
:10157C00F7121139751D01900329E06406701512DC
:10158C00044F8A828B83A3A3A3A3A3A3E0FAA3E0B3
:10159C00FB12047FA2AFE433FED2AF90032FE064C2
:1015AC000170187A207B00900328E0F91206E37A88
:1015BC00207B00900328E0F9120617906182E0D29C
:1015CC00E6F09003A1E0602185C61E801690032EE4
:1015DC00E064017008E5C654F84405F5C653BEFC3A
:1015EC001213AC7401651D60E4EEA2E092AF7F02B1
:1015FC000211E574E912113974FA12105DEAFEEB6E
:10160C00FF8C0A8D0B1204AFEAF8EBF9ECFAEDFB48
:10161C008E828F83120F98900329E024F7C39405D0
:10162C00500675140102176612044F8A088B09EADA
:10163C0045097003021763EEFCEFFDAA1AAB1B12EF
:10164C0004A9850882850983A3A3780C120F6290E4
:10165C008070780C120F3C851A82851B83781012CF
:10166C000F629080707810120F3C780C7910120772
:10167C0076501F780C7910120EFC908088780C1222
:10168C0007964047850C14850D15850E16850F178A
:10169C008045908088851014851115851216851348
:1016AC00177814790C120EFC7814120796501C75CE
:1016BC001400751500751600751701781479101241
:1016CC000EFC7814790C120EC3800C751401751570
:1016DC000075160075170074097814120EA490800A
:1016EC008C780C120F627814790C120DEE8508822E
:1016FC00850983A3A3A3A3A3A3121784120FD288D3
:10170C000C890DE4F50EF50F7814790C120EC374D8
:10171C00041210A9121784120FD2E8FA8A0CE4F5FD
:10172C000D7814790C12077650077814790C120E78
:10173C00FC900329E06408600AE064066005E0643C
:10174C000570209080907814120796501690809413
:10175C007814120ED6800C751400751500751600D1
:10176C00751700850A82850B837814120F71740625
:10177C001210737F100211E5E0F8A3E0F97AD07B28
:10178C00032274F71211391204C190039FE0640113
:10179C007010906245E4F0A3F053F4F343FE0C5345
:1017AC0090F312046DE5C654B84441F5C6E59E5459
:1017BC0047644170F8906185740FF090039DE0F4DC
:1017CC007002A3E0604E90039EE0600814601B144E
:1017DC00602E804075080175090090039DE0780823
:1017EC0012104AE508F45280802A75080175090028
:1017FC0090039DE0780812104AE508F4529080148A
:10180C0075080175090090039DE0780812104AE5EF
:10181C0008F452A079007F020211E574F712113915
:10182C00E9FEEAFF1204C174016E700C7A807B0031
:10183C00900328E0F91206119019E0E493F4600883
:10184C00E493F91203D1800953C6B8E59E5447704E
:10185C00FA12047390039FE0640170031203EF907B
:10186C00039DE0F47002A3E0604B90039EE06008DF
:10187C0014601A14602C803D7508017509009003E2
:10188C009DE0780812104AE508428080287508010E
:10189C0075090090039DE0780812104AE508429003
:1018AC00801375080175090090039DE078081210EB
:1018BC004AE50842A012044F8A088B09A808A90916
:1018CC00E8496014E5E170FCE82414F582E439F58C
:1018DC0083E0F46003E0F5E174016F700A7A019023
:1018EC000328E0F912067102182274F11211398AD8
:1018FC00088B098C0A8D0B9080707808120F3C7441
:10190C000F1210A9780C120F62908070780C120FC5
:10191C003C7808790C1207769080885010780879FA
:10192C000C120EFC78081207964014800E780C7975
:10193C0008120EFC780C120796500479018002797B
:10194C00007F080211E574ED1211398A088B098C9D
:10195C000A8D0B9080707808120F3C74131210A92A
:10196C00780C120F62908070780C120F3C780C7906
:10197C000812077640117808790C120EFCAA08ABF5
:10198C0009AC0AAD0B8022751000751100751200A0
:10199C007513017810790C120EFC78107908120E60
:1019AC00C3AA10AB11AC12AD137F0C0211E5C0E051
:1019BC00C0D0E8C0E0A8A8D2AFC2C7751C00E8A28E
:1019CC00E792AFD0E0F8D0D0D0E032C2AF02000046
:1019DC0022020132FFFFFFFFFFFFFFFF74F6121020
:1019EC00CD74E512105D798112021B851A82851B5C
:1019FC008374F2F074011210A97401121C73120298
:101A0C0027E97003021B9E851A82851B8374F4F0F0
:101A1C0074011210A97424121C73120227E97003AA
:101A2C00021B9E851A82851B8374F5F074011210BB
:101A3C00A9E4121C73120227E97003021B9E851A7B
:101A4C0082851B837488121DEC120227E970030235
:101A5C001B9E74021210C37A18797612022174023A
:101A6C001210A9E0FA74031210A9E0F9EA90028AA4
:101A7C00121C3374041210A9E0FA74051210A9E0B8
:101A8C00F9EA90028C121C3374061210A9E0FA7455
:101A9C00071210A9E0F9EA90028E121C3374081296
:101AAC0010A9E0FA74091210A9E0F9EA9002901258
:101ABC001C33740A1210A9E0FA740B1210A9E0F985
:101ACC00EA900292121C33740C1210A9E0FA740DF5
:101ADC001210A9E0F9EA900294121C33740E121041
:101AEC00A9E0FA740F1210A9E0F9EA900296121C00
:101AFC003374101210A9E0FA74111210A9E0F9EA6B
:101B0C00900298121C3374121210A9E0FA7413127A
:101B1C0010A9E0F9EA90029A121C3374141210A95D
:101B2C00E0FA74151210A9E0F9EA90029C121C3329
:101B3C0074161210A9E0FA74171210A9E0F9EA90C1
:101B4C00029E121C3374181210A9E0FA74191210A8
:101B5C00A9E0F9EA9002A0121C33851A82851B8336
:101B6C0074A1121DEC120227E9602774021210C333
:101B7C007A01797612022174021210A9E09002A265
:101B8C00F0851A82851B8374E1121DEC120227E981
:101B9C0070057900021C2974021210C37A07797639
:101BAC0012022174021210A9E0FA74031210A9E0B7
:101BBC00F8E4C8F9EA9002A3121C3374041210A9B9
:101BCC00E09002A5F074061210A9E0FA7405121048
:101BDC00A9E0F50888097404780812104AEA54F050
:101BEC00F8E508489002A6F0A3E509F0EAC4540F02
:101BFC00FA74071210A9E0F5087509007404780846
:101C0C0012104AEA45089002A8F0A3E509F07408FE
:101C1C001210A9E09002AAF012022D7901741B1285
:101C2C0010737F0202119FF0A3E9F02274F71210D7
:101C3C00CD74FE12105D120233851A82851B8374DB
:101C4C00F4F074011210A97425121C73120227E906
:101C5C00FE12022DEE7004790080027901740212DA
:101C6C0010737F0102119FF0AC1AAD1B7A027976CA
:101C7C002274E81210CD74F312105D740B1210A9BB
:101C8C00EAF0A3EBF0ECFEEDFF120233851A82852D
:101C9C001B8374F7121DEC120227E9700579000200
:101CAC001DD674011210C37A0979761202217404BC
:101CBC001210A9121DDAF50B740C7808120EA4740C
:101CCC00051210A9E0F50CE4F50DF50EF50F7404F2
:101CDC00780C120EA47808790C120F4F740612109F
:101CEC00A9E0C4540FF50CE4F50D7808790C120F2B
:101CFC004FAA08AB09AC0A7D0012029F8A0C8B0D0F
:101D0C0074071210A9121DDA74087808120EA47444
:101D1C00081210A91220A774047810120EA47808C7
:101D2C007910120F4FAA08AB097C007D001202A596
:101D3C008A108B118C128D1374011210A9E0F50806
:101D4C00E4F509740C7808120EA474021210A9128E
:101D5C00209C74047814120EA478087914120F4F76
:101D6C0074031210A9E0C4540FF514E4F5157808A7
:101D7C007914120F4FAA08AB09AC0A7D001202AB02
:101D8C008A088B098C0A8D0B740B1210A9121DE397
:101D9C00E50CF0A3E50DF0781012082D8E828F83E0
:101DAC00E510F0A3E511F0908024780C120F627806
:101DBC0008790C120DEE74251210A9121DE3E5081A
:101DCC00F0A3E509F012022D7901740D801EE0F5E7
:101DDC0008E4F509F50A22E0F8A3E0F583888222ED
:101DEC00F0AC1AAD1B7A0179762274041210737F51
:101DFC001002119F74EC1210CD8A0C8B0D8C0E8D71
:101E0C000F90028AE0F508A3E0F509E4F50AF50B5A
:101E1C008A108B118C128D1374047810120E717839
:101E2C00107908120EFC7403780C120E71047808E9
:101E3C00120EA4780C7908120EFC90028C12230658
:101E4C00120D6E740B780C120E7185100885110929
:101E5C0085120A85130B78087910120D6E740C78A4
:101E6C0008120E7190028E12231478087910120D3C
:101E7C006E740E7808120E71780C7908120EC390DD
:101E8C0002AB780C120F719002AB7808120F6290B3
:101E9C00802C780C120F627808790C120D6E9080E1
:101EAC00307808120ED674087808120E71AA08AB96
:101EBC0009AC0AAD0B7F0C02119F74E81210CD8A8D
:101ECC000C8B0D8C0E8D0F9002AB7808120F627874
:101EDC00081207B59080347810120F6278087910C8
:101EEC00120B54780C1207B5C00CC00DC00EC00FED
:101EFC009002A61220B81207B59080387810120FF5
:101F0C0062780C79101209AF9002A81220B2120755
:101F1C00B59080287810120F62781479101209AFDE
:101F2C00781479081209AF780C7914120B54D01369
:101F3C00D012D011D0107810790C120B2FC010C009
:101F4C0011C012C0139002A31220B81207B59080D2
:101F5C003C7810120F62780C79101209AFC00CC0CB
:101F6C000DC00EC00F9002AAE0F50C3395E0F50DF4
:101F7C00F50EF50F780C1207B59080407810120F03
:101F8C0062780C79101209AF780C79081209AF90AD
:101F9C0002A512209C78141207D090804078101261
:101FAC000F62781479101209AF781479081209AFFE
:101FBC009080787808120F6278147908120B547894
:101FCC000C79141209AF9080787808120F62780C93
:101FDC007908120B54D013D012D011D0107810797C
:101FEC000C1209AFD00BD00AD009D00878087910A0
:101FFC001209AF750C00750D00750E80750F3F90B2
:10200C0002A21220A778101207D0781079081209B2
:10201C00AF9080487814120F62781079141209AFBF
:10202C00780C7910120B2F780C79081209AF850CEB
:10203C0008850D09850E0A850F0B90804C780C12C3
:10204C000F627808790C120914500E750800750986
:10205C0000750AC8750B42801D908050780C120FC9
:10206C00627808790C120963500C75080075090028
:10207C00750A00750B00908054780C120F6278086A
:10208C00790C1209AFAA08AB09AC0AAD0B021DFB07
:10209C00E0F514E4F515F516F51722E0F510E4F566
:1020AC0011F512F5132212232B7814221222D77851
:1020BC000C2274E81210CD74FC12105D12233A78C5
:1020CC000C120F627401780C120E71908058780CFF
:1020DC00120ED6850C10850D11850E12850F1374FA
:1020EC00027810120E71850C08850D09850E0A8573
:1020FC000F0B74027808120E7178107908120D6E9D
:10210C0085100885110985120A85130B740B780844
:10211C00120E7190029A122323120D6EC008C00980
:10212C00C00AC00B850C08850D09850E0A850F0B9E
:10213C00900298122323120D6E74017808120EA4CB
:10214C00D017D016D015D01478147908120EC37489
:10215C00027814120E719002961222F37410780801
:10216C00120EA478147908120EC39002941222F362
:10217C00740D7810120E7178087910120D6E7403AC
:10218C007808120E7190029212230E790C120D6EB9
:10219C0074017810120E7178087910120EC3741233
:1021AC007808120E7190805C7808120ED69002900E
:1021BC001222E67808790C120D6E740F7808120E44
:1021CC007185080C85090D850A0E850B0FE50C45EC
:1021DC000D450E450F700B7A007B007C007D0002D4
:1021EC0022D4751000751100751210751300851A24
:1021FC0082851B837810120F10740C7814120E71D8
:10220C0078107914120EFC9080607808120F6278A6
:10221C00107908120D6E9080647810120796401099
:10222C0074017810120EA47810790C120DEE800E39
:10223C007810790C120DEE74017810120EA4851022
:10224C001485111585121685131774037814120E44
:10225C008B9002A01222D785140885150985160AC1
:10226C0085170B78087914120D6E740D7808120E00
:10227C008B780C7908120D6E740C780C120E71851B
:10228C00100885110985120A85130B74027808123F
:10229C000E8B90029E122323120D6E740D78081271
:1022AC000E71780C7908120EC390029C1223061240
:1022BC000EC37404780C120E717810790C120EC3C4
:1022CC00AA10AB11AC12AD13021DF6E0F50CA3E095
:1022DC00F50D3395E0F50EF50F22E0F50CA3E0F5C6
:1022EC000DE4F50EF50F221222F722E0F508A3E01B
:1022FC00F5093395E0F50AF50B221222F7780C79E3
:10230C000822122314781022E0F510A3E0F5113303
:10231C0095E0F512F5132212232B7808791422E09C
:10232C00F514A3E0F5153395E0F516F51722851A8B
:10233C0082851B83EAF0A3EBF0A3ECF0A3EDF09005
:10234C0002AB22C082C0839003ABE4F09003AA746A
:10235C00FFF09003C7E4F09003C674FFF09003A75E
:10236C00F09003A6E4F09003A5F09003A8F0A3026C
:10237C002A1074F41210CD9003A8E0F508A3E0F530
:10238C0009E508450970061203DD022465850882FB
:10239C00850983E014600A14600724FE600302249C
:1023AC0065E0F912043D8A0A8B0BAE0AAF0BEE65A1
:1023BC00087003EF650970030224628E828F83E03C
:1023CC00640160030224651203F51204A38A088BCE
:1023DC00098C0A8D0B9080247808120ED67808127E
:1023EC0012DC8E828F83A3A3120F801218F6740452
:1023FC00121073E970561204A38A088B098C0A8D8B
:10240C000B90806C7808120ED69080707808120FA2
:10241C003C8E828F83A3A37808120F71900329E05E
:10242C00640270258E828F83A3A37808120F6290AA
:10243C0080807808120ED69080707808120F3C12AB
:10244C0025B27808120F7180031229B29003A77479
:10245C0001F0EEFAEFFB1204377F0402119F74F0C7
:10246C001210CDEAFEEBFFEE2402F8E43FF98808E7
:10247C008909EE2406F8E43FF9880A890B8882F56D
:10248C00831212F7850882850983120F8012048546
:10249C007402121073850A82850B831212F7850859
:1024AC0082850983120F8012047974021210731240
:1024BC0025B2120F8012048B8E828F83E0644070E1
:1024CC001BEE2412F8E43FF988828983E090606463
:1024DC00F088828983A3E09060658006906064E454
:1024EC00F0A3F09003A8EEF0A3EF1229BFE0F8A33D
:1024FC00E0F58388821210CB906054E41225C0A3BF
:10250C001225C0906182E0C2E6F07591BF1229A835
:10251C00E0640170031204C1E5E170FC122998E03B
:10252C00F46003E0F5E11229A2F090032FE06401BE
:10253C00706F1204A38A088B098C0A8D0B78081211
:10254C0012DC8E828F83A3A3120F80121952740493
:10255C001210738A088B098C0A8D0B90802C780CC6
:10256C00120F627808790C120D6E74037808120E33
:10257C008BE50824F4F508E5093401F5099003A16D
:10258C00E06003120647E4F50AF50B78081212DC3A
:10259C007A207B00900328E0F91206D774041210FD
:1025AC00737F0802119F1225B622EE240EF582E4E9
:1025BC003FF58322F0A3F0A3F0A3F0A3F0A3F02245
:1025CC0074F01210CD890874FF6508706E9003A624
:1025DC00E0540770030228C67904120455E964011B
:1025EC0070047904800C7901120455E964017008B7
:1025FC00790112045B0228CA7902120455E96401BC
:10260C00703978009003AAE064027006A3E06401BC
:10261C00601678019003C6E064027006A3E06401C2
:10262C0060067A007B008010E875F01CA4F8A9F015
:10263C0074AA28FA740339FB0228CA78009003AAFA
:10264C00E065087006A3E06401601678019003C68B
:10265C00E065087006A3E0640160067E007F0080E0
:10266C0010E875F01CA4F8A9F074AA28FE740339BC
:10267C00FFA908120455E96401700575090180036E
:10268C00750900E50814601014700302276224FE1B
:10269C0070030227D80228C67902120455E9640196
:1026AC00706978009003AAE064027006A3E06401EC
:1026BC00601878019003C6E064027006A3E0640120
:1026CC006008750A00750B0080031228CDE509A27D
:1026DC00E05031850A82850B83A3A3780C120F621C
:1026EC00908084780C120ED6780C1212DC8E828FAD
:1026FC0083A3A3120F801218F67404121073E970DE
:10270C00030228C0AA0AAB0B0228CA79041204558A
:10271C00E96401702E78009003AAE064047006A3AB
:10272C00E06401601878019003C6E064047006A3AD
:10273C00E064016008750A00750B0080031228CD57
:10274C0002280DE509A2E05006EEFAEFFB80047AB0
:10275C00007B000228CA7904120455E96401702D2B
:10276C0078009003AAE064047006A3E0640160188A
:10277C0078019003C6E064047006A3E0640160086D
:10278C00750A00750B0080791228CD8074790112BE
:10279C000455E96401702278009003AAE06401708A
:1027AC0006A3E06401605778019003C6E0640170F1
:1027BC0045A3E064016047803DE509A2E05006EEC8
:1027CC00FAEFFB80047A007B000228CA790112041C
:1027DC0055E96401706778009003AAE06401700603
:1027EC00A3E06401601878019003C6E064017006F0
:1027FC00A3E064016008750A00750B0080031228C1
:10280C00CDE509A2E04003022710850A82850B83DF
:10281C00A3A3780C120F62908084780C120ED678D9
:10282C000C1212DC8E828F83A3A3120F801218F667
:10283C007404121073E96003022710807779021276
:10284C000455E96401706778009003AAE064027093
:10285C0006A3E06401601878019003C6E06402707E
:10286C0006A3E064016008750A00750B0080031272
:10287C0028CDE509A2E04003022710850A82850BCA
:10288C0083A3A3780C120F62908084780C120ED65E
:10289C00780C1212DC8E828F83A3A3120F80121875
:1028AC00F67404121073E960030227108006E50920
:1028BC00A2E05006EEFAEFFB80047A007B000225C2
:1028CC00ADE875F01CA4F8A9F074AA28F50A7403F5
:1028DC0039F50B2274F71210CD89087A007EAA7F85
:1028EC00038E828F83A3E0600302297E8E828F8306
:1028FC00E0F460109003A8E0F8A3E0F9EE68700231
:10290C00EF69606E8E828F83E508F01204A3EAF8FB
:10291C00EBF9ECFAEDFB8E828F83A3A3120F988E4A
:10292C00828F83A3A3A3A3A3A3E4F0A3F01229B2E1
:10293C001229987401F01229A21229BFE4F0A3F015
:10294C008E828F83A304F09003A6E04508F09003D9
:10295C00A5E004F06401600C7480650860067440A6
:10296C00650870089003A8EEF0A3EFF0EEFAEFFB09
:10297C0080150AEE241CFE50010FEAC3940250038A
:10298C000228ED7A007B007F0102119FEE2414F5E2
:10299C0082E43FF583221229A8740122EE2415F556
:1029AC0082E43FF583221225B674FFF0A3F0A3F066
:1029BC00A3F022F0EE241AF582E43FF58322C082C4
:1029CC00C0838A828B83E0F8A3E0F98A828B83E44C
:1029DC00F0A3F088828983A3F088828983E0F4F8DD
:1029EC009003A6E058F09003A5E014F07014900347
:1029FC00A8E4F0A3F0900329F0FA900328E0F91270
:102A0C0006718001F0D083D082020132C082C08373
:102A1C009003A5E0600A9003A8E0FAA3E0FB800411
:102A2C007A007B0080DFC082C083E9FB78009003D2
:102A3C00AAE06B7016E875F01CA4F8A9F074AB282A
:102A4C00F582740339F583E0F9800B78019003C6A5
:102A5C00E06B60E1790080ADE0F980A9C082C083B1
:102A6C007A009003AAE0697018A3E064017012EA7E
:102A7C0075F01CA4FAABF074AA2AFA74033BFB8021
:102A8C00127A019003C6E0697006A3E0640160DF6E
:102A9C001A7B00022A11C082C0839003A580B974EE
:102AAC00F41210CDE9900328F01204BB907800E0EA
:102ABC00C4540F540764037004793F8002797F7506
:102ACC00080675090078081212E07C167D037AEA74
:102ADC007B0712057B7402121073900316E0F470DE
:102AEC0049A3E0F47044A3E0F4703FA3E0F4703A1F
:102AFC00A3E0F47035A3E0F4703090780EE090030E
:102B0C0016F090780FE0900317F0907810E0900397
:102B1C0018F0907811E0900319F0907812E090037F
:102B2C001AF0907813E090031BF090031C122C38D1
:102B3C001231D690033A7406F0A3740D122E187449
:102B4C0042F0A37401F0900344122C38900343E438
:102B5C00F0900351F0A374A0122E187403F0A37418
:102B6C0007122E187428122E1804F0A3E4F0900308
:102B7C007AF090039D74FFF0A3E4F090039FF09023
:102B8C0003A104F09003A27490F0A37401F012035B
:102B9C00E912039512046779017AA47B03120419D4
:102BAC009003A4E075F01484E5F004F012041F7A8D
:102BBC0000900328E0F9120671907803E0644270EB
:102BCC00569003A4E014F0704EC2AF122BDA0078CA
:102BDC0022D0E0F618D0E0F6E59F5407F8700575A2
:102BEC0009FF800375097FC4C0E07821E6F5080869
:102BFC00E65509F509740B780812103BD0E025084E
:102C0C00F8906270E0A2E740F8E8C333906272F08B
:102C1C00906270E0D2E0F090033FE4F0A3F07A8091
:102C2C00FB900328E0F9120611022E0674FF122EF7
:102C3C001EF0A3F02274F41210CDEAFEEBFFEEA20C
:102C4C00E0503F90032AE0C39480E0500F25E0F859
:102C5C00E433F974FB28F5827408800EF425E0F84F
:102C6C00E433F9740928F582740939F58312318833
:102C7C001210CB7A00900328E0F9120671EE640171
:102C8C00803B5480603B9003A2122E0BE849602AD3
:102C9C00790012066B9003A2E0F508A3E0F509E4B5
:102CAC00F50AF50B78081212DC7A007B01900328E8
:102CBC00E0F91206D77404121073EE6480FAEF80F8
:102CCC002DEF5401600C790112066BEEFAEF6401E2
:102CDC00801CEF5402600AC2AF75C9AB75C95B802A
:102CEC00FEEF5404600B1219D7EEFAEF6404FB806C
:102CFC001790032FE06401700BEE54206006EE6415
:102D0C0020FA80047A007B00022E06C082C083C2A7
:102D1C00AF120497E5E170FC75E1011203D775E180
:102D2C00F11204C71203CB790712051579011205AC
:102D3C001B79021204EB1204FD120509790012052D
:102D4C000F790112050F908068120F801204D39036
:102D5C000351E4F0A3F0A3F09003557407F0900333
:102D6C00547403F090035AE4F0900359F090037AF2
:102D7C00F012042B12040D7900120521906012E45C
:102D8C00F0A3F0906063F0751D00900329F09003A0
:102D9C002BF0A3F090032EF090032F04F090033946
:102DAC0004F09003A0E4F0D2AFF9022DFFC082C072
:102DBC0083900316122E11900317122DEBF0900333
:102DCC0018122DEBA3F0900319122DEBA3A3F09086
:102DDC00031A122DF2F090031B122DF2A38011E0B6
:102DEC008A828B83A322E08A828B83A3A3A3A32250
:102DFC00F07900D083D0820201327F0402119FE06F
:102E0C00F8A3E0F922E08A828B83F022F0A3E4F0AD
:102E1C00A322F0A3F0A3F0A3F0A3227F0202119F40
:102E2C0074F71210CDEAFEEBFF8908E9605D7401BE
:102E3C006508601574036508603B740265086035AD
:102E4C00740465086003022F01740B1210A9122E72
:102E5C000BE8497003022F01740A1210A9E0F86004
:102E6C00087401686003022F01740365086006741E
:102E7C00026508702AEE2460F8EF122FBA5076EC37
:102E8C002460F8ED122FBA4016806AEE24E0F8EFB9
:102E9C00122FAF5060EC24E0F8ED122FAF5056C358
:102EAC00EC9EED9F404F74091210A9E0FA60057476
:102EBC00016A7041740E1210A9E0F8600F74016879
:102ECC00600A74026860057403687029740D12102E
:102EDC00A9E0F9740759601D900351E06401700575
:102EEC00790C022FADE508600C740165086006745E
:102EFC0004650870057912022FAD740759900355BB
:102F0C00F0E508900354F0E8900356F0EA90034380
:102F1C00702FE4F0900316E0900344F0900317E058
:102F2C00900345F0900318E0900346F0900319E0ED
:102F3C00900347F090031AE0900348F090031B8035
:102F4C002E7401F090031CE0900344F090031DE0FC
:102F5C00900345F090031EE0900346F090031FE0B1
:102F6C00900347F0900320E0900348F0900321E099
:102F7C00900349F0E87004790080197401687004BA
:102F8C0079018010740268700479028007740368F8
:102F9C0070057903120503900352EEF0A3EFF0795C
:102FAC0000801634FFF9C3E894E1E9943F2234FF22
:102FBC00F9C3E89461E9943F227F0102119F74F6F2
:102FCC001210CDE9FEC39420500BEE90035AF06022
:102FDC001EEA4B70047912801E1231CD1212E0EAF7
:102FEC00FCEBFD7A5B7B031205CF7402121073901D
:102FFC0003597401F07900022E2774F41210CDE9F4
:10300C00FF900329E064097003023111E0640A7037
:10301C0003023111E0640B7003023111E0640C7097
:10302C0003023111E0640D7003023111900354E07E
:10303C00601664016012E06403600DE064026008D5
:10304C00E064046003023184900343E06007640190
:10305C006003023184900354E064036005E0640271
:10306C007010900352C3E094A0A3E09400500302AC
:10307C003184900354E070030231846401700302C4
:10308C003184E064047003023184EF700302311D5B
:10309C00146003023184900351E06401606779018C
:1030AC00120443900341EAF0A3EBF0900351740136
:1030BC00F0900329E070551204A38A088B098C0A3E
:1030CC008D0B90806C7808120ED690807078081258
:1030DC000F3C900341123188A3A37808120F719012
:1030EC000341E0F8A3E0C82406F582E438F583E454
:1030FC00F0A3F01203F5E960107A417B0312044946
:10310C00900351E4F0792180051204317900022EEC
:10311C0006900351E060EEA2AFE433FEC2AF7A41F9
:10312C007B03120449900351E4F0120461E97041ED
:10313C00120497906182E0C2E6F0E5E170FC75E163
:10314C00017591BF75E1F190032FE0640170187A5D
:10315C00207B00900328E0F91206E37A207B009094
:10316C000328E0F91206177A00900328E0F91206FA
:10317C0071EEA2E092AF809479128092E0F8A3E015
:10318C00F58388822274F61210CDE9FEC394205088
:10319C000BEE90037AF0601EEA4B70047912801EDD
:1031AC001231CD1212E0EAFCEBFD7A7B7B031205A7
:1031BC00CF74021210739003597401F07900022E2F
:1031CC0027E0F508750900780822900316E09003B3
:1031DC0022F0900317E0900323F0900318E0900383
:1031EC0024F0900319E0900325F090031AE090036B
:1031FC0026F090031BE0900327F022C082C083E9E5
:10320C00F8123341E0D2E5F0E0A2E350FBE0C2E576
:10321C00F0A3E064086005E06410700EE8C3334A64
:10322C00A3F0123341E0A2E350FB906231E0F9804D
:10323C0001F0D083D082020132C082C0839062340C
:10324C00740CF0906233E4F0906230E0547CF0E067
:10325C0049F0E0444480DA74F51210CD8A0AECFE91
:10326C00EDFF7508007A01120215E964407049E51A
:10327C000AC394024008906230E0D2E28010E50A62
:10328C0060367401650A7007906230E0C2E2F01299
:10329C003341E0A2E350FB906232E08E828F83F0E8
:1032AC00A3AE82AF830508150A906231E0645060CA
:1032BC00CDE0645860021508906230E0D2E4F01260
:1032CC003344E0A2E440FBA9087F0302119F74F68B
:1032DC001210CD8A08ECFEEDFF7A00120215E9649B
:1032EC001860037508007800800108E8C395085041
:1032FC002E8E828F83E0906232F08E828F83A3AE0B
:10330C0082AF83123341E0A2E350FBA3E064286058
:10331C00D9E064307007740128F5088002880890A1
:10332C006230E0D2E4F0123344E0A2E440FBA9089E
:10333C007F0202119F906230E0C2E3F022C082C093
:10334C0083906230E0900282F0906233E0900281D0
:10335C0002323DC082C083900282E0906230F090D5
:10336C000281E090623302323D74F71210CDE99085
:10337C000283F012026F12024B9080C01212F37A89
:10338C00017B00900283E0F91206D77404121073CB
:10339C007F0102119FC082C0831202571206FBE903
:1033AC00900284F012028DE9900285F0900284E084
:1033BC0070081205B1E9900286F012072512027509
:1033CC0012028779037AF47B0112026902323E748D
:1033DC00F61210CD74FA12105DEAFEEBFF54806009
:1033EC0017900283E0F91205F9EA4B60031205E726
:1033FC00EEFAEF64800236B5EEA2E0502C12023FDA
:10340C009080441212F37A027B00900283E0F9124E
:10341C0006DD74041210737A027B00900283E0F9CB
:10342C00120611EE640102369354027003023559F0
:10343C009008761236D0400B12025D900876E4F0BC
:10344C00A380069008761236D9F0900284E06401CD
:10345C0070369008781236D04027120707E96401BD
:10346C0070179080141212F37A087B00900283E09C
:10347C00F91206D77404121073900878E4F0A38044
:10348C00069008781236D9F0900285E06401703607
:10349C0090087A1236D04027120293E96401701713
:1034AC009080141212F37A107B00900283E0F912D0
:1034BC0006D7740412107390087AE4F0A380069077
:1034CC00087A1236D9F0900286E06401703F9008B9
:1034DC007C1236D040301205B7E964017019908027
:1034EC00141212F37A207B00900283E0F91206D7B3
:1034FC00740412107380077AFF7BFF120743900845
:10350C007CE4F0A3800690087C1236D9F012027B82
:10351C009080181212F37A007B02900283E0F91269
:10352C0006D7740412107390087E1236D0400E1217
:10353C00025112073790087EE4F0A3800690087EB3
:10354C001236D9F012072BEE6402023693EE5404B5
:10355C006009120263EE6404023693EE5408603B79
:10356C00851A82851B83E4F0A3F074021210A9E47F
:10357C00F0A3F074021210C3AA1AAB1B12070DE9C8
:10358C00640170111236C412074374021210A9128E
:10359C0036CA120749EE6408023693EE5410606284
:1035AC0074021210A9E4F0A3F0851A82851B83F033
:1035BC00A3F074041210A9E4F0A3F074041210B375
:1035CC008808890978081212E074021210C3740476
:1035DC001210BB1202997402121073E96401701C70
:1035EC0074021210A91236CA1207431236C41207FB
:1035FC004974041210A91236CA12074FEE64100255
:10360C003693EE54206049851A82851B83E4F0A31F
:10361C00F0AA1AAB1B1205C3E96401702E1236C452
:10362C001207431205BDE96401701990801412123F
:10363C00F37A407B00900283E0F91206D7740412EF
:10364C00107380077AFF7BFF120749EE64208037E6
:10365C00EE54406021851A82851B83E4F0A3F0AA06
:10366C001AAB1B1205C9E9640170061236C41207A5
:10367C0049EE64408011EE5480601079007A007B32
:10368C0000120269EE6480FAEF801EEF54016005AF
:10369C00EF64018014EF54026012120281E9FA798E
:1036AC0001120755EEFAEF6402FB80047A007B00EE
:1036BC00740612107302333C851A82851B83E0FA60
:1036CC00A3E0FB22C3E09403A3E0940022E02401D6
:1036DC00F0A3E0340022C082C08312053F790012AF
:1036EC00054B02323E74F01210CD7A03790F12059D
:1036FC00458A088B09E4F50AF50B78081207D09077
:10370C00801C780C120F627808790C1209AF90802B
:10371C0020780C120F627808790C1209AF78081215
:10372C00082DAA08AB097F0802119F53F3FEC28033
:10373C0043FD01438F0153F3FDC28143FD02438FCF
:10374C000202013274F41210CDA280402053FDFE0F
:10375C0043F2019008801238391212DC7A047B0093
:10376C00900283E0F91206D774041210737F0402DE
:10377C00119F74F61210CD7A037900120545C3EA35
:10378C0094F1EB94074018900880E064E87004A36F
:10379C00E06403700A9008807419F0A3E4801EC3DF
:1037AC00EA940FEB94005018900880E064197002B2
:1037BC00A3E0700C90088074E8F0A37403F08017F9
:1037CC00900880E064197002A3E07008EA24FF1AE4
:1037DC00EB3407FB12073D53F3FE43FD01C280029D
:1037EC00333C74F41210CDE9FEEA4B600DEE9002FE
:1037FC0087F0900288EAF0A3EBF0900287E0602853
:10380C00A2805004C2808004D28014F090028812EE
:10381C0038391212DC7A807B00900283E0F91206B0
:10382C00D774041210738002C280023779E0F50855
:10383C00A3E0F509E4F50AF50B78082253F4FED25F
:10384C009043FE0153F4EFC29443FE100201325335
:10385C00F4FDD29143FE0253F4FB53FEFB43F740BD
:10386C0053F6FB02013280F8A89043F604E8A2E27A
:10387C00E433F902013253F3F7D28343FD0853F3D7
:10388C00EFC28443FD1053F3DFC28553FDDF438F3A
:10389C002043AB20538CFE5389DFD2BD020132C0D2
:1038AC0082C0839061907404F0A37448F0A37402F6
:1038BC00F09061807440F09061BC7403F09061876B
:1038CC007419F0906265741BF0906249E0C3941314
:1038DC0090619C40107409F09060667401F09061E6
:1038EC009F7428800D740BF0906066E4F090619FDB
:1038FC00742CF0123A7E7009C29190032D7467807B
:10390C000590032D7461F0123AD99019E0E493F408
:10391C006006E493F91203D17905120527023A8E59
:10392C00C082C083E9540FF9906185E0696012E5AB
:10393C00C654B84441F5C6E59E5447644170F8E955
:10394C00F053C6B8E59E544770FA023A8EC082C056
:10395C0083A8A853A87E906181E4F0A3F0A3F0C2E1
:10396C00BA539AFEC289759B00C2C275E900759163
:10397C000075BF0075A91175B905906181F0A3742C
:10398C00C0F0A3E4F0D2BA439A0174805842A80262
:10399C003A8EC082C08374F812105D90032B123ED5
:1039AC00B8E8497003023A7790032BE05440601753
:1039BC007908AA1AAB1B120419AA1AAB1B120359C9
:1039CC0090032BE054BFF0E0A2E0501E123A7E7040
:1039DC0009C29190032D7467800590032D7461F0DA
:1039EC0012035F90032BE054FEF0E05402601E12B1
:1039FC003ACC7009D29190032D7471800590032DEF
:103A0C00746AF012035F90032BE054FDF0E0540451
:103A1C0060109019E4123ADC12036590032BE05409
:103A2C00FBF0E0540860109019E5123ADC120365C3
:103A3C0090032BE054F7F0E05410600D123AD912B9
:103A4C00036590032BE054EFF0E05420600A12035E
:103A5C006590032BE054DFF0A3E05401600D1203DA
:103A6C00EF12036B90032CE054FEF07408121073E9
:103A7C00801090619A123CCE90039FE0640122F07A
:103A8C00A3F0D083D082020132C082C083E96005EA
:103A9C001460178029123A7E7009C29190032D741C
:103AAC0067801A90032D74618013123ACC7009D27E
:103ABC009190032D7471800590032D746AF080C26F
:103ACC0090619A123CC090039FE06401229019E629
:103ADC00E493906186F02274EA1210CD74F4121003
:103AEC005D908074AC1AAD1B7404120FB19019E484
:103AFC0093F46003023C55907808E0C394025003A1
:103B0C00023C3990800C74041210C37408120FB16B
:103B1C00A81AA91B8814891574041210B388088973
:103B2C0009AE08AF097510FF7511FF750EFF7C000B
:103B3C00750C48750D78801274086C7003023BCFBD
:103B4C0074096C607E740A6C6079850C82850D83B7
:103B5C007808120F628E828F83A909E50AC9F8884A
:103B6C001274187808120E8BE5124508F8C3E09809
:103B7C00A3E099850C82850D837808120F6240189A
:103B8C008E828F8374187808120E8BE5124508F814
:103B9C00E0C398F8A3E0801A74187808120E8BE52D
:103BAC00124508FAE9FB8E828F83123EB8EAC3985D
:103BBC00F8EB99F9C3E89510E9951150068810892E
:103BCC00118C0E0CE50C2404F50C5002050DECC305
:103BDC0094135003023B4474FF6510700474FF652A
:103BEC00116024850E087402780812104A74482556
:103BFC0008F58274783509F5837808120F628514FC
:103C0C0082851583E508F0EE2402FE50010F851421
:103C1C0082851583A3858214858315740C1210A9D3
:103C2C00E5826E7003E5836F6003023B317508011A
:103C3C0075090078081212E074021210C37A797BAD
:103C4C00061205817402121073740C1210737F0E1D
:103C5C0002119FC082C0839061AE7468F0A3746A35
:103C6C00F090624574FBF0A304F053F4FD43FE02A4
:103C7C0090039F7401F09061A0E0643A90619A7097
:103C8C0019123CCE740164017009C29190032D7419
:103C9C0067801E90032D74618017123CC074016400
:103CAC00017009D29190032D7471800590032D74CD
:103CBC006A023A8D743FF0A3745AF09061A0747F3D
:103CCC00F0227433F0A37455F09061A0743AF02292
:103CDC00C082C08375E1F1900354E024FE604D1462
:103CEC00704F1203FB900343E0F97A447B031204F8
:103CFC00CD90807C120F801204F7908068120F8098
:103D0C001204D3900355E0F91204DF790112051B5C
:103D1C00900341E0F8A3E0C8241AF582E438F58357
:103D2C007407F0A37404F07900023A8E1204018037
:103D3C00B4791280F474F71210CD123D8A4402F556
:103D4C00D9758244758303123E337004E583640392
:103D5C0070F590035AE0600A785B7903FA123E27FB
:103D6C00DAFB75E1959008FB123D9CF0A3123D9C8B
:103D7C00123E3B7414F09003297404023EC7900366
:103D8C005AE02407F5D9900343E0C4333354C022DE
:103D9C0074BF123DA9123DA9F0A3740322F0A374C1
:103DAC0003F0A374BF2274F71210CD123D8A44069F
:103DBC00F5D9758244758303123E337004E5836430
:103DCC000370F590035AE0600A785B7903FA123EAF
:103DDC0027DAFB90037A123D8D4404F5D9758244A1
:103DEC00758303123E337004E583640370F590030E
:103DFC007AE0600A787B7903FA123E27DAFB75E1E8
:103E0C00959008FB74B9F0A37403123E7D123E3BEF
:103E1C007415F09003297403023EC78882898312BB
:103E2C003EBCA882A98322123EBCE582644A22F0E1
:103E3C00A374C5F0A37403123E72123E81123E6845
:103E4C00240EF582E438F58374FFF0A3F0A3F0A3FD
:103E5C00123E682414F582E438F58322F090034175
:103E6C00E0F8A3E0C822F09009097425F0A37404CB
:103E7C0022123E8122F0A37425123E90123E90F045
:103E8C00A3740422123E97123E9722F0A37404F0FE
:103E9C00A3742522C082C083900341E0F8A3E0C83C
:103EAC002406F582E438F583E4023A8B123EC122F3
:103EBC00E0F5D9A322E0F8A3E0F922F07F0102118A
:103ECC009FC082C083E49003317808F0A3D8FC90A3
:103EDC00033104023A8DF09002F9123EEA221244A8
:103EEC0036F5838882A32274EE1210CD890C8A0ACF
:103EFC008B0B8C0E8D0F9002E4E054057003023F87
:103F0C00977401650A700D9002FB1244F0607C906E
:103F1C0002FB800B9002FD1244F0606F9002FDE0FA
:103F2C00FEA3E0FFEBC394205008EB6009EC450FB7
:103F3C00700479028057E50C9008F4F08E828F8320
:103F4C00A38582088583097C1F7D007900AA08ABB4
:103F5C00091205DB850B1075110078101212E0ACFC
:103F6C000EAD0FAA08AB091205CF74021210738E96
:103F7C00828F83E50BF0F9E50AAA08AB09600512FC
:103F8C000347800312034DE9F9800279127F0A027C
:103F9C00119F74F71210CD1244EB70047912803912
:103FAC0012410B6E60047903802F7A027B00900320
:103FBC0001E0F91206E39002FFE4F0A3F07A04FBAF
:103FCC00900301E0F91206E39002E6E4F0A3123E3E
:103FDC00E27403F07900120353024091D083D08233
:103FEC0002013274F71210CD9002FB1244F0600DF6
:103FFC0012442A12065F9002FBE4F0A3F09002FD3B
:10400C001244F060109002FD12442D12065F9002D3
:10401C00FDE4F0A3F09002E4E05405605F7AF57BD8
:10402C00081203357E009002E4E05405604A7A20C1
:10403C007B001206591240969002FB1244F0603637
:10404C007C207D0079001205DB7A207B001206595A
:10405C009002FD1240999002FD1244F0600B7C20FE
:10406C007D0079001205DB800F12442A12065F9046
:10407C0002FBE4F0A3F07E13EEF980097A007B00DA
:10408C0012033579007F0102119F9002FBEAF0A325
:10409C00EBF02274F61210CD7E018A828B83A3A3DF
:1040AC00A3E0FCA3E0FD8C088D097808121324060C
:1040BC002004FE40CA40FE40DC40DC40D2401244AA
:1040CC0068120305800612446812030BE9FE802473
:1040DC0074086C700374206D70047901800279008F
:1040EC008A828B83A3A3A3A3A3124108FA12031100
:1040FC0080027E00EEF90244259002FBE0F8A31248
:10410C004223E02274F21210CD1244ED70030241EE
:10411C00E212421EA3E0F50B12032FE960137A0A98
:10412C007B001202C98A088B09AE08AF097A0B8092
:10413C002A120329E960137A067B001202C98A0845
:10414C008B09AE08AF097A0780117A087B0012023E
:10415C00C98A088B09AE08AF097A097B001202C91B
:10416C008A088B099002E5E07005750A00800375DA
:10417C000A019002F9E02404FAA3E03400FB123E99
:10418C00E3A3A3E0F91202D5E9F9124433C8240BD6
:10419C001241E91212E4124433C8240A1241E91202
:1041AC0012E49002F9E02404F50CA3E03400F50DC0
:1041BC00780C1212E0E9F50C780C1212E4780A1261
:1041CC0012E4A90BAC08AD09EEFAEFFB1203417433
:1041DC0006121073800279017F0602119FF582E4AA
:1041EC0038F583E0F50C780C2274F71210CD1244DC
:1041FC00EB601AEE700C12421E7401F0F9120353AC
:10420C00E9FEEE6004F912031D79018002790002C7
:10421C004091124223A322E0F58388822274F0128B
:10422C0010CD1244EB700302430A12421EE06401EB
:10423C0060030242E3120329E960557A017B001204
:10424C0002C98A088B09E4F50AF50BC3EA9442EB20
:10425C009400402B9080C41212F37A027B009003DE
:10426C0001E0F91206DD7404121073E50824C4F899
:10427C00E50934FFF99002FFE8F0A3E9F0804190E2
:10428C0080C0780C120F627808790C120D6E8010B9
:10429C007A007B001202C98A088B09E4F50AF50B37
:1042AC00E5084509450A450B601678081212DC7AB8
:1042BC00027B00900301E0F91206D774041210730C
:1042CC00123EE37402F09002E8E07007EEF912037C
:1042DC001D8027E4F080239002E8E0701D7A037BB8
:1042EC00001205E1EA4B600F1243117404F09002C6
:1042FC00F91244711205ED12032379018002790041
:10430C007F0802119F8A828B8374D0F0EEA3F08A0F
:10431C00828B83A3A32274F61210CDE9FEEAFF90E0
:10432C0008F4E0F4602A7A047B001205E1EA4B60A1
:10433C001F8A828B8374D0F0EF1243197402F0EE53
:10434C008A828B83A3A3A3F09008F4E0F91205ED05
:10435C0002442574F41210CDE9FE74016E60030260
:10436C0043FB9002FF1244F060069002E8E06012FA
:10437C001244ED700302441E12410BF91202ED02BD
:10438C00441E9002FFC3E0943CA3E09400400D90C7
:10439C0002FFE024C4F0A3E034FF80507A027B00DB
:1043AC00900301E0F91206E39002FFE0F508A3E0A8
:1043BC00F509E50875F0E8A4C508A8F075F003A4A4
:1043CC0028F875F0E8E509A428F509E4F50AF50BD9
:1043DC0078081212DC7A027B00900301E0F91206D5
:1043EC00D774041210739002FFE4F0A3F080231230
:1043FC0044ED601E9002E4E0A2E250167A027B00CB
:10440C00900301E0F91206E39002FFE4F0A3F0122E
:10441C00032380007F0402119F7F0202119F9002F0
:10442C00FBE0FAA3E0FB229002F9E0F8A3E022748F
:10443C00F61210CD1244EB60207A037B001205E1DA
:10444C00EA4B600F1243117403F09002F91244719D
:10445C001205EDEE60031203230244258A828B833E
:10446C00A3A3A3A3A3E0F8A3124223E0F922C082E2
:10447C00C0831244ED60109002F912442D12065FB5
:10448C009002F9E4F0A3F0023FE874F61210CD7438
:10449C00FF12105D9002FB1244F060399002FBE0B9
:1044AC002401F508A3E03400F50978081212E01293
:1044BC004105FC74021210BB79011202E174021264
:1044CC0010738A828B83E58245836009E0A2E050F9
:1044DC00047901800279007401121073024425E9F9
:1044EC00FE9002F9124436F9E8492274F41210CD08
:1044FC0074FC12105D7E0090086EE4F090086BF076
:10450C007F7D75080475090078081212E074021298
:10451C0010C37A007B00EFF912057B740212107342
:10452C009080C87808120F62851A82851B837808E0
:10453C00120761701990086BE0600FF9120695EF85
:10454C00F912069590086BE48001EFF08018851A3B
:10455C0082851B83120F8CE8494A4B7004EFFE8056
:10456C0005EFF91206950FEFC3947F409590086BF9
:10457C00E07026EE7018797D12068990086C740430
:10458C00F0A3E4F090086EE0601979008017F01247
:10459C00069BEEF91206A7800AEE6004F912068F4C
:1045AC0012069B790102464E74F71210CD74FC1260
:1045BC00105DE9FE851A82851B83E4F0A3F0A374D9
:1045CC0010F0A3E4F0AC1AAD1BFAFB1206B3900882
:1045DC006EE07005EE90086BF074041210737F019E
:1045EC0002119FD083D08202013274F41210CD7468
:1045FC00FF12105D890890086EE070321205877EFC
:10460C00007F00750A01750B00780A1212E0740223
:10461C001210C3EEFAEFFBA90812057B74021210FC
:10462C0073851A82851B83E0F4600890086E740110
:10463C00F0800B0EEE70010FC3EF940840C57401AF
:10464C00800274041210737F0402119F74F4121010
:10465C00CD74FF12105D89087E007F00750A01750C
:10466C000B00780A1212E074021210C3EEFAEFFB80
:10467C00A90812057B7402121073851A82851B839C
:10468C00E0F46007A90812068F800B0EEE70010F84
:10469C00C3EF940840C680A674F41210CD74FC12BB
:1046AC00105D7EFC7F0775080475090078081212EE
:1046BC00E074021210C3EEFAEFFB90086BE0F912F3
:1046CC00057B74021210739080CC7808120F6285EF
:1046DC001A82851B83780812076170051246FF50F9
:1046EC00C5EE2404F8E43FF990086CE8F0A3E9F077
:1046FC0002464EEE24FCFEEF34FFFFC3EE9404EFB3
:10470C0094002274F41210CD74FC12105D8909EA25
:10471C00FEEBFF8C081246FF405C750A04750B001B
:10472C00780A1212E074021210C3EEFAEFFBA90918
:10473C0012057B740212107374021210A912490A2A
:10474C00851A82851B83AA08E06A7002A3E0700AAE
:10475C00EEC398FAEF9400FB8020E9548070B6E821
:10476C002404FAE439FBC3EE9AEF9B4009C3EE989C
:10477C00FEEF99FF809F7A007B0002464E74EA128E
:10478C0010CD74F812105D8910750DFF747D6510D5
:10479C007005750C7E8003750C7D750A04750B0015
:1047AC0090086CE024FCFEA3E002488F851A8285F9
:1047BC001B83A3E05480600302487B851A82851B0F
:1047CC0083A80DE0687002A3E0700302487B851A91
:1047DC0082851B83E0F50DFCAA0AAB0BA90C120613
:1047EC00A18B09EA4509600302487B74021210A9E7
:1047FC0012490AEEC398F508EF99F5098814891542
:10480C00750E00750F0075120475130078121212D4
:10481C00E074061210C3E508250EFAE509350FFB06
:10482C0090086BE0F912057B740212107374041279
:10483C0010C3E50A250EFAE50B350FFBA90C120681
:10484C00B3E50E2404F50EE4350FF50FC3E514950E
:10485C000EE515950F50AF74021210A9E02404F860
:10486C00A3E03400F9E50A28F50AE50B39F50B74D9
:10487C00021210A912490AC3EE98FEEF99FFEE241A
:10488C00FCFEEF124704405290086EE0706675080B
:10489C000475090078081212E074021210C3EEFAC3
:1048AC00EFFBA91012057B7402121073851A828516
:1048BC001B83E0F47003A3E0F460030247B87402B6
:1048CC001210A912490A548070B4E82404F850015B
:1048DC0009C3EE98EF995097801AA90C120689908B
:1048EC00086EE0700A90086CE50AF0A3E50BF0A9DD
:1048FC001012068F74081210737F0E02119FE0F8CD
:10490C00A3E0F92274F01210CD74FC12105D890B27
:10491C008A088B09ECFEEDFF74141210A9E0F50A5D
:10492C008012E5082404F508E43509F509EE2404A1
:10493C00FE50010F850A0C74FF250CF50A04603D2E
:10494C00750E04750F00780E1212E074021210C36B
:10495C00AA08AB09A90B12057B7402121073780E0E
:10496C001212E0EEFCEFFD74021210BB1205D574AE
:10497C0002121073E970AB90086E7401F07404129B
:10498C0010737F0802119F74F01210CD890C8A08E5
:10499C008B09ECFEEDFF90086EE0704F750A017507
:1049AC000B00780A1212E08A0A8B0B7402780A1236
:1049BC00103BE9F50E750F007409780E12104AE5DC
:1049CC000A2400FAE50B350FFB1205817402121054
:1049DC0073750A01780A1212E4EEFCEFFDAA08AB1B
:1049EC0009A90C1206AD74011210738095C082C017
:1049FC0083120683E970047901800279000245EF85
:104A0C0074F71210CD74091210A9E0F8A3E0F98024
:104A1C001C8C828D83E08A828B83F08C828D83A3A5
:104A2C00AC82AD838A828B83A3AA82AB83E8FEE936
:104A3C00FFEE24FF18EF34FFF9EE4F70D4024B5405
:104A4C00EEFAEFFB7F0602119F74F51210CDECF815
:104A5C00EDF9740B1210A9124C93AC08AD09EC24AF
:104A6C00FFF508ED34FFF509EC4D602CEAFCEBFD8D
:104A7C008C828D83A3AA82AB83E8FEE9FF8E828FA2
:104A8C0083A3A882A9838C828D83E0FC8E828F8382
:104A9C00E06C60C67900800279017F0302119F747B
:104AAC00F61210CDE9FE8C088D0978081212E0EE92
:104ABC00FC7D0012075B7402121073024C8E74F6AC
:104ACC001210CDEAFEEBFFEE4F603DEE2405FAE44A
:104ADC003FFB1206598A088B09A808A909E8496006
:104AEC002788828983E4F0A3F088828983A3A3EECC
:104AFC00F0A3EFF088828983A3A3A3A374FFF0E84B
:104B0C002405FAE439FB80047A007B00024C8EC049
:104B1C0082C083EA4B700479058016124BBC60048A
:104B2C007904800DEA24FBFAEB34FFFB12065F7963
:104B3C0000D083D08202013274F71210CD7C0012A7
:104B4C0005F38004A2E092AF7F0102119F74F7126B
:104B5C0010CDE9FEECFFEA4B60269080D4E0F8EE35
:104B6C00C39840071205E779038043EA24FBF582DA
:104B7C00EB34FF124D397005124BBC60071205E780
:104B8C007905802AEEF074016F700DEAFCEBFD7A6A
:104B9C00157B04120605800BEAFCEBFD7A157B04F1
:104BAC001205FF7A007B80EEF912061179008098CD
:104BBC00EA24FFF582EB34FFF583E0F42274F21261
:104BCC0010CD890B750C00750D007E007F00A2AF17
:104BDC00E433F50AC2AF9004158015EE4F700685CC
:104BEC00080C85090DE50824FBF582E509124D3406
:104BFC00124C93E50845096023E50824FFF582E58E
:104C0C0009124D34E0650B70D2EE4F7006AE08AF52
:104C1C000980D27A007B80120611800B7A007B808F
:104C2C00120617EE4F6015780C1212E0EEFCEFFD39
:104C3C007A157B0412060B7402121073E50AA2E0BB
:104C4C0092AF024A4CE0FAA3E0FB2274F71210CDAB
:104C5C00A2AFE433FEC2AF124D2EE4F0A3F0800CF1
:104C6C00E824FBF8E934FFF9E8FAE9FB8A828B8344
:104C7C00124D3B70EB8A828B83ECF0A3EDF0EE02CD
:104C8C004B507F0202119FE0F508A3E0F509227456
:104C9C00F71210CDA8A8C2AF8A828B83E0FEA3E0E6
:104CAC00FF124D2EEEF0A3EFF08A828B83ECF0A373
:104CBC00EDF0E8A2E7024B5274F51210CDA2AFE46E
:104CCC0033F50AC2AFEC24FBF8ED34FFF9E8FEE94A
:104CDC00FF8E828F83E0F8A3E0F98A828B83124CDB
:104CEC0093EC65087003ED650970068A828B8380EE
:104CFC0012740B1210A9E0FAA3E0CA24FBF582EAA5
:104D0C00124D34E8F0A3E9F08E828F83E4F0A3F027
:104D1C00EC24FF124D3174FFF0E50AA2E092AF02D1
:104D2C004AA6EC24FBF582ED34FFF58322F583E0F3
:104D3C00F8A3E0F9E8492274F71210CDE9FE90804F
:104D4C00D4E0F8EEC3985027ACA8C2AFEE29F8E433
:104D5C0033F9900869E028FDA3E0398D82F583E0F2
:104D6C004AF0A3E04BF0ECA2E792AF790080027915
:104D7C0003024B5474F71210CDE9FF9080D4E0F885
:104D8C00EFC3985021AEA8C2AFEAF4FCEBF4FDEFF0
:104D9C0029124E8FF583E05CF0A3E05DF0EEA2E704
:104DAC0092AF790080027903024B54E9F874FF68E2
:104DBC007006C2AF790080027907020132C082C04E
:104DCC008312064D900415E4F0A3F01206BF1206F0
:104DDC006512067D1206537900024B3DC082C083DA
:104DEC0012062F80FB74F61210CD750800120647C0
:104DFC00120575A808E828124E8F124D39700D0552
:104E0C00089080D4E0F8E508C39840E79080D4E09F
:104E1C00F8E508C3985066ACA8C2AFAE08EE2EFEFB
:104E2C00E433FF900869E02EF8A3E03FF98882890B
:104E3C0083124C5188828983E4F0A3F0ECA2E792B0
:104E4C00AFE508900915F0F974002EF58274803FD7
:104E5C00F583124E9F1210CB90091574FFF0A8A881
:104E6C00C2AF900869E02EF9A3E03F8982F583E098
:104E7C004AF0A3E04BF0E8A2E792AF80031206776A
:104E8C00024C8EF8E433F9900869E028FAA3E03973
:104E9C008A8222E0F8A3E0F583888222C082C08354
:104EAC00900871124EB6F0024FB4E4F0A3F0A3F0E8
:104EBC00A32274F01210CD8908EAFEEBFF1206CB88
:104ECC0074101210A9780C120F62EA4B600D8A82D2
:104EDC008B83A3A3780C120F7180677A0D7B001261
:104EEC000659EA4B60588A828B83A3A3A3A3A3A37E
:104EFC00A3A3E508124F53EEF0A3EFF08A828B8345
:104F0C00A3A3780C120F718A828B83E4F0A3124F47
:104F1C0053A3A3A3124EB7F012529A90086F6017C6
:104F2C00E0FCA3E08003E8FCE9FD8C828D83125247
:104F3C009D70F38C828D83EAF0A3EBF080047A00F1
:104F4C007B007F0802119FF08A828B83A3A3A3A30B
:104F5C00A3A322C082C08390086F80048C828D83AF
:104F6C00E0FCA3E0FDEC4D60238C828D83A3A3A316
:104F7C00A3A3A3E06A7003A3E06B70E08C828D8323
:104F8C00A3A3A3A3A3A3A3A3E06970D0ECFAEDFBA6
:104F9C008016C082C083EA4B600E8A828B83A3A3E7
:104FAC00A3A3A3A3E4F0A3F0D083D08202013274B4
:104FBC00F61210CDAEA8C2AF740A1210A91212F3D9
:104FCC001206C574041210738B09A909EEA2E7929C
:104FDC00AFEA4960047900800279087F0202119FD0
:104FEC0074F21210CDA2AFE433FEC2AF740E1210E5
:104FFC00A97808120F6278081212DC1206C5740424
:10500C00121073EA4B60128A828B83A3A3A3A3A30F
:10501C00A3A3A3A37808120F71EEA2E092AFEA4B00
:10502C0060047900800279087F0602119F74F412E3
:10503C0010CDA2AFE433F508C2AF1206CB8A0A8BAF
:10504C000BAE0AAF0BEE4F60031206D1E508A2E0DF
:10505C0092AFEE4F60047900800279067F04021152
:10506C009F74F21210CD750800750900750A007551
:10507C000B00A2AFE433FEC2AF1206CB8A828B8345
:10508C00E58245836007A3A37808120F62EEA2E0C5
:10509C0092AFAA08AB09AC0AAD0B808C74EB121062
:1050AC00CD74FC12105D851A82851B83EAF0A3EB8C
:1050BC00F0A3ECF0A3EDF0A9A8C2AF851A82851B72
:1050CC00837808120F629008717808120EE9E9A231
:1050DC00E792AF12529A700302528A90086FE0FE68
:1050EC00A3E0FF751000751100750A00750B00A286
:1050FC00AFE433F514C2AFEE2402F508E43FF50932
:10510C0074021210A912529D702074011210A9E0A1
:10511C007018851A82851B83E0F8850882850983BF
:10512C00E0C3984005E0C3988039850882850983DF
:10513C00780C120F62851A82851B83780C120786F5
:10514C005018851A82851B83780C120F6285088291
:10515C00850983780C120F28800A850882850983BB
:10516C00124EB6F0EE2406F512E43FF513EE2404CD
:10517C00F50EE43FF50F85088285098312529D7068
:10518C0052850E82850F8312529D7052EE2409F5C2
:10519C000CE43FF50D850C82F583120F8CE8494A1F
:1051AC004B6051851282851383125294EA4B6044F2
:1051BC008E828F83A3A3A3A3A3A3A3A3E0F91206B8
:1051CC0011850C82850D83120F8C850882850983CD
:1051DC00120F9885088285098312529D700B850EDB
:1051EC0082850F8312529D600B8512828513831268
:1051FC00529D70258E828F83E0F8A3E0F9E510456F
:10520C0011700590086F8006851082851183E8F077
:10521C00A3E9F08E0A8F0B80048E108F118E828F73
:10522C0083E0FEA3E0FFE514A2E092AFE50A450B94
:10523C006045850A82850B83A3A312529D7031852C
:10524C000A82850B83A3A3A3A312529D7022850A05
:10525C0082850B83A3A3A3A3A3A3125294850A82D2
:10526C00850B83A3A3A3A3A3A3A3A3E0F912061105
:10527C00AA0AAB0B12065FEE4F60030250F57404E2
:10528C001210737F0D02119FE0FAA3E0FB2290082D
:10529C006FE0F8A3E0F9E8492274F01210CD125235
:1052AC009A604590086F12529475088E7509C275F4
:1052BC000AF5750B288A828B83A3A3780C120F62D4
:1052CC007808790C120776500C850C08850D098529
:1052DC000E0A850F0B8A828B83E0F8A3E0F9E8FABB
:1052EC00E9FBEA4B600E80CD750800750900750A64
:1052FC0000750B00AA08AB09AC0AAD0B024F4EA20D
:10530C00AFE433F8C2AF5394FEE594A2E240FAE85E
:10531C00A2E092AF75A70075A100759CFF75C30044
:10532C0075A20075A30075A40075A50075A600757F
:10533C00C31175A20075A30075A40075A50075A610
:10534C000075C33375A20075A30075A40075A50084
:10535C0075A60075C34475A20075A30075A40075ED
:10536C00A50075A60075C32275A22075A34E75A461
:10537C000075A50075A600759408A2AFE433F8C2B9
:10538C00AF439401E594A2E250FAE8A2E092AF4355
:10539C009402020132A2AFE433F8C2AF5394FEE59B
:1053AC0094A2E240FAE8A2E00255BFA2AFE433F8BF
:1053BC00C2AF439401E594A2E250FA80E8E9A2E777
:1053CC00E433F8E9A2E792AF802575C303851A820E
:1053DC00851B83E0F5A2740122E9A2E7E433F8E926
:1053EC00A2E792AF851A82851B83E0FAA3E0FB74D7
:1053FC000202551CF59CE9A2E7E433F8E9A2E79216
:10540C00AF02551AC082C08374FC12105D1254D7BF
:10541C0075C3331254CB1210A91254461210A9E0C2
:10542C00F5A674041210A9E0F5A274051210A9E0F7
:10543C00F5A375A1BF43A74080BCE0F5A57402227B
:10544C00125583A9A8C2AF22C082C08374FE121069
:10545C005D12547775A1FD1253D61210A9E0F5A375
:10546C00E59C54F04401F59C0253C912547E53A799
:10547C00FD22851A82851B83EAF0A3EBF0A9A8C252
:10548C00AF22C082C08374FC12105D1254D775A178
:10549C00BF439C0F75C3331254CB1210A912544640
:1054AC001210A9E0F5A674041210A9E0F5A2740577
:1054BC001210A9E0F5A3E59C54F0440802540085B1
:1054CC001A82851B83E0F5A474012212544C53A755
:1054DC00BF22E5A4851A82851B83F0E5A5C0E07484
:1054EC00011210A9D0E0F0E5A6C0E074021210A9D8
:1054FC00D0E0F074031210A9E4F0E9A2E7E433F869
:10550C00E9A2E792AF851A82851B83120F8074047F
:10551C00121073D083D08202013274F41210CD7445
:10552C00FC12105D125583A2AFE433F9C2AF53A73E
:10553C00DF75A1DF9080CC7808120F62851A828506
:10554C001B8378081207617005439CF0801A75C3A1
:10555C00401254CB1210A91254461210A9E0F5A611
:10556C00E59C540F4450F59CE9A2E092AF740412F0
:10557C0010737F0402119F851A82851B83EAF0A3A6
:10558C00EBF0A3ECF0A3EDF022A9A8C2AF53A7094E
:10559C008015A9A8C2AF53A709759CFF8009A9A8BB
:1055AC00C2AF439C0F800375A109E9A2E7E433F86D
:1055BC00E9A2E792AF020132A3A3A3E4F0E8A2E7C9
:1055CC00E433F9E8A2E792AF02551FC082C083749E
:1055DC00FC12105DA9A8C2AF75C300E5A20254DE8F
:1055EC00C082C083A8A8C2AF75C300E5A28A828B13
:1055FC0083A3A3A3A3F0E5958C828D83F0E5A38A06
:10560C00828B83A3A3A3A3125633A3A3A3E4F0E535
:10561C00968C828D83A3F0E5978C828D83A3A3F067
:10562C008C828D830255C4A3F0E5A48A828B83F00F
:10563C00E5A5A3F0E5A68A828B83A3A3F08A828BCF
:10564C008322C082C08374FC12105DA9A8C2AFE58E
:10565C0095851A82851B83F0E596C0E074011210C3
:10566C00A9D0E0F0E5970254F5C082C08374FE1215
:10567C00105DA9A8C2AFA8C375C300E5A2E5A485B7
:10568C001A82851B83F0E5A5C0E074011210A9D025
:10569C00E0F088C30253E574F21210CD8909ECFED8
:1056AC00EDFF750800E9F50A750B008A0C8B0D7877
:1056BC000C1213240203083F58D75632574C578FFD
:1056CC0057C157D857EF570B5822587401650960CA
:1056DC000302583A900882E0F88E828F83E090089B
:1056EC0082F0E8601CE060030258629002B0E06453
:1056FC000260030258629002AFE0F91202ED025808
:10570C0062E070030258629002B0E064016008E04D
:10571C00640360030258627A017B009002AFE0F9E7
:10572C0012061102586274026509600302583A8E1F
:10573C00828F8312598B900883E8F0A3E9025837C3
:10574C00E9C39420400302583A7C1F7D0079007A0B
:10575C00867B081205DB780A1212E0EEFCEFFD7A6C
:10576C00867B081205CF7402121073E50990088528
:10577C00F07C867D08FB7A019002AFE0F91202E71B
:10578C0002585AE9C39420400302583A7C1F7D000A
:10579C0079007AB97B021205DB780A1212E0EEFC72
:1057AC00EFFD7AB97B021205CF7402121073E50972
:1057BC009002B880767401650970738E828F83E0D5
:1057CC00F8C394055068E89002D8805F74016509AD
:1057DC00705C8E828F83E0F8C394045051E8900281
:1057EC00D98048740665097045750A06780A121244
:1057FC00E07ADA7B021205CF7402121073805774B0
:10580C0001650970298E828F83E0F8C39408501EBD
:10581C00E89002E080157401650970128E828F8306
:10582C00E0F8C394045007E89002E1F08028750872
:10583C00188023C3EA9427EB94005017740265096F
:10584C0070118E828F83E0FCA3E0FD1202C3E9F598
:10585C00088003750802A9087F0602119F74F412D0
:10586C0010CDECFEEDFF7508008A0A8B0B780A123E
:10587C00132400030A185999589E58AF58B458C4A9
:10588C0058D358E258E758EC5809590E599002B1C0
:10589C008073750A06750B00780A1212E07CB27DD3
:1058AC0002804C900882805D90088312598B8E8206
:1058BC008F83E8F0A3E98068900885125939121299
:1058CC00E07C867D0880289002B81259391212E0CB
:1058DC007CB97D0280199002D8802A9002D980254B
:1058EC00750A06750B00780A1212E07CDA7D02EE5E
:1058FC00FAEFFB1205CF740212107380299002E0AC
:10590C0080039002E1E08E828F838014C3EA942797
:10591C00EB9400500E1202C98E828F83EAF0A3EB37
:10592C00F08003750802A9087F0402119FE0F50AB4
:10593C00750B00780A2274F61210CD9002B0E0704C
:10594C0037EA4B60089002E2EAF0A3EBF0E4F508CA
:10595C00F50978081212E078081212E07C007D003C
:10596C007B009002B1E0FA9002AFE0F912053974B5
:10597C00041210737900800279117F0202119FE0EA
:10598C00F8A3E0F92274EE1210CD8A088B09890B6A
:10599C008C0E8D0F9003E5E070099003E7E0700327
:1059AC00025A5E900304E06003025A5E890C750D86
:1059BC0000E92407FAE43400FB1205E18A108B118C
:1059CC00AE10AF11EE4F7003025A6F741865087069
:1059DC000474206509600C741765087004742065E4
:1059EC000970109003E7E0600AF50A8E828F8374C9
:1059FC0092800C9003E5E0F50A8E828F837491F00F
:105A0C00A3740E125C207401125C28E508F0A3E567
:105A1C0009F0EE2405F8E43FF9E8FAE9FBEE240777
:105A2C00F8E43FF98A828B83E8F0A3E9F0780C1252
:105A3C0012E0AC0EAD0F8A828B83E0FAA3E0FB126E
:105A4C0005CF7402121073EEFAEFFBA90A1205EDE2
:105A5C008011780E1212E0AC0B790E1203777402DF
:105A6C001210737F0A02119F74F21210CD89098AE9
:105A7C000A8B0B8C0874072CFA74FF650960047888
:105A8C000380027802E82AFA7B001205E18A0C8B6B
:105A9C000DAE0CAF0DEE4F7003025B8F8E828F83B9
:105AAC007401F0A374FFF0EE2402FAE43FFBEE2441
:105ABC0004F8E43F125B94E509125BFAE02402F867
:105ACC00A3E03400F9890DE50BF9740E1210A9123C
:105ADC005BBF74FF6509602E740325088882850DF1
:105AEC0083125BFA125BC5125C0AE50AF0125C17B2
:105AFC00E9F085080A750B00780A1212E08A828B8D
:105B0C0083E024068063740225088882850D83F067
:105B1C008C828D83E0C0E08A828B83125BB0D0E0F4
:105B2C00F08C828D83A3E0C0E0125C0AD0E0F08C94
