:020000040000FA
:0600000002011A0214A126
:03002B000219AA0D
:030053000215177C
:03007B0002135C11
:100083000213A3E5C754F84401F5C7790122000020
:100093000080FB120086B90003020104E4791D7895
:1000A30002B800028004F709D8FCE479217802B889
:1000B30000028004F709D8FCE490028178F3790602
:1000C3008002F0A3D8FCD9FA781C90014A7A01BACD
:1000D30000028007E493A3F608DAF97A737B0890A9
:1000E300014B78CD79018015E493A3AD82AE838A69
:1000F300828B83F0A3AA82AB838D828E83D8E9D9C6
:10010300E77582E7758374740012012C758291750B
:100113008300740012012C75D000758133751A8128
:10012300751B02759F00020096C09FF59FE473D074
:100133009F22D083D082C09FE493C0E0740193C018
:10014300E0740293F59F2201FFFFFFFFFFFFFFFF14
:10015300FFFF1900013075030201040000000000D5
:10016300000000000000000000000000000000008C
:1001730000000000000000FF0000B4000028002879
:1001830000283075A000A000A000A000000800080F
:10019300E001F0001000100010001000100010002B
:1001A30050005000500010001000D0070000000065
:1001B30000000F000100050030750700100001006A
:1001C30081FF00000000FFE9020703EF0215041599
:1001D3000415041504150415041504150415041554
:1001E30004150415041504FFFF000E09436C696D23
:1001F30061746553656E736F72020A000201041025
:10020300FF0D0000000000000000000000000000DF
:1002130015070000120135433E00120135813E00EF
:100223001201359F3E00120135163F00120135853C
:100233003F001201359B3F00120135B13F0012010F
:1002430035DD3F001201350B4000120135AA420093
:10025300120135B94200120135FF4200120135186F
:1002630043001201354D4300120135BD4300120115
:1002730035D64300120135F24300120135D8190077
:10028300120135281C001201356D1C00120135F0D6
:100293001D00120135B61E00120135AE20001201F9
:1002A30035AF55001201357557001201354E580010
:1002B3001201354770001201356F70001201359C31
:1002C3007000120135D470001201358972001201D9
:1002D30035A072001201353F3800120135EA3800AB
:1002E3001201353B3900120135EB39001201355C3F
:1002F3003A00120135413B00120135753B001201F2
:10030300356E3C00120135AB3C00120135873D00D0
:10031300120135C63D00120135E23D0012013512CE
:100323007600120135237600120135496900120166
:1003330035716900120135C56900120135DA6900AA
:10034300120135EF6900120135506A00120135932D
:100353006A00120135BD6A00120135E26A0012011A
:10036300359D5800120135805900120135556E0034
:10037300120135986E001201359B2A0012013531A6
:100383002C00120135072D00120135A92D00120191
:10039300351C2E00120135BA2F00120135F62F003D
:1003A300120135813100120135395B00120135012B
:1003B3005C00120135595D00120135F7310012015D
:1003C30035783200120135A53200120135EA3200C8
:1003D300120135E133001201352F3400120135AB20
:1003E30035001201352836001201358D3600120111
:1003F30035FE3600120135EC37001201351938008D
:10040300120135316C001201353D6C0012013511BA
:100413006D00120135CD19001201353F2300120181
:10042300356E23001201355A2400120135BC250014
:10043300120135D02800120135BA290012013508FE
:100443002A00120135222A00120135582A0012010E
:1004530035922A00120135175200120135AD5200B0
:10046300120135C352001201351C530012013560CD
:1004730053001201359A5300120135325400120110
:1004830035A15400120135AA5400120135B65400A7
:10049300120135E35400120135F854001201355AA4
:1004A3005500120135815500120135835D0012019B
:1004B30035905D00120135AA5D00120135DD5D0046
:1004C300120135425E00120135575E00120135629A
:1004D3005E001201356F5E00120135865E00120167
:1004E30035945E001201359F5E00120135AE5E0049
:1004F300120135CB5E00120135DB5E00120135F1CE
:100503005E001201350D5F00120135185F00120104
:10051300352D5F00120135415F0012013560740013
:100523001201358C7400120135F075001201351477
:100533007100120135257100120135C871001201D5
:10054300353A75001201357975001201352C7600A4
:10055300120135D37100120135E37100120135F236
:100563007100120135837200120135506D001201C2
:1005730035D46D001201353C6E001201353F760013
:10058300120135427600120135F87F0012013575EC
:100593006700120135E56800120135466900120152
:1005A300358F6500120135CC6500120135FF6500FA
:1005B300120135346600120135B666001201354961
:1005C3006700120135184900120135614900120113
:1005D30035B74900120135D64900120135274A00C3
:1005E300120135504A00120135654A00120135D512
:1005F3004A00120135634B00120135A74B0012016B
:1006030035D04B001201354F4C001201358C4C0094
:10061300120135C34C00120135D54C00120135F4DB
:100623004C00120135FD4C00120135D1730012014B
:10063300350A6B00120135346B00120135506F001F
:10064300120135AE5F00120135E45F001201351768
:100653006000120135706100120135307300120120
:1006630035467300120135507300120135A673002D
:10067300120135837500120135034400120135C0A0
:100683004400120135024500120135644500120190
:1006930035B045001201351B460012013595460061
:1006A3001201351C48001201359F4800120135051F
:1006B3004900120135B44D00120135CA4D00120133
:1006C300356B4E00120135AA4E00120135C74E009C
:1006D300120135F84E00120135454F0012013579EC
:1006E3004F00120135B44F00120135B15100120110
:1006F300359D6300120135DD63001201352C640062
:10070300120135606400120135AA610012013540FF
:100713006200120135AB6200120135CC6200120196
:10072300351B630012013546630012013550630027
:100733001201355A630012013576630012013589BF
:100743006300120135936300120135C47500E0663E
:10075300701008A3E066700A08A3E066700408A39B
:10076300E06622C3E7960809E7960809E7960809B1
:10077300E79622C3E09608A3E09608A3E09608A3B1
:10078300E09622C008C3E096F50808A3E096420865
:1007930008A3E096420808A3E09645087001D3D069
:1007A3000822080808E630E711120E4D1207BD08AB
:1007B3000808C64480C618181822181818E9799E24
:1007C300C608CAC608CBC608CCC6C370207996CA69
:1007D300CBCC7019798ECBCC70137986CC700EF993
:1007E300802ACA33CACB33CBCC33CC331930E7F2AC
:1007F300CCCBCA3350147004EA30E00DE4CA3ACAD1
:10080300CB3BCBCC3CCC500209C3E913C6CC182359
:1008130013C6CB18C6CA18C6F92212085D20F014F5
:1008230030E72B74FFFCFBFA747F8022E4FCFBFAB5
:100833007480801AB48008BC00F2BB00EF800F50B4
:10084300EBF9E4C39AFAE49BFBE49CFCE499C6CC81
:1008530018C6CB18C6CA18C6F922E4C9C608CAC640
:1008630008CBC6D3330308CCC63392F0C3947F407E
:100873002E94184019C9B90704CACBCC225025C3FA
:1008830009CA33CACB33CBCC33CC33D9F422F4608B
:100893000DC9CCC313CB13CBCA13CAD9F6CC22E4EC
:1008A300FCFBFA2214FCFBFA22E62618461846182B
:1008B3004622E72719471947194722181818E60847
:1008C30046087009E626087005E633F42208221963
:1008D3001919E70947097009E727097005E733F490
:1008E300220922E6084608C3134608336002E633AA
:1008F300F422E7094709C3134709336002E733F4D6
:10090300221208E6601C1208F560171208AC700783
:100913001208B57001D322C0D01208B57006D0D02A
:10092300B322C32233D0D0501430E0F6C3E7960885
:1009330009E7960809E7960809E796B32220E0D568
:10094300E6970809E6970809E6970809E697B322A8
:100953001208E6601B1208F560161208AC70071245
:1009630008B5600CB322C0D01208B57005D0D022F0
:10097300C32233D0D0501330E0EBC3E7960809E726
:10098300960809E7960809E7962220E0E4E6970827
:1009930009E6970809E6970809E69722001208E690
:1009A300604F1208F56012E7548066F61208BE70B5
:1009B300111208B5703B090909F4F618F618F61870
:1009C300F6221208D270151208AC08080860EAE68D
:1009D300447FF618768018E4F618F6221208AC6005
:1009E300161208B57012E4F608F608F608E6548005
:1009F300F609090918181822EAC0E0EBC0E0ECC0B8
:100A0300E0EDC0E0E687F0A4FBACF008E687F0A4D5
:100A13002CFCE435F0FA1809E687F0A42C4B6002AD
:100A23007401CA35F0FCE433FB09E687F0D2F7A47E
:100A33002CCB35F0FC1908E687F0A42BCC35F0FB62
:100A4300E433FD0819E687F0D2E7A42C4ACB35F04E
:100A5300CD3400FC09E687F0D2E7A42DCC35F0FDB8
:100A6300E433FA0918E687F0D2F7A42CCD35F0CA9F
:100A73003400FC08E687F0D2E7D2F7A42ACC35F09D
:100A83007A7E20E70B0ACB33CBCD33CDCC33CC33BB
:100A9300CB3350147004ED30E00ED2F1E4CD3DCDF4
:100AA300CC3CCC3B5005DA05C2F1EB547FC633088E
:100AB300E63392F0FBE73309E733C39A502D2B70EB
:100AC300190C0D4C4D70151806E608C333700D2034
:100AD300F10AA2F013F6E418800B4024E4F630F098
:100AE30002768018F618F618F68024D33B145010BB
:100AF30074FFA2F013F6187680E418F618F6800F48
:100B0300A2F013F618E63303F618ECF618EDF6D058
:100B1300E0FDD0E0FCD0E0FBD0E0FA221208F56063
:100B2300461208E6603DE9687008F618F618F618EC
:100B3300F622748067F7120B53090909748067F76B
:100B4300221208E6601D1208F57005191919801A9A
:100B53001208BE701F1208D2C37003E66733191957
:100B63001940071818182208080874FFF618F61811
:100B7300F618F6221208D260171208B5702192F007
:100B83001208AC7019501720F01408080809090955
:100B9300E7F61819E7F61819E7F61819E7F6221217
:100BA30008AC60E6E869701F0808E62480F608E4EC
:100BB30036F618547FB47F0CE654806007F6E418C9
:100BC300F618F622181822E9C6CC08C6CD08C6CEF8
:100BD30008C6CFC0E0E8C0E0EAC0E0EBC0E009E946
:100BE300F809E7FA09E7FBE6F918E6F8C3EC98ED2C
:100BF30099EE9AEBC2E7F5F0EFC2E795F0500E607D
:100C03000CEBCFFBEACEFAE9CDF9E8CCF8EAA2E7A0
:100C1300D2E7FAEB33FB13F5F0EEA2E7D2E7FEEFF0
:100C230033FFC5F013A2E730E601B313C5F0C3C029
:100C3300E0C0F07F00C39BFB605E9418600F401D13
:100C430014601AD0E023F9D0E0F8020D258AF0E908
:100C5300486003D2F0E4AFF0FAF9F8803BEB30E4FC
:100C63000D89F0EA6003D2F0E4AFF0F9CAF8EB3093
:100C7300E30D88F0EF6002D2F0AFF0E4CAC9F8EBFD
:100C830054076014FBC3EA13FAE913F9E813F8EF06
:100C9300135002D2E0FFDBEDD0E0C0E030E739C310
:100CA300E49FFFF5F0EC98FC42F0ED99FD42F0EE85
:100CB3009AFE42F0D0E0F9D0E0F8E5F0607AE9235B
:100CC300F9EE20E742D8028067C3EF33FFEC33FC31
:100CD300ED33FDEE33FE80EAEC28FCED39FDEE3A10
:100CE300FED0E023F9D0E0F84002801BC3EE13FEF0
:100CF300ED13FDEC13FCEF135002D2E0FF08B80034
:100D0300067F7F74FF802EEF3350178CF020F002A4
:100D130060100CBC000C0DBD00080EBE000408E8FA
:100D230060DFE933E813FFEE2313FE4F4D4C8008D9
:100D3300E95480FFE4FEFDFCEE33EF33F47004FC72
:100D4300FD7E80D0E0FBD0E0FAD0E0F8D0E0CFC663
:100D530018CEC618CDC618CCC6F922080808EAC0B2
:100D6300E0EBC0E086F0E7A4FA180986F0E7A42ACE
:100D7300FA180986F0E7A42AFA180986F0E7A42AE4
:100D8300FA1986F0E7A4FBE5F02AFA190886F0E7DA
:100D9300A42BFBE5F03AFA190886F0E7A42BFBE550
:100DA300F03AFA18180986F0E7A4C5F02BFBE43AE9
:100DB300FA1908E7C5F0C6A426F6E5F03BFBE43ACA
:100DC300FA1886F0E7A4F6E5F00826F6E43B08F601
:100DD300E43A08F6D0E0FBD0E0FA22E4CFC0E0E446
:100DE300CEC0E0E4CDC0E0E4CCC0E075F020E62660
:100DF300F608E633F608E633F608E633F61818186D
:100E0300EC33FCED33FDEE33FEEF33FFC3EC970918
:100E1300ED9709EE9709EF97191919400FFFEC9712
:100E2300FC09ED97FD09EE97FE191906D5F0BFEC05
:100E3300F709EDF709EEF709EFF7191919D0E0FCF7
:100E4300D0E0FDD0E0FED0E0FF22181818E4C396EE
:100E5300F608E496F608E496F608E496F622601798
:100E6300080808C6A2E713C618C613C618C613C6D1
:100E730018C613C6D5E0E9226016080808C6C313CE
:100E8300C618C613C618C613C618C613C6D5E0EAD5
:100E9300227009080808226016181818C6C333C63A
:100EA30008C633C608C633C608C633C6D5E0EA2229
:100EB300E627F60809E637F60809E637F60809E6ED
:100EC30037F622E026F608A3E036F608A3E036F666
:100ED30008A3E036F622E026F008A3E036F008A3E4
:100EE300E036F008A3E036F022C3E697F60809E6F9
:100EF30097F60809E697F60809E697F622C3E0C6CF
:100F030096F608A3E0C696F608A3E0C696F608A3ED
:100F1300E0C696F622C3E096F008A3E096F008A395
:100F2300E096F008A3E096F022E056F608A3E05618
:100F3300F608A3E056F608A3E056F622E647F608BD
:100F430009E647F60809E647F60809E647F622E008
:100F5300F608A3E0F608A3E0F608A3E0F622E6F01D
:100F630008A3E6F008A3E6F008A3E6F022E0FAA35C
:100F7300E0FBA3E0FCA3E0FD22E0F8A3E0F9A3E09B
:100F8300FAA3E0FB22E8F0A3E9F0A3EAF0A3EBF075
:100F930022CAC0E0E6F0A308DAFAD0E0FA22CAC017
:100FA300E0E0A3C582CCC582C583CDC583F0A3C5CC
:100FB30082CCC582C583CDC583DAE6D0E0CA22B927
:100FC3000010BB0008E88AF084F8AAF022E4FBC80A
:100FD300FA22EB70227B10C833C8C933C9335007D8
:100FE300C39AC3DBF280069A50012ADBEAC833F4C2
:100FF300C8C933F4C9FA2275F008E4C833C8C93341
:10100300C933C99AC99B5004C92AC93BD5F0ECFB23
:10101300C833F4C8E4C9FA22600D08C6A2E713C6B0
:1010230018C613C6D5E0F322600C08C6C313C6184E
:10103300C613C6D5E0F422700422600D18C6C3336C
:10104300C608C633C6D5E0F41822251A10AF08F532
:101053001A400C151B8008F51A4002151BD2AF224B
:1010630000C0D0251A10AF08F51A500C051B8008D4
:10107300F51A5002051BD2AFD0D022251AF58210E3
:10108300AF08F51A400C151B8008F51A4002151B12
:10109300D2AF851B8322251AF582E4351BF5832203
:1010A300251AF8E4351BF922251AFAE4351BFB222D
:1010B300251AFCE4351BFD22E473251AC582C0E022
:1010C300E51B34FFC583C0E0E51AC3958224F810FD
:1010D300AF0885831B85821A800885831B85821A46
:1010E300D2AFCEF0A3E520F0A37808E608F0A3DEA4
:1010F300FAEFF0A3E58124FAF8E608F0A3E608F096
:10110300A3E608F0A30808E608F0A3E608F0A31591
:10111300811581D0E0FED0E0F8158115811581E8B5
:10112300C0E0EEC0E022251AC582C0E0E51B34FF13
:10113300C583C0E0E51AC3958224F910AF088583FF
:101143001B85821A800885831B85821AD2AFCEF055
:10115300A3E520F0A37808E608F0A3DEFAEFF0A3F6
:10116300E58124FBF8E608F0A3E608F0A30808E607
:1011730008F0A3E608F0A315811581D0E0FED0E0C6
:10118300F815811581E8C0E0EEC0E022851B838558
:101193001A82E0A3FEE0A3F5207808E0A3F608DFB7
:1011A300FAE0A3FFE0A3C0E0E0A3C0E0E0A3C0E057
:1011B300E0A3C0E0E0A3C0E010AF0885821A8583F6
:1011C3001B800885821A85831BD2AFD083D082020D
:1011D3000132851B83851A82E0A3FEE0A3F5207804
:1011E30008E0A3F608DFFAE0A3FFE0A3C0E0E0A372
:1011F300C0E0E0A3C0E0E0A3C0E010AF0885821A1E
:1012030085831B800885821A85831BD2AFD083D048
:101213008222C0D0251AC582C0E0E51B34FFC583F6
:10122300C0E0E51AC3958224F310AF0885831B85BC
:10123300821A800885831B85821AD2AFC8F0A3E97E
:10124300F0A3EAF0A3EBF0A37908E709F0A3D8FA37
:10125300ECF0A3EDF0A3EEF0A3EFF0A3D0E0F0A346
:10126300D0E0F0A3D0E0F0A3E520F0A3E5F0F0A3F5
:1012730022851B83851A82E0C0E0A3E0F9A3E0FA8C
:10128300A3E0FBA37808E0F608A3DFFAE0FCA3E001
:10129300FDA3E0FEA3E0FFA3E0C0E0A3E0C0E0A362
:1012A300E0F5D0A3E0F520A3E0A3F5F010AF0885A7
:1012B300831B85821A800885831B85821AD2AFD04F
:1012C30082D083D0E0F8D0E03274048006740280C8
:1012D300027401C0E0F40412107ED0E0120F9422D5
:1012E3007404800474028000CCC0E0EDC0E0E51A11
:1012F300C39CCCAD1B50011D10AF068C1A8D1B80F7
:10130300068C1A8D1BD2AF120FA1D0E0FDD0E0FCEA
:1013130022D083D082E9C0E0E493A3C386F0C5F072
:1013230095F0F908E493A386F0C5F095F0700BE40B
:1013330093A3C3994005E9048002A3E475F002A4D2
:101343002582F582E5F03583F583D0E0F9E493A3B4
:07135300C0E0E493C0E022BA
:10135C00C0E074F2121215A2AFE433FED2AF120247
:10136C0077E96401700A7901120745438C02800801
:10137C007900120745538CFD120721538AFBC2EBEF
:10138C00751C00EEA2E092AF7F0102127400000007
:10139C00851D87851EC622C0E074EF121215A2AF00
:1013AC00E433FEC2AF759B00906182E0A2E050096D
:1013BC00E591A2E050037591FEE0A2E55009E5919C
:1013CC00A2E550037591DFE0A2E64003021477E535
:1013DC0091A2E640030214777591BF900326E06456
:1013EC0005700812048112048D8003120487751D88
:1013FC00001204E1E9900327F079001204D51203DE
:10140C00CD7A017B00900325E0F912060790780352
:10141C00E0644270569003A1E014F0704EC2AF121B
:10142C00142E007822D0E0F618D0E0F6E59F540791
:10143C00F870057509FF800375097FC4C0E0782139
:10144C00E6F50808E65509F509740B780812102B17
:10145C00D0E02508F8906270E0A2E740F8E8C333CA
:10146C00906272F0906270E0D2E0F0906181E0A244
:10147C00E35009E5E9A2E3500375E9F7A3E0A2E71D
:10148C005009E591A2E7500375917FEEA2E092AF6F
:10149C007F04021274C0E0C0D0C082C0839061830C
:1014AC00E0A2E05009E5BFA2E0500375BFFEE0A248
:1014BC00E15009E5BFA2E1500375BFFDE0A2E25087
:1014CC0009E5BFA2E2500375BFFBE0A2E35009E5BA
:1014DC00BFA2E3500375BFF7E0A2E45009E5BFA239
:1014EC00E4500375BFEFE0A2E55009E5BFA2E5505B
:1014FC000375BFDFE0A2E65009E5BFA2E650037515
:10150C00BFBFD083D082D0D0D0E032C0E074F21212
:10151C001215E5A7A2E6500FE5A1A2E6500953A7C4
:10152C00BF75A1BF12156BE5A7A2E5500CE5A1A2F2
:10153C00E5500653A7DF75A1DFE5A7A2E15009E549
:10154C00A1A2E1500375A1FDE5A7A2E2500CE5A113
:10155C00A2E2500653A7FB75A1FB7F010212747423
:10156C00F7121129751D01900326E06406701512FF
:10157C00043F8A828B83A3A3A3A3A3A3E0FAA3E0D3
:10158C00FB12046FA2AFE433FED2AF90032CE064E5
:10159C000170187A207B00900325E0F91206D97AA5
:1015AC00207B00900325E0F912060D906182E0D2B9
:1015BC00E6F090039EE0602185C61E801690032BFA
:1015CC00E064017008E5C654F84405F5C653BEFC4A
:1015DC0012139C7401651D60E4EEA2E092AF7F02D1
:1015EC000211D574E912112974FA12104DEAFEEBAE
:1015FC00FF8C0A8D0B12049FEAF8EBF9ECFAEDFB69
:10160C008E828F83120F88900326E024F7C39405F3
:10161C00500675140102175612043F8A088B09EA0A
:10162C0045097003021753EEFCEFFDAA1AAB1B120F
:10163C000499850882850983A3A3780C120F529014
:10164C00806C780C120F2C851A82851B83781012F3
:10165C000F5290806C7810120F2C780C79101207A6
:10166C0066501F780C7910120EEC908084780C1256
:10167C0007864047850C14850D15850E16850F17AA
:10168C00804590808485101485111585121685135C
:10169C00177814790C120EEC7814120786501C75FE
:1016AC001400751500751600751701781479101251
:1016BC000EEC7814790C120EB3800C7514017515A0
:1016CC000075160075170074097814120E9490802A
:1016DC0088780C120F527814790C120DDE85088262
:1016EC00850983A3A3A3A3A3A3121774120FC28803
:1016FC000C890DE4F50EF50F7814790C120EB374F9
:10170C0004121099121774120FC2E8FA8A0CE4F53D
:10171C000D7814790C12076650077814790C120E98
:10172C00EC900326E06408600AE064066005E0645F
:10173C0005702090808C781412078650169080903B
:10174C007814120EC6800C751400751500751600F1
:10175C00751700850A82850B837814120F61740645
:10176C001210637F100211D5E0F8A3E0F97AD07B58
:10177C00032274F71211291204B190039CE0640146
:10178C007010906245E4F0A3F053F4F343FE0C5355
:10179C0090F312045DE5C654B84441F5C6E59E5479
:1017AC0047644170F8906185740FF090039AE0F4EF
:1017BC007002A3E0604E90039BE0600814601B1461
:1017CC00602E804075080175090090039AE0780836
:1017DC0012103AE508F45280802A75080175090048
:1017EC0090039AE0780812103AE508F452908014AD
:1017FC0075080175090090039AE0780812103AE513
:10180C0008F452A079007F020211D574F712112945
:10181C00E9FEEAFF1204B174016E700C7A807B0051
:10182C00900325E0F91206079019D0E493F46008B0
:10183C00E493F91203C1800953C6B8E59E5447706E
:10184C00FA12046390039CE0640170031203DF90AE
:10185C00039AE0F47002A3E0604B90039BE06008F5
:10186C0014601A14602C803D7508017509009003F2
:10187C009AE0780812103AE5084280802875080131
:10188C0075090090039AE0780812103AE508429026
:10189C00801375080175090090039AE078081210FE
:1018AC003AE50842A012043F8A088B09A808A90946
:1018BC00E8496014E5E170FCE82414F582E439F59C
:1018CC0083E0F46003E0F5E174016F700A7A019033
:1018DC000325E0F912066702181274F11211298A15
:1018EC00088B098C0A8D0B90806C7808120F2C7465
:1018FC000F121099780C120F5290806C780C120FFA
:10190C002C7808790C12076690808450107808792E
:10191C000C120EEC78081207864014800E780C79A5
:10192C0008120EEC780C12078650047901800279AB
:10193C00007F080211D574ED1211298A088B098CCD
:10194C000A8D0B90806C7808120F2C74131210995E
:10195C00780C120F5290806C780C120F2C780C793A
:10196C000812076640117808790C120EECAA08AB25
:10197C0009AC0AAD0B8022751000751100751200B0
:10198C007513017810790C120EEC78107908120E80
:10199C00B3AA10AB11AC12AD137F0C0211D5C0E081
:1019AC00C0D0E8C0E0A8A8D2AFC2C7751C00E8A29E
:1019BC00E792AFD0E0F8D0D0D0E032C2AF02000056
:1019CC0022020132FFFFFFFFFFFFFFFF74F6121030
:1019DC00BD74E512104D798112021D851A82851B8A
:1019EC008374F2F074011210997401121C631202C8
:1019FC0029E97003021B8E851A82851B8374F4F00F
:101A0C0074011210997424121C63120229E97003D8
:101A1C00021B8E851A82851B8374F5F074011210DB
:101A2C0099E4121C63120229E97003021B8E851AB9
:101A3C0082851B837488121DDC120229E970030253
:101A4C001B8E74021210B37A187976120223740268
:101A5C00121099E0FA7403121099E0F9EA900287D7
:101A6C00121C237404121099E0FA7405121099E0F8
:101A7C00F9EA900289121C237406121099E0FA7488
:101A8C0007121099E0F9EA90028B121C23740812C9
:101A9C001099E0FA7409121099E0F9EA90028D128B
:101AAC001C23740A121099E0FA740B121099E0F9C5
:101ABC00EA90028F121C23740C121099E0FA740D28
:101ACC00121099E0F9EA900291121C23740E121074
:101ADC0099E0FA740F121099E0F9EA900293121C33
:101AEC00237410121099E0FA7411121099E0F9EAAB
:101AFC00900295121C237412121099E0FA741312AE
:101B0C001099E0F9EA900297121C237414121099A0
:101B1C00E0FA7415121099E0F9EA900299121C235C
:101B2C007416121099E0FA7417121099E0F9EA90F1
:101B3C00029B121C237418121099E0FA74191210DB
:101B4C0099E0F9EA90029D121C23851A82851B8369
:101B5C0074A1121DDC120229E9602774021210B361
:101B6C007A0179761202237402121099E090029F86
:101B7C00F0851A82851B8374E1121DDC120229E99F
:101B8C0070057900021C1974021210B37A07797669
:101B9C001202237402121099E0FA7403121099E0E5
:101BAC00F8E4C8F9EA9002A0121C237404121099EC
:101BBC00E09002A2F07406121099E0FA740512106B
:101BCC0099E0F50888097404780812103AEA54F080
:101BDC00F8E508489002A3F0A3E509F0EAC4540F15
:101BEC00FA7407121099E0F5087509007404780866
:101BFC0012103AEA45089002A5F0A3E509F0740822
:101C0C00121099E09002A7F012022F7901741B12A6
:101C1C0010637F0202118FF0A3E9F02274F7121007
:101C2C00BD74FE12104D120235851A82851B837409
:101C3C00F4F074011210997425121C63120229E934
:101C4C00FE12022FEE7004790080027901740212E8
:101C5C0010637F0102118FF0AC1AAD1B7A027976FA
:101C6C002274E81210BD74F312104D740B121099FB
:101C7C00EAF0A3EBF0ECFEEDFF120235851A82853B
:101C8C001B8374F7121DDC120229E970057900021E
:101C9C001DC674011210B37A0979761202237404EA
:101CAC00121099121DCAF50B740C7808120E94744C
:101CBC0005121099E0F50CE4F50DF50EF50F740412
:101CCC00780C120E947808790C120F3F74061210CF
:101CDC0099E0C4540FF50CE4F50D7808790C120F4B
:101CEC003FAA08AB09AC0A7D0012028F8A0C8B0D3F
:101CFC007407121099121DCA74087808120E947485
:101D0C000812109912209774047810120E94780807
:101D1C007910120F3FAA08AB097C007D00120295C6
:101D2C008A108B118C128D137401121099E0F50826
:101D3C00E4F509740C7808120E94740212109912BE
:101D4C00208C74047814120E9478087914120F3FB6
:101D5C007403121099E0C4540FF514E4F5157808C7
:101D6C007914120F3FAA08AB09AC0A7D0012029B32
:101D7C008A088B098C0A8D0B740B121099121DD3C7
:101D8C00E50CF0A3E50DF0781012081D8E828F8300
:101D9C00E510F0A3E511F0908020780C120F52782A
:101DAC0008790C120DDE7425121099121DD3E5085A
:101DBC00F0A3E509F012022F7901740D801EE0F5F5
:101DCC0008E4F509F50A22E0F8A3E0F583888222FD
:101DDC00F0AC1AAD1B7A0179762274041210637F71
:101DEC001002118F74EC1210BD8A0C8B0D8C0E8DA1
:101DFC000F900287E0F508A3E0F509E4F50AF50B6E
:101E0C008A108B118C128D1374047810120E617859
:101E1C00107908120EEC7403780C120E6104780819
:101E2C00120E94780C7908120EEC9002891222F69C
:101E3C00120D5E740B780C120E6185100885110959
:101E4C0085120A85130B78087910120D5E740C78C4
:101E5C0008120E6190028B12230478087910120D6F
:101E6C005E740E7808120E61780C7908120EB3901D
:101E7C0002A8780C120F619002A87808120F5290E9
:101E8C008028780C120F527808790C120D5E908015
:101E9C002C7808120EC674087808120E61AA08ABCA
:101EAC0009AC0AAD0B7F0C02118F74E81210BD8ABD
:101EBC000C8B0D8C0E8D0F9002A87808120F527897
:101ECC00081207A59080307810120F5278087910FC
:101EDC00120B44780C1207A5C00CC00DC00EC00F1D
:101EEC009002A31220A81207A59080347810120F2C
:101EFC0052780C791012099F9002A51220A2120799
:101F0C00A59080247810120F527814791012099F22
:101F1C007814790812099F780C7914120B44D01399
:101F2C00D012D011D0107810790C120B1FC010C029
:101F3C0011C012C0139002A01220A81207A5908005
:101F4C00387810120F52780C791012099FC00CC0FF
:101F5C000DC00EC00F9002A7E0F50C3395E0F50D07
:101F6C00F50EF50F780C1207A590803C7810120F27
:101F7C0052780C791012099F780C790812099F90ED
:101F8C0002A212208C78141207C090803C78101298
:101F9C000F527814791012099F7814790812099F3E
:101FAC009080747808120F5278147908120B4478C8
:101FBC000C791412099F9080747808120F52780CC7
:101FCC007908120B44D013D012D011D0107810799C
:101FDC000C12099FD00BD00AD009D00878087910C0
:101FEC0012099F750C00750D00750E80750F3F90D2
:101FFC00029F12209778101207C0781079081209E6
:10200C009F9080447814120F527810791412099F03
:10201C00780C7910120B1F780C790812099F850C1B
:10202C0008850D09850E0A850F0B908048780C12D7
:10203C000F527808790C120904500E7508007509B6
:10204C0000750AC8750B42801D90804C780C120FDD
:10205C00527808790C120953500C75080075090058
:10206C00750A00750B00908050780C120F5278088E
:10207C00790C12099FAA08AB09AC0AAD0B021DEB37
:10208C00E0F514E4F515F516F51722E0F510E4F576
:10209C0011F512F5132212231B7814221222C77881
:1020AC000C2274E81210BD74FC12104D12232A7805
:1020BC000C120F527401780C120E61908054780C33
:1020CC00120EC6850C10850D11850E12850F13741A
:1020DC00027810120E61850C08850D09850E0A8593
:1020EC000F0B74027808120E6178107908120D5ECD
:1020FC0085100885110985120A85130B740B780855
:10210C00120E61900297122313120D5EC008C009C3
:10211C00C00AC00B850C08850D09850E0A850F0BAE
:10212C00900295122313120D5E74017808120E940E
:10213C00D017D016D015D01478147908120EB374A9
:10214C00027814120E619002931222E37410780834
:10215C00120E9478147908120EB39002911222E3A5
:10216C00740D7810120E6178087910120D5E7403DC
:10217C007808120E6190028F1222FE790C120D5EFD
:10218C0074017810120E6178087910120EB3741263
:10219C007808120E619080587808120EC690028D45
:1021AC001222D67808790C120D5E740F7808120E74
:1021BC006185080C85090D850A0E850B0FE50C450C
:1021CC000D450E450F700B7A007B007C007D0002E4
:1021DC0022C4751000751100751210751300851A44
:1021EC0082851B837810120F00740C7814120E6108
:1021FC0078107914120EEC90805C7808120F5278DB
:10220C00107908120D5E90806078101207864010CD
:10221C0074017810120E947810790C120DDE800E69
:10222C007810790C120DDE74017810120E94851052
:10223C001485111585121685131774037814120E54
:10224C007B90029D1222C785140885150985160AF4
:10225C0085170B78087914120D5E740D7808120E20
:10226C007B780C7908120D5E740C780C120E61855B
:10227C00100885110985120A85130B74027808124F
:10228C000E7B90029B122313120D5E740D780812B4
:10229C000E61780C7908120EB39002991222F61284
:1022AC000EB37404780C120E617810790C120EB304
:1022BC00AA10AB11AC12AD13021DE6E0F50CA3E0B5
:1022CC00F50D3395E0F50EF50F22E0F50CA3E0F5D6
:1022DC000DE4F50EF50F221222E722E0F508A3E03B
:1022EC00F5093395E0F50AF50B221222E7780C7903
:1022FC000822122304781022E0F510A3E0F5113324
:10230C0095E0F512F5132212231B7808791422E0BC
:10231C00F514A3E0F5153395E0F516F51722851A9B
:10232C0082851B83EAF0A3EBF0A3ECF0A3EDF09015
:10233C0002A822C082C0839003A8E4F09003A77483
:10234C00FFF09003C4E4F09003C374FFF09003A477
:10235C00F09003A3E4F09003A2F09003A5F0A30285
:10236C002A0074F41210BD9003A5E0F508A3E0F563
:10237C0009E508450970061203CD0224558508822B
:10238C00850983E014600A14600724FE60030224AC
:10239C0055E0F912042D8A0A8B0BAE0AAF0BEE65D1
:1023AC00087003EF650970030224528E828F83E05C
:1023BC00640160030224551203E51204938A088B0E
:1023CC00098C0A8D0B9080207808120EC6780812A2
:1023DC0012CC8E828F83A3A3120F701218E6740492
:1023EC00121063E970561204938A088B098C0A8DBB
:1023FC000B9080687808120EC690806C7808120FCB
:10240C002C8E828F83A3A37808120F61900326E091
:10241C00640270258E828F83A3A37808120F5290CA
:10242C00807C7808120EC690806C7808120F2C12E3
:10243C0025A27808120F6180031229A29003A474BC
:10244C0001F0EEFAEFFB1204277F0402118F74F0F7
:10245C001210BDEAFEEBFFEE2402F8E43FF9880807
:10246C008909EE2406F8E43FF9880A890B8882F57D
:10247C00831212E7850882850983120F7012047586
:10248C007402121063850A82850B831212E7850889
:10249C0082850983120F7012046974021210631280
:1024AC0025A2120F7012047B8E828F83E064407021
:1024BC001BEE2412F8E43FF988828983E090606473
:1024CC00F088828983A3E09060658006906064E464
:1024DC00F0A3F09003A5EEF0A3EF1229AFE0F8A360
:1024EC00E0F58388821210BB906054E41225B0A3EF
:1024FC001225B0906182E0C2E6F07591BF12299866
:10250C00E0640170031204B1E5E170FC122988E06B
:10251C00F46003E0F5E1122992F090032CE06401E1
:10252C00706F1204938A088B098C0A8D0B78081231
:10253C0012CC8E828F83A3A3120F701219427404D3
:10254C001210638A088B098C0A8D0B908028780CEA
:10255C00120F527808790C120D5E74037808120E63
:10256C007BE50824F4F508E5093401F50990039E90
:10257C00E0600312063DE4F50AF50B78081212CC64
:10258C007A207B00900325E0F91206CD740412101A
:10259C00637F0802118F1225A622EE240EF582E429
:1025AC003FF58322F0A3F0A3F0A3F0A3F0A3F02255
:1025BC0074F01210BD890874FF6508706E9003A347
:1025CC00E0540770030228B67904120445E964014B
:1025DC0070047904800C7901120445E964017008D7
:1025EC00790112044B0228BA7902120445E96401FC
:1025FC00703978009003A7E064027006A3E06401D0
:10260C00601678019003C3E064027006A3E06401D5
:10261C0060067A007B008010E875F01CA4F8A9F025
:10262C0074A728FA740339FB0228BA78009003A720
:10263C00E065087006A3E06401601678019003C39E
:10264C00E065087006A3E0640160067E007F0080F0
:10265C0010E875F01CA4F8A9F074A728FE740339CF
:10266C00FFA908120445E96401700575090180038E
:10267C00750900E50814601014700302275224FE3B
:10268C0070030227C80228B67902120445E96401D6
:10269C00706978009003A7E064027006A3E06401FF
:1026AC00601878019003C3E064027006A3E0640133
:1026BC006008750A00750B0080031228BDE509A29D
:1026CC00E05031850A82850B83A3A3780C120F523C
:1026DC00908080780C120EC6780C1212CC8E828FE1
:1026EC0083A3A3120F701218E67404121063E9701E
:1026FC00030228B0AA0AAB0B0228BA7904120445CB
:10270C00E96401702E78009003A7E064047006A3BE
:10271C00E06401601878019003C3E064047006A3C0
:10272C00E064016008750A00750B0080031228BD77
:10273C000227FDE509A2E05006EEFAEFFB80047AD1
:10274C00007B000228BA7904120445E96401702D5B
:10275C0078009003A7E064047006A3E0640160189D
:10276C0078019003C3E064047006A3E06401600880
:10277C00750A00750B0080791228BD8074790112DE
:10278C000445E96401702278009003A7E0640170AD
:10279C0006A3E06401605778019003C3E064017004
:1027AC0045A3E064016047803DE509A2E05006EED8
:1027BC00FAEFFB80047A007B000228BA790112043C
:1027CC0045E96401706778009003A7E06401700626
:1027DC00A3E06401601878019003C3E06401700603
:1027EC00A3E064016008750A00750B0080031228D1
:1027FC00BDE509A2E04003022700850A82850B8310
:10280C00A3A3780C120F52908080780C120EC6780D
:10281C000C1212CC8E828F83A3A3120F701218E6A7
:10282C007404121063E960030227008077790212A6
:10283C000445E96401706778009003A7E0640270B6
:10284C0006A3E06401601878019003C3E064027091
:10285C0006A3E064016008750A00750B0080031282
:10286C0028BDE509A2E04003022700850A82850BFA
:10287C0083A3A3780C120F52908080780C120EC692
:10288C00780C1212CC8E828F83A3A3120F701218A5
:10289C00E67404121063E960030227008006E50960
:1028AC00A2E05006EEFAEFFB80047A007B000225D2
:1028BC009DE875F01CA4F8A9F074A728F50A740318
:1028CC0039F50B2274F71210BD89087A007EA77FA8
:1028DC00038E828F83A3E0600302296E8E828F8326
:1028EC00E0F460109003A5E0F8A3E0F9EE68700244
:1028FC00EF69606E8E828F83E508F0120493EAF81C
:10290C00EBF9ECFAEDFB8E828F83A3A3120F888E6A
:10291C00828F83A3A3A3A3A3A3E4F0A3F01229A201
:10292C001229887401F01229921229AFE4F0A3F055
:10293C008E828F83A304F09003A3E04508F09003EC
:10294C00A2E004F06401600C7480650860067440B9
:10295C00650870089003A5EEF0A3EFF0EEFAEFFB1C
:10296C0080150AEE241CFE50010FEAC3940250039A
:10297C000228DD7A007B007F0102118FEE2414F512
:10298C0082E43FF58322122998740122EE2415F576
:10299C0082E43FF583221225A674FFF0A3F0A3F086
:1029AC00A3F022F0EE241AF582E43FF58322C082D4
:1029BC00C0838A828B83E0F8A3E0F98A828B83E45C
:1029CC00F0A3F088828983A3F088828983E0F4F8ED
:1029DC009003A3E058F09003A2E014F0701490035D
:1029EC00A5E4F0A3F0900326F0FA900325E0F91289
:1029FC0006678001F0D083D082020132C082C0838E
:102A0C009003A2E0600A9003A5E0FAA3E0FB800427
:102A1C007A007B0080DFC082C083E9FB78009003E2
:102A2C00A7E06B7016E875F01CA4F8A9F074A82840
:102A3C00F582740339F583E0F9800B78019003C3B8
:102A4C00E06B60E1790080ADE0F980A9C082C083C1
:102A5C007A009003A7E0697018A3E064017012EA91
:102A6C0075F01CA4FAABF074A72AFA74033BFB8034
:102A7C00127A019003C3E0697006A3E0640160DF81
:102A8C001A7B00022A01C082C0839003A280B97411
:102A9C00F41210BDE9900325F01204AB907800E01D
:102AAC00C4540F540764037004793F8002797F7516
:102ABC00080675090078081212D07C137D037AEA97
:102ACC007B0712056B7402121063900313E0F47011
:102ADC0049A3E0F47044A3E0F4703FA3E0F4703A2F
:102AEC00A3E0F47035A3E0F4703090780EE090031E
:102AFC0013F090780FE0900314F0907810E09003AE
:102B0C0015F0907811E0900316F0907812E0900395
:102B1C0017F0907813E0900318F0900319122C28FA
:102B2C001231C69003377406F0A3740D122E08747C
:102B3C0042F0A37401F0900341122C28900340E45E
:102B4C00F090034EF0A374A0122E087403F0A3743B
:102B5C0007122E087428122E0804F0A3E4F0900338
:102B6C0077F090039A74FFF0A3E4F090039CF0903C
:102B7C00039E04F090039F7490F0A37401F0120371
:102B8C00D912038512045779017AA17B0312040927
:102B9C009003A1E075F01484E5F004F012040F7AB0
:102BAC0000900325E0F9120667907803E064427008
:102BBC00569003A1E014F0704EC2AF122BCA0078ED
:102BCC0022D0E0F618D0E0F6E59F5407F8700575B2
:102BDC0009FF800375097FC4C0E07821E6F5080879
:102BEC00E65509F509740B780812102BD0E025086E
:102BFC00F8906270E0A2E740F8E8C333906272F09C
:102C0C00906270E0D2E0F090033CE4F0A3F07A80A4
:102C1C00FB900325E0F9120607022DF674FF122E25
:102C2C000EF0A3F02274F41210BDEAFEEBFFEEA23C
:102C3C00E0503F900327E0C39480E0500F25E0F86C
:102C4C00E433F974F828F5827408800EF425E0F862
:102C5C00E433F9740628F582740939F58312317856
:102C6C001210BB7A00900325E0F9120667EE64019E
:102C7C00803B5480603B90039F122DFBE849602AF7
:102C8C00790012066190039FE0F508A3E0F509E4D2
:102C9C00F50AF50B78081212CC7A007B019003250B
:102CAC00E0F91206CD7404121063EE6480FAEF8022
:102CBC002DEF5401600C7901120661EEFAEF6401FC
:102CCC00801CEF5402600AC2AF75C9AB75C95B803A
:102CDC00FEEF5404600B1219C7EEFAEF6404FB808C
:102CEC001790032CE06401700BEE54206006EE6428
:102CFC0020FA80047A007B00022DF6C082C083C2C9
:102D0C00AF120487E5E170FC75E1011203C775E1B0
:102D1C00F11204B71203BB790712050579011205EC
:102D2C000B79021204DB1204ED1204F9790012047F
:102D3C00FF79011204FF908064120F701204C3908B
:102D4C00034EE4F0A3F0A3F09003527407F0900349
:102D5C00517403F0900357E4F0900356F09003770E
:102D6C00F012041B1203FD7900120511906012E49D
:102D7C00F0A3F0906063F0751D00900326F09003B3
:102D8C0028F0A3F090032BF090032C04F090033662
:102D9C0004F090039DE4F0D2AFF9022DEFC082C095
:102DAC0083900313122E01900314122DDBF0900369
:102DBC0015122DDBA3F0900316122DDBA3A3F090BC
:102DCC000317122DE2F0900318122DE2A38011E0EC
:102DDC008A828B83A322E08A828B83A3A3A3A32260
:102DEC00F07900D083D0820201327F0402118FE08F
:102DFC00F8A3E0F922E08A828B83F022F0A3E4F0BE
:102E0C00A322F0A3F0A3F0A3F0A3227F0202118F60
:102E1C0074F71210BDEAFEEBFF8908E9605D7401DE
:102E2C006508601574036508603B740265086035BD
:102E3C00740465086003022EF1740B121099122DA4
:102E4C00FBE8497003022EF1740A121099E0F86045
:102E5C00087401686003022EF1740365086006743F
:102E6C00026508702AEE2460F8EF122FAA5076EC57
:102E7C002460F8ED122FAA4016806AEE24E0F8EFD9
:102E8C00122F9F5060EC24E0F8ED122F9F5056C388
:102E9C00EC9EED9F404F7409121099E0FA60057496
:102EAC00016A7041740E121099E0F8600F74016899
:102EBC00600A74026860057403687029740D12103E
:102ECC0099E0F9740759601D90034EE06401700598
:102EDC00790C022F9DE508600C740165086006747E
:102EEC0004650870057912022F9D740759900352DE
:102EFC00F0E508900351F0E8900353F0EA9003409A
:102F0C00702FE4F0900313E0900341F0900314E071
:102F1C00900342F0900315E0900343F0900316E009
:102F2C00900344F0900317E0900345F09003188051
:102F3C002E7401F0900319E0900341F090031AE015
:102F4C00900342F090031BE0900343F090031CE0CD
:102F5C00900344F090031DE0900345F090031EE0B5
:102F6C00900346F0E87004790080197401687004CD
:102F7C007901801074026870047902800774036808
:102F8C00700579031204F390034FEEF0A3EFF07980
:102F9C0000801634FFF9C3E894E1E9943F2234FF32
:102FAC00F9C3E89461E9943F227F0102118F74F612
:102FBC001210BDE9FEC39420500BEE900357F06045
:102FCC001EEA4B70047912801E1231BD1212D0EA27
:102FDC00FCEBFD7A587B031205C57402121063904A
:102FEC0003567401F07900022E1774F41210BDE927
:102FFC00FF900326E064097003023101E0640A705B
:10300C0003023101E0640B7003023101E0640C70C7
:10301C0003023101E0640D7003023101900351E0B1
:10302C00601664016012E06403600DE064026008E5
:10303C00E064046003023174900340E060076401B3
:10304C006003023174900351E064036005E0640294
:10305C00701090034FC3E094A0A3E09400500302BF
:10306C003174900351E070030231746401700302F7
:10307C003174E064047003023174EF700302310D9B
:10308C0014600302317490034EE0640160677901AF
:10309C0012043390033EEAF0A3EBF090034E74015C
:1030AC00F0900326E070551204938A088B098C0A61
:1030BC008D0B9080687808120EC690806C78081280
:1030CC000F2C90033E123178A3A37808120F619055
:1030DC00033EE0F8A3E0C82406F582E438F583E467
:1030EC00F0A3F01203E5E960107A3E7B0312043979
:1030FC0090034EE4F0792180051204217900022D11
:10310C00F690034EE060EEA2AFE433FEC2AF7A3E1F
:10311C007B0312043990034EE4F0120451E9704120
:10312C00120487906182E0C2E6F0E5E170FC75E183
:10313C00017591BF75E1F190032CE0640170187A70
:10314C00207B00900325E0F91206D97A207B0090B1
:10315C000325E0F912060D7A00900325E0F912061A
:10316C0067EEA2E092AF809479128092E0F8A3E02F
:10317C00F58388822274F61210BDE9FEC3942050A8
:10318C000BEE900377F0601EEA4B70047912801EF0
:10319C001231BD1212D0EAFCEBFD7A787B031205DA
:1031AC00C574021210639003567401F07900022E5C
:1031BC0017E0F508750900780822900313E09003D6
:1031CC001FF0900314E0900320F0900315E090039F
:1031DC0021F0900316E0900322F0900317E0900387
:1031EC0023F0900318E0900324F022C082C0839057
:1031FC0061907404F0A37448F0A37402F0906180A1
:10320C007440F09061BC7403F09061877419F09075
:10321C006265741BF0906249E0C3941390619C400A
:10322C00107409F09060667401F090619F742880AE
:10323C000D740BF0906066E4F090619F742CF012AA
:10324C0033CA7009C29190032A7467800590032ACF
:10325C007461F01234259019D0E493F46006E49371
:10326C00F91203C179051205170233DAC082C08343
:10327C00E9540FF9906185E0696012E5C654B844D1
:10328C0041F5C6E59E5447644170F8E9F053C6B861
:10329C00E59E544770FA0233DAC082C083A8A85363
:1032AC00A87E906181E4F0A3F0A3F0C2BA539AFE19
:1032BC00C289759B00C2C275E90075910075BF008B
:1032CC0075A91175B905906181F0A374C0F0A3E4E0
:1032DC00F0D2BA439A0174805842A80233DAC08201
:1032EC00C08374F812104D900328123804E849700A
:1032FC00030233C3900328E0544060177908AA1ADC
:10330C00AB1B120409AA1AAB1B120349900328E049
:10331C0054BFF0E0A2E0501E1233CA7009C2919063
:10332C00032A7467800590032A7461F012034F908E
:10333C000328E054FEF0E05402601E1234187009A9
:10334C00D29190032A7471800590032A746AF0124A
:10335C00034F900328E054FDF0E0540460109019E2
:10336C00D4123428120355900328E054FBF0E05497
:10337C000860109019D5123428120355900328E0D8
:10338C0054F7F0E05410600D1234251203559003DD
:10339C0028E054EFF0E05420600A12035590032803
:1033AC00E054DFF0A3E05401600D1203DF12035B65
:1033BC00900329E054FEF0740812106380109061A1
:1033CC009A12361A90039CE0640122F0A3F0D08389
:1033DC00D082020132C082C083E96005146017807C
:1033EC00291233CA7009C29190032A7467801A900B
:1033FC00032A746180131234187009D29190032A35
:10340C007471800590032A746AF080C290619A12DC
:10341C00360C90039CE06401229019D6E4939061E1
:10342C0086F02274EA1210BD74F412104D90807064
:10343C00AC1AAD1B7404120FA19019D493F4600351
:10344C000235A1907808E0C39402500302358590B0
:10345C00800C74041210B37408120FA1A81AA91BC3
:10346C008814891574041210A388088909AE08AF52
:10347C00097510FF7511FF750EFF7C00750C4875F2
:10348C000D78801274086C700302351B74096C6023
:10349C007E740A6C6079850C82850D837808120F16
:1034AC00528E828F83A909E50AC9F888127418789C
:1034BC0008120E7BE5124508F8C3E098A3E0998545
:1034CC000C82850D837808120F5240188E828F83E0
:1034DC0074187808120E7BE5124508F8E0C398F8CA
:1034EC00A3E0801A74187808120E7BE5124508FACE
:1034FC00E9FB8E828F83123804EAC398F8EB99F9B2
:10350C00C3E89510E995115006881089118C0E0CA2
:10351C00E50C2404F50C5002050DECC39413500378
:10352C0002349074FF6510700474FF65116024857B
:10353C000E087402780812103A74482508F5827443
:10354C00783509F5837808120F5285148285158316
:10355C00E508F0EE2402FE50010F851482851583D8
:10356C00A3858214858315740C121099E5826E70F4
:10357C0003E5836F600302347D75080175090078DB
:10358C00081212D074021210B37A757B06120571F0
:10359C007402121063740C1210637F0E02118FC030
:1035AC0082C0839061AE7468F0A3746AF090624537
:1035BC0074FBF0A304F053F4FD43FE0290039C74DF
:1035CC0001F09061A0E0643A90619A701912361A79
:1035DC00740164017009C29190032A7467801E9073
:1035EC00032A7461801712360C740164017009D2BD
:1035FC009190032A7471800590032A746A0233D95E
:10360C00743FF0A3745AF09061A0747FF02274336D
:10361C00F0A37455F09061A0743AF022C082C0837C
:10362C0075E1F1900351E024FE604D14704F1203CC
:10363C00EB900340E0F97A417B031204BD90807853
:10364C00120F701204E7908064120F701204C39072
:10365C000352E0F91204CF790112050B90033EE0FE
:10366C00F8A3E0C8241AF582E438F58374F7F0A3C4
:10367C007403F079000233DA1203F180B47912800A
:10368C00F474F71210BD1236D64402F5D975824186
:10369C0075830312377F7004E583640370F5900320
:1036AC0057E0600A78587903FA123773DAFB75E140
:1036BC00959008F81236E8F0A31236E812378774A2
:1036CC0014F09003267404023813900357E0240777
:1036DC00F5D9900340E0C4333354C02274AF123692
:1036EC00F51236F5F0A3740322F0A37403F0A3745F
:1036FC00AF2274F71210BD1236D64406F5D9758276
:10370C004175830312377F7004E583640370F59071
:10371C000357E0600A78587903FA123773DAFB9092
:10372C0003771236D94404F5D97582417583031297
:10373C00377F7004E583640370F5900377E0600ACB
:10374C0078787903FA123773DAFB75E1959008F8FB
:10375C0074A9F0A374031237C91237877415F0904B
:10376C000326740302381388828983123808A882CE
:10377C00A98322123808E582644722F0A374B5F0BD
:10378C00A374031237BE1237CD1237B4240EF58250
:10379C00E438F58374FFF0A3F0A3F0A31237B4243C
:1037AC0014F582E438F58322F090033EE0F8A3E0B0
:1037BC00C822F09009067415F0A37404221237CDB8
:1037CC0022F0A374151237DC1237DCF0A374042238
:1037DC001237E31237E322F0A37404F0A37415221A
:1037EC00C082C08390033EE0F8A3E0C82406F582B3
:1037FC00E438F583E40233D712380D22E0F5D9A36F
:10380C0022E0F8A3E0F922F07F0102118FC082C000
:10381C0083E490032E7808F0A3D8FC90032E0402C6
:10382C0033D9F09002F612383622123D82F5838895
:10383C0082A32274EE1210BD890C8A0A8B0B8C0E9B
:10384C008D0F9002E1E0540570030238E3740165BA
:10385C000A700D9002F8123E3C607C9002F8800BCE
:10386C009002FA123E3C606F9002FAE0FEA3E0FF79
:10387C00EBC394205008EB6009EC450F70047902FF
:10388C008057E50C9008F1F08E828F83A385820817
:10389C008583097C1F7D007900AA08AB091205D12C
:1038AC00850B1075110078101212D0AC0EAD0FAA4A
:1038BC0008AB091205C574021210638E828F83E562
:1038CC000BF0F9E50AAA08AB09600512033780036F
:1038DC0012033DE9F9800279127F0A02118F74F705
:1038EC001210BD123E37700479128039123A576E9D
:1038FC0060047903802F7A027B009002FEE0F912BB
:10390C0006D99002FCE4F0A3F07A04FB9002FEE0EE
:10391C00F91206D99002E3E4F0A312382E7403F0E6
:10392C0079001203430239DDD083D0820201327454
:10393C00F71210BD9002F8123E3C600D123D76124B
:10394C0006559002F8E4F0A3F09002FA123E3C60A7
:10395C00109002FA123D791206559002FAE4F0A387
:10396C00F09002E1E05405605F7AF27B08120325C7
:10397C007E009002E1E05405604A7A207B0012063A
:10398C004F1239E29002F8123E3C60367C207D00EA
:10399C0079001205D17A207B0012064F9002FA12A0
:1039AC0039E59002FA123E3C600B7C207D007900D8
:1039BC001205D1800F123D761206559002F8E4F0F4
:1039CC00A3F07E13EEF980097A007B0012032579AF
:1039DC00007F0102118F9002F8EAF0A3EBF0227441
:1039EC00F61210BD7E018A828B83A3A3A3E0FCA3F5
:1039FC00E0FD8C088D0978081213140620044A3A4D
:103A0C00163A4A3A283A283A1E3A123DB41202F5AE
:103A1C008006123DB41202FBE9FE802474086C701F
:103A2C000374206D70047901800279008A828B8383
:103A3C00A3A3A3A3A3123A54FA12030180027E009B
:103A4C00EEF9023D719002F8E0F8A3123B6FE02210
:103A5C0074F21210BD123E397003023B2E123B6AF7
:103A6C00A3E0F50B12031FE960137A0A7B00120224
:103A7C00B98A088B09AE08AF097A0B802A12031990
:103A8C00E960137A067B001202B98A088B09AE082A
:103A9C00AF097A0780117A087B001202B98A088B69
:103AAC0009AE08AF097A097B001202B98A088B09A2
:103ABC009002E2E07005750A008003750A0190021D
:103ACC00F6E02404FAA3E03400FB12382FA3A3E0A1
:103ADC00F91202C5E9F9123D7FC8240B123B3512CD
:103AEC0012D4123D7FC8240A123B351212D4900214
:103AFC00F6E02404F50CA3E03400F50D780C12125A
:103B0C00D0E9F50C780C1212D4780A1212D4A90B45
:103B1C00AC08AD09EEFAEFFB120331740612106318
:103B2C00800279017F0602118FF582E438F583E07B
:103B3C00F50C780C2274F71210BD123E37601AEE99
:103B4C00700C123B6A7401F0F9120343E9FEEE604B
:103B5C0004F912030D7901800279000239DD123B60
:103B6C006FA322E0F58388822274F01210BD123EFE
:103B7C00377003023C56123B6AE064016003023C5E
:103B8C002F120319E960557A017B001202B98A08D9
:103B9C008B09E4F50AF50BC3EA9442EB9400402B35
:103BAC009080C01212E37A027B009002FEE0F912C0
:103BBC0006D37404121063E50824C4F8E50934FF35
:103BCC00F99002FCE8F0A3E9F080419080BC780CFD
:103BDC00120F527808790C120D5E80107A007B005F
:103BEC001202B98A088B09E4F50AF50BE5084509B8
:103BFC00450A450B601678081212CC7A027B0090AD
:103C0C0002FEE0F91206CD740412106312382F7400
:103C1C0002F09002E5E07007EEF912030D8027E444
:103C2C00F080239002E5E0701D7A037B001205D72B
:103C3C00EA4B600F123C5D7404F09002F6123DBD2D
:103C4C001205E31203137901800279007F08021137
:103C5C008F8A828B8374D0F0EEA3F08A828B83A33D
:103C6C00A32274F61210BDE9FEEAFF9008F1E0F40D
:103C7C00602A7A047B001205D7EA4B601F8A828B7C
:103C8C008374D0F0EF123C657402F0EE8A828B8361
:103C9C00A3A3A3F09008F1E0F91205E3023D7174BF
:103CAC00F41210BDE9FE74016E6003023D479002F0
:103CBC00FC123E3C60069002E5E06012123E397048
:103CCC0003023D6A123A57F91202DD023D6A900274
:103CDC00FCC3E0943CA3E09400400D9002FCE02473
:103CEC00C4F0A3E034FF80507A027B009002FEE027
:103CFC00F91206D99002FCE0F508A3E0F509E508F5
:103D0C0075F0E8A4C508A8F075F003A428F875F0C0
:103D1C00E8E509A428F509E4F50AF50B7808121270
:103D2C00CC7A027B009002FEE0F91206CD740412EC
:103D3C0010639002FCE4F0A3F08023123E39601E65
:103D4C009002E1E0A2E250167A027B009002FEE0C3
:103D5C00F91206D99002FCE4F0A3F01203138000D0
:103D6C007F0402118F7F0202118F9002F8E0FAA3F8
:103D7C00E0FB229002F6E0F8A3E02274F61210BDEC
:103D8C00123E3760207A037B001205D7EA4B600F96
:103D9C00123C5D7403F09002F6123DBD1205E3EE89
:103DAC006003120313023D718A828B83A3A3A3A326
:103DBC00A3E0F8A3123B6FE0F922C082C083123E4D
:103DCC003960109002F6123D791206559002F6E415
:103DDC00F0A3F002393474F61210BD74FF12104DBA
:103DEC009002F8123E3C60399002F8E02401F5088C
:103DFC00A3E03400F50978081212D0123A51FC7481
:103E0C00021210AB79011202D174021210638A8271
:103E1C008B83E58245836009E0A2E0500479018040
:103E2C000279007401121063023D71E9FE9002F6F2
:103E3C00123D82F9E84922C082C083E9F8123F7D25
:103E4C00E0D2E5F0E0A2E350FBE0C2E5F0A3E064D1
:103E5C00086005E06410700EE8C3334AA3F0123F0B
:103E6C007DE0A2E350FB906231E0F98001F0D08359
:103E7C00D082020132C082C083906234740CF09004
:103E8C006233E4F0906230E0547CF0E049F0E044BE
:103E9C004480DA74F51210BD8A0AECFEEDFF750849
:103EAC00007A01120217E964407049E50AC39402D2
:103EBC004008906230E0D2E28010E50A603674016E
:103ECC00650A7007906230E0C2E2F0123F7DE0A21A
:103EDC00E350FB906232E08E828F83F0A3AE82AF10
:103EEC00830508150A906231E0645060CDE0645897
:103EFC0060021508906230E0D2E4F0123F80E0A23C
:103F0C00E440FBA9087F0302118F74F61210BD8ADE
:103F1C0008ECFEEDFF7A00120217E96418600375D5
:103F2C0008007800800108E8C39508502E8E828F17
:103F3C0083E0906232F08E828F83A3AE82AF8312C5
:103F4C003F7DE0A2E350FBA3E0642860D9E064303D
:103F5C007007740128F50880028808906230E0D25E
:103F6C00E4F0123F80E0A2E440FBA9087F020211BA
:103F7C008F906230E0C2E3F022C082C08390623046
:103F8C00E0900282F0906233E0900281023E79C0B0
:103F9C0082C083900282E0906230F0900281E090C7
:103FAC006233023E7974F71210BDE9900283F0126D
:103FBC00026B12024D9080BC1212E37A017B0090CE
:103FCC000283E0F91206CD74041210637F01021112
:103FDC008FC082C0831202591206F1E9900284F05C
:103FEC0012027DE9900285F0900284E070081205BF
:103FFC00A1E9900286F012071B120271023E7A743C
:10400C00F61210BD74FA12104DEAFEEBFF548060EC
:10401C0017900283E0F91205EFEA4B60031205DDFD
:10402C00EEFAEF648002427DEEA2E0502C120241C7
:10403C009080401212E37A027B00900283E0F91226
:10404C0006D374041210637A027B00900283E0F9A9
:10405C00120607EE640102427B54027003024155C2
:10406C0012025F900873E4F0A3F0900284E0640104
:10407C00703690087512428C40271206FDE96401D7
:10408C0070179080141212E37A087B00900283E080
:10409C00F91206CD7404121063900875E4F0A38035
:1040AC0006900875124295F0900285E06401703616
:1040BC0090087712428C4027120283E96401701732
:1040CC009080141212E37A107B00900283E0F912B4
:1040DC0006CD7404121063900877E4F0A380069068
:1040EC000877124295F0900286E06401702F120559
:1040FC00A7E9640170199080141212E37A207B00F6
:10410C00900283E0F91206CD740412106380077AD2
:10411C00FF7BFF120733900879E4F0A3F0120277CB
:10412C0012074590087B12428C400E120253120764
:10413C002790087BE4F0A3800690087B124295F050
:10414C00120721EE640202427BEE54046009120253
:10415C0065EE640402427BEE5408603B851A82854E
:10416C001B83E4F0A3F07402121099E4F0A3F07432
:10417C00021210B3AA1AAB1B120703E964017011E7
:10418C0012429E12073374021210991242A41207A3
:10419C0039EE640802427BEE541060617402121016
:1041AC0099E4F0A3F0851A82851B83F0A3F07404C4
:1041BC00121099E4F0A3F074041210A38808890972
:1041CC0078081212D074021210B374041210AB12CD
:1041DC0002897402121063E96401701C74021210DB
:1041EC00991242A412073312429E12073974041218
:1041FC0010991242A412073FEE64108072EE542004
:10420C006049851A82851B83E4F0A3F0AA1AAB1BC4
:10421C001205B3E96401702E12429E120733120587
:10422C00ADE9640170199080141212E37A407B009E
:10423C00900283E0F91206CD740412106380077AA1
:10424C00FF7BFF120739EE64208024EE544060247B
:10425C00851A82851B83E4F0A3F0AA1AAB1B120506
:10426C00B9E96401700612429E120739EE6440FAF5
:10427C00EFFB80047A007B007406121063023F7817
:10428C00C3E09403A3E0940022E02401F0A3E03403
:10429C000022851A82851B83E0FAA3E0FB22C082F0
:1042AC00C08312052F790012053B023E7A74F0127E
:1042BC0010BD7A03790F1205358A088B09E4F50ACB
:1042CC00F50B78081207C0908018780C120F5278F2
:1042DC0008790C12099F90801C780C120F527808E8
:1042EC00790C12099F780812081DAA08AB097F08DF
:1042FC0002118F53F3FEC28043FD01438F0153F330
:10430C00FDC28143FD02438F0202013274F412108C
:10431C00BD53FDFE43F20190087DE0F508A3E0F5E6
:10432C0009E4F50AF50B78081212CC7A047B00909C
:10433C000283E0F91206CD74041210637F0402119B
:10434C008F74F61210BD7A037900120535C3EA9406
:10435C00F1EB9407401890087DE064E87004A3E04A
:10436C006403700A90087D7419F0A3E4801EC3EAFC
:10437C00940FEB9400501890087DE064197002A320
:10438C00E0700C90087D74E8F0A37403F080179033
:10439C00087DE064197002A3E07008EA24FF1AEBB0
:1043AC003407FB12072D53F3FE43FD01C280023F7D
:1043BC007853F4FED29043FE0143F60153F4EFC25E
:1043CC009443FE1043F61002013253F4FDD2914394
:1043DC00FE0243F60253F4FBC29253FEFB43F60477
:1043EC0043F74002013253F6FBA89043F604E8A2CF
:1043FC00E2E433F902013274F41210BD74FC1210B1
:10440C004D7E0090086BE4F0900868F07F7D750895
:10441C000475090078081212D074021210B37A00D5
:10442C007B00EFF912056B74021210639080C47854
:10443C0008120F52851A82851B8378081207517057
:10444C0019900868E0600FF912068BEFF912068BD1
:10445C00900868E48001EFF08018851A82851B8330
:10446C00120F7CE8494A4B7004EFFE8005EFF912FD
:10447C00068B0FEFC3947F4095900868E07026EE92
:10448C007018797D12067F9008697404F0A3E4F02B
:10449C0090086BE0601979008017F0120691EEF924
:1044AC0012069D800AEE6004F912068512069179B7
:1044BC000102455A74F71210BD74FC12104DE9FE3E
:1044CC00851A82851B83E4F0A3F0A37410F0A3E497
:1044DC00F0AC1AAD1BFAFB1206A990086BE0700544
:1044EC00EE900868F074041210637F0102118FD0F3
:1044FC0083D08202013274F41210BD74FF12104D7D
:10450C00890890086BE070321205777E007F007589
:10451C000A01750B00780A1212D074021210B3EE55
:10452C00FAEFFBA90812056B7402121063851A824C
:10453C00851B83E0F4600890086B7401F0800B0E0F
:10454C00EE70010FC3EF940840C57401800274042F
:10455C001210637F0402118F74F41210BD74FF12D9
:10456C00104D89087E007F00750A01750B00780AD2
:10457C001212D074021210B3EEFAEFFBA908120556
:10458C006B7402121063851A82851B83E0F460073A
:10459C00A908120685800B0EEE70010FC3EF94086C
:1045AC0040C680A674F41210BD74FC12104D7EFC33
:1045BC007F0775080475090078081212D07402126E
:1045CC0010B3EEFAEFFB900868E0F912056B740279
:1045DC001210639080C87808120F52851A82851BBE
:1045EC00837808120751700512460B50C5EE24044F
:1045FC00F8E43FF9900869E8F0A3E9F002455AEEB7
:10460C0024FCFEEF34FFFFC3EE9404EF94002274FD
:10461C00F41210BD74FC12104D8909EAFEEBFF8CEC
:10462C000812460B405C750A04750B00780A1212CE
:10463C00D074021210B3EEFAEFFBA90912056B74D9
:10464C00021210637402121099124816851A828590
:10465C001B83AA08E06A7002A3E0700AEEC398FA02
:10466C00EF9400FB8020E9548070B6E82404FAE44F
:10467C0039FBC3EE9AEF9B4009C3EE98FEEF99FF0E
:10468C00809F7A007B0002455A74EA1210BD74F8C0
:10469C0012104D8910750DFF747D65107005750C29
:1046AC007E8003750C7D750A04750B00900869E01B
:1046BC0024FCFEA3E002479B851A82851B83A3E0A2
:1046CC0054806003024787851A82851B83A80DE0FE
:1046DC00687002A3E07003024787851A82851B83EA
:1046EC00E0F50DFCAA0AAB0BA90C1206978B09EA94
:1046FC00450960030247877402121099124816EE9E
:10470C00C398F508EF99F50988148915750E00758D
:10471C000F0075120475130078121212D074061261
:10472C0010B3E508250EFAE509350FFB900868E093
:10473C00F912056B740212106374041210B3E50ABB
:10474C00250EFAE50B350FFBA90C1206A9E50E2474
:10475C0004F50EE4350FF50FC3E514950EE515952C
:10476C000F50AF7402121099E02404F8A3E0340047
:10477C00F9E50A28F50AE50B39F50B7402121099C4
:10478C00124816C3EE98FEEF99FFEE24FCFEEF12D2
:10479C004610405290086BE070667508047509006D
:1047AC0078081212D074021210B3EEFAEFFBA910B3
:1047BC0012056B7402121063851A82851B83E0F458
:1047CC007003A3E0F460030246C474021210991241
:1047DC004816548070B4E82404F8500109C3EE98CC
:1047EC00EF995097801AA90C12067F90086BE07015
:1047FC000A900869E50AF0A3E50BF0A910120685EA
:10480C0074081210637F0E02118FE0F8A3E0F922F6
:10481C0074F01210BD74FC12104D890B8A088B09B0
:10482C00ECFEEDFF7414121099E0F50A8012E50805
:10483C002404F508E43509F509EE2404FE50010FB3
:10484C00850A0C74FF250CF50A04603D750E047581
:10485C000F00780E1212D074021210B3AA08AB0912
:10486C00A90B12056B7402121063780E1212D0EEA3
:10487C00FCEFFD74021210AB1205CB740212106324
:10488C00E970AB90086B7401F074041210637F082C
:10489C0002118F74F01210BD890C8A088B09ECFE82
:1048AC00EDFF90086BE0704F750A01750B00780AEC
:1048BC001212D08A0A8B0B7402780A12102BE9F5AB
:1048CC000E750F007409780E12103AE50A2400FADE
:1048DC00E50B350FFB1205717402121063750A019A
:1048EC00780A1212D4EEFCEFFDAA08AB09A90C123F
:1048FC0006A374011210638095C082C083120679DE
:10490C00E970047901800279000244FB74F71210FB
:10491C00BD7409121099E0F8A3E0F9801C8C828D0B
:10492C0083E08A828B83F08C828D83A3AC82AD83EF
:10493C008A828B83A3AA82AB83E8FEE9FFEE24FF75
:10494C0018EF34FFF9EE4F70D4024A60EEFAEFFB29
:10495C007F0602118F74F51210BDECF8EDF9740B93
:10496C00121099124B9FAC08AD09EC24FFF508ED21
:10497C0034FFF509EC4D602CEAFCEBFD8C828D8349
:10498C00A3AA82AB83E8FEE9FF8E828F83A3A88261
:10499C00A9838C828D83E0FC8E828F83E06C60C651
:1049AC007900800279017F0302118F74F61210BD19
:1049BC00E9FE8C088D0978081212D0EEFC7D0012ED
:1049CC00074B7402121063024B9A74F61210BDEA74
:1049DC00FEEBFFEE4F603DEE2405FAE43FFB1206C2
:1049EC004F8A088B09A808A909E849602788828999
:1049FC0083E4F0A3F088828983A3A3EEF0A3EFF005
:104A0C0088828983A3A3A3A374FFF0E82405FAE4A6
:104A1C0039FB80047A007B00024B9AC082C083EA87
:104A2C004B700479058016124AC860047904800D15
:104A3C00EA24FBFAEB34FFFB1206557900D083D045
:104A4C008202013274F71210BD7C001205E9800459
:104A5C00A2E092AF7F0102118F74F71210BDE9FE34
:104A6C00ECFFEA4B60269080D0E0F8EEC39840074C
:104A7C001205DD79038043EA24FBF582EB34FF1247
:104A8C004C457005124AC860071205DD7905802A6D
:104A9C00EEF074016F700DEAFCEBFD7A127B0412E0
:104AAC0005FB800BEAFCEBFD7A127B041205F57A10
:104ABC00007B80EEF912060779008098EA24FFF556
:104ACC0082EB34FFF583E0F42274F21210BD890BF3
:104ADC00750C00750D007E007F00A2AFE433F50A63
:104AEC00C2AF9004128015EE4F700685080C850934
:104AFC000DE50824FBF582E509124C40124B9FE5AD
:104B0C000845096023E50824FFF582E509124C40AD
:104B1C00E0650B70D2EE4F7006AE08AF0980D27A0A
:104B2C00007B80120607800B7A007B8012060DEE4C
:104B3C004F6015780C1212D0EEFCEFFD7A127B044C
:104B4C001206017402121063E50AA2E092AF024948
:104B5C0058E0FAA3E0FB2274F71210BDA2AFE433C5
:104B6C00FEC2AF124C3AE4F0A3F0800CE824FBF840
:104B7C00E934FFF9E8FAE9FB8A828B83124C47701F
:104B8C00EB8A828B83ECF0A3EDF0EE024A5C7F02A1
:104B9C0002118FE0F508A3E0F5092274F71210BD9D
:104BAC00A8A8C2AF8A828B83E0FEA3E0FF124C3A26
:104BBC00EEF0A3EFF08A828B83ECF0A3EDF0E8A289
:104BCC00E7024A5E74F51210BDA2AFE433F50AC2D7
:104BDC00AFEC24FBF8ED34FFF9E8FEE9FF8E828F91
:104BEC0083E0F8A3E0F98A828B83124B9FEC650873
:104BFC007003ED650970068A828B838012740B1228
:104C0C001099E0FAA3E0CA24FBF582EA124C40E8C2
:104C1C00F0A3E9F08E828F83E4F0A3F0EC24FF1272
:104C2C004C3D74FFF0E50AA2E092AF0249B2EC24CD
:104C3C00FBF582ED34FFF58322F583E0F8A3E0F970
:104C4C00E8492274F71210BDE9FE9080D0E0F8EE2E
:104C5C00C3985027ACA8C2AFEE29F8E433F99008FA
:104C6C0066E028FDA3E0398D82F583E04AF0A3E0ED
:104C7C004BF0ECA2E792AF790080027903024A6014
:104C8C0074F71210BDE9FF9080D0E0F8EFC3985094
:104C9C0021AEA8C2AFEAF4FCEBF4FDEF29124D9B58
:104CAC00F583E05CF0A3E05DF0EEA2E792AF790053
:104CBC0080027903024A60E9F874FF687006C2AF9B
:104CCC00790080027907020132C082C08312064348
:104CDC00900412E4F0A3F01206B512065B120673F0
:104CEC001206497900024A49C082C0831206258007
:104CFC00FB74F61210BD75080012063D120565A86E
:104D0C0008E828124D9B124C45700D05089080D078
:104D1C00E0F8E508C39840E79080D0E0F8E508C3D8
:104D2C00985066ACA8C2AFAE08EE2EFEE433FF90EE
:104D3C000866E02EF8A3E03FF988828983124B5D68
:104D4C0088828983E4F0A3F0ECA2E792AFE50890A7
:104D5C000912F0F974002EF58274803FF583124D20
:104D6C00AB1210BB90091274FFF0A8A8C2AF900848
:104D7C0066E02EF9A3E03F8982F583E04AF0A3E0D8
:104D8C004BF0E8A2E792AF800312066D024B9AF843
:104D9C00E433F9900866E028FAA3E0398A8222E02D
:104DAC00F8A3E0F583888222C082C08390086E123B
:104DBC004DC2F0024EC0E4F0A3F0A3F0A32274F0B5
:104DCC001210BD8908EAFEEBFF1206C17410121016
:104DDC0099780C120F52EA4B600D8A828B83A3A335
:104DEC00780C120F6180677A0D7B0012064FEA4B2C
:104DFC0060588A828B83A3A3A3A3A3A3A3A3E508D0
:104E0C00124E5FEEF0A3EFF08A828B83A3A3780C93
:104E1C00120F618A828B83E4F0A3124E5FA3A3A3CB
:104E2C00124DC3F01251A690086C6017E0FCA3E081
:104E3C008003E8FCE9FD8C828D831251A970F38C00
:104E4C00828D83EAF0A3EBF080047A007B007F086C
:104E5C0002118FF08A828B83A3A3A3A3A3A322C0E6
:104E6C0082C08390086C80048C828D83E0FCA3E06C
:104E7C00FDEC4D60238C828D83A3A3A3A3A3A3E09D
:104E8C006A7003A3E06B70E08C828D83A3A3A3A351
:104E9C00A3A3A3A3E06970D0ECFAEDFB8016C0824B
:104EAC00C083EA4B600E8A828B83A3A3A3A3A3A324
:104EBC00E4F0A3F0D083D08202013274F61210BD5C
:104ECC00AEA8C2AF740A1210991212E31206BB7488
:104EDC00041210638B09A909EEA2E792AFEA4960AC
:104EEC00047900800279087F0202118F74F212108B
:104EFC00BDA2AFE433FEC2AF740E12109978081243
:104F0C000F5278081212CC1206BB7404121063EA0A
:104F1C004B60128A828B83A3A3A3A3A3A3A3A3A3F3
:104F2C007808120F61EEA2E092AFEA4B60047900B0
:104F3C00800279087F0602118F74F41210BDA2AFA3
:104F4C00E433F508C2AF1206C18A0A8B0BAE0AAF66
:104F5C000BEE4F60031206C7E508A2E092AFEE4FCE
:104F6C0060047900800279067F0402118F74F212BA
:104F7C0010BD750800750900750A00750B00A2AF0D
:104F8C00E433FEC2AF1206C18A828B83E58245836D
:104F9C006007A3A37808120F52EEA2E092AFAA0802
:104FAC00AB09AC0AAD0B808C74EB1210BD74FC1207
:104FBC00104D851A82851B83EAF0A3EBF0A3ECF06D
:104FCC00A3EDF0A9A8C2AF851A82851B83780812BD
:104FDC000F5290086E7808120ED9E9A2E792AF1220
:104FEC0051A6700302519690086CE0FEA3E0FF7589
:104FFC001000751100750A00750B00A2AFE433F5B3
:10500C0014C2AFEE2402F508E43FF5097402121045
:10501C00991251A970207401121099E07018851A18
:10502C0082851B83E0F8850882850983E0C398405C
:10503C0005E0C3988039850882850983780C120FA6
:10504C0052851A82851B83780C1207765018851AA4
:10505C0082851B83780C120F528508828509837810
:10506C000C120F18800A850882850983124DC2F034
:10507C00EE2406F512E43FF513EE2404F50EE43F9E
:10508C00F50F8508828509831251A97052850E820D
:10509C00850F831251A97052EE2409F50CE43FF5EB
:1050AC000D850C82F583120F7CE8494A4B605185C3
:1050BC0012828513831251A0EA4B60448E828F8337
:1050CC00A3A3A3A3A3A3A3A3E0F9120607850C82B1
:1050DC00850D83120F7C850882850983120F8885C4
:1050EC0008828509831251A9700B850E82850F8366
:1050FC001251A9600B8512828513831251A9702558
:10510C008E828F83E0F8A3E0F9E5104511700590CD
:10511C00086C8006851082851183E8F0A3E9F08E77
:10512C000A8F0B80048E108F118E828F83E0FEA36A
:10513C00E0FFE514A2E092AFE50A450B6045850A55
:10514C0082850B83A3A31251A97031850A82850B2A
:10515C0083A3A3A3A31251A97022850A82850B8372
:10516C00A3A3A3A3A3A31251A0850A82850B83A397
:10517C00A3A3A3A3A3A3A3E0F9120607AA0AAB0B4C
:10518C00120655EE4F600302500174041210637F37
:10519C000D02118FE0FAA3E0FB2290086CE0F8A35B
:1051AC00E0F9E8492274F01210BD1251A660459046
:1051BC00086C1251A075088E7509C2750AF5750B2D
:1051CC00288A828B83A3A3780C120F527808790C4F
:1051DC00120766500C850C08850D09850E0A850F83
:1051EC000B8A828B83E0F8A3E0F9E8FAE9FBEA4B3F
:1051FC00600E80CD750800750900750A00750B00EE
:10520C00AA08AB09AC0AAD0B024E5AA2AFE433F8B4
:10521C00C2AF5394FEE594A2E240FAE8A2E092AF4A
:10522C0075A70075A100759CFF75C30075A200756C
:10523C00A30075A40075A50075A60075C31175A211
:10524C000075A30075A40075A50075A60075C33381
:10525C0075A20075A30075A40075A50075A6007550
:10526C00C34475A20075A30075A40075A50075A6AE
:10527C000075C32275A22075A34E75A40075A500F8
:10528C0075A600759408A2AFE433F8C2AF4394013D
:10529C00E594A2E250FAE8A2E092AF439402020134
:1052AC0032A2AFE433F8C2AF5394FEE594A2E240CD
:1052BC00FAE8A2E00254CBA2AFE433F8C2AF4394B5
:1052CC0001E594A2E250FA80E8E9A2E7E433F8E9B8
:1052DC00A2E792AF802575C303851A82851B83E0F4
:1052EC00F5A2740122E9A2E7E433F8E9A2E792AF50
:1052FC00851A82851B83E0FAA3E0FB740202542812
:10530C00F59CE9A2E7E433F8E9A2E792AF02542650
:10531C00C082C08374FC12104D1253E375C3331258
:10532C0053D7121099125352121099E0F5A6740427
:10533C00121099E0F5A27405121099E0F5A375A16D
:10534C00BF43A74080BCE0F5A574022212548FA97C
:10535C00A8C2AF22C082C08374FE12104D125383B8
:10536C0075A1FD1252E2121099E0F5A3E59C54F0E0
:10537C004401F59C0252D512538A53A7FD22851A7B
:10538C0082851B83EAF0A3EBF0A9A8C2AF22C082EE
:10539C00C08374FC12104D1253E375A1BF439C0FD4
:1053AC0075C3331253D7121099125352121099E03D
:1053BC00F5A67404121099E0F5A27405121099E088
:1053CC00F5A3E59C54F0440802530C851A82851B06
:1053DC0083E0F5A474012212535853A7BF22E5A40D
:1053EC00851A82851B83F0E5A5C0E0740112109923
:1053FC00D0E0F0E5A6C0E07402121099D0E0F07491
:10540C0003121099E4F0E9A2E7E433F8E9A2E79279
:10541C00AF851A82851B83120F707404121063D02F
:10542C0083D08202013274F41210BD74FC12104D40
:10543C0012548FA2AFE433F9C2AF53A7DF75A1DFCB
:10544C009080C87808120F52851A82851B837808C1
:10545C001207517005439CF0801A75C3401253D744
:10546C00121099125352121099E0F5A6E59C540FA4
:10547C004450F59CE9A2E092AF74041210637F04CF
:10548C0002118F851A82851B83EAF0A3EBF0A3EC43
:10549C00F0A3EDF022A9A8C2AF53A7098015A9A8C3
:1054AC00C2AF53A709759CFF8009A9A8C2AF439C42
:1054BC000F800375A109E9A2E7E433F8E9A2E792AA
:1054CC00AF020132A3A3A3E4F0E8A2E7E433F9E8C6
:1054DC00A2E792AF02542BC082C08374FC12104D11
:1054EC00A9A8C2AF75C300E5A20253EAC082C0836B
:1054FC00A8A8C2AF75C300E5A28A828B83A3A3A31D
:10550C00A3F0E5958C828D83F0E5A38A828B83A32F
:10551C00A3A3A312553FA3A3A3E4F0E5968C828D1D
:10552C0083A3F0E5978C828D83A3A3F08C828D836B
:10553C000254D0A3F0E5A48A828B83F0E5A5A3F0F6
:10554C00E5A68A828B83A3A3F08A828B8322C082F6
:10555C00C08374FC12104DA9A8C2AFE595851A82C0
:10556C00851B83F0E596C0E07401121099D0E0F031
:10557C00E597025401C082C08374FE12104DA9A895
:10558C00C2AFA8C375C300E5A2E5A4851A82851B2A
:10559C0083F0E5A5C0E07401121099D0E0F088C347
:1055AC000252F174F21210BD8909ECFEEDFF750880
:1055BC0000E9F50A750B008A0C8B0D780C1213148C
:1055CC000203084B57E3553E5658569B56CD56E4AE
:1055DC0056FB5617572E5774016509600302574640
:1055EC0090087FE0F88E828F83E090087FF0E8606F
:1055FC001CE0600302576E9002ADE064026003028F
:10560C00576E9002ACE0F91202DD02576EE07003A7
:10561C0002576E9002ADE064016008E06403600321
:10562C0002576E7A017B009002ACE0F91206070279
:10563C00576E7402650960030257468E828F83127F
:10564C005897900880E8F0A3E9025743E9C39420E7
:10565C0040030257467C1F7D0079007A837B081239
:10566C0005D1780A1212D0EEFCEFFD7A837B08127A
:10567C0005C57402121063E509900882F07C837DE5
:10568C0008FB7A019002ACE0F91202D7025766E9E6
:10569C00C3942040030257467C1F7D0079007AB6E4
:1056AC007B021205D1780A1212D0EEFCEFFD7AB60D
:1056BC007B021205C57402121063E5099002B580D5
:1056CC00767401650970738E828F83E0F8C394053C
:1056DC005068E89002D5805F74016509705C8E8219
:1056EC008F83E0F8C394045051E89002D68048743C
:1056FC000665097045750A06780A1212D07AD77BAE
:10570C00021205C57402121063805774016509708A
:10571C00298E828F83E0F8C39408501EE89002DD36
:10572C0080157401650970128E828F83E0F8C39422
:10573C00045007E89002DEF080287508188023C317
:10574C00EA9427EB940050177402650970118E824D
:10575C008F83E0FCA3E0FD1202B3E9F5088003752A
:10576C000802A9087F0602118F74F41210BDECFE1A
:10577C00EDFF7508008A0A8B0B780A1213140003CC
:10578C000A2458A557AA57BB57C057D057DF57EE16
:10579C0057F357F85715581A589002AE8073750A7C
:1057AC0006750B00780A1212D07CAF7D02804C90EB
:1057BC00087F805D9008801258978E828F83E8F066
:1057CC00A3E980689008821258451212D07C837D20
:1057DC000880289002B51258451212D07CB67D0272
:1057EC0080199002D5802A9002D68025750A0675FC
:1057FC000B00780A1212D07CD77D02EEFAEFFB1266
:10580C0005C5740212106380299002DD800390029A
:10581C00DEE08E828F838014C3EA9427EB940050D1
:10582C000E1202B98E828F83EAF0A3EBF08003751F
:10583C000802A9087F0402118FE0F50A750B0078A5
:10584C000A2274F61210BD9002ADE07037EA4B607C
:10585C00089002DFEAF0A3EBF0E4F508F50978080C
:10586C001212D078081212D07C007D007B009002BE
:10587C00AEE0FA9002ACE0F9120529740412106340
:10588C007900800279117F0202118FE0F8A3E0F910
:10589C002274EE1210BD8A088B09890B8C0E8D0FA9
:1058AC009003E2E070099003E4E0700302596A90FF
:1058BC000301E0600302596A890C750D00E92407A5
:1058CC00FAE43400FB1205D78A108B11AE10AF111D
:1058DC00EE4F700302597B741865087004742065D0
:1058EC0009600C74176508700474206509701090B9
:1058FC0003E4E0600AF50A8E828F837492800C9028
:10590C0003E2E0F50A8E828F837491F0A3740E1279
:10591C005B2C7401125B34E508F0A3E509F0EE246E
:10592C0005F8E43FF9E8FAE9FBEE2407F8E43FF95F
:10593C008A828B83E8F0A3E9F0780C1212D0AC0EBB
:10594C00AD0F8A828B83E0FAA3E0FB1205C57402CB
:10595C00121063EEFAEFFBA90A1205E38011780E20
:10596C001212D0AC0B790E12036774021210637F03
:10597C000A02118F74F21210BD89098A0A8B0B8CE2
:10598C000874072CFA74FF650960047803800278A8
:10599C0002E82AFA7B001205D78A0C8B0DAE0CAFED
:1059AC000DEE4F7003025A9B8E828F837401F0A30D
:1059BC0074FFF0EE2402FAE43FFBEE2404F8E43F1B
:1059CC00125AA0E509125B06E02402F8A3E03400A9
:1059DC00F9890DE50BF9740E121099125ACB74FF5C
:1059EC006509602E740325088882850D83125B0679
:1059FC00125AD1125B16E50AF0125B23E9F0850806
:105A0C000A750B00780A1212D08A828B83E0240666
:105A1C008063740225088882850D83F08C828D83C7
:105A2C00E0C0E08A828B83125ABCD0E0F08C828D6D
:105A3C0083A3E0C0E0125B16D0E0F08C828D83A3D0
:105A4C00A3E0C0E0125B23D0E0125B06125AF812FE
:105A5C005B04125AECE9F0E50824FDF50AE434FF86
:105A6C00F50B780A1212D0EC2403FC50010D8A823B
:105A7C008B83E02408FAA3E03400FB1205C5740202
:105A8C00121063EEFAEFFB9003E0E0F91205E37FEE
:105A9C000602118FF98A828B83E8F0A3E9125B0A64
:105AAC00125AD88A828B83125AB722125ADFA32237
:105ABC00125AC022125AC422125AE3A3A3A322E000
:105ACC00FCA3E0FD22125AC07401F022125ADF74BA
:105ADC0004F022125AE322E0F8A3E0F58388822234
:105AEC00125B102407F582E438F58322125B102434
:105AFC0006F582E438F58322E50A125B0A22F08A65
:105B0C00828B8322E0F8A3E0C8228A828B83125B0B
:105B1C001E22125AC4A3228A828B83125B1EA322DA
:105B2C00F08E828F83A3A322125B2CA32274F0121B
