:020000040000FA
:0600000002011A0214C106
:03002B000219CAED
:030053000215375C
:03006B0002137805
:100083000213C3E5C754F84401F5C7790122000000
:100093000080FB120086B90003020104E4791D7895
:1000A30002B800028004F709D8FCE479217802B889
:1000B30000028004F709D8FCE490028178147907E0
:1000C3008002F0A3D8FCD9FA781C90014A7A01BACD
:1000D30000028007E493A3F608DAF97A947B089088
:1000E300014B78CB79018015E493A3AD82AE838A6B
:1000F300828B83F0A3AA82AB838D828E83D8E9D9C6
:10010300E775821C758376740012012C75829175D4
:100113008300740012012C75D000758133751A8128
:10012300751B02759F00020096C09FF59FE473D074
:100133009F22D083D082C09FE493C0E0740193C018
:10014300E0740293F59F2201FFFFFFFFFFFFFFFF14
:10015300FFFF1900013075030201040000000000D5
:10016300000000000000000000000000000000008C
:1001730000000000000000FF0000B4000028002879
:1001830000283075A000A000A000A000000800080F
:10019300E001F0001000100010001000100010002B
:1001A30050005000500010001000D0070000000065
:1001B30000000F000100050030750700100001006A
:1001C30081FF00000000FFF9021703FF0225042549
:1001D30004250425042504250425042504250425D4
:1001E30004250425042504FFFF000A09436C696DF7
:1001F3006153656E73020A0002010412FF0D0000D1
:1002030000000000000000000000000000002B07B9
:100213000000120135FD310012013539320012019F
:1002230035573200120135CE32001201353D33000D
:100233001201355333001201356933001201358C35
:100243003300120135C63300120135A836001201FE
:1002530035B73600120135FD360012013516370069
:10026300120135483700120135B83700120135073E
:1002730038001201351A38001201353138001201E5
:1002830035333800120135413800120135F81900B1
:10029300120135301C001201356F1C00120135F6B6
:1002A3001D00120135BC1E00120135B420001201DD
:1002B30035465600120135045800120135DD580049
:1002C300120135C17000120135E9700012013516B3
:1002D30071001201354E7100120135C07300120115
:1002E30035D77300120135B23E001201355D3F0070
:1002F300120135AE3F001201355E4000120135CFC9
:100303004000120135B44100120135E841001201E9
:1003130035E142001201351E4300120135FA430054
:100323001201353944001201355544001201354498
:10033300770012013555770012013552680012011A
:10034300357A6800120135CE6800120135E3680082
:10035300120135F868001201355969001201359C04
:100363006900120135C66900120135EB69001201FB
:10037300352C59001201350F5A00120135D06E0089
:10038300120135136F00120135452300120135DBCD
:100393002400120135B12500120135532600120144
:1003A30035C62600120135642800120135A0280045
:1003B3001201352B2A001201351E5E00120135E6AB
:1003C3005E001201353E60001201356A38001201E9
:1003D30035EB38001201351839001201355D39004B
:1003E300120135543A00120135A23A001201351EAA
:1003F3003C001201359B3C00120135003D00120107
:1004030035713D001201355F3E001201358C3E000F
:10041300120135AF6C00120135BB6C001201358F30
:100423006D00120135ED1900120135A12A001201E8
:1004330035D02A00120135BC2B001201351E2D00C8
:100443001201353230001201351C31001201356AB8
:100453003100120135843100120135BA3100120125
:1004630035F43100120135AE520012013544530008
:100473001201355A5300120135B35300120135F7F7
:100483005300120135315400120135C954001201D1
:10049300353855001201354155001201354D5500CF
:1004A3001201357A55001201358F5500120135F1CD
:1004B300550012013518560012013568600012010B
:1004C300357560001201358F6000120135C260007E
:1004D3001201352761001201353C610012013547D5
:1004E30061001201355461001201356B6100120184
:1004F3003579610012013584610012013593610081
:10050300120135B06100120135C06100120135D608
:100513006100120135F26100120135FD6100120123
:1005230035126200120135266200120135957500FD
:10053300120135C175001201352577001201358E80
:1005430071001201359F71001201354272001201D0
:10055300356F7600120135AE76001201355E7700F5
:100563001201350A73001201351A7300120135297D
:100573007300120135BA7300120135CE6D001201FA
:1005830035516E00120135B76E00120135717700D7
:10059300120135747700120135F87F001201357EA0
:1005A3006600120135EE67001201354F6800120133
:1005B30035136A00120135506A00120135746A005E
:1005C300120135A36A00120135146B00120135BB09
:1005D3004900120135024A00120135584A0012013E
:1005E30035754A00120135BA4A00120135E34A0053
:1005F300120135F84A00120135684B00120135F536
:100603004B00120135494C001201356C4C001201AC
:1006130035EB4C00120135264D001201355B4D00C0
:100623001201356D4D001201358C4D0012013595C7
:100633004D001201350675001201358A6B00120157
:1006430035B26B00120135CB6F0012013593620096
:10065300120135C96200120135FC620012013555E1
:1006630064001201356774001201357D74001201B4
:1006730035877400120135DB7400120135B876003A
:10068300120135B64400120135704500120135B22E
:1006930045001201351246001201355C4600120175
:1006A30035B146001201353C4700120135B248000E
:1006B300120135424900120135A849001201354C97
:1006C3004E00120135624E00120135034F00120134
:1006D30035424F001201355F4F00120135904F0034
:1006E300120135DD4F001201351050001201354B58
:1006F30050001201354652001201355472001201A6
:10070300356B72001201358F6400120135CC640021
:100713001201351B65001201354F6500120135C802
:100723005B001201355E5C00120135DC5C001201D6
:1007330035FD5C001201354C5D001201356D5D0025
:10074300120135B75D00120135C15D00120135CBD1
:100753005D00120135E75D00120135F15D00120104
:1007630035045E00120135F97600E066701008A3C7
:10077300E066700A08A3E066700408A3E06622C37B
:10078300E7960809E7960809E7960809E79622C35A
:10079300E09608A3E09608A3E09608A3E09622C09B
:1007A30008C3E096F50808A3E096420808A3E0967C
:1007B300420808A3E09645087001D3D00822080830
:1007C30008E630E711120E691207D9080808C64473
:1007D30080C618181822181818E9799EC608CAC6C0
:1007E30008CBC608CCC6C370207996CACBCC701987
:1007F300798ECBCC70137986CC700EF9802ACA33EC
:10080300CACB33CBCC33CC331930E7F2CCCBCA339E
:1008130050147004EA30E00DE4CA3ACACB3BCBCCA7
:100823003CCC500209C3E913C6CC182313C6CB181A
:10083300C6CA18C6F92212087920F01430E72B74BF
:10084300FFFCFBFA747F8022E4FCFBFA7480801ABD
:10085300B48008BC00F2BB00EF800F50EBF9E4C397
:100863009AFAE49BFBE49CFCE499C6CC18C6CB182B
:10087300C6CA18C6F922E4C9C608CAC608CBC6D375
:10088300330308CCC63392F0C3947F402E941840B0
:1008930019C9B90704CACBCC225025C309CA33CA24
:1008A300CB33CBCC33CC33D9F422F4600DC9CCC3D6
:1008B30013CB13CBCA13CAD9F6CC22E4FCFBFA221E
:1008C30014FCFBFA22E62618461846184622E727A8
:1008D30019471947194722181818E60846087009D6
:1008E300E626087005E633F4220822191919E709E8
:1008F30047097009E727097005E733F4220922E65F
:10090300084608C3134608336002E633F422E709B6
:100913004709C3134709336002E733F4221209027C
:10092300601C12091160171208C870071208D170F1
:1009330001D322C0D01208D17006D0D0B322C32273
:1009430033D0D0501430E0F6C3E7960809E7960891
:1009530009E7960809E796B32220E0D5E697080948
:10096300E6970809E6970809E697B3221209026099
:100973001B12091160161208C870071208D1600C07
:10098300B322C0D01208D17005D0D022C32233D0F5
:10099300D0501330E0EBC3E7960809E7960809E760
:1009A300960809E7962220E0E4E6970809E6970807
:1009B30009E6970809E6972200120902604F120917
:1009C300116012E7548066F61208DA70111208D12A
:1009D300703B090909F4F618F618F618F6221208FE
:1009E300EE70151208C808080860EAE6447FF61896
:1009F300768018E4F618F6221208C860161208D199
:100A03007012E4F608F608F608E65480F6090909B8
:100A130018181822EAC0E0EBC0E0ECC0E0EDC0E03B
:100A2300E687F0A4FBACF008E687F0A42CFCE435E1
:100A3300F0FA1809E687F0A42C4B60027401CA355A
:100A4300F0FCE433FB09E687F0D2F7A42CCB35F0B6
:100A5300FC1908E687F0A42BCC35F0FBE433FD0842
:100A630019E687F0D2E7A42C4ACB35F0CD3400FC4D
:100A730009E687F0D2E7A42DCC35F0FDE433FA097B
:100A830018E687F0D2F7A42CCD35F0CA3400FC0861
:100A9300E687F0D2E7D2F7A42ACC35F07A7E20E7B6
:100AA3000B0ACB33CBCD33CDCC33CC33CB33501438
:100AB3007004ED30E00ED2F1E4CD3DCDCC3CCC3B27
:100AC3005005DA05C2F1EB547FC63308E63392F0E2
:100AD300FBE73309E733C39A502D2B70190C0D4CE8
:100AE3004D70151806E608C333700D20F10AA2F005
:100AF30013F6E418800B4024E4F630F002768018F5
:100B0300F618F618F68024D33B14501074FFA2F0A5
:100B130013F6187680E418F618F6800FA2F013F691
:100B230018E63303F618ECF618EDF6D0E0FDD0E046
:100B3300FCD0E0FBD0E0FA22120911604612090250
:100B4300603DE9687008F618F618F618F622748006
:100B530067F7120B6F090909748067F722120902FC
:100B6300601D1209117005191919801A1208DA701B
:100B73001F1208EEC37003E66733191919400718EB
:100B830018182208080874FFF618F618F618F62243
:100B93001208EE60171208D1702192F01208C87083
:100BA30019501720F014080808090909E7F618195D
:100BB300E7F61819E7F61819E7F6221208C860E6EF
:100BC300E869701F0808E62480F608E436F618542E
:100BD3007FB47F0CE654806007F6E418F618F6221B
:100BE300181822E9C6CC08C6CD08C6CE08C6CFC0A1
:100BF300E0E8C0E0EAC0E0EBC0E009E9F809E7FAA1
:100C030009E7FBE6F918E6F8C3EC98ED99EE9AEBE1
:100C1300C2E7F5F0EFC2E795F0500E600CEBCFFBA7
:100C2300EACEFAE9CDF9E8CCF8EAA2E7D2E7FAEBA3
:100C330033FB13F5F0EEA2E7D2E7FEEF33FFC5F087
:100C430013A2E730E601B313C5F0C3C0E0C0F07FE1
:100C530000C39BFB605E9418600F401D14601AD0A4
:100C6300E023F9D0E0F8020D418AF0E9486003D2AD
:100C7300F0E4AFF0FAF9F8803BEB30E40D89F0EAE9
:100C83006003D2F0E4AFF0F9CAF8EB30E30D88F07B
:100C9300EF6002D2F0AFF0E4CAC9F8EB5407601476
:100CA300FBC3EA13FAE913F9E813F8EF135002D27E
:100CB300E0FFDBEDD0E0C0E030E739C3E49FFFF5B0
:100CC300F0EC98FC42F0ED99FD42F0EE9AFE42F012
:100CD300D0E0F9D0E0F8E5F0607AE923F9EE20E717
:100CE30042D8028067C3EF33FFEC33FCED33FDEEF4
:100CF30033FE80EAEC28FCED39FDEE3AFED0E0232A
:100D0300F9D0E0F84002801BC3EE13FEED13FDECB7
:100D130013FCEF135002D2E0FF08B800067F7F7484
:100D2300FF802EEF3350178CF020F00260100CBCC4
:100D3300000C0DBD00080EBE000408E860DFE933B7
:100D4300E813FFEE2313FE4F4D4C8008E95480FF58
:100D5300E4FEFDFCEE33EF33F47004FCFD7E80D043
:100D6300E0FBD0E0FAD0E0F8D0E0CFC618CEC6184A
:100D7300CDC618CCC6F922080808EAC0E0EBC0E0EB
:100D830086F0E7A4FA180986F0E7A42AFA18098678
:100D9300F0E7A42AFA180986F0E7A42AFA1986F0DC
:100DA300E7A4FBE5F02AFA190886F0E7A42BFBE594
:100DB300F03AFA190886F0E7A42BFBE5F03AFA18A3
:100DC300180986F0E7A4C5F02BFBE43AFA1908E703
:100DD300C5F0C6A426F6E5F03BFBE43AFA1886F024
:100DE300E7A4F6E5F00826F6E43B08F6E43A08F64D
:100DF300D0E0FBD0E0FA22E4CFC0E0E4CEC0E0E4F0
:100E0300CDC0E0E4CCC0E075F020E626F608E6337A
:100E1300F608E633F608E633F6181818EC33FCED5B
:100E230033FDEE33FEEF33FFC3EC9709ED9709EE85
:100E33009709EF97191919400FFFEC97FC09ED97E4
:100E4300FD09EE97FE191906D5F0BFECF709EDF78A
:100E530009EEF709EFF7191919D0E0FCD0E0FDD03E
:100E6300E0FED0E0FF22181818E4C396F608E496D3
:100E7300F608E496F608E496F6226017080808C612
:100E8300A2E713C618C613C618C613C618C613C6D8
:100E9300D5E0E9226016080808C6C313C618C613AE
:100EA300C618C613C618C613C6D5E0EA22700908C9
:100EB3000808226016181818C6C333C608C633C6F6
:100EC30008C633C608C633C6D5E0EA22E627F608C5
:100ED30009E637F60809E637F60809E637F622E0A9
:100EE30026F608A3E036F608A3E036F608A3E036B4
:100EF300F622E026F008A3E036F008A3E036F00877
:100F0300A3E036F022C3E697F60809E697F6080948
:100F1300E697F60809E697F622C3E0C696F608A315
:100F2300E0C696F608A3E0C696F608A3E0C696F6D2
:100F330022C3E096F008A3E096F008A3E096F00839
:100F4300A3E096F022E056F608A3E056F608A3E0E5
:100F530056F608A3E056F622E647F60809E647F6F2
:100F63000809E647F60809E647F622E0F608A3E093
:100F7300F608A3E0F608A3E0F622E6F008A3E6F0FD
:100F830008A3E6F008A3E6F022E0FAA3E0FBA3E05F
:100F9300FCA3E0FD22E0F8A3E0F9A3E0FAA3E0FB61
:100FA30022E8F0A3E9F0A3EAF0A3EBF022CAC0E041
:100FB300E6F0A308DAFAD0E0FA22CAC0E0E0A3C55B
:100FC30082CCC582C583CDC583F0A3C582CCC5823F
:100FD300C583CDC583DAE6D0E0CA22B90010BB00D1
:100FE30008E88AF084F8AAF022E4FBC8FA22EB703E
:100FF300227B10C833C8C933C9335007C39AC3DB34
:10100300F280069A50012ADBEAC833F4C8C933F4E4
:10101300C9FA2275F008E4C833C8C933C933C99A79
:10102300C99B5004C92AC93BD5F0ECFBC833F4C8AB
:10103300E4C9FA22600D08C6A2E713C618C613C690
:10104300D5E0F322600C08C6C313C618C613C6D571
:10105300E0F422700422600D18C6C333C608C633F9
:10106300C6D5E0F41822251A10AF08F51A400C155E
:101073001B8008F51A4002151BD2AF2200C0D025F1
:101083001A10AF08F51A500C051B8008F51A500208
:10109300051BD2AFD0D022251AF58210AF08F51A5E
:1010A300400C151B8008F51A4002151BD2AF851B97
:1010B3008322251AF582E4351BF58322251AF8E4E9
:1010C300351BF922251AFAE4351BFB22251AFCE409
:1010D300351BFD22E473251AC582C0E0E51B34FFEE
:1010E300C583C0E0E51AC3958224F810AF08858351
:1010F3001B85821A800885831B85821AD2AFCEF0A6
:10110300A3E520F0A37808E608F0A3DEFAEFF0A346
:10111300E58124FAF8E608F0A3E608F0A3E608F070
:10112300A30808E608F0A3E608F0A315811581D00B
:10113300E0FED0E0F8158115811581E8C0E0EEC02E
:10114300E022251AC582C0E0E51B34FFC583C0E059
:10115300E51AC3958224F910AF0885831B85821A8B
:10116300800885831B85821AD2AFCEF0A3E520F0D9
:10117300A37808E608F0A3DEFAEFF0A3E58124FBE9
:10118300F8E608F0A3E608F0A30808E608F0A3E6EB
:1011930008F0A315811581D0E0FED0E0F815811584
:1011A30081E8C0E0EEC0E022851B83851A82E0A3BC
:1011B300FEE0A3F5207808E0A3F608DFFAE0A3FF3A
:1011C300E0A3C0E0E0A3C0E0E0A3C0E0E0A3C0E090
:1011D300E0A3C0E010AF0885821A85831B800885D1
:1011E300821A85831BD2AFD083D082020132851B42
:1011F30083851A82E0A3FEE0A3F5207808E0A3F636
:1012030008DFFAE0A3FFE0A3C0E0E0A3C0E0E0A3AF
:10121300C0E0E0A3C0E010AF0885821A85831B807D
:101223000885821A85831BD2AFD083D08222C0D097
:10123300251AC582C0E0E51B34FFC583C0E0E51A6B
:10124300C3958224F310AF0885831B85821A800817
:1012530085831B85821AD2AFC8F0A3E9F0A3EAF015
:10126300A3EBF0A37908E709F0A3D8FAECF0A3ED18
:10127300F0A3EEF0A3EFF0A3D0E0F0A3D0E0F0A34F
:10128300D0E0F0A3E520F0A3E5F0F0A322851B83D3
:10129300851A82E0C0E0A3E0F9A3E0FAA3E0FBA390
:1012A3007808E0F608A3DFFAE0FCA3E0FDA3E0FE84
:1012B300A3E0FFA3E0C0E0A3E0C0E0A3E0F5D0A378
:1012C300E0F520A3E0A3F5F010AF0885831B85822A
:1012D3001A800885831B85821AD2AFD082D083D02F
:1012E300E0F8D0E03274048006740280027401C016
:1012F300E0F40412109AD0E0120FB02274048004B8
:1013030074028000CCC0E0EDC0E0E51AC39CCCAD14
:101313001B50011D10AF068C1A8D1B80068C1A8D75
:101323001BD2AF120FBDD0E0FDD0E0FC22D083D0A2
:1013330082E9C0E0E493A3C386F0C5F095F0F90811
:10134300E493A386F0C5F095F0700BE493A3C399DF
:101353004005E9048002A3E475F002A42582F58226
:10136300E5F03583F583D0E0F9E493A3C0E0E4939B
:03137300C0E022B5
:10137800C0E074F2121231A2AFE433FED2AFA285FC
:1013880050217A017902120761790512073D7A0026
:10139800790212076179017AE87B0312026953899D
:1013A800DFC2C5C2C5751C00EEA2E092AF7F010284
:1013B80012900000851D87851EC622C0E074EF12BA
:1013C8001231A2AFE433FEC2AF759B00906182E098
:1013D800A2E05009E591A2E050037591FEE0A2E574
:1013E8005009E591A2E550037591DFE0A2E64003BC
:1013F800021497E591A2E640030214977591BF90F5
:101408000329E06405700812049112049D800312F8
:101418000497751D001204F1E990032AF07900126F
:1014280004E51203DD7A017B00900328E0F9120637
:1014380011907803E0644270569003A4E014F070B1
:101448004EC2AF12144E007822D0E0F618D0E0F663
:10145800E59F5407F870057509FF800375097FC477
:10146800C0E07821E6F50808E65509F509740B7817
:1014780008121047D0E02508F8906270E0A2E74013
:10148800F8E8C333906272F0906270E0D2E0F090B6
:101498006181E0A2E35009E5E9A2E3500375E9F7A9
:1014A800A3E0A2E75009E591A2E7500375917FEE0A
:1014B800A2E092AF7F04021290C0E0C0D0C082C008
:1014C80083906183E0A2E05009E5BFA2E050037574
:1014D800BFFEE0A2E15009E5BFA2E1500375BFFDE0
:1014E800E0A2E25009E5BFA2E2500375BFFBE0A20B
:1014F800E35009E5BFA2E3500375BFF7E0A2E4504B
:1015080009E5BFA2E4500375BFEFE0A2E55009E585
:10151800BFA2E5500375BFDFE0A2E65009E5BFA210
:10152800E6500375BFBFD083D082D0D0D0E032C0A0
:10153800E074F2121231E5A7A2E6500FE5A1A2E687
:10154800500953A7BF75A1BF12158BE5A7A2E55097
:101558000CE5A1A2E5500653A7DF75A1DFE5A7A218
:10156800E15009E5A1A2E1500375A1FDE5A7A2E2BA
:10157800500CE5A1A2E2500653A7FB75A1FB7F0121
:1015880002129074F7121145751D01900329E06449
:1015980006701512044F8A828B83A3A3A3A3A3A367
:1015A800E0FAA3E0FB12047FA2AFE433FED2AF90CF
:1015B800032FE0640170187A207B00900328E0F97B
:1015C8001206E37A207B00900328E0F912061790B0
:1015D8006182E0D2E6F09003A1E0602185C61E801A
:1015E8001690032EE064017008E5C654F84405F52A
:1015F800C653BEFC1213BC7401651D60E4EEA2E084
:1016080092AF7F020211F174E912114574FA1210B7
:1016180069EAFEEBFF8C0A8D0B1204AFEAF8EBF9CE
:10162800ECFAEDFB8E828F83120FA4900329E0243D
:10163800F7C39405500675140102177612044F8AF1
:10164800088B09EA45097003021773EEFCEFFDAA3F
:101658001AAB1B1204A9850882850983A3A3780CF9
:10166800120F6E908070780C120F48851A82851BB5
:10167800837810120F6E9080707810120F48780CD3
:101688007910120782501F780C7910120F08908079
:1016980088780C1207A24047850C14850D15850E15
:1016A80016850F178045908088851014851115853B
:1016B80012168513177814790C120F08781412076C
:1016C800A2501C7514007515007516007517017861
:1016D800147910120F087814790C120ECF800C753B
:1016E8001401751500751600751700740978141221
:1016F8000EB090808C780C120F6E7814790C120D45
:10170800FA850882850983A3A3A3A3A3A312179428
:10171800120FDE880C890DE4F50EF50F7814790C9C
:10172800120ECF74041210B5121794120FDEE8FAD5
:101738008A0CE4F50D7814790C1207825007781496
:10174800790C120F08900329E06408600AE0640627
:101758006005E06405702090809078141207A2500C
:10176800169080947814120EE2800C75140075158A
:1017780000751600751700850A82850B8378141288
:101788000F7D740612107F7F100211F1E0F8A3E0BC
:10179800F97AD07B032274F71211451204C1900321
:1017A8009FE064017010906245E4F0A3F053F4F3F5
:1017B80043FE0C5390F312046DE5C654B84441F54A
:1017C800C6E59E5447644170F8906185740FF090A7
:1017D800039DE0F47002A3E0604E90039EE0600871
:1017E80014601B14602E8040750801750900900371
:1017F8009DE07808121056E508F45280802A750892
:101808000175090090039DE07808121056E508F468
:101818005290801475080175090090039DE07808BE
:10182800121056E508F452A079007F020211F174F3
:10183800F7121145E9FEEAFF1204C174016E700C3B
:101848007A807B00900328E0F91206119019F0E4E1
:1018580093F46008E493F91203D1800953C6B8E5FC
:101868009E544770FA12047390039FE0640170035A
:101878001203EF90039DE0F47002A3E0604B900325
:101888009EE0600814601A14602C803D750801758C
:10189800090090039DE07808121056E50842808000
:1018A8002875080175090090039DE0780812105604
:1018B800E5084290801375080175090090039DE0C2
:1018C8007808121056E50842A012044F8A088B09BE
:1018D800A808A909E8496014E5E170FCE82414F5B2
:1018E80082E439F583E0F46003E0F5E174016F7098
:1018F8000A7A01900328E0F912067102183274F18D
:101908001211458A088B098C0A8D0B908070780813
:10191800120F48740F1210B5780C120F6E90807069
:10192800780C120F487808790C120782908088503A
:10193800107808790C120F0878081207A240148052
:101948000E780C7908120F08780C1207A250047947
:1019580001800279007F080211F174ED1211458AA5
:10196800088B098C0A8D0B9080707808120F4874C8
:10197800131210B5780C120F6E908070780C120F3D
:1019880048780C790812078240117808790C120FF0
:1019980008AA08AB09AC0AAD0B80227510007511B6
:1019A800007512007513017810790C120F08781061
:1019B8007908120ECFAA10AB11AC12AD137F0C022E
:1019C80011F1C0E0C0D0E8C0E0A8A8D2AFC2C77586
:1019D8001C00E8A2E792AFD0E0F8D0D0D0E032C245
:1019E800AF02000022020132FFFFFFFFFFFFFFFFEF
:1019F80074F61210D974E5121069798112021B85E8
:101A08001A82851B8374F2F074011210B5740112E6
:101A18001C617003021B96851A82851B8374F4F07F
:101A280074011210B57424121C617003021B968590
:101A38001A82851B8374F5F074011210B5E4121C28
:101A4800617003021B96851A82851B837488121D98
:101A5800DE7003021B9674021210CF7A1879761280
:101A6800022174021210B5E0FA74031210B5E0F9FD
:101A7800EA90028A121C2B74041210B5E0FA74055D
:101A88001210B5E0F9EA90028C121C2B74061210A1
:101A9800B5E0FA74071210B5E0F9EA90028E121C4C
:101AA8002B74081210B5E0FA74091210B5E0F9EABF
:101AB800900290121C2B740A1210B5E0FA740B12E3
:101AC80010B5E0F9EA900292121C2B740C1210B5B2
:101AD800E0FA740D1210B5E0F9EA900294121C2B8A
:101AE800740E1210B5E0FA740F1210B5E0F9EA900E
:101AF8000296121C2B74101210B5E0FA7411121011
:101B0800B5E0F9EA900298121C2B74121210B5E095
:101B1800FA74131210B5E0F9EA90029A121C2B74A9
:101B2800141210B5E0FA74151210B5E0F9EA900233
:101B38009C121C2B74161210B5E0FA74171210B50B
:101B4800E0F9EA90029E121C2B74181210B5E0FA04
:101B580074191210B5E0F9EA9002A0121C2B851A2C
:101B680082851B8374A1121DDE602374021210CFBC
:101B78007A01797612022174021210B5E09002A25D
:101B8800F0851A82851B8374E1121DDE70057900C9
:101B9800021C2174021210CF7A077976120221747E
:101BA800021210B5E0FA74031210B5E0F8E4C8F9AF
:101BB800EA9002A3121C2B74041210B5E09002A53F
:101BC800F074061210B5E0FA74051210B5E0F508C5
:101BD800880974047808121056EA54F0F8E50848A1
:101BE8009002A6F0A3E509F0EAC4540FFA740712AC
:101BF80010B5E0F50875090074047808121056EA63
:101C080045089002A8F0A3E509F074081210B5E0A1
:101C18009002AAF012022D7901741B12107F7F0224
:101C28000211ABF0A3E9F02274F71210D974FE1276
:101C38001069121DC274F4F074011210B5742512E3
:101C48001C61FE12022DEE70047900800279017485
:101C58000212107F7F010211ABF0AC1AAD1B7A02A1
:101C68007976120227E92274E81210D974F3121057
:101C780069740B1210B5EAF0A3EBF0ECFEEDFF125D
:101C88001DC274F7121DDE70057900021DBE7401B5
:101C98001210CF7A09797612022174041210B51243
:101CA8001DCCF50B740C7808120EB074051210B523
:101CB800E0F50CE4F50DF50EF50F7404780C120E32
:101CC800B07808790C120F5B74061210B5E0C45492
:101CD8000FF50CE4F50D7808790C120F5BAA08AB28
:101CE80009AC0A7D0012029F8A0C8B0D7407121032
:101CF800B5121DCC74087808120EB074081210B50D
:101D080012209D74047810120EB078087910120F02
:101D18005BAA08AB097C007D001202A58A108B1112
:101D28008C128D1374011210B5E0F508E4F50974EE
:101D38000C7808120EB074021210B51220927404B6
:101D48007814120EB078087914120F5B740312100D
:101D5800B5E0C4540FF514E4F51578087914120F9A
:101D68005BAA08AB09AC0A7D001202AB8A088B0992
:101D78008C0A8D0B740B1210B5121DD5E50CF0A34F
:101D8800E50DF078101208398E828F83E510F0A3E4
:101D9800E511F0908024780C120F6E7808790C12F7
:101DA8000DFA74251210B5121DD5E508F0A3E50942
:101DB800F012022D7901740D802C120233851A82DB
:101DC800851B8322E0F508E4F509F50A22E0F8A36B
:101DD800E0F583888222F0AC1AAD1B7A017976127D
:101DE8000227E922740412107F7F100211AB74ECF1
:101DF8001210D98A0C8B0D8C0E8D0F90028AE0F58B
:101E080008A3E0F509E4F50AF50B8A108B118C128A
:101E18008D1374047810120E7D78107908120F084B
:101E28007403780C120E7D047808120EB0780C79C1
:101E380008120F0890028C1222FC120D7A740B788B
:101E48000C120E7D85100885110985120A85130B61
:101E580078087910120D7A740C7808120E7D9002A9
:101E68008E12230A78087910120D7A740E780812E7
:101E78000E7D780C7908120ECF9002AB780C120FF9
:101E88007D9002AB7808120F6E90802C780C120FA0
:101E98006E7808790C120D7A9080307808120EE26C
:101EA80074087808120E7DAA08AB09AC0AAD0B7F3E
:101EB8000C0211AB74E81210D98A0C8B0D8C0E8DA4
:101EC8000F9002AB7808120F6E78081207C1908045
:101ED800347810120F6E78087910120B60780C1293
:101EE80007C1C00CC00DC00EC00F9002A61220AED4
:101EF8001207C19080387810120F6E780C79101282
:101F080009BB9002A81220A81207C1908028781057
:101F1800120F6E781479101209BB78147908120917
:101F2800BB780C7914120B60D013D012D011D010DA
:101F38007810790C120B3BC010C011C012C013905E
:101F480002A31220AE1207C190803C7810120F6EC7
:101F5800780C79101209BBC00CC00DC00EC00F90D0
:101F680002AAE0F50C3395E0F50DF50EF50F780CA7
:101F78001207C19080407810120F6E780C791012F9
:101F880009BB780C79081209BB9002A51220927837
:101F9800141207DC9080407810120F6E78147910B4
:101FA8001209BB781479081209BB90807878081256
:101FB8000F6E78147908120B60780C79141209BB2B
:101FC8009080787808120F6E780C7908120B60D020
:101FD80013D012D011D0107810790C1209BBD00B85
:101FE800D00AD009D008780879101209BB750C00FE
:101FF800750D00750E80750F3F9002A212209D7816
:10200800101207DC781079081209BB908048781400
:10201800120F6E781079141209BB780C7910120B14
:102028003B780C79081209BB850C08850D09850ECB
:102038000A850F0B90804C780C120F6E7808790C7B
:10204800120920500E750800750900750AC8750B2D
:1020580042801D908050780C120F6E7808790C120F
:10206800096F500C750800750900750A00750B009A
:10207800908054780C120F6E7808790C1209BBAA5C
:1020880008AB09AC0AAD0B021DF1E0F514E4F51537
:10209800F516F51722E0F510E4F511F512F51322FF
:1020A8001223217814221222CD780C2274E81210FF
:1020B800D974FC121069122330780C120F6E740157
:1020C800780C120E7D908058780C120EE2850C1058
:1020D800850D11850E12850F1374027810120E7D6E
:1020E800850C08850D09850E0A850F0B7402780882
:1020F800120E7D78107908120D7A8510088511095D
:1021080085120A85130B740B7808120E7D90029ABB
:10211800122319120D7AC008C009C00AC00B850C19
:1021280008850D09850E0A850F0B90029812231950
:10213800120D7A74017808120EB0D017D016D01587
:10214800D01478147908120ECF74027814120E7D08
:102158009002961222E974107808120EB078147959
:1021680008120ECF9002941222E9740D7810120E04
:102178007D78087910120D7A74037808120E7D9014
:102188000292122304790C120D7A74017810120E3F
:102198007D78087910120ECF74127808120E7D908F
:1021A800805C7808120EE29002901222DC7808799E
:1021B8000C120D7A740F7808120E7D85080C8509AB
:1021C8000D850A0E850B0FE50C450D450E450F7064
:1021D8000B7A007B007C007D000222CA7510007516
:1021E8001100751210751300851A82851B837810EB
:1021F800120F1C740C7814120E7D78107914120FBB
:10220800089080607808120F6E78107908120D7A9D
:1022180090806478101207A2401074017810120E92
:10222800B07810790C120DFA800E7810790C120D16
:10223800FA74017810120EB08510148511158512E4
:102248001685131774037814120E979002A01222A1
:10225800CD85140885150985160A85170B78087920
:1022680014120D7A740D7808120E97780C790812EA
:102278000D7A740C780C120E7D851008851109856D
:10228800120A85130B74027808120E9790029E1298
:102298002319120D7A740D7808120E7D780C7908BE
:1022A800120ECF90029C1222FC120ECF7404780CEE
:1022B800120E7D7810790C120ECFAA10AB11AC1249
:1022C800AD13021DECE0F50CA3E0F50D3395E0F538
:1022D8000EF50F22E0F50CA3E0F50DE4F50EF50F71
:1022E800221222ED22E0F508A3E0F5093395E0F586
:1022F8000AF50B221222ED780C79082212230A78AB
:102308001022E0F510A3E0F5113395E0F512F5136E
:10231800221223217808791422E0F514A3E0F51598
:102328003395E0F516F51722851A82851B83EAF0A6
:10233800A3EBF0A3ECF0A3EDF09002AB2274F4123F
:1023480010D9E9900328F01204BB907800E0C45437
:102358000F540764037004793F8002797F7508067B
:1023680075090078081212EC7C167D037AEA7B075F
:1023780012057B740212107F900316E0F47049A3D3
:10238800E0F47044A3E0F4703FA3E0F4703AA3E0F3
:10239800F47035A3E0F4703090780EE0900316F0F6
:1023A80090780FE0900317F0907810E0900318F001
:1023B800907811E0900319F0907812E090031AF0E9
:1023C800907813E090031BF090031C1224D2122A79
:1023D8007090033A7406F0A3740D1226B27442F09A
:1023E800A37401F09003441224D2900343E4F090C4
:1023F8000351F0A374A01226B27403F0A374071259
:1024080026B274281226B204F0A3E4F090037AF0FE
:1024180090039D74FFF0A3E4F090039FF09003A154
:1024280004F09003A27490F0A37401F01203E9126F
:10243800039512046779017AA47B031204199003A7
:10244800A4E075F01484E5F004F012041F7A0090FB
:102458000328E0F9120671907803E0644270569000
:1024680003A4E014F0704EC2AF122474007822D096
:10247800E0F618D0E0F6E59F5407F870057509FFF7
:10248800800375097FC4C0E07821E6F50808E655A1
:1024980009F509740B7808121047D0E02508F89060
:1024A8006270E0A2E740F8E8C333906272F090628D
:1024B80070E0D2E0F090033FE4F0A3F07A80FB9064
:1024C8000328E0F91206110226A074FF1226B8F0BC
:1024D800A3F02274F41210D9EAFEEBFFEEA2E0504A
:1024E8003F90032AE0C39480E0500F25E0F8E433DE
:1024F800F9741928F5827409800EF425E0F8E4339C
:10250800F9742728F582740939F583122A221210E2
:10251800D77A00900328E0F9120671EE6401803B37
:102528005480603B9003A21226A5E849602A7900EE
:1025380012066B9003A2E0F508A3E0F509E4F50A9A
:10254800F50B78081212E87A007B01900328E0F96D
:102558001206D7740412107FEE6480FAEF802DEF14
:102568005401600C790112066BEEFAEF6401801CCD
:10257800EF5402600AC2AF75C9AB75C95B80FEEF44
:102588005404600B1219E7EEFAEF6404FB8017900D
:10259800032FE06401700BEE54206006EE6420FA0D
:1025A80080047A007B000226A0C082C083C2AF12DA
:1025B8000497E5E170FC75E1011203D775E1F112AA
:1025C80004C71203CB7907120515790112051B7987
:1025D800021204EB1204FD120509790012050F79A5
:1025E8000112050F908068120F8C1204D3900351CA
:1025F800E4F0A3F0A3F09003557407F0900354742B
:1026080003F090035AE4F0900359F090037AF01223
:10261800042B12040D7900120521906012E4F0A336
:10262800F0906063F0751D00900329F090032BF083
:10263800A3F090032EF090032F04F090033904F0D8
:102648009003A0E4F0D2AFF9022699C082C083902B
:1026580003161226AB900317122685F09003181262
:102668002685A3F0900319122685A3A3F090031AD8
:1026780012268CF090031B12268CA38011E08A820C
:102688008B83A322E08A828B83A3A3A3A322F0795E
:1026980000D083D0820201327F040211ABE0F8A39C
:1026A800E0F922E08A828B83F022F0A3E4F0A322EF
:1026B800F0A3F0A3F0A3F0A3227F020211AB74F7FA
:1026C8001210D9EAFEEBFF8908E9605D740165081C
:1026D800601574036508603B74026508603574040E
:1026E8006508600302279B740B1210B51226A5E833
:1026F80049700302279B740A1210B5E0F860087449
:102708000168600302279B7403650860067402650C
:1027180008702AEE2460F8EF1228545076EC2460F2
:10272800F8ED1228544016806AEE24E0F8EF1228DB
:10273800495060EC24E0F8ED1228495056C3EC9E4D
:10274800ED9F404F74091210B5E0FA600574016AF4
:102758007041740E1210B5E0F8600F740168600AD9
:1027680074026860057403687029740D1210B5E06E
:10277800F9740759601D900351E064017005790CE4
:10278800022847E508600C74016508600674046552
:102798000870057912022847740759900355F0E527
:1027A80008900354F0E8900356F0EA900343702F22
:1027B800E4F0900316E0900344F0900317E09003D0
:1027C80045F0900318E0900346F0900319E0900359
:1027D80047F090031AE0900348F090031B802E7492
:1027E80001F090031CE0900344F090031DE0900377
:1027F80045F090031EE0900346F090031FE090031D
:1028080047F0900320E0900348F0900321E0900304
:1028180049F0E8700479008019740168700479013E
:102828008010740268700479028007740368700568
:102838007903120503900352EEF0A3EFF0790080BC
:102848001634FFF9C3E894E1E9943F2234FFF9C351
:10285800E89461E9943F227F010211AB74F61210EB
:10286800D9E9FEC39420500BEE90035AF0601EEA9B
:102878004B70047912801E122A671212ECEAFCEBE4
:10288800FD7A5B7B031205CF740212107F90035907
:102898007401F079000226C174F41210D9E9FF908E
:1028A8000329E0640970030229ABE0640A7003029B
:1028B80029ABE0640B70030229ABE0640C700302DF
:1028C80029ABE0640D70030229AB900354E0601655
:1028D80064016012E06403600DE064026008E06473
:1028E800046003022A1E900343E06007640160034A
:1028F800022A1E900354E064036005E0640270102D
:10290800900352C3E094A0A3E094005003022A1E4F
:10291800900354E07003022A1E64017003022A1E09
:10292800E064047003022A1EEF70030229B71460E2
:1029380003022A1E900351E06401606779011204C2
:1029480043900341EAF0A3EBF09003517401F09037
:102958000329E070551204A38A088B098C0A8D0B91
:1029680090806C7808120EE29080707808120F48F8
:10297800900341122A22A3A37808120F7D900341E5
:10298800E0F8A3E0C82406F582E438F583E4F0A370
:10299800F01203F5E960107A417B031204499003B1
:1029A80051E4F07921800512043179000226A090C3
:1029B8000351E060EEA2AFE433FEC2AF7A417B037D
:1029C800120449900351E4F0120461E970411204C1
:1029D80097906182E0C2E6F0E5E170FC75E101756F
:1029E80091BF75E1F190032FE0640170187A207BA4
:1029F80000900328E0F91206E37A207B0090032870
:102A0800E0F91206177A00900328E0F9120671EE31
:102A1800A2E092AF809479128092E0F8A3E0F58367
:102A280088822274F61210D9E9FEC39420500BEE66
:102A380090037AF0601EEA4B70047912801E122A05
:102A4800671212ECEAFCEBFD7A7B7B031205CF746C
:102A58000212107F9003597401F079000226C1E038
:102A6800F508750900780822900316E0900322F013
:102A7800900317E0900323F0900318E0900324F0EC
:102A8800900319E0900325F090031AE0900326F0D4
:102A980090031BE0900327F022C082C0839003AB11
:102AA800E4F09003AA74FFF09003C7E4F09003C623
:102AB80074FFF09003A7F09003A6E4F09003A5F04C
:102AC8009003A8F0A302316274F41210D99003A8FD
:102AD800E0F508A3E0F509E508450970061203DDED
:102AE800022BB7850882850983E014600A14600701
:102AF80024FE6003022BB7E0F912043D8A0A8B0B0F
:102B0800AE0AAF0BEE65087003EF65097003022B80
:102B1800B48E828F83E064016003022BB71203F541
:102B28001204A38A088B098C0A8D0B9080247808DC
:102B3800120EE278081212E88E828F83A3A3120F76
:102B48008C121906740412107FE970561204A38AB5
:102B5800088B098C0A8D0B90806C7808120EE29015
:102B680080707808120F488E828F83A3A37808128A
:102B78000F7D900329E0640270258E828F83A3A3C2
:102B88007808120F6E9080807808120EE29080709C
:102B98007808120F48122D047808120F7D8003124E
:102BA80031049003A77401F0EEFAEFFB1204377FAB
:102BB800040211AB74F01210D9EAFEEBFFEE240206
:102BC800F8E43FF988088909EE2406F8E43FF98813
:102BD8000A890B8882F58312130385088285098385
:102BE800120F8C120485740212107F850A82850BDD
:102BF80083121303850882850983120F8C120479C6
:102C0800740212107F122D04120F8C12048B8E8204
:102C18008F83E06440701BEE2412F8E43FF9888249
:102C28008983E0906064F088828983A3E09060657E
:102C38008006906064E4F0A3F09003A8EEF0A3EFA0
:102C4800123111E0F8A3E0F58388821210D7906062
:102C580054E4122D12A3122D12906182E0C2E6F004
:102C68007591BF1230FAE0640170031204C1E5E106
:102C780070FC1230EAE0F46003E0F5E11230F4F0A1
:102C880090032FE06401706F1204A38A088B098CEB
:102C98000A8D0B78081212E88E828F83A3A3120F75
:102CA8008C121962740412107F8A088B098C0A8DA1
:102CB8000B90802C780C120F6E7808790C120D7A14
:102CC80074037808120E97E50824F4F508E509342A
:102CD80001F5099003A1E06003120647E4F50AF53F
:102CE8000B78081212E87A207B00900328E0F9128A
:102CF80006D7740412107F7F080211AB122D082228
:102D0800EE240EF582E43FF58322F0A3F0A3F0A3AE
:102D1800F0A3F0A3F02274F01210D9890874FF65AB
:102D280008706E9003A6E054077003023018790407
:102D3800120455E9640170047904800C79011204C5
:102D480055E964017008790112045B02301C7902AC
:102D5800120455E96401703978009003AAE064020E
:102D68007006A3E06401601678019003C6E064026F
:102D78007006A3E0640160067A007B008010E875A5
:102D8800F01CA4F8A9F074AA28FA740339FB0230DD
:102D98001C78009003AAE065087006A3E06401604F
:102DA8001678019003C6E065087006A3E064016028
:102DB800067E007F008010E875F01CA4F8A9F07466
:102DC800AA28FE740339FFA908120455E9640170A2
:102DD800057509018003750900E508146010147071
:102DE80003022EB424FE7003022F2A02301879023F
:102DF800120455E96401706978009003AAE064023E
:102E08007006A3E06401601878019003C6E06402CC
:102E18007006A3E064016008750A00750B00800362
:102E280012301FE509A2E05031850A82850B83A381
:102E3800A3780C120F6E908084780C120EE2780C36
:102E48001212E88E828F83A3A3120F8C12190674B4
:102E58000412107FE97003023012AA0AAB0B023089
:102E68001C7904120455E96401702E78009003AAB5
:102E7800E064047006A3E06401601878019003C65A
:102E8800E064047006A3E064016008750A00750B2D
:102E980000800312301F022F5FE509A2E05006EE02
:102EA800FAEFFB80047A007B0002301C79041204DC
:102EB80055E96401702D78009003AAE06404700657
:102EC800A3E06401601878019003C6E0640470060A
:102ED800A3E064016008750A00750B008079123060
:102EE8001F80747901120455E964017022780090FA
:102EF80003AAE064017006A3E064016057780190BA
:102F080003C6E064017045A3E064016047803DE5C5
:102F180009A2E05006EEFAEFFB80047A007B00027B
:102F2800301C7901120455E9640170677800900338
:102F3800AAE064017006A3E06401601878019003B8
:102F4800C6E064017006A3E064016008750A0075B4
:102F58000B00800312301FE509A2E04003022E6235
:102F6800850A82850B83A3A3780C120F6E90808448
:102F7800780C120EE2780C1212E88E828F83A3A3CB
:102F8800120F8C121906740412107FE96003022EC6
:102F98006280777902120455E964017067780090BD
:102FA80003AAE064027006A3E06401601878019047
:102FB80003C6E064027006A3E064016008750A00B5
:102FC800750B00800312301FE509A2E04003022EB2
:102FD80062850A82850B83A3A3780C120F6E9080FA
:102FE80084780C120EE2780C1212E88E828F83A37A
:102FF800A3120F8C121906740412107FE9600302E1
:103008002E628006E509A2E05006EEFAEFFB800486
:103018007A007B00022CFFE875F01CA4F8A9F07474
:10302800AA28F50A740339F50B2274F71210D98906
:10303800087A007EAA7F038E828F83A3E060030252
:1030480030D08E828F83E0F460109003A8E0F8A35C
:10305800E0F9EE687002EF69606E8E828F83E50892
:10306800F01204A3EAF8EBF9ECFAEDFB8E828F83F9
:10307800A3A3120FA48E828F83A3A3A3A3A3A3E465
:10308800F0A3F01231041230EA7401F01230F41295
:103098003111E4F0A3F08E828F83A304F09003A68D
:1030A800E04508F09003A5E004F06401600C74802A
:1030B800650860067440650870089003A8EEF0A3E0
:1030C800EFF0EEFAEFFB80150AEE241CFE50010F1C
:1030D800EAC39402500302303F7A007B007F01026A
:1030E80011ABEE2414F582E43FF583221230FA7412
:1030F8000122EE2415F582E43FF58322122D08748F
:10310800FFF0A3F0A3F0A3F022F0EE241AF582E476
:103118003FF58322C082C0838A828B83E0F8A3E0D4
:10312800F98A828B83E4F0A3F088828983A3F088EC
:10313800828983E0F4F89003A6E058F09003A5E0B4
:1031480014F070149003A8E4F0A3F0900329F0FAA7
:10315800900328E0F91206718001F0D083D0820232
:103168000132C082C0839003A5E0600A9003A8E002
:10317800FAA3E0FB80047A007B0080DFC082C08372
:10318800E9FB78009003AAE06B7016E875F01CA4C0
:10319800F8A9F074AB28F582740339F583E0F98057
:1031A8000B78019003C6E06B60E1790080ADE0F92F
:1031B80080A9C082C0837A009003AAE0697018A32E
:1031C800E064017012EA75F01CA4FAABF074AA2A44
:1031D800FA74033BFB80127A019003C6E06970061B
:1031E800A3E0640160DF1A7B00023163C082C08300
:1031F8009003A580B9C082C083123335E0D2E5F0D0
:10320800E0A2E350FBE0C2E5F0A3E064086005E05B
:103218006410700EE9C3334AA3F0123335E0A2E319
:1032280050FB906231E0F98001F0D083D082020136
:1032380032C082C083906234740CF0906233E4F040
:10324800906230E0547CF0E049F0E0444480DA7465
:10325800F51210D98A0AECFEEDFF7508007A011202
:103268000215E964407049E50AC394024008906277
:1032780030E0D2E28010E50A60367401650A700712
:10328800906230E0C2E2F0123335E0A2E350FB90E6
:103298006232E08E828F83F0A3AE82AF8305081579
:1032A8000A906231E0645060CDE06458600215080D
:1032B800906230E0D2E4F0123338E0A2E440FBA997
:1032C800087F030211AB74F61210D98A08ECFEEDE0
:1032D800FF7A00120215E964186003750800780087
:1032E800800108E8C39508502E8E828F83E0906293
:1032F80032F08E828F83A3AE82AF83123335E0A281
:10330800E350FBA3E0642860D9E0643070077401DF
:1033180028F50880028808906230E0D2E4F0123381
:1033280038E0A2E440FBA9087F020211AB906230AA
:10333800E0C2E3F022C082C083906230E090028253
:10334800F0906233E0900281023231C082C08390F3
:103358000282E0906230F0900281E09062330232A3
:103368003174F71210D9E9900283F012026F120239
:103378004B9080C01212FF7A0112373B12107F7FE8
:10338800010211ABC082C083120257120707E990ED
:103398000284F012028DE9900285F0900284E070B8
:1033A800081205B1E9900286F0120731120275126F
:1033B800028779037AF47B0112026902323274F6C9
:1033C8001210D974FA121069EAFEEBFF54806017E4
:1033D800900283E0F91205F9EA4B60031205E7EE63
:1033E800FAEF6480023669EAA2E0502C12023F909C
:1033F80080441212FF7A027B00900283E0F91206E1
:10340800DD740412107F7A027B00900283E0F912C7
:103418000611EE640102364254027003023522900E
:103428000894123696400B12025D900894E4F0A3BB
:10343800800690089412369FF0900284E064017030
:103448002D900896123696401E120713E9640170F3
:103458000E9080141212FF7A0812373B12107F90D8
:103468000896E4F0A3800690089612369FF0900222
:1034780085E06401702D900898123696401E12025D
:1034880093E96401700E9080141212FF7A101237BB
:103498003B12107F900898E4F0A3800690089812D9
:1034A800369FF0900286E06401703690089A1236D2
:1034B8009640271205B7E964017010908014121223
:1034C800FF7A2012373B12107F80077AFF7BFF12AA
:1034D800074F90089AE4F0A3800690089A12369F46
:1034E800F012027B9080181212FF7A007B021237CA
:1034F8003D12107F90089C123696400E120251120F
:10350800074390089CE4F0A3800690089C12369F1D
:10351800F0120737EE6402023642EA5404600912D8
:103528000263EE6404023642EA54086035851A8262
:10353800851B83E4F0A3F074021210B5E4F0A3F045
:1035480074021210CFAA1AAB1B120719E964017092
:103558000B12368774021210B512367EEE6408021A
:103568003642EA5410605D74021210B5E4F0A3F01C
:10357800851A82851B83F0A3F074041210B5E4F059
:10358800A3F074041210BF8808890978081212EC95
:1035980074021210CF74041210C712029974021226
:1035A800107FE96401701874021210B512368D127A
:1035B800367874041210B5E0FAA3E0FB12075BEE4C
:1035C80064108076EA5420603D851A82851B83E466
:1035D800F0A3F0AA1AAB1B1205C3E964017022120A
:1035E80036871205BDE9640170109080141212FF2D
:1035F8007A4012373B12107F80077AFF7BFF120751
:1036080055EE64208034EA5440601E851A82851B7A
:1036180083E4F0A3F0AA1AAB1B1205C9E964017090
:1036280003123678EE64408011EA54806010790005
:103638007A007B00120269EE6480FAEF8023EB5473
:1036480001600A120701EEFAEF64018014EB5402DC
:103658006012120281E9FA7901120761EEFAEF6449
:1036680002FB80047A007B00740612107F0233305C
:10367800851A82851B83E0FAA3E0FB120755228591
:103688001A82851B83E0FAA3E0FB12074F22C3E0EE
:103698009402A3E0940022E02401F0A3E034002285
:1036A800C082C08312053F790012054B0232327482
:1036B800F01210D97A03790F1205458A088B09E4AC
:1036C800F50AF50B78081207DC90801C780C120FAD
:1036D8006E7808790C1209BB908020780C120F6E56
:1036E8007808790C1209BB7808120839AA08AB09BE
:1036F8007F080211AB53F3FEC28043FD01438F01E3
:1037080053F3FDC28143FD02438F0202013274F478
:103718001210D9A280401753FDFE43F20190089E73
:103728001237F81212E87A0412373B12107F7F041E
:103738000211AB7B00900283E0F91206D7740422D1
:1037480074F61210D97A037900120545C3EA94F188
:10375800EB9407401890089EE064E87004A3E064C6
:1037680003700A90089E7419F0A3E4801EC3EA94BB
:103778000FEB9400501890089EE064197002A3E0C3
:10378800700C90089E74E8F0A37403F080179008FA
:103798009EE064197002A3E07008EA24FF1AEB3473
:1037A80007FB12074953F3FE43FD01C28002333081
:1037B80074F41210D9EA4B600DE9900287F0900278
:1037C80088EAF0A3EBF0900287E0601FA280500423
:1037D800C2808004D28014F09002881237F8121246
:1037E800E87A8012373B12107F8002C28002373697
:1037F800E0F508A3E0F509E4F50AF50B780822538B
:10380800F4FED29043FE0153F4EFC29443FE10023B
:10381800013253F4FDD29143FE0253F4FB53FEFBF5
:1038280043F74053F6FB02013280F8A89043F604B0
:10383800E8A2E2E433F902013253F3F7D28343FDFD
:103848000853F3EFC28443FD1053F3DFC28553FDE1
:10385800DF438F2043AB20538CFE5389DFD2BD0258
:103868000132C082C0839061907404F0A37448F060
:10387800A37402F09061807440F09061BC7403F00E
:103888009061877419F0906265741BF0906249E04A
:10389800C3941390619C40107409F09060667401A1
:1038A800F090619F7428800D740BF0906066E4F0CE
:1038B80090619F742CF0123A3D7009C29190032DCB
:1038C8007467800590032D7461F0123A989019F08E
:1038D800E493F46006E493F91203D17905120527FD
:1038E800023A4DC082C083E9540FF9906185E069BE
:1038F8006012E5C654B84441F5C6E59E5447644194
:1039080070F8E9F053C6B8E59E544770FA023A4D8C
:10391800C082C083A8A853A87E906181E4F0A3F078
:10392800A3F0C2BA539AFEC289759B00C2C275E958
:103938000075910075BF0075A91175B90590618171
:10394800F0A374C0F0A3E4F0D2BA439A017480588B
:1039580042A8023A4DC082C08374F81210699003DD
:103968002B123E77E8497003023A3690032BE05455
:103978004060177908AA1AAB1B120419AA1AAB1BC4
:1039880012035990032BE054BFF0E0A2E0501E123E
:103998003A3D7009C29190032D7467800590032DFC
:1039A8007461F012035F90032BE054FEF0E05402C0
:1039B800601E123A8B7009D29190032D74718005A4
:1039C80090032D746AF012035F90032BE054FDF00E
:1039D800E0540460109019F4123A9B1203659003A6
:1039E8002BE054FBF0E0540860109019F5123A9B54
:1039F80012036590032BE054F7F0E05410600D12A9
:103A08003A9812036590032BE054EFF0E0542060DD
:103A18000A12036590032BE054DFF0A3E054016021
:103A28000D1203EF12036B90032CE054FEF07408A0
:103A380012107F801090619A123C8D90039FE06471
:103A48000122F0A3F0D083D082020132C082C08369
:103A5800E960051460178029123A3D7009C29190F7
:103A6800032D7467801A90032D74618013123A8BAA
:103A78007009D29190032D7471800590032D746A9A
:103A8800F080C290619A123C7F90039FE06401220B
:103A98009019F6E493906186F02274EA1210D974B2
:103AA800F4121069908074AC1AAD1B7404120FBD27
:103AB8009019F493F46003023C14907808E0C394DE
:103AC800025003023BF890800C74041210CF740863
:103AD800120FBDA81AA91B8814891574041210BFE7
:103AE80088088909AE08AF097510FF7511FF750EB2
:103AF800FF7C00750C48750D78801274086C700393
:103B0800023B8E74096C607E740A6C6079850C8245
:103B1800850D837808120F6E8E828F83A909E50AB6
:103B2800C9F8881274187808120E97E5124508F833
:103B3800C3E098A3E099850C82850D837808120F5D
:103B48006E40188E828F8374187808120E97E512CB
:103B58004508F8E0C398F8A3E0801A7418780812AA
:103B68000E97E5124508FAE9FB8E828F83123E779D
:103B7800EAC398F8EB99F9C3E89510E9951150064E
:103B8800881089118C0E0CE50C2404F50C500205E4
:103B98000DECC394135003023B0374FF65107004CB
:103BA80074FF65116024850E087402780812105697
:103BB80074482508F58274783509F5837808120F5A
:103BC8006E851482851583E508F0EE2402FE500107
:103BD8000F851482851583A3858214858315740C3B
:103BE8001210B5E5826E7003E5836F6003023AF048
:103BF80075080175090078081212EC74021210CFCA
:103C08007A7D7B06120581740212107F740C1210E3
:103C18007F7F0E0211ABC082C0839061AE7468F0E2
:103C2800A3746AF090624574FBF0A304F053F4FDAA
:103C380043FE0290039F7401F09061A0E0643A9003
:103C4800619A7019123C8D740164017009C29190D7
:103C5800032D7467801E90032D74618017123C7FBA
:103C6800740164017009D29190032D7471800590DC
:103C7800032D746A023A4C743FF0A3745AF09061B1
:103C8800A0747FF0227433F0A37455F09061A0748F
:103C98003AF022C082C08375E1F1900354E024FE1B
:103CA800604D14704F1203FB900343E0F97A447B94
:103CB800031204CD90807C120F8C1204F790806858
:103CC800120F8C1204D3900355E0F91204DF790126
:103CD80012051B900341E0F8A3E0C8241AF582E41A
:103CE80038F5837407F0A37404F07900023A4D1292
:103CF800040180B4791280F474F71210D9123D4986
:103D08004402F5D9758244758303123DF27004E5C7
:103D180083640370F590035AE0600A785B7903FACC
:103D2800123DE6DAFB75E195900919123D5BF0A3A7
:103D3800123D5B123DFA7414F09003297404023E9C
:103D48008690035AE02407F5D9900343E0C433333F
:103D580054C02274BF123D68123D68F0A374032258
:103D6800F0A37403F0A374BF2274F71210D9123DA4
:103D7800494406F5D9758244758303123DF27004EF
:103D8800E583640370F590035AE0600A785B790371
:103D9800FA123DE6DAFB90037A123D4C4404F5D959
:103DA800758244758303123DF27004E583640370E1
:103DB800F590037AE0600A787B7903FA123DE6DA37
:103DC800FB75E19590091974B9F0A37403123E3C90
:103DD800123DFA7415F09003297403023E86888216
:103DE8008983123E7BA882A98322123E7BE58264E6
:103DF8004A22F0A374C5F0A37403123E31123E4068
:103E0800123E27240EF582E438F58374FFF0A3F000
:103E1800A3F0A3123E272414F582E438F58322F098
:103E2800900341E0F8A3E0C822F09009277425F038
:103E3800A3740422123E4022F0A37425123E4F12AE
:103E48003E4FF0A3740422123E56123E5622F0A3AF
:103E58007404F0A3742522C082C083900341E0F863
:103E6800A3E0C82406F582E438F583E4023A4A124E
:103E78003E8022E0F5D9A322E0F8A3E0F922F07F02
:103E8800010211ABC082C083E49003317808F0A32B
:103E9800D8FC90033104023A4CF09002F9123EA982
:103EA800221243F5F5838882A32274EE1210D98971
:103EB8000C8A0A8B0B8C0E8D0F9002E4E05405706F
:103EC80003023F567401650A700D9002FB1244AF5D
:103ED800607C9002FB800B9002FD1244AF606F90F3
:103EE80002FDE0FEA3E0FFEBC394205008EB60095D
:103EF800EC450F700479028057E50C900912F08E9A
:103F0800828F83A38582088583097C1F7D007900C1
:103F1800AA08AB091205DB850B1075110078101281
:103F280012ECAC0EAD0FAA08AB091205CF74021241
:103F3800107F8E828F83E50BF0F9E50AAA08AB099A
:103F48006005120347800312034DE9F980027912D4
:103F58007F0A0211AB74F71210D91244AA700479BF
:103F68001280391240CA6E60047903802F7A027B6E
:103F780000900301E0F91206E39002FFE4F0A3F0D9
:103F88007A04FB900301E0F91206E39002E6E4F0FC
:103F9800A3123EA17403F07900120353024050D0DB
:103FA80083D08202013274F71210D99002FB1244B6
:103FB800AF600D1243E912065F9002FBE4F0A3F034
:103FC8009002FD1244AF60109002FD1243EC1206FD
:103FD8005F9002FDE4F0A3F09002E4E05405605F16
:103FE8007A137B091203357E009002E4E0540560E1
:103FF8004A7A207B001206591240559002FB12445F
:10400800AF60367C207D0079001205DB7A207B00CA
:104018001206599002FD1240589002FD1244AF60FA
:104028000B7C207D0079001205DB800F1243E9121A
:10403800065F9002FBE4F0A3F07E13EEF980097AA4
:10404800007B0012033579007F010211AB9002FB5F
:10405800EAF0A3EBF02274F61210D97E018A828B63
:1040680083A3A3A3E0FCA3E0FD8C088D09780812C4
:104078001330062004BD408940BD409B409B4091C1
:1040880040124427120305800612442712030BE945
:10409800FE802474086C700374206D7004790180AC
:1040A8000279008A828B83A3A3A3A3A31240C7FA31
:1040B80012031180027E00EEF90243E49002FBE055
:1040C800F8A31241E2E02274F21210D91244AC7043
:1040D800030241A11241DDA3E0F50B12032FE960B1
:1040E800137A0A7B001202C98A088B09AE08AF0945
:1040F8007A0B802A120329E960137A067B001202E0
:10410800C98A088B09AE08AF097A0780117A087B3B
:10411800001202C98A088B09AE08AF097A097B0028
:104128001202C98A088B099002E5E07005750A0039
:104138008003750A019002F9E02404FAA3E0340030
:10414800FB123EA2A3A3E0F91202D5E9F91243F249
:10415800C8240B1241A81212F01243F2C8240A1202
:1041680041A81212F09002F9E02404F50CA3E034FF
:1041780000F50D780C1212ECE9F50C780C1212F01F
:10418800780A1212F0A90BAC08AD09EEFAEFFB128F
:104198000341740612107F800279017F060211AB79
:1041A800F582E438F583E0F50C780C2274F71210E8
:1041B800D91244AA601AEE700C1241DD7401F0F9AC
:1041C800120353E9FEEE6004F912031D790180021F
:1041D80079000240501241E2A322E0F5838882224E
:1041E80074F01210D91244AA70030242C91241DDB8
:1041F800E0640160030242A2120329E960557A01D2
:104208007B001202C98A088B09E4F50AF50BC3EA98
:104218009442EB9400402B9080C41212FF7A027BE8
:1042280000900301E0F91206DD740412107FE5081E
:1042380024C4F8E50934FFF99002FFE8F0A3E9F097
:1042480080419080C0780C120F6E7808790C120D9E
:104258007A80107A007B001202C98A088B09E4F57B
:104268000AF50BE5084509450A450B60167808125A
:1042780012E87A027B00900301E0F91206D7740471
:1042880012107F123EA27402F09002E8E07007EE6E
:10429800F912031D8027E4F080239002E8E0701DE6
:1042A8007A037B001205E1EA4B600F1242D07404D6
:1042B800F09002F91244301205ED120323790180BF
:1042C8000279007F080211AB8A828B8374D0F0EEEA
:1042D800A3F08A828B83A3A32274F61210D9E9FE75
:1042E800EAFF900912E0F4602A7A047B001205E1E3
:1042F800EA4B601F8A828B8374D0F0EF1242D87425
:1043080002F0EE8A828B83A3A3A3F0900912E0F94E
:104318001205ED0243E474F41210D9E9FE74016E3B
:1043280060030243BA9002FF1244AF60069002E8AD
:10433800E060121244AC70030243DD1240CAF91265
:1043480002ED0243DD9002FFC3E0943CA3E0940039
:10435800400D9002FFE024C4F0A3E034FF80507ABF
:10436800027B00900301E0F91206E39002FFE0F5FA
:1043780008A3E0F509E50875F0E8A4C508A8F075F4
:10438800F003A428F875F0E8E509A428F509E4F590
:104398000AF50B78081212E87A027B00900301E014
:1043A800F91206D7740412107F9002FFE4F0A3F00C
:1043B80080231244AC601E9002E4E0A2E250167A18
:1043C800027B00900301E0F91206E39002FFE4F09B
:1043D800A3F012032380007F040211AB7F020211B5
:1043E800AB9002FBE0FAA3E0FB229002F9E0F8A30D
:1043F800E02274F61210D91244AA60207A037B00D6
:104408001205E1EA4B600F1242D07403F09002F9F2
:104418001244301205EDEE60031203230243E48ACE
:10442800828B83A3A3A3A3A3E0F8A31241E2E0F93C
:1044380022C082C0831244AC60109002F91243EC8F
:1044480012065F9002F9E4F0A3F0023FA774F61297
:1044580010D974FF1210699002FB1244AF603990B2
:1044680002FBE02401F508A3E03400F509780812FE
:1044780012EC1240C4FC74021210C779011202E156
:10448800740212107F8A828B83E58245836009E07B
:10449800A2E05004790180027900740112107F02B1
:1044A80043E4E9FE9002F91243F5F9E8492274F46D
:1044B8001210D974FC1210697E0090086EE4F09016
:1044C800086BF07F7D75080475090078081212ECF6
:1044D80074021210CF7A007B00EF12493B12107F52
:1044E8009080C87808120F6E851A82851B83780819
:1044F80012076D701990086BE0600FF9120695EFBE
:10450800F912069590086BE48001EFF08018851A7F
:1045180082851B83120F98E8494A4B7004EFFE808E
:1045280005EFF91206950FEFC3947F409890086B3A
:10453800E07026EE7018797D12068990086C740474
:10454800F0A3E4F090086EE0601979008017F0128B
:10455800069BEEF91206A7800AEE6004F912068F90
:1045680012069B790102460874F71210D974FC12DE
:104578001069E9FE851A82851B83E4F0A3F0A37411
:1045880010F0A3E4F0AC1AAD1BFAFB1206B39008C6
:104598006EE07005EE90086BF0740412107F7F01D6
:1045A8000211ABD083D08202013274F41210D97494
:1045B800FF121069890890086EE070301205877E36
:1045C800007F00750A01750B00780A1212EC74025C
:1045D8001210CFEEFAEFFBA90812493C12107F85A2
:1045E8001A82851B83E0F4600890086E7401F080DD
:1045F8000B0EEE70010FC3EF940840C774018002E0
:10460800740412107F7F040211AB74F41210D97471
:10461800FF12106989087E007F00750A01750B007A
:10462800780A1212EC74021210CFEEFAEFFBA90806
:1046380012493C12107F851A82851B83E0F46007BB
:10464800A90812068F800B0EEE70010FC3EF9408B5
:1046580040C880A874F41210D974FC1210697EFC4A
:104668007F0775080475090078081212EC740212A5
:1046780010CF12493312107F9080CC7808120F6E39
:10468800851A82851B83780812076D700AEE24FC50
:10469800FEEF12473150CBEE2404F8E43FF99008BE
:1046A8006CE8F0A3E9F002460874F41210D974FC1F
:1046B80012106989098C08EA24FCFEEB8005EE24B7
:1046C800FCFEEF124731405A750A04750B00780A50
:1046D8001212EC74021210CFEEFAEFFBA90912497C
:1046E8003C12107F74021210B51248AC851A8285EC
:1046F8001B83AA08E06A7002A3E0700AEEC398FA66
:10470800EF9400FB8020E9548070B3E82404FAE4B5
:1047180039FBC3EE9AEF9B4009C3EE98FEEF99FF71
:10472800809C7A007B0002460834FFFFC3EE9404A5
:10473800EF94002274EA1210D974F81210698910E3
:10474800750DFF747D697005750C7E8003750C7D91
:10475800750A04750B0090086CE024FCFEA3E002C7
:104768004833851A82851B83A3E05480600302487E
:104778001F851A82851B83A80DE0687002A3E0706C
:104788000302481F851A82851B83E0F50DFCAA0ADF
:10479800AB0BA90C1206A1EA4B707C74021210B57F
:1047A8001248ACEEC398F508EF99F50988148915F5
:1047B800750E00750F007512047513007812121229
:1047C800EC74061210CFE508250EFAE509350F122C
:1047D800493612107F74041210CFE50A250EFAE547
:1047E8000B350FFBA90C1206B3E50E2404F50EE4F5
:1047F800350FF50FC3E514950EE515950F50B774F1
:10480800021210B5E02404F8A3E03400F9E50A2800
:10481800F50AE50B39F50B74021210B51248ACC352
:10482800EE98FEEF99FFEE24FCFEEF124731405060
:1048380090086EE070647508047509007808121213
:10484800EC74021210CFEEFAEFFBA91012493C12D9
:10485800107F851A82851B83E0F47003A3E0F4605F
:104868000302476A74021210B51248AC548070B63D
:10487800E82404F8500109C3EE98EF995099801A7A
:10488800A90C12068990086EE0700A90086CE50A77
:10489800F0A3E50BF0A91012068F740812107F7FA1
:1048A8000E0211ABE0F8A3E0F92274F01210D974EB
:1048B800FC121069890B8A088B09ECFEEDFF741451
:1048C8001210B5E0F50A8012E5082404F508E4356D
:1048D80009F509EE2404FE50010F850A0C74FF2522
:1048E8000CF50A04603B750E04750F00780E121261
:1048F800EC74021210CFAA08AB09A90B12493C129A
:10490800107F780E1212ECEEFCEFFD74021210C745
:104918001205D5740212107FE970AD90086E74010B
:10492800F0740412107F7F080211ABEEFAEFFB90CF
:10493800086BE0F912057B74022274F01210D98911
:104948000C8A088B09ECFEEDFF90086EE0704F753D
:104958000A01750B00780A1212EC8A0A8B0B740292
:10496800780A121047E9F50E750F007409780E12CF
:104978001056E50A2400FAE50B350FFB1205817481
:104988000212107F750A01780A1212F0EEFCEFFD90
:10499800AA08AB09A90C1206AD740112107F808613
:1049A800C082C083120683E970047901800279000D
:1049B8000245AB74F71210D974091210B5E0F8A3C8
:1049C800E0F9801C8C828D83E08A828B83F08C8254
:1049D8008D83A3AC82AD838A828B83A3AA82AB83A7
:1049E800E8FEE9FFEE24FF18EF34FFF9EE4F70D42C
:1049F800024AF3EFFB7F060211AB74F51210D9ECF3
:104A0800F8EDF9740B1210B5124C41AC08AD09EC75
:104A180024FFF508ED34FFF509EC4D602CEAFCEBBA
:104A2800FD8C82F583A3AA82AB83E8FEE9FF8E8220
:104A3800F583A3A882A9838C828D83E0FC8E828F64
:104A480083E06C60C67900800279017F030211ABB4
:104A580074F61210D98C088D0978081212ECE9FC4A
:104A68007D00120767740212107F024C3474F6122C
:104A780010D9EAFEEBFFEA4F6031EA2405FAE43F79
:104A8800FB1206598B09A909EA49601F8A828B83A0
:104A9800E4F0A3124C2EA3A3124C2AA3A3A3A3743D
:104AA800FFF0EA2405FAE439FB80047A007B00026F
:104AB8004C34C082C083EA4B700479058016124BCF
:104AC8005B60047904800DEA24FBFAEB34FFFB12E7
:104AD800065F7900D083D08202013274F71210D9B0
:104AE8007C001205F38004A2E092AF7F010211ABB3
:104AF80074F71210D9E9FEECFFEA4B60269080D4D7
:104B0800E0F8E9C39840071205E779038043EA24EF
:104B1800FBF582EB34FF124CE17005124B5B60072A
:104B28001205E77905802AEEF074016F700DEAFC32
:104B3800EBFD7A157B04120605800BEAFCEBFD7A87
:104B4800157B041205FF7A007B80EEF912061179B5
:104B5800008098EA24FFF582EB34FFF583E0F42225
:104B680074F21210D9750C00750D007E007F00A23A
:104B7800AFE433F50AC2AF9004158015EE4F700606
:104B880085080C85090DE50824FBF582E509124C1A
:104B9800DC124C41E50845096022E50824FFF5824E
:104BA800E509124CDCE06970D3EE4F7006AE08AF31
:104BB8000980D37A007B80120611800B7A007B80F3
:104BC800120617EE4F6015780C1212ECEEFCEFFD92
:104BD8007A157B0412060B740212107FE50AA2E014
:104BE80092AFEEFA0249FBE0FAA3E0FB2274F71257
:104BF80010D9A2AFE433FEC2AF124CD6E4F0A31230
:104C08004C2E800C124C39F9E8FAE9FB8882F583BE
:104C1800124CE370EF8A828B83ECF0A3EDF0EE0286
:104C28004AEFEEF0A3EFF08A828B83227F02021113
:104C3800ABE824FBF8E934FF22E0F508A3E0F50926
:104C48002274F71210D9A8A8C2AF8A828B83E0FE1B
:104C5800A3E0FF124CD6124C2AECF0A3EDF0E8A228
:104C6800E7024AF174F51210D9A2AFE433F50AC28B
:104C7800AFEC24FBF8ED34FFF9E8FEE9FF8882F594
:104C880083E0F8A3E0F98A828B83124C41EC650833
:104C98007003ED650970068A828B838012740B128B
:104CA80010B5E0FAA3E0CA24FBF582EA124CDCE86E
:104CB800F0A3E9F08E828F83E4F0A3F0EC24FF12D6
:104CC8004CD974FFF0E50AA2E092AF024A53EC24F3
:104CD800FBF582ED34FFF58322F583E0F8A3E0F9D4
:104CE800E8492274F71210D99080D4E0F8E9C39803
:104CF8005027ACA8C2AFE929F8E433F9900869E075
:104D080028FDA3E0398D82F583E04AF0A3E04BF05B
:104D1800ECA2E792AF790080027903024AF374F7B4
:104D28001210D99080D4E0F8E9C3985021AEA8C2F7
:104D3800AFEAF4FCEBF4FDE929124E33F583E05CAD
:104D4800F0A3E05DF0EEA2E792AF7900800279036C
:104D5800024AF3E9F874FF687006C2AF790080026E
:104D68007907020132C082C08312064D900415E40F
:104D7800F0A3F01206BF12066512067D12065379DB
:104D880000024ADCC082C08312062F80FB74F61230
:104D980010D9750800120647120575A808E82812E8
:104DA8004E33124CE1700D05089080D4E0F8E50808
:104DB800C39840E79080D4E0F8E508C3985066AC03
:104DC800A8C2AFAE08EE2EFEE433FF900869E02ECD
:104DD800F8A3E03FF98882F583124BEF8882898334
:104DE800E4F0A3F0ECA2E792AFE508900933F0F9FC
:104DF80074002EF58274803FF583124E431210D74B
:104E080090093374FFF0A8A8C2AF900869E02EF9A2
:104E1800A3E03F8982F583E04AF0A3E04BF0E8A2E3
:104E2800E792AF8003120677024C34F8E433F99026
:104E38000869E028FAA3E0398A8222E0F8A3E0F5BD
:104E480083888222C082C083900871124E5AF00271
:104E58004F58E4F0A3F0A3F0A32274F01210D989FC
:104E680008EAFEEBFF1206CB74101210B5780C128C
:104E78000F6EEA4B600D8A828B83A3A3780C120F06
:104E88007D80677A0D7B00120659EA4B60588A824A
:104E98008B83A3A3A3A3A3A3A3A3E508124EF7EEB2
:104EA800F0A3EFF08A828B83A3A3780C120F7D8A7C
:104EB800828B83E4F0A3124EF7A3A3A3124E5BF0F8
:104EC80012523B90086F6017E0FCA3E08003E8FCF7
:104ED800E9FD8C828D8312523E70F38C828D83EAB9
:104EE800F0A3EBF080047A007B007F080211ABF09E
:104EF8008A828B83A3A3A3A3A3A322C082C0839087
:104F0800086F80048C828D83E0FCA3E0FDEC4D608B
:104F1800238C828D83A3A3A3A3A3A3E06A7003A316
:104F2800E06B70E08C828D83A3A3A3A3A3A3A3A3A8
:104F3800E06970D0ECFAEDFB8016C082C083EA4BC2
:104F4800600E8A828B83A3A3A3A3A3A3E4F0A3F098
:104F5800D083D08202013274F61210D9AEA8C2AF43
:104F6800740A1210B51212FF1206C5740412107FCB
:104F78008B09A909EEA2E792AFEA4960047900809B
:104F88000279087F020211AB74F21210D9A2AFE4C1
:104F980033FEC2AF740E1210B57808120F6E78087F
:104FA8001212E81206C5740412107FEA4B60128AC6
:104FB800828B83A3A3A3A3A3A3A3A3A37808120FFD
:104FC8007DEEA2E092AFEA4B600479008002790896
:104FD8007F060211AB74F41210D9A2AFE433F508BE
:104FE800C2AF1206CB8A0A8B0BAF0BEA4F600312D3
:104FF80006D1E508A2E092AFE50A4F600479008087
:105008000279067F040211AB74F21210D9750800F8
:10501800750900750A00750B00A2AFE433FEC2AF34
:105028001206CB8A828B83E58245836007A3A37827
:1050380008120F6EEEA2E092AFAA08AB09AC0AAD57
:105048000B808D74EB1210D974FC121069851A82CA
:10505800851B83EAF0A3EBF0A3ECF0A3EDF0A9A87D
:10506800C2AF851A82851B837808120F6E9008716B
:105078007808120EF5E9A2E792AF12523B700302CC
:10508800523190086FE0FEA3E0FF75100075110023
:10509800750A00750B00A2AFE433F514C2AFEE2415
:1050A80002F508E43FF50974021210B512523E7079
:1050B8002074011210B5E07018851A82851B83E0F0
:1050C800F8850882850983E0C3984005E0C3988085
:1050D80039850882850983780C120F6E851A8285B6
:1050E8001B83780C1207925018851A82851B8378C7
:1050F8000C120F6E850882850983780C120F348094
:105108000A850882850983124E5AF0EE2406F512A4
:10511800E43FF513EE2404F50EE43FF50F8508820D
:1051280085098312523E7054850E82850F83125270
:105138003E7054EE2409F50CE43FF50D850C82F51C
:1051480083120F98E8494A4B60538512828513836E
:10515800E0FAA3E0FBEA4B60448E828F83A3A3A30B
:10516800A3A3A3A3A3E0F9120611850C82850D83DE
:10517800120F98850882850983120FA485088285F5
:10518800098312523E700B850E82850F8312523EA0
:10519800600B85128285138312523E70258E828F92
:1051A80083E0F8A3E0F9E5104511700590086F80D9
:1051B80006851082851183E8F0A3E9F08E0A8F0B2B
:1051C80080048E108F118E828F83E0FEA3E0FFE5AE
:1051D80014A2E092AFE50A450B6047850A82850B69
:1051E80083A3A312523E7033850A82850B83A3A33F
:1051F800A3A312523E7024850A82850B83A3A3A31E
:10520800A3A3A3E0FAA3E0FB850A82850B83A3A3EB
:10521800A3A3A3A3A3A3E0F9120611AA0AAB0B1236
:10522800065FEE4F6003025098740412107F7F0DE2
:105238000211AB90086FE0F8A3E0F9E8492274F096
:105248001210D912523B604790086FE0FAA3E0FBB6
:1052580075088E7509C2750AF5750B288A828B83C5
:10526800A3A3780C120F6E7808790C120782500CE1
:10527800850C08850D09850E0A850F0B8A828B839C
:10528800E0F8A3E0F9E8FAE9FBE84B600E80CD7599
:105298000800750900750A00750B00AA08AB09AC6F
:1052A8000AAD0B024EF2A2AFE433F8C2AF5394FE3C
:1052B800E594A2E240FAE8A2E092AF75A70075A1D2
:1052C80000759CFF75C30075A20075A30075A40046
:1052D80075A50075A60075C31175A20075A30075A4
:1052E800A40075A50075A60075C33375A20075A343
:1052F8000075A40075A50075A60075C34475A200C5
:1053080075A30075A40075A50075A60075C3227560
:10531800A22075A34E75A40075A50075A600759406
:1053280008A2AFE433F8C2AF439401E594A2E25077
:10533800FAE8A2E092AF439402020132A2AFE4334A
:10534800F8C2AF5394FEE594A2E240FAE8A2E00264
:105358005562A2AFE433F8C2AF439401E594A2E2E8
:1053680050FA80E8E9A2E7E433F8E9A2E792AF80CF
:105378002575C303851A82851B83E0F5A274012273
:10538800E9A2E7E433F8E9A2E792AF851A82851B20
:1053980083E0FAA3E0FB74020254BFF59CE9A2E79C
:1053A800E433F8E9A2E792AF0254BDC082C0837427
:1053B800FC12106912547A75C33312546E1210B568
:1053C8001253E91210B5E0F5A674041210B5E0F511
:1053D800A274051210B5E0F5A375A1BF43A74080DC
:1053E800BCE0F5A5740222125526A9A8C2AF22C0B6
:1053F80082C08374FE12106912541A75A1FD1253EB
:10540800791210B5E0F5A3E59C54F04401F59C022F
:10541800536C12542153A7FD22851A82851B83EAF7
:10542800F0A3EBF0A9A8C2AF22C082C08374FC121B
:10543800106912547A75A1BF439C0F75C333125477
:105448006E1210B51253E91210B5E0F5A6740412E5
:1054580010B5E0F5A274051210B5E0F5A3E59C546B
:10546800F044080253A3851A82851B83E0F5A474CF
:1054780001221253EF53A7BF22E5A4851A82851B88
:1054880083F0E5A5C0E074011210B5D0E0F0E5A600
:10549800C0E074021210B5D0E0F074031210B5E445
:1054A800F0E9A2E7E433F8E9A2E792AF851A82852A
:1054B8001B83120F8C740412107FD083D0820201D8
:1054C8003274F41210D974FC121069125526A2AF66
:1054D800E433F9C2AF53A7DF75A1DF9080CC780819
:1054E800120F6E851A82851B83780812076D700566
:1054F800439CF0801A75C34012546E1210B51253B3
:10550800E91210B5E0F5A6E59C540F4450F59CE966
:10551800A2E092AF740412107F7F040211AB851AC7
:1055280082851B83EAF0A3EBF0A3ECF0A3EDF02255
:10553800A9A8C2AF53A7098015A9A8C2AF53A70944
:10554800759CFF8009A9A8C2AF439C0F800375A171
:1055580009E9A2E7E433F8E9A2E792AF020132A32E
:10556800A3A3E4F0E8A2E7E433F9E8A2E792AF02E4
:1055780054C2C082C08374FC121069A9A8C2AF7556
:10558800C300E5A2025481C082C083A8A8C2AF7537
:10559800C300E5A28A828B83A3A3A3A3F0E5958C1D
:1055A800828D83F0E5A38A828B83A3A3A3A31255DC
:1055B800D6A3A3A3E4F0E5968C828D83A3F0E597A8
:1055C8008C828D83A3A3F08C828D83025567A3F010
:1055D800E5A48A828B83F0E5A5A3F0E5A68A828BF1
:1055E80083A3A3F08A828B8322C082C08374FC12B7
:1055F8001069A9A8C2AFE595851A82851B83F0E5D5
:1056080096C0E074011210B5D0E0F0E59702549806
:10561800C082C08374FE121069A9A8C2AFA8C3755E
:10562800C300E5A2E5A4851A82851B83F0E5A5C021
:10563800E074011210B5D0E0F088C302538874F208
:105648001210D98909ECFEEDFF750800E9F50A7515
:105658000B008A0C8B0D780C121330020308CF57FD
:105668007A56D456EF56285758576E5784579D5731
:10567800B35774016960030257CA9008A0E0F88C18
:10568800828D83E09008A0F0E8601CE06003025778
:10569800F19002B0E0640260030257F19002AFE0BB
:1056A800F91202ED0257F1E070030257F19002B0CF
:1056B800E064016008E0640360030257F17A017B4B
:1056C800009002AFE0F91206110257F17402696006
:1056D800030257CA8C828D83E0F8A3E0F99008A1F1
:1056E800E8F0A3E90257C7E9C3942040030257CA68
:1056F8007C1F7D0079007AA47B081205DB780A12EA
:1057080012ECEEFCEFFD7AA47B0812592612107FEA
:10571800E5099008A3F07CA47D081257F80257E920
:10572800E9C3942040030257CA7C1F7D0079007AA0
:10573800B97B021205DB780A1212ECEEFCEFFD7A57
:10574800B97B0212592612107FE5099002B8806FC2
:10575800740169706D8C828D83E0F8C39405506282
:10576800E89002D8805974016970578C828D83E063
:10577800F8C39404504CE89002D9804374066970C9
:1057880041750A06780A1212EC7ADA7B0212592657
:1057980012107F805474016970288C828D83E0F820
:1057A800C39408501DE89002E080147401697012D7
:1057B8008C828D83E0F8C394045007E89002E1F0EE
:1057C80080277508188022C3EA9427EB94005016A6
:1057D80074026970118C828D83E0FCA3E0FD1202D3
:1057E800C3E9F5088003750802A9087F060211AB12
:1057F800FB7A019002AFE0F91202E72274F412106A
:10580800D9ECFEEDFF7508008A0A8B0B780A121393
:105818003000030AB358345839584A584F58615819
:1058280070587F5884588958A458A9589002B18054
:1058380073750A06750B00780A1212EC7CB27D02A9
:10584800804E9008A0805D9008A1E0F8A3E0F98C54
:10585800828D83E8F0A3E980669008A31258D412D9
:1058680012EC7CA47D0880289002B81258D4121239
:10587800EC7CB97D0280199002D880289002D980EA
:1058880023750A06750B00780A1212EC7CDA7D0281
:10589800EEFAEFFB12592612107F80299002E08061
:1058A800039002E1E08C828D838014C3EA9427EB95
:1058B8009400500E1202C98E828F83EAF0A3EBF097
:1058C8008003750802A9087F040211ABE0F50A7588
:1058D8000B00780A2274F61210D99002B0E07037E3
:1058E800EA4B60089002E2EAF0A3EBF0E4F508F571
:1058F8000978081212EC78081212EC7C007D007B03
:10590800009002B1E0FA9002AFE0F9120539740490
:1059180012107F7900800279117F020211AB120503
:10592800CF74022274EE1210D98A088B09890B8C65
:105938000E8D0F9003E5E070099003E7E070030215
:1059480059F9900304E060030259F9890C750D00B8
:10595800E92407FAE43400FB1205E18A108B11AE42
:1059680010AF11EE4F7003025A0A741865087004DC
:1059780074206509600C7417650870047420650943
:1059880070109003E7E0600AF50A8E828F837492A4
:10599800800C9003E5E0F50A8E828F837491F0A362
:1059A800740E125BBB7401125BC3E508F0A3E50932
:1059B800F0EE2405F8E43FF9E8FAE9FBEE2407F8ED
:1059C800E43FF98A828B83E8F0A3E9F0780C12129D
:1059D800ECAC0EAD0F8A828B83E0FAA3E0FB1205D4
:1059E800CF740212107FEEFAEFFBA90A1205ED80C0
:1059F80011780E1212ECAC0B790E120377740212A6
:105A0800107F7F0A0211AB74F21210D989098A0A31
:105A18008B0B8C0874072CFA74FF650960047803F3
:105A280080027802E82AFA7B001205E18A0C8B0DC5
:105A3800AE0CAF0DEE4F7003025B2A8E828F83741B
:105A480001F0A374FFF0EE2402FAE43FFBEE240415
:105A5800F8E43F125B2FE509125B95E02402F8A3F6
:105A6800E03400F9890DE50BF9740E1210B5125BDC
:105A78005A74FF6509602E740325088882850D8392
:105A8800125B95125B60125BA5E50AF0125BB2E946
:105A9800F085080A750B00780A1212EC8A828B834B
:105AA800E024068063740225088882850D83F08CC3
:105AB800828D83E0C0E08A828B83125B4BD0E0F05A
:105AC8008C828D83A3E0C0E0125BA5D0E0F08C82CD
:105AD8008D83A3A3E0C0E0125BB2D0E0125B951205
:105AE8005B87125B93125B7BE9F0E50824FDF50AFE
:105AF800E434FFF50B780A1212ECEC2403FC500195
:105B08000D8A828B83E02408FAA3E03400FB120597
:105B1800CF740212107FEEFAEFFB9003E3E0F91264
:105B280005ED7F060211ABF98A828B83E8F0A3E9C1
:105B3800125B99125B678A828B83125B4622125B27
